{
  "_format": "hh-sol-artifact-1",
  "contractName": "ProjectStudents",
  "sourceName": "contracts/ProjectStudents.sol",
  "abi": [
    {
      "inputs": [],
      "stateMutability": "nonpayable",
      "type": "constructor"
    },
    {
      "anonymous": false,
      "inputs": [
        {
          "indexed": false,
          "internalType": "address",
          "name": "studentAddress",
          "type": "address"
        },
        {
          "indexed": false,
          "internalType": "uint8",
          "name": "grade",
          "type": "uint8"
        }
      ],
      "name": "GradeAssigned",
      "type": "event"
    },
    {
      "anonymous": false,
      "inputs": [
        {
          "indexed": false,
          "internalType": "address",
          "name": "studentAddress",
          "type": "address"
        },
        {
          "indexed": false,
          "internalType": "string",
          "name": "name",
          "type": "string"
        },
        {
          "indexed": false,
          "internalType": "uint256",
          "name": "id",
          "type": "uint256"
        }
      ],
      "name": "StudentAdded",
      "type": "event"
    },
    {
      "inputs": [
        {
          "internalType": "address",
          "name": "studentAddress",
          "type": "address"
        },
        {
          "internalType": "uint256",
          "name": "id",
          "type": "uint256"
        },
        {
          "internalType": "string",
          "name": "name",
          "type": "string"
        }
      ],
      "name": "addStudent",
      "outputs": [],
      "stateMutability": "nonpayable",
      "type": "function"
    },
    {
      "inputs": [
        {
          "internalType": "address",
          "name": "studentAddress",
          "type": "address"
        },
        {
          "internalType": "uint8",
          "name": "grade",
          "type": "uint8"
        }
      ],
      "name": "assignGrade",
      "outputs": [],
      "stateMutability": "nonpayable",
      "type": "function"
    },
    {
      "inputs": [],
      "name": "getStudentGrade",
      "outputs": [
        {
          "internalType": "uint8",
          "name": "",
          "type": "uint8"
        }
      ],
      "stateMutability": "view",
      "type": "function"
    },
    {
      "inputs": [],
      "name": "professor",
      "outputs": [
        {
          "internalType": "address",
          "name": "",
          "type": "address"
        }
      ],
      "stateMutability": "view",
      "type": "function"
    },
    {
      "inputs": [
        {
          "internalType": "address",
          "name": "",
          "type": "address"
        }
      ],
      "name": "students",
      "outputs": [
        {
          "internalType": "uint256",
          "name": "id",
          "type": "uint256"
        },
        {
          "internalType": "string",
          "name": "name",
          "type": "string"
        },
        {
          "internalType": "uint8",
          "name": "grade",
          "type": "uint8"
        },
        {
          "internalType": "bool",
          "name": "isRegistered",
          "type": "bool"
        }
      ],
      "stateMutability": "view",
      "type": "function"
    }
  ],
  "bytecode": "0x6080604052348015600f57600080fd5b50336000806101000a81548173ffffffffffffffffffffffffffffffffffffffff021916908373ffffffffffffffffffffffffffffffffffffffff1602179055506110a58061005f6000396000f3fe608060405234801561001057600080fd5b50600436106100575760003560e01c80635113940d1461005c57806360e5f3bb1461007a578063a492c62214610096578063a6c807a9146100b4578063caee39b3146100e7575b600080fd5b610064610103565b6040516100719190610749565b60405180910390f35b610094600480360381019061008f9190610920565b610127565b005b61009e610350565b6040516100ab91906109ab565b60405180910390f35b6100ce60048036038101906100c991906109c6565b610438565b6040516100de9493929190610a9c565b60405180910390f35b61010160048036038101906100fc9190610b14565b61050a565b005b60008054906101000a900473ffffffffffffffffffffffffffffffffffffffff1681565b60008054906101000a900473ffffffffffffffffffffffffffffffffffffffff1673ffffffffffffffffffffffffffffffffffffffff163373ffffffffffffffffffffffffffffffffffffffff16146101b5576040517f08c379a00000000000000000000000000000000000000000000000000000000081526004016101ac90610bc6565b60405180910390fd5b600160008473ffffffffffffffffffffffffffffffffffffffff1673ffffffffffffffffffffffffffffffffffffffff16815260200190815260200160002060020160019054906101000a900460ff1615610245576040517f08c379a000000000000000000000000000000000000000000000000000000000815260040161023c90610c32565b60405180910390fd5b6040518060800160405280838152602001828152602001600060ff16815260200160011515815250600160008573ffffffffffffffffffffffffffffffffffffffff1673ffffffffffffffffffffffffffffffffffffffff1681526020019081526020016000206000820151816000015560208201518160010190816102cb9190610e5e565b5060408201518160020160006101000a81548160ff021916908360ff16021790555060608201518160020160016101000a81548160ff0219169083151502179055509050507fac4a9513a5c8018262c0b02f41b831ce95aeefa4b387b7c565885fb0d0012d8683828460405161034393929190610f30565b60405180910390a1505050565b600033600160008273ffffffffffffffffffffffffffffffffffffffff1673ffffffffffffffffffffffffffffffffffffffff16815260200190815260200160002060020160019054906101000a900460ff166103e2576040517f08c379a00000000000000000000000000000000000000000000000000000000081526004016103d990610fba565b60405180910390fd5b600160003373ffffffffffffffffffffffffffffffffffffffff1673ffffffffffffffffffffffffffffffffffffffff16815260200190815260200160002060020160009054906101000a900460ff1691505090565b600160205280600052604060002060009150905080600001549080600101805461046190610c81565b80601f016020809104026020016040519081016040528092919081815260200182805461048d90610c81565b80156104da5780601f106104af576101008083540402835291602001916104da565b820191906000526020600020905b8154815290600101906020018083116104bd57829003601f168201915b5050505050908060020160009054906101000a900460ff16908060020160019054906101000a900460ff16905084565b60008054906101000a900473ffffffffffffffffffffffffffffffffffffffff1673ffffffffffffffffffffffffffffffffffffffff163373ffffffffffffffffffffffffffffffffffffffff1614610598576040517f08c379a000000000000000000000000000000000000000000000000000000000815260040161058f90610bc6565b60405180910390fd5b81600160008273ffffffffffffffffffffffffffffffffffffffff1673ffffffffffffffffffffffffffffffffffffffff16815260200190815260200160002060020160019054906101000a900460ff16610628576040517f08c379a000000000000000000000000000000000000000000000000000000000815260040161061f90610fba565b60405180910390fd5b60c88260ff16111561066f576040517f08c379a000000000000000000000000000000000000000000000000000000000815260040161066690611026565b60405180910390fd5b81600160008573ffffffffffffffffffffffffffffffffffffffff1673ffffffffffffffffffffffffffffffffffffffff16815260200190815260200160002060020160006101000a81548160ff021916908360ff1602179055507f4f49fa73b682ae415e17864d09fa3b3b3f0ebe3465ffd140edd463b6e74faea983836040516106fb929190611046565b60405180910390a1505050565b600073ffffffffffffffffffffffffffffffffffffffff82169050919050565b600061073382610708565b9050919050565b61074381610728565b82525050565b600060208201905061075e600083018461073a565b92915050565b6000604051905090565b600080fd5b600080fd5b61078181610728565b811461078c57600080fd5b50565b60008135905061079e81610778565b92915050565b6000819050919050565b6107b7816107a4565b81146107c257600080fd5b50565b6000813590506107d4816107ae565b92915050565b600080fd5b600080fd5b6000601f19601f8301169050919050565b7f4e487b7100000000000000000000000000000000000000000000000000000000600052604160045260246000fd5b61082d826107e4565b810181811067ffffffffffffffff8211171561084c5761084b6107f5565b5b80604052505050565b600061085f610764565b905061086b8282610824565b919050565b600067ffffffffffffffff82111561088b5761088a6107f5565b5b610894826107e4565b9050602081019050919050565b82818337600083830152505050565b60006108c36108be84610870565b610855565b9050828152602081018484840111156108df576108de6107df565b5b6108ea8482856108a1565b509392505050565b600082601f830112610907576109066107da565b5b81356109178482602086016108b0565b91505092915050565b6000806000606084860312156109395761093861076e565b5b60006109478682870161078f565b9350506020610958868287016107c5565b925050604084013567ffffffffffffffff81111561097957610978610773565b5b610985868287016108f2565b9150509250925092565b600060ff82169050919050565b6109a58161098f565b82525050565b60006020820190506109c0600083018461099c565b92915050565b6000602082840312156109dc576109db61076e565b5b60006109ea8482850161078f565b91505092915050565b6109fc816107a4565b82525050565b600081519050919050565b600082825260208201905092915050565b60005b83811015610a3c578082015181840152602081019050610a21565b60008484015250505050565b6000610a5382610a02565b610a5d8185610a0d565b9350610a6d818560208601610a1e565b610a76816107e4565b840191505092915050565b60008115159050919050565b610a9681610a81565b82525050565b6000608082019050610ab160008301876109f3565b8181036020830152610ac38186610a48565b9050610ad2604083018561099c565b610adf6060830184610a8d565b95945050505050565b610af18161098f565b8114610afc57600080fd5b50565b600081359050610b0e81610ae8565b92915050565b60008060408385031215610b2b57610b2a61076e565b5b6000610b398582860161078f565b9250506020610b4a85828601610aff565b9150509250929050565b7f4f6e6c79207468652070726f666573736f722063616e20706572666f726d207460008201527f68697320616374696f6e00000000000000000000000000000000000000000000602082015250565b6000610bb0602a83610a0d565b9150610bbb82610b54565b604082019050919050565b60006020820190508181036000830152610bdf81610ba3565b9050919050565b7f53747564656e7420616c72656164792072656769737465726564000000000000600082015250565b6000610c1c601a83610a0d565b9150610c2782610be6565b602082019050919050565b60006020820190508181036000830152610c4b81610c0f565b9050919050565b7f4e487b7100000000000000000000000000000000000000000000000000000000600052602260045260246000fd5b60006002820490506001821680610c9957607f821691505b602082108103610cac57610cab610c52565b5b50919050565b60008190508160005260206000209050919050565b60006020601f8301049050919050565b600082821b905092915050565b600060088302610d147fffffffffffffffffffffffffffffffffffffffffffffffffffffffffffffffff82610cd7565b610d1e8683610cd7565b95508019841693508086168417925050509392505050565b6000819050919050565b6000610d5b610d56610d51846107a4565b610d36565b6107a4565b9050919050565b6000819050919050565b610d7583610d40565b610d89610d8182610d62565b848454610ce4565b825550505050565b600090565b610d9e610d91565b610da9818484610d6c565b505050565b5b81811015610dcd57610dc2600082610d96565b600181019050610daf565b5050565b601f821115610e1257610de381610cb2565b610dec84610cc7565b81016020851015610dfb578190505b610e0f610e0785610cc7565b830182610dae565b50505b505050565b600082821c905092915050565b6000610e3560001984600802610e17565b1980831691505092915050565b6000610e4e8383610e24565b9150826002028217905092915050565b610e6782610a02565b67ffffffffffffffff811115610e8057610e7f6107f5565b5b610e8a8254610c81565b610e95828285610dd1565b600060209050601f831160018114610ec85760008415610eb6578287015190505b610ec08582610e42565b865550610f28565b601f198416610ed686610cb2565b60005b82811015610efe57848901518255600182019150602085019450602081019050610ed9565b86831015610f1b5784890151610f17601f891682610e24565b8355505b6001600288020188555050505b505050505050565b6000606082019050610f45600083018661073a565b8181036020830152610f578185610a48565b9050610f6660408301846109f3565b949350505050565b7f53747564656e74206e6f74207265676973746572656400000000000000000000600082015250565b6000610fa4601683610a0d565b9150610faf82610f6e565b602082019050919050565b60006020820190508181036000830152610fd381610f97565b9050919050565b7f4772616465206d757374206265206265747765656e203020616e642032303000600082015250565b6000611010601f83610a0d565b915061101b82610fda565b602082019050919050565b6000602082019050818103600083015261103f81611003565b9050919050565b600060408201905061105b600083018561073a565b611068602083018461099c565b939250505056fea264697066735822122042b5b6c058e20484f0e4e4b72d83658f032a0fba37313017f92bbc1ef639af9a64736f6c634300081c0033",
  "linkReferences": {},
  "deployedLinkReferences": {}
}