{
  "_format": "hh-sol-artifact-1",
  "contractName": "LibraryManagement",
  "sourceName": "contracts/LibraryManagement.sol",
  "abi": [
    {
      "inputs": [
        {
          "internalType": "string",
          "name": "_libraryName",
          "type": "string"
        }
      ],
      "stateMutability": "nonpayable",
      "type": "constructor"
    },
    {
      "inputs": [
        {
          "internalType": "uint256",
          "name": "_bookId",
          "type": "uint256"
        },
        {
          "internalType": "string",
          "name": "_title",
          "type": "string"
        },
        {
          "internalType": "string",
          "name": "_author",
          "type": "string"
        }
      ],
      "name": "addBook",
      "outputs": [],
      "stateMutability": "nonpayable",
      "type": "function"
    },
    {
      "inputs": [
        {
          "internalType": "uint256",
          "name": "_bookId",
          "type": "uint256"
        }
      ],
      "name": "bookExists",
      "outputs": [
        {
          "internalType": "bool",
          "name": "",
          "type": "bool"
        }
      ],
      "stateMutability": "view",
      "type": "function"
    },
    {
      "inputs": [
        {
          "internalType": "uint256",
          "name": "_bookId",
          "type": "uint256"
        }
      ],
      "name": "borrowBook",
      "outputs": [],
      "stateMutability": "nonpayable",
      "type": "function"
    },
    {
      "inputs": [
        {
          "internalType": "address",
          "name": "",
          "type": "address"
        }
      ],
      "name": "borrowedCount",
      "outputs": [
        {
          "internalType": "uint256",
          "name": "",
          "type": "uint256"
        }
      ],
      "stateMutability": "view",
      "type": "function"
    },
    {
      "inputs": [
        {
          "internalType": "uint256",
          "name": "_bookId",
          "type": "uint256"
        }
      ],
      "name": "getBook",
      "outputs": [
        {
          "internalType": "string",
          "name": "title",
          "type": "string"
        },
        {
          "internalType": "string",
          "name": "author",
          "type": "string"
        },
        {
          "internalType": "bool",
          "name": "isAvailable",
          "type": "bool"
        },
        {
          "internalType": "address",
          "name": "borrowedBy",
          "type": "address"
        }
      ],
      "stateMutability": "view",
      "type": "function"
    },
    {
      "inputs": [],
      "name": "libraryName",
      "outputs": [
        {
          "internalType": "string",
          "name": "",
          "type": "string"
        }
      ],
      "stateMutability": "view",
      "type": "function"
    },
    {
      "inputs": [],
      "name": "owner",
      "outputs": [
        {
          "internalType": "address",
          "name": "",
          "type": "address"
        }
      ],
      "stateMutability": "view",
      "type": "function"
    },
    {
      "inputs": [
        {
          "internalType": "uint256",
          "name": "_bookId",
          "type": "uint256"
        }
      ],
      "name": "removeBook",
      "outputs": [],
      "stateMutability": "nonpayable",
      "type": "function"
    },
    {
      "inputs": [
        {
          "internalType": "uint256",
          "name": "_bookId",
          "type": "uint256"
        }
      ],
      "name": "returnBook",
      "outputs": [],
      "stateMutability": "nonpayable",
      "type": "function"
    },
    {
      "inputs": [],
      "name": "totalBooks",
      "outputs": [
        {
          "internalType": "uint256",
          "name": "",
          "type": "uint256"
        }
      ],
      "stateMutability": "view",
      "type": "function"
    }
  ],
  "bytecode": "0x608060405234801561001057600080fd5b50604051611fba380380611fba833981810160405281019061003291906101fd565b336000806101000a81548173ffffffffffffffffffffffffffffffffffffffff021916908373ffffffffffffffffffffffffffffffffffffffff16021790555080600190816100819190610467565b5050610539565b6000604051905090565b600080fd5b600080fd5b600080fd5b600080fd5b6000601f19601f8301169050919050565b7f4e487b7100000000000000000000000000000000000000000000000000000000600052604160045260246000fd5b6100ef826100a6565b810181811067ffffffffffffffff8211171561010e5761010d6100b7565b5b80604052505050565b6000610121610088565b905061012d82826100e6565b919050565b600067ffffffffffffffff82111561014d5761014c6100b7565b5b610156826100a6565b9050602081019050919050565b60005b83811015610181578082015181840152602081019050610166565b60008484015250505050565b60006101a061019b84610132565b610117565b9050828152602081018484840111156101bc576101bb6100a1565b5b6101c7848285610163565b509392505050565b600082601f8301126101e4576101e361009c565b5b81516101f484826020860161018d565b91505092915050565b60006020828403121561021357610212610092565b5b600082015167ffffffffffffffff81111561023157610230610097565b5b61023d848285016101cf565b91505092915050565b600081519050919050565b7f4e487b7100000000000000000000000000000000000000000000000000000000600052602260045260246000fd5b6000600282049050600182168061029857607f821691505b6020821081036102ab576102aa610251565b5b50919050565b60008190508160005260206000209050919050565b60006020601f8301049050919050565b600082821b905092915050565b6000600883026103137fffffffffffffffffffffffffffffffffffffffffffffffffffffffffffffffff826102d6565b61031d86836102d6565b95508019841693508086168417925050509392505050565b6000819050919050565b6000819050919050565b600061036461035f61035a84610335565b61033f565b610335565b9050919050565b6000819050919050565b61037e83610349565b61039261038a8261036b565b8484546102e3565b825550505050565b600090565b6103a761039a565b6103b2818484610375565b505050565b5b818110156103d6576103cb60008261039f565b6001810190506103b8565b5050565b601f82111561041b576103ec816102b1565b6103f5846102c6565b81016020851015610404578190505b610418610410856102c6565b8301826103b7565b50505b505050565b600082821c905092915050565b600061043e60001984600802610420565b1980831691505092915050565b6000610457838361042d565b9150826002028217905092915050565b61047082610246565b67ffffffffffffffff811115610489576104886100b7565b5b6104938254610280565b61049e8282856103da565b600060209050601f8311600181146104d157600084156104bf578287015190505b6104c9858261044b565b865550610531565b601f1984166104df866102b1565b60005b82811015610507578489015182556001820191506020850194506020810190506104e2565b868310156105245784890151610520601f89168261042d565b8355505b6001600288020188555050505b505050505050565b611a72806105486000396000f3fe608060405234801561001057600080fd5b506004361061009e5760003560e01c8063bec0d79911610066578063bec0d79914610147578063ca5140c914610163578063d248a5121461017f578063e0ff5b8b146101af578063ecdec082146101e25761009e565b8063028414f2146100a35780636ec4f4bf146100bf5780637b3d0982146100dd5780637e490a9e1461010d5780638da5cb5b14610129575b600080fd5b6100bd60048036038101906100b89190610f4d565b610200565b005b6100c7610460565b6040516100d49190610fe7565b60405180910390f35b6100f760048036038101906100f29190611002565b610466565b604051610104919061104a565b60405180910390f35b61012760048036038101906101229190611002565b610494565b005b61013161069d565b60405161013e91906110a6565b60405180910390f35b610161600480360381019061015c9190611002565b6106c1565b005b61017d60048036038101906101789190611002565b6108c8565b005b610199600480360381019061019491906110ed565b610a91565b6040516101a69190610fe7565b60405180910390f35b6101c960048036038101906101c49190611002565b610aa9565b6040516101d99493929190611199565b60405180910390f35b6101ea610cd2565b6040516101f791906111ec565b60405180910390f35b60008054906101000a900473ffffffffffffffffffffffffffffffffffffffff1673ffffffffffffffffffffffffffffffffffffffff163373ffffffffffffffffffffffffffffffffffffffff161461028e576040517f08c379a000000000000000000000000000000000000000000000000000000000815260040161028590611280565b60405180910390fd5b60008251116102d2576040517f08c379a00000000000000000000000000000000000000000000000000000000081526004016102c9906112ec565b60405180910390fd5b6000815111610316576040517f08c379a000000000000000000000000000000000000000000000000000000000815260040161030d90611358565b60405180910390fd5b61031f83610466565b1561035f576040517f08c379a0000000000000000000000000000000000000000000000000000000008152600401610356906113ea565b60405180910390fd5b6040518060800160405280838152602001828152602001600115158152602001600073ffffffffffffffffffffffffffffffffffffffff168152506002600085815260200190815260200160002060008201518160000190816103c29190611616565b5060208201518160010190816103d89190611616565b5060408201518160020160006101000a81548160ff02191690831515021790555060608201518160020160016101000a81548173ffffffffffffffffffffffffffffffffffffffff021916908373ffffffffffffffffffffffffffffffffffffffff1602179055509050506004600081548092919061045690611717565b9190505550505050565b60045481565b60008060026000848152602001908152602001600020600001805461048a90611439565b9050119050919050565b61049d81610466565b6104dc576040517f08c379a00000000000000000000000000000000000000000000000000000000081526004016104d3906117ab565b60405180910390fd5b6002600082815260200190815260200160002060020160009054906101000a900460ff1661053f576040517f08c379a00000000000000000000000000000000000000000000000000000000081526004016105369061183d565b60405180910390fd5b6005600360003373ffffffffffffffffffffffffffffffffffffffff1673ffffffffffffffffffffffffffffffffffffffff16815260200190815260200160002054106105c1576040517f08c379a00000000000000000000000000000000000000000000000000000000081526004016105b8906118cf565b60405180910390fd5b60006002600083815260200190815260200160002060020160006101000a81548160ff021916908315150217905550336002600083815260200190815260200160002060020160016101000a81548173ffffffffffffffffffffffffffffffffffffffff021916908373ffffffffffffffffffffffffffffffffffffffff160217905550600360003373ffffffffffffffffffffffffffffffffffffffff1673ffffffffffffffffffffffffffffffffffffffff168152602001908152602001600020600081548092919061069590611717565b919050555050565b60008054906101000a900473ffffffffffffffffffffffffffffffffffffffff1681565b60008054906101000a900473ffffffffffffffffffffffffffffffffffffffff1673ffffffffffffffffffffffffffffffffffffffff163373ffffffffffffffffffffffffffffffffffffffff161461074f576040517f08c379a000000000000000000000000000000000000000000000000000000000815260040161074690611280565b60405180910390fd5b61075881610466565b610797576040517f08c379a000000000000000000000000000000000000000000000000000000000815260040161078e906117ab565b60405180910390fd5b600073ffffffffffffffffffffffffffffffffffffffff166002600083815260200190815260200160002060020160019054906101000a900473ffffffffffffffffffffffffffffffffffffffff1673ffffffffffffffffffffffffffffffffffffffff161461083c576040517f08c379a000000000000000000000000000000000000000000000000000000000815260040161083390611961565b60405180910390fd5b60026000828152602001908152602001600020600080820160006108609190610d60565b6001820160006108709190610d60565b6002820160006101000a81549060ff02191690556002820160016101000a81549073ffffffffffffffffffffffffffffffffffffffff02191690555050600460008154809291906108c090611981565b919050555050565b6108d181610466565b610910576040517f08c379a0000000000000000000000000000000000000000000000000000000008152600401610907906117ab565b60405180910390fd5b3373ffffffffffffffffffffffffffffffffffffffff166002600083815260200190815260200160002060020160019054906101000a900473ffffffffffffffffffffffffffffffffffffffff1673ffffffffffffffffffffffffffffffffffffffff16146109b4576040517f08c379a00000000000000000000000000000000000000000000000000000000081526004016109ab90611a1c565b60405180910390fd5b60016002600083815260200190815260200160002060020160006101000a81548160ff02191690831515021790555060006002600083815260200190815260200160002060020160016101000a81548173ffffffffffffffffffffffffffffffffffffffff021916908373ffffffffffffffffffffffffffffffffffffffff160217905550600360003373ffffffffffffffffffffffffffffffffffffffff1673ffffffffffffffffffffffffffffffffffffffff1681526020019081526020016000206000815480929190610a8990611981565b919050555050565b60036020528060005260406000206000915090505481565b606080600080610ab885610466565b610af7576040517f08c379a0000000000000000000000000000000000000000000000000000000008152600401610aee906117ab565b60405180910390fd5b600060026000878152602001908152602001600020604051806080016040529081600082018054610b2790611439565b80601f0160208091040260200160405190810160405280929190818152602001828054610b5390611439565b8015610ba05780601f10610b7557610100808354040283529160200191610ba0565b820191906000526020600020905b815481529060010190602001808311610b8357829003601f168201915b50505050508152602001600182018054610bb990611439565b80601f0160208091040260200160405190810160405280929190818152602001828054610be590611439565b8015610c325780601f10610c0757610100808354040283529160200191610c32565b820191906000526020600020905b815481529060010190602001808311610c1557829003601f168201915b505050505081526020016002820160009054906101000a900460ff161515151581526020016002820160019054906101000a900473ffffffffffffffffffffffffffffffffffffffff1673ffffffffffffffffffffffffffffffffffffffff1673ffffffffffffffffffffffffffffffffffffffff1681525050905080600001518160200151826040015183606001519450945094509450509193509193565b60018054610cdf90611439565b80601f0160208091040260200160405190810160405280929190818152602001828054610d0b90611439565b8015610d585780601f10610d2d57610100808354040283529160200191610d58565b820191906000526020600020905b815481529060010190602001808311610d3b57829003601f168201915b505050505081565b508054610d6c90611439565b6000825580601f10610d7e5750610d9d565b601f016020900490600052602060002090810190610d9c9190610da0565b5b50565b5b80821115610db9576000816000905550600101610da1565b5090565b6000604051905090565b600080fd5b600080fd5b6000819050919050565b610de481610dd1565b8114610def57600080fd5b50565b600081359050610e0181610ddb565b92915050565b600080fd5b600080fd5b6000601f19601f8301169050919050565b7f4e487b7100000000000000000000000000000000000000000000000000000000600052604160045260246000fd5b610e5a82610e11565b810181811067ffffffffffffffff82111715610e7957610e78610e22565b5b80604052505050565b6000610e8c610dbd565b9050610e988282610e51565b919050565b600067ffffffffffffffff821115610eb857610eb7610e22565b5b610ec182610e11565b9050602081019050919050565b82818337600083830152505050565b6000610ef0610eeb84610e9d565b610e82565b905082815260208101848484011115610f0c57610f0b610e0c565b5b610f17848285610ece565b509392505050565b600082601f830112610f3457610f33610e07565b5b8135610f44848260208601610edd565b91505092915050565b600080600060608486031215610f6657610f65610dc7565b5b6000610f7486828701610df2565b935050602084013567ffffffffffffffff811115610f9557610f94610dcc565b5b610fa186828701610f1f565b925050604084013567ffffffffffffffff811115610fc257610fc1610dcc565b5b610fce86828701610f1f565b9150509250925092565b610fe181610dd1565b82525050565b6000602082019050610ffc6000830184610fd8565b92915050565b60006020828403121561101857611017610dc7565b5b600061102684828501610df2565b91505092915050565b60008115159050919050565b6110448161102f565b82525050565b600060208201905061105f600083018461103b565b92915050565b600073ffffffffffffffffffffffffffffffffffffffff82169050919050565b600061109082611065565b9050919050565b6110a081611085565b82525050565b60006020820190506110bb6000830184611097565b92915050565b6110ca81611085565b81146110d557600080fd5b50565b6000813590506110e7816110c1565b92915050565b60006020828403121561110357611102610dc7565b5b6000611111848285016110d8565b91505092915050565b600081519050919050565b600082825260208201905092915050565b60005b83811015611154578082015181840152602081019050611139565b60008484015250505050565b600061116b8261111a565b6111758185611125565b9350611185818560208601611136565b61118e81610e11565b840191505092915050565b600060808201905081810360008301526111b38187611160565b905081810360208301526111c78186611160565b90506111d6604083018561103b565b6111e36060830184611097565b95945050505050565b600060208201905081810360008301526112068184611160565b905092915050565b7f4f6e6c792074686520636f6e7472616374206f776e65722063616e207065726660008201527f6f726d207468697320616374696f6e2e00000000000000000000000000000000602082015250565b600061126a603083611125565b91506112758261120e565b604082019050919050565b600060208201905081810360008301526112998161125d565b9050919050565b7f426f6f6b207469746c652063616e6e6f7420626520656d7074792e0000000000600082015250565b60006112d6601b83611125565b91506112e1826112a0565b602082019050919050565b60006020820190508181036000830152611305816112c9565b9050919050565b7f417574686f72206e616d652063616e6e6f7420626520656d7074792e00000000600082015250565b6000611342601c83611125565b915061134d8261130c565b602082019050919050565b6000602082019050818103600083015261137181611335565b9050919050565b7f4120626f6f6b2077697468207468697320494420616c7265616479206578697360008201527f74732e0000000000000000000000000000000000000000000000000000000000602082015250565b60006113d4602383611125565b91506113df82611378565b604082019050919050565b60006020820190508181036000830152611403816113c7565b9050919050565b7f4e487b7100000000000000000000000000000000000000000000000000000000600052602260045260246000fd5b6000600282049050600182168061145157607f821691505b6020821081036114645761146361140a565b5b50919050565b60008190508160005260206000209050919050565b60006020601f8301049050919050565b600082821b905092915050565b6000600883026114cc7fffffffffffffffffffffffffffffffffffffffffffffffffffffffffffffffff8261148f565b6114d6868361148f565b95508019841693508086168417925050509392505050565b6000819050919050565b600061151361150e61150984610dd1565b6114ee565b610dd1565b9050919050565b6000819050919050565b61152d836114f8565b6115416115398261151a565b84845461149c565b825550505050565b600090565b611556611549565b611561818484611524565b505050565b5b818110156115855761157a60008261154e565b600181019050611567565b5050565b601f8211156115ca5761159b8161146a565b6115a48461147f565b810160208510156115b3578190505b6115c76115bf8561147f565b830182611566565b50505b505050565b600082821c905092915050565b60006115ed600019846008026115cf565b1980831691505092915050565b600061160683836115dc565b9150826002028217905092915050565b61161f8261111a565b67ffffffffffffffff81111561163857611637610e22565b5b6116428254611439565b61164d828285611589565b600060209050601f831160018114611680576000841561166e578287015190505b61167885826115fa565b8655506116e0565b601f19841661168e8661146a565b60005b828110156116b657848901518255600182019150602085019450602081019050611691565b868310156116d357848901516116cf601f8916826115dc565b8355505b6001600288020188555050505b505050505050565b7f4e487b7100000000000000000000000000000000000000000000000000000000600052601160045260246000fd5b600061172282610dd1565b91507fffffffffffffffffffffffffffffffffffffffffffffffffffffffffffffffff8203611754576117536116e8565b5b600182019050919050565b7f426f6f6b20646f6573206e6f742065786973742e000000000000000000000000600082015250565b6000611795601483611125565b91506117a08261175f565b602082019050919050565b600060208201905081810360008301526117c481611788565b9050919050565b7f426f6f6b206973206e6f7420617661696c61626c6520666f7220626f72726f7760008201527f696e672e00000000000000000000000000000000000000000000000000000000602082015250565b6000611827602483611125565b9150611832826117cb565b604082019050919050565b600060208201905081810360008301526118568161181a565b9050919050565b7f596f752063616e6e6f7420626f72726f77206d6f7265207468616e203520626f60008201527f6f6b732e00000000000000000000000000000000000000000000000000000000602082015250565b60006118b9602483611125565b91506118c48261185d565b604082019050919050565b600060208201905081810360008301526118e8816118ac565b9050919050565b7f43616e6e6f742072656d6f7665206120626f6f6b20746861742069732063757260008201527f72656e746c7920626f72726f7765642e00000000000000000000000000000000602082015250565b600061194b603083611125565b9150611956826118ef565b604082019050919050565b6000602082019050818103600083015261197a8161193e565b9050919050565b600061198c82610dd1565b91506000820361199f5761199e6116e8565b5b600182039050919050565b7f596f7520617265206e6f74207468652063757272656e7420626f72726f77657260008201527f206f66207468697320626f6f6b2e000000000000000000000000000000000000602082015250565b6000611a06602e83611125565b9150611a11826119aa565b604082019050919050565b60006020820190508181036000830152611a35816119f9565b905091905056fea26469706673582212206547a837f21ec54535d5e01fa27c8862a9a825fae336679e2d1a463bf3ce10f664736f6c634300081c0033",
  "linkReferences": {},
  "deployedLinkReferences": {}
}