{
  "_format": "hh-sol-artifact-1",
  "contractName": "PiggyBank",
  "sourceName": "contracts/PiggyBank.sol",
  "abi": [
    {
      "inputs": [],
      "stateMutability": "nonpayable",
      "type": "constructor"
    },
    {
      "anonymous": false,
      "inputs": [
        {
          "indexed": true,
          "internalType": "address",
          "name": "sender",
          "type": "address"
        },
        {
          "indexed": false,
          "internalType": "uint256",
          "name": "amount",
          "type": "uint256"
        }
      ],
      "name": "Deposit",
      "type": "event"
    },
    {
      "anonymous": false,
      "inputs": [
        {
          "indexed": true,
          "internalType": "address",
          "name": "owner",
          "type": "address"
        },
        {
          "indexed": false,
          "internalType": "uint256",
          "name": "amount",
          "type": "uint256"
        }
      ],
      "name": "Withdrawal",
      "type": "event"
    },
    {
      "inputs": [],
      "name": "deposit",
      "outputs": [],
      "stateMutability": "payable",
      "type": "function"
    },
    {
      "inputs": [],
      "name": "getBalance",
      "outputs": [
        {
          "internalType": "uint256",
          "name": "",
          "type": "uint256"
        }
      ],
      "stateMutability": "view",
      "type": "function"
    },
    {
      "inputs": [],
      "name": "getTimeUntilUnlock",
      "outputs": [
        {
          "internalType": "uint256",
          "name": "",
          "type": "uint256"
        }
      ],
      "stateMutability": "view",
      "type": "function"
    },
    {
      "inputs": [],
      "name": "lockTime",
      "outputs": [
        {
          "internalType": "uint256",
          "name": "",
          "type": "uint256"
        }
      ],
      "stateMutability": "view",
      "type": "function"
    },
    {
      "inputs": [],
      "name": "owner",
      "outputs": [
        {
          "internalType": "address",
          "name": "",
          "type": "address"
        }
      ],
      "stateMutability": "view",
      "type": "function"
    },
    {
      "inputs": [],
      "name": "totalSavings",
      "outputs": [
        {
          "internalType": "uint256",
          "name": "",
          "type": "uint256"
        }
      ],
      "stateMutability": "view",
      "type": "function"
    },
    {
      "inputs": [
        {
          "internalType": "uint256",
          "name": "amount",
          "type": "uint256"
        }
      ],
      "name": "withdraw",
      "outputs": [],
      "stateMutability": "nonpayable",
      "type": "function"
    }
  ],
  "bytecode": "0x6080604052348015600f57600080fd5b50336000806101000a81548173ffffffffffffffffffffffffffffffffffffffff021916908373ffffffffffffffffffffffffffffffffffffffff1602179055506365cd9f0060028190555061085c8061006a6000396000f3fe6080604052600436106100705760003560e01c80632e1a7d4d1161004e5780632e1a7d4d146100f65780638da5cb5b1461011f5780639bf42b3f1461014a578063d0e30db01461017557610070565b80630d6680871461007557806312065fe0146100a05780631c864bd6146100cb575b600080fd5b34801561008157600080fd5b5061008a61017f565b60405161009791906104ad565b60405180910390f35b3480156100ac57600080fd5b506100b5610185565b6040516100c291906104ad565b60405180910390f35b3480156100d757600080fd5b506100e061018d565b6040516100ed91906104ad565b60405180910390f35b34801561010257600080fd5b5061011d600480360381019061011891906104f9565b6101b5565b005b34801561012b57600080fd5b506101346103be565b6040516101419190610567565b60405180910390f35b34801561015657600080fd5b5061015f6103e2565b60405161016c91906104ad565b60405180910390f35b61017d6103e8565b005b60025481565b600047905090565b600060025442106101a157600090506101b2565b426002546101af91906105b1565b90505b90565b60008054906101000a900473ffffffffffffffffffffffffffffffffffffffff1673ffffffffffffffffffffffffffffffffffffffff163373ffffffffffffffffffffffffffffffffffffffff1614610243576040517f08c379a000000000000000000000000000000000000000000000000000000000815260040161023a90610668565b60405180910390fd5b600254421015610288576040517f08c379a000000000000000000000000000000000000000000000000000000000815260040161027f906106d4565b60405180910390fd5b6001548111156102cd576040517f08c379a00000000000000000000000000000000000000000000000000000000081526004016102c490610740565b60405180910390fd5b80600160008282546102df91906105b1565b9250508190555060008054906101000a900473ffffffffffffffffffffffffffffffffffffffff1673ffffffffffffffffffffffffffffffffffffffff166108fc829081150290604051600060405180830381858888f1935050505015801561034c573d6000803e3d6000fd5b5060008054906101000a900473ffffffffffffffffffffffffffffffffffffffff1673ffffffffffffffffffffffffffffffffffffffff167f7fcf532c15f0a6db0bd6d0e038bea71d30d808c7d98cb3bf7268a95bf5081b65826040516103b391906104ad565b60405180910390a250565b60008054906101000a900473ffffffffffffffffffffffffffffffffffffffff1681565b60015481565b6000341161042b576040517f08c379a0000000000000000000000000000000000000000000000000000000008152600401610422906107d2565b60405180910390fd5b346001600082825461043d91906107f2565b925050819055503373ffffffffffffffffffffffffffffffffffffffff167fe1fffcc4923d04b559f4d29a8bfc6cda04eb5b0d3c460751c2402c5c5cc9109c3460405161048a91906104ad565b60405180910390a2565b6000819050919050565b6104a781610494565b82525050565b60006020820190506104c2600083018461049e565b92915050565b600080fd5b6104d681610494565b81146104e157600080fd5b50565b6000813590506104f3816104cd565b92915050565b60006020828403121561050f5761050e6104c8565b5b600061051d848285016104e4565b91505092915050565b600073ffffffffffffffffffffffffffffffffffffffff82169050919050565b600061055182610526565b9050919050565b61056181610546565b82525050565b600060208201905061057c6000830184610558565b92915050565b7f4e487b7100000000000000000000000000000000000000000000000000000000600052601160045260246000fd5b60006105bc82610494565b91506105c783610494565b92508282039050818111156105df576105de610582565b5b92915050565b600082825260208201905092915050565b7f4f6e6c7920746865206f776e65722063616e20706572666f726d20746869732060008201527f616374696f6e0000000000000000000000000000000000000000000000000000602082015250565b60006106526026836105e5565b915061065d826105f6565b604082019050919050565b6000602082019050818103600083015261068181610645565b9050919050565b7f43616e6e6f74207769746864726177206265666f7265206c6f636b2074696d65600082015250565b60006106be6020836105e5565b91506106c982610688565b602082019050919050565b600060208201905081810360008301526106ed816106b1565b9050919050565b7f496e73756666696369656e742066756e64730000000000000000000000000000600082015250565b600061072a6012836105e5565b9150610735826106f4565b602082019050919050565b600060208201905081810360008301526107598161071d565b9050919050565b7f4465706f73697420616d6f756e74206d7573742062652067726561746572207460008201527f68616e207a65726f000000000000000000000000000000000000000000000000602082015250565b60006107bc6028836105e5565b91506107c782610760565b604082019050919050565b600060208201905081810360008301526107eb816107af565b9050919050565b60006107fd82610494565b915061080883610494565b92508282019050808211156108205761081f610582565b5b9291505056fea2646970667358221220a528d866af0f9e1230b7509350aaa2f270afa6fc5eff862af8783db3b50b477964736f6c634300081c0033",
  "linkReferences": {},
  "deployedLinkReferences": {}
}