{
  "_format": "hh-sol-artifact-1",
  "contractName": "DiplomaHandler",
  "sourceName": "contracts/DiplomaHandler.sol",
  "abi": [
    {
      "inputs": [],
      "stateMutability": "nonpayable",
      "type": "constructor"
    },
    {
      "anonymous": false,
      "inputs": [
        {
          "indexed": true,
          "internalType": "address",
          "name": "student",
          "type": "address"
        },
        {
          "indexed": false,
          "internalType": "string",
          "name": "studentName",
          "type": "string"
        },
        {
          "indexed": false,
          "internalType": "string",
          "name": "courseName",
          "type": "string"
        }
      ],
      "name": "DiplomaIssued",
      "type": "event"
    },
    {
      "inputs": [],
      "name": "admin",
      "outputs": [
        {
          "internalType": "address",
          "name": "",
          "type": "address"
        }
      ],
      "stateMutability": "view",
      "type": "function"
    },
    {
      "inputs": [
        {
          "internalType": "address",
          "name": "",
          "type": "address"
        }
      ],
      "name": "diplomas",
      "outputs": [
        {
          "internalType": "string",
          "name": "studentName",
          "type": "string"
        },
        {
          "internalType": "string",
          "name": "courseName",
          "type": "string"
        },
        {
          "internalType": "uint256",
          "name": "issueDate",
          "type": "uint256"
        }
      ],
      "stateMutability": "view",
      "type": "function"
    },
    {
      "inputs": [
        {
          "internalType": "address",
          "name": "student",
          "type": "address"
        }
      ],
      "name": "getDioploma",
      "outputs": [
        {
          "components": [
            {
              "internalType": "string",
              "name": "studentName",
              "type": "string"
            },
            {
              "internalType": "string",
              "name": "courseName",
              "type": "string"
            },
            {
              "internalType": "uint256",
              "name": "issueDate",
              "type": "uint256"
            }
          ],
          "internalType": "struct DiplomaHandler.Diploma",
          "name": "",
          "type": "tuple"
        }
      ],
      "stateMutability": "view",
      "type": "function"
    },
    {
      "inputs": [
        {
          "internalType": "address",
          "name": "student",
          "type": "address"
        },
        {
          "internalType": "string",
          "name": "studentName",
          "type": "string"
        },
        {
          "internalType": "string",
          "name": "courseName",
          "type": "string"
        }
      ],
      "name": "issueDiploma",
      "outputs": [],
      "stateMutability": "nonpayable",
      "type": "function"
    }
  ],
  "bytecode": "0x608060405234801561001057600080fd5b50336000806101000a81548173ffffffffffffffffffffffffffffffffffffffff021916908373ffffffffffffffffffffffffffffffffffffffff1602179055506110b5806100606000396000f3fe608060405234801561001057600080fd5b506004361061004c5760003560e01c8063529f615f14610051578063d208b63614610083578063d97a4f4d1461009f578063f851a440146100cf575b600080fd5b61006b60048036038101906100669190610771565b6100ed565b60405161007a93929190610847565b60405180910390f35b61009d600480360381019061009891906109c1565b610227565b005b6100b960048036038101906100b49190610771565b6104ae565b6040516100c69190610afc565b60405180910390f35b6100d76106ba565b6040516100e49190610b2d565b60405180910390f35b600160205280600052604060002060009150905080600001805461011090610b77565b80601f016020809104026020016040519081016040528092919081815260200182805461013c90610b77565b80156101895780601f1061015e57610100808354040283529160200191610189565b820191906000526020600020905b81548152906001019060200180831161016c57829003601f168201915b50505050509080600101805461019e90610b77565b80601f01602080910402602001604051908101604052809291908181526020018280546101ca90610b77565b80156102175780601f106101ec57610100808354040283529160200191610217565b820191906000526020600020905b8154815290600101906020018083116101fa57829003601f168201915b5050505050908060020154905083565b60008054906101000a900473ffffffffffffffffffffffffffffffffffffffff1673ffffffffffffffffffffffffffffffffffffffff163373ffffffffffffffffffffffffffffffffffffffff16146102b5576040517f08c379a00000000000000000000000000000000000000000000000000000000081526004016102ac90610c1a565b60405180910390fd5b8160008151116102fa576040517f08c379a00000000000000000000000000000000000000000000000000000000081526004016102f190610c86565b60405180910390fd5b81600081511161033f576040517f08c379a000000000000000000000000000000000000000000000000000000000815260040161033690610c86565b60405180910390fd5b6000600160008773ffffffffffffffffffffffffffffffffffffffff1673ffffffffffffffffffffffffffffffffffffffff16815260200190815260200160002060020154146103c4576040517f08c379a00000000000000000000000000000000000000000000000000000000081526004016103bb90610d18565b60405180910390fd5b604051806060016040528085815260200184815260200142815250600160008773ffffffffffffffffffffffffffffffffffffffff1673ffffffffffffffffffffffffffffffffffffffff16815260200190815260200160002060008201518160000190816104339190610ee4565b5060208201518160010190816104499190610ee4565b50604082015181600201559050508473ffffffffffffffffffffffffffffffffffffffff167f79f764f5a10f54085ffd2a935380a8e7eb302ed34fdfaa8d3a75f51c73b528db858560405161049f929190610fb6565b60405180910390a25050505050565b6104b66106de565b6000600160008473ffffffffffffffffffffffffffffffffffffffff1673ffffffffffffffffffffffffffffffffffffffff168152602001908152602001600020600201540361053b576040517f08c379a00000000000000000000000000000000000000000000000000000000081526004016105329061105f565b60405180910390fd5b600160008373ffffffffffffffffffffffffffffffffffffffff1673ffffffffffffffffffffffffffffffffffffffff16815260200190815260200160002060405180606001604052908160008201805461059590610b77565b80601f01602080910402602001604051908101604052809291908181526020018280546105c190610b77565b801561060e5780601f106105e35761010080835404028352916020019161060e565b820191906000526020600020905b8154815290600101906020018083116105f157829003601f168201915b5050505050815260200160018201805461062790610b77565b80601f016020809104026020016040519081016040528092919081815260200182805461065390610b77565b80156106a05780601f10610675576101008083540402835291602001916106a0565b820191906000526020600020905b81548152906001019060200180831161068357829003601f168201915b505050505081526020016002820154815250509050919050565b60008054906101000a900473ffffffffffffffffffffffffffffffffffffffff1681565b60405180606001604052806060815260200160608152602001600081525090565b6000604051905090565b600080fd5b600080fd5b600073ffffffffffffffffffffffffffffffffffffffff82169050919050565b600061073e82610713565b9050919050565b61074e81610733565b811461075957600080fd5b50565b60008135905061076b81610745565b92915050565b60006020828403121561078757610786610709565b5b60006107958482850161075c565b91505092915050565b600081519050919050565b600082825260208201905092915050565b60005b838110156107d85780820151818401526020810190506107bd565b60008484015250505050565b6000601f19601f8301169050919050565b60006108008261079e565b61080a81856107a9565b935061081a8185602086016107ba565b610823816107e4565b840191505092915050565b6000819050919050565b6108418161082e565b82525050565b6000606082019050818103600083015261086181866107f5565b9050818103602083015261087581856107f5565b90506108846040830184610838565b949350505050565b600080fd5b600080fd5b7f4e487b7100000000000000000000000000000000000000000000000000000000600052604160045260246000fd5b6108ce826107e4565b810181811067ffffffffffffffff821117156108ed576108ec610896565b5b80604052505050565b60006109006106ff565b905061090c82826108c5565b919050565b600067ffffffffffffffff82111561092c5761092b610896565b5b610935826107e4565b9050602081019050919050565b82818337600083830152505050565b600061096461095f84610911565b6108f6565b9050828152602081018484840111156109805761097f610891565b5b61098b848285610942565b509392505050565b600082601f8301126109a8576109a761088c565b5b81356109b8848260208601610951565b91505092915050565b6000806000606084860312156109da576109d9610709565b5b60006109e88682870161075c565b935050602084013567ffffffffffffffff811115610a0957610a0861070e565b5b610a1586828701610993565b925050604084013567ffffffffffffffff811115610a3657610a3561070e565b5b610a4286828701610993565b9150509250925092565b600082825260208201905092915050565b6000610a688261079e565b610a728185610a4c565b9350610a828185602086016107ba565b610a8b816107e4565b840191505092915050565b610a9f8161082e565b82525050565b60006060830160008301518482036000860152610ac28282610a5d565b91505060208301518482036020860152610adc8282610a5d565b9150506040830151610af16040860182610a96565b508091505092915050565b60006020820190508181036000830152610b168184610aa5565b905092915050565b610b2781610733565b82525050565b6000602082019050610b426000830184610b1e565b92915050565b7f4e487b7100000000000000000000000000000000000000000000000000000000600052602260045260246000fd5b60006002820490506001821680610b8f57607f821691505b602082108103610ba257610ba1610b48565b5b50919050565b7f4f6e6c792061646d696e2063616e2063616c6c20746869732066756e6374696f60008201527f6e00000000000000000000000000000000000000000000000000000000000000602082015250565b6000610c046021836107a9565b9150610c0f82610ba8565b604082019050919050565b60006020820190508181036000830152610c3381610bf7565b9050919050565b7f456d70747920737472696e67206973206e6f7420616c6c6f7765640000000000600082015250565b6000610c70601b836107a9565b9150610c7b82610c3a565b602082019050919050565b60006020820190508181036000830152610c9f81610c63565b9050919050565b7f54686973206469706c6f6d612068617320616c7265616479206265656e20697360008201527f7375656400000000000000000000000000000000000000000000000000000000602082015250565b6000610d026024836107a9565b9150610d0d82610ca6565b604082019050919050565b60006020820190508181036000830152610d3181610cf5565b9050919050565b60008190508160005260206000209050919050565b60006020601f8301049050919050565b600082821b905092915050565b600060088302610d9a7fffffffffffffffffffffffffffffffffffffffffffffffffffffffffffffffff82610d5d565b610da48683610d5d565b95508019841693508086168417925050509392505050565b6000819050919050565b6000610de1610ddc610dd78461082e565b610dbc565b61082e565b9050919050565b6000819050919050565b610dfb83610dc6565b610e0f610e0782610de8565b848454610d6a565b825550505050565b600090565b610e24610e17565b610e2f818484610df2565b505050565b5b81811015610e5357610e48600082610e1c565b600181019050610e35565b5050565b601f821115610e9857610e6981610d38565b610e7284610d4d565b81016020851015610e81578190505b610e95610e8d85610d4d565b830182610e34565b50505b505050565b600082821c905092915050565b6000610ebb60001984600802610e9d565b1980831691505092915050565b6000610ed48383610eaa565b9150826002028217905092915050565b610eed8261079e565b67ffffffffffffffff811115610f0657610f05610896565b5b610f108254610b77565b610f1b828285610e57565b600060209050601f831160018114610f4e5760008415610f3c578287015190505b610f468582610ec8565b865550610fae565b601f198416610f5c86610d38565b60005b82811015610f8457848901518255600182019150602085019450602081019050610f5f565b86831015610fa15784890151610f9d601f891682610eaa565b8355505b6001600288020188555050505b505050505050565b60006040820190508181036000830152610fd081856107f5565b90508181036020830152610fe481846107f5565b90509392505050565b7f4e6f204469706c6f6d61207761732069737375656420666f722074686973207360008201527f747564656e740000000000000000000000000000000000000000000000000000602082015250565b60006110496026836107a9565b915061105482610fed565b604082019050919050565b600060208201905081810360008301526110788161103c565b905091905056fea264697066735822122029903fedce024c883b0f993b562a0fe12c1c22a9c0893878cc4eb73c209dfbad64736f6c63430008140033",
  "linkReferences": {},
  "deployedLinkReferences": {}
}