{
  "_format": "hh-sol-artifact-1",
  "contractName": "OurERC721",
  "sourceName": "contracts/OurERC721.sol",
  "abi": [
    {
      "inputs": [
        {
          "internalType": "string",
          "name": "name",
          "type": "string"
        },
        {
          "internalType": "string",
          "name": "symbol",
          "type": "string"
        }
      ],
      "stateMutability": "nonpayable",
      "type": "constructor"
    },
    {
      "inputs": [
        {
          "internalType": "address",
          "name": "sender",
          "type": "address"
        },
        {
          "internalType": "uint256",
          "name": "tokenId",
          "type": "uint256"
        },
        {
          "internalType": "address",
          "name": "owner",
          "type": "address"
        }
      ],
      "name": "ERC721IncorrectOwner",
      "type": "error"
    },
    {
      "inputs": [
        {
          "internalType": "address",
          "name": "operator",
          "type": "address"
        },
        {
          "internalType": "uint256",
          "name": "tokenId",
          "type": "uint256"
        }
      ],
      "name": "ERC721InsufficientApproval",
      "type": "error"
    },
    {
      "inputs": [
        {
          "internalType": "address",
          "name": "approver",
          "type": "address"
        }
      ],
      "name": "ERC721InvalidApprover",
      "type": "error"
    },
    {
      "inputs": [
        {
          "internalType": "address",
          "name": "operator",
          "type": "address"
        }
      ],
      "name": "ERC721InvalidOperator",
      "type": "error"
    },
    {
      "inputs": [
        {
          "internalType": "address",
          "name": "owner",
          "type": "address"
        }
      ],
      "name": "ERC721InvalidOwner",
      "type": "error"
    },
    {
      "inputs": [
        {
          "internalType": "address",
          "name": "receiver",
          "type": "address"
        }
      ],
      "name": "ERC721InvalidReceiver",
      "type": "error"
    },
    {
      "inputs": [
        {
          "internalType": "address",
          "name": "sender",
          "type": "address"
        }
      ],
      "name": "ERC721InvalidSender",
      "type": "error"
    },
    {
      "inputs": [
        {
          "internalType": "uint256",
          "name": "tokenId",
          "type": "uint256"
        }
      ],
      "name": "ERC721NonexistentToken",
      "type": "error"
    },
    {
      "inputs": [
        {
          "internalType": "address",
          "name": "owner",
          "type": "address"
        }
      ],
      "name": "OwnableInvalidOwner",
      "type": "error"
    },
    {
      "inputs": [
        {
          "internalType": "address",
          "name": "account",
          "type": "address"
        }
      ],
      "name": "OwnableUnauthorizedAccount",
      "type": "error"
    },
    {
      "anonymous": false,
      "inputs": [
        {
          "indexed": true,
          "internalType": "address",
          "name": "owner",
          "type": "address"
        },
        {
          "indexed": true,
          "internalType": "address",
          "name": "approved",
          "type": "address"
        },
        {
          "indexed": true,
          "internalType": "uint256",
          "name": "tokenId",
          "type": "uint256"
        }
      ],
      "name": "Approval",
      "type": "event"
    },
    {
      "anonymous": false,
      "inputs": [
        {
          "indexed": true,
          "internalType": "address",
          "name": "owner",
          "type": "address"
        },
        {
          "indexed": true,
          "internalType": "address",
          "name": "operator",
          "type": "address"
        },
        {
          "indexed": false,
          "internalType": "bool",
          "name": "approved",
          "type": "bool"
        }
      ],
      "name": "ApprovalForAll",
      "type": "event"
    },
    {
      "anonymous": false,
      "inputs": [
        {
          "indexed": true,
          "internalType": "address",
          "name": "previousOwner",
          "type": "address"
        },
        {
          "indexed": true,
          "internalType": "address",
          "name": "newOwner",
          "type": "address"
        }
      ],
      "name": "OwnershipTransferred",
      "type": "event"
    },
    {
      "anonymous": false,
      "inputs": [
        {
          "indexed": true,
          "internalType": "address",
          "name": "from",
          "type": "address"
        },
        {
          "indexed": true,
          "internalType": "address",
          "name": "to",
          "type": "address"
        },
        {
          "indexed": true,
          "internalType": "uint256",
          "name": "tokenId",
          "type": "uint256"
        }
      ],
      "name": "Transfer",
      "type": "event"
    },
    {
      "inputs": [
        {
          "internalType": "address",
          "name": "to",
          "type": "address"
        },
        {
          "internalType": "uint256",
          "name": "tokenId",
          "type": "uint256"
        }
      ],
      "name": "approve",
      "outputs": [],
      "stateMutability": "nonpayable",
      "type": "function"
    },
    {
      "inputs": [
        {
          "internalType": "address",
          "name": "owner",
          "type": "address"
        }
      ],
      "name": "balanceOf",
      "outputs": [
        {
          "internalType": "uint256",
          "name": "",
          "type": "uint256"
        }
      ],
      "stateMutability": "view",
      "type": "function"
    },
    {
      "inputs": [
        {
          "internalType": "uint256",
          "name": "tokenId",
          "type": "uint256"
        }
      ],
      "name": "getApproved",
      "outputs": [
        {
          "internalType": "address",
          "name": "",
          "type": "address"
        }
      ],
      "stateMutability": "view",
      "type": "function"
    },
    {
      "inputs": [
        {
          "internalType": "address",
          "name": "_address",
          "type": "address"
        }
      ],
      "name": "getId",
      "outputs": [
        {
          "internalType": "uint256",
          "name": "",
          "type": "uint256"
        }
      ],
      "stateMutability": "view",
      "type": "function"
    },
    {
      "inputs": [
        {
          "internalType": "address",
          "name": "owner",
          "type": "address"
        },
        {
          "internalType": "address",
          "name": "operator",
          "type": "address"
        }
      ],
      "name": "isApprovedForAll",
      "outputs": [
        {
          "internalType": "bool",
          "name": "",
          "type": "bool"
        }
      ],
      "stateMutability": "view",
      "type": "function"
    },
    {
      "inputs": [
        {
          "internalType": "address",
          "name": "_to",
          "type": "address"
        }
      ],
      "name": "mint",
      "outputs": [],
      "stateMutability": "nonpayable",
      "type": "function"
    },
    {
      "inputs": [],
      "name": "name",
      "outputs": [
        {
          "internalType": "string",
          "name": "",
          "type": "string"
        }
      ],
      "stateMutability": "view",
      "type": "function"
    },
    {
      "inputs": [],
      "name": "owner",
      "outputs": [
        {
          "internalType": "address",
          "name": "",
          "type": "address"
        }
      ],
      "stateMutability": "view",
      "type": "function"
    },
    {
      "inputs": [
        {
          "internalType": "uint256",
          "name": "tokenId",
          "type": "uint256"
        }
      ],
      "name": "ownerOf",
      "outputs": [
        {
          "internalType": "address",
          "name": "",
          "type": "address"
        }
      ],
      "stateMutability": "view",
      "type": "function"
    },
    {
      "inputs": [],
      "name": "renounceOwnership",
      "outputs": [],
      "stateMutability": "nonpayable",
      "type": "function"
    },
    {
      "inputs": [
        {
          "internalType": "address",
          "name": "from",
          "type": "address"
        },
        {
          "internalType": "address",
          "name": "to",
          "type": "address"
        },
        {
          "internalType": "uint256",
          "name": "tokenId",
          "type": "uint256"
        }
      ],
      "name": "safeTransferFrom",
      "outputs": [],
      "stateMutability": "nonpayable",
      "type": "function"
    },
    {
      "inputs": [
        {
          "internalType": "address",
          "name": "from",
          "type": "address"
        },
        {
          "internalType": "address",
          "name": "to",
          "type": "address"
        },
        {
          "internalType": "uint256",
          "name": "tokenId",
          "type": "uint256"
        },
        {
          "internalType": "bytes",
          "name": "data",
          "type": "bytes"
        }
      ],
      "name": "safeTransferFrom",
      "outputs": [],
      "stateMutability": "nonpayable",
      "type": "function"
    },
    {
      "inputs": [
        {
          "internalType": "address",
          "name": "operator",
          "type": "address"
        },
        {
          "internalType": "bool",
          "name": "approved",
          "type": "bool"
        }
      ],
      "name": "setApprovalForAll",
      "outputs": [],
      "stateMutability": "nonpayable",
      "type": "function"
    },
    {
      "inputs": [
        {
          "internalType": "bytes4",
          "name": "interfaceId",
          "type": "bytes4"
        }
      ],
      "name": "supportsInterface",
      "outputs": [
        {
          "internalType": "bool",
          "name": "",
          "type": "bool"
        }
      ],
      "stateMutability": "view",
      "type": "function"
    },
    {
      "inputs": [],
      "name": "symbol",
      "outputs": [
        {
          "internalType": "string",
          "name": "",
          "type": "string"
        }
      ],
      "stateMutability": "view",
      "type": "function"
    },
    {
      "inputs": [
        {
          "internalType": "uint256",
          "name": "tokenId",
          "type": "uint256"
        }
      ],
      "name": "tokenURI",
      "outputs": [
        {
          "internalType": "string",
          "name": "",
          "type": "string"
        }
      ],
      "stateMutability": "view",
      "type": "function"
    },
    {
      "inputs": [
        {
          "internalType": "address",
          "name": "from",
          "type": "address"
        },
        {
          "internalType": "address",
          "name": "to",
          "type": "address"
        },
        {
          "internalType": "uint256",
          "name": "tokenId",
          "type": "uint256"
        }
      ],
      "name": "transferFrom",
      "outputs": [],
      "stateMutability": "nonpayable",
      "type": "function"
    },
    {
      "inputs": [
        {
          "internalType": "address",
          "name": "newOwner",
          "type": "address"
        }
      ],
      "name": "transferOwnership",
      "outputs": [],
      "stateMutability": "nonpayable",
      "type": "function"
    }
  ],
  "bytecode": "0x608060405234801561001057600080fd5b5060405161317c38038061317c83398181016040528101906100329190610b76565b33828281600090816100449190610e0f565b5080600190816100549190610e0f565b505050600073ffffffffffffffffffffffffffffffffffffffff168173ffffffffffffffffffffffffffffffffffffffff16036100c95760006040517f1e4fbdf70000000000000000000000000000000000000000000000000000000081526004016100c09190610f22565b60405180910390fd5b6100d88161010c60201b60201c565b506001600760008282546100ec9190610f6c565b92505081905550610105336007546101d260201b60201c565b5050610ff3565b6000600660009054906101000a900473ffffffffffffffffffffffffffffffffffffffff16905081600660006101000a81548173ffffffffffffffffffffffffffffffffffffffff021916908373ffffffffffffffffffffffffffffffffffffffff1602179055508173ffffffffffffffffffffffffffffffffffffffff168173ffffffffffffffffffffffffffffffffffffffff167f8be0079c531659141344cd1fd0a4f28419497f9722a3daafe3b4186f6b6457e060405160405180910390a35050565b600073ffffffffffffffffffffffffffffffffffffffff168273ffffffffffffffffffffffffffffffffffffffff16036102445760006040517f64a0ae9200000000000000000000000000000000000000000000000000000000815260040161023b9190610f22565b60405180910390fd5b6000610258838360006102d160201b60201c565b9050600073ffffffffffffffffffffffffffffffffffffffff168173ffffffffffffffffffffffffffffffffffffffff16146102cc5760006040517f73c6ac6e0000000000000000000000000000000000000000000000000000000081526004016102c39190610f22565b60405180910390fd5b505050565b6000806102e3846104fd60201b60201c565b9050600073ffffffffffffffffffffffffffffffffffffffff168373ffffffffffffffffffffffffffffffffffffffff161461032b5761032a81848661053a60201b60201c565b5b600073ffffffffffffffffffffffffffffffffffffffff168173ffffffffffffffffffffffffffffffffffffffff16146103c25761037360008560008061060460201b60201c565b6001600360008373ffffffffffffffffffffffffffffffffffffffff1673ffffffffffffffffffffffffffffffffffffffff168152602001908152602001600020600082825403925050819055505b600073ffffffffffffffffffffffffffffffffffffffff168573ffffffffffffffffffffffffffffffffffffffff1614610445576001600360008773ffffffffffffffffffffffffffffffffffffffff1673ffffffffffffffffffffffffffffffffffffffff168152602001908152602001600020600082825401925050819055505b846002600086815260200190815260200160002060006101000a81548173ffffffffffffffffffffffffffffffffffffffff021916908373ffffffffffffffffffffffffffffffffffffffff160217905550838573ffffffffffffffffffffffffffffffffffffffff168273ffffffffffffffffffffffffffffffffffffffff167fddf252ad1be2c89b69c2b068fc378daa952ba7f163c4a11628f55a4df523b3ef60405160405180910390a4809150509392505050565b60006002600083815260200190815260200160002060009054906101000a900473ffffffffffffffffffffffffffffffffffffffff169050919050565b61054b8383836107d560201b60201c565b6105ff57600073ffffffffffffffffffffffffffffffffffffffff168373ffffffffffffffffffffffffffffffffffffffff16036105c057806040517f7e2732890000000000000000000000000000000000000000000000000000000081526004016105b79190610faf565b60405180910390fd5b81816040517f177e802f0000000000000000000000000000000000000000000000000000000081526004016105f6929190610fca565b60405180910390fd5b505050565b808061063d5750600073ffffffffffffffffffffffffffffffffffffffff168273ffffffffffffffffffffffffffffffffffffffff1614155b1561077d576000610653846108a260201b60201c565b9050600073ffffffffffffffffffffffffffffffffffffffff168373ffffffffffffffffffffffffffffffffffffffff16141580156106be57508273ffffffffffffffffffffffffffffffffffffffff168173ffffffffffffffffffffffffffffffffffffffff1614155b80156106d757506106d5818461093060201b60201c565b155b1561071957826040517fa9fbf51f0000000000000000000000000000000000000000000000000000000081526004016107109190610f22565b60405180910390fd5b811561077b57838573ffffffffffffffffffffffffffffffffffffffff168273ffffffffffffffffffffffffffffffffffffffff167f8c5be1e5ebec7d5bd14f71427d1e84f3dd0314c0f7b2291e5b200ac8c7c3b92560405160405180910390a45b505b836004600085815260200190815260200160002060006101000a81548173ffffffffffffffffffffffffffffffffffffffff021916908373ffffffffffffffffffffffffffffffffffffffff16021790555050505050565b60008073ffffffffffffffffffffffffffffffffffffffff168373ffffffffffffffffffffffffffffffffffffffff161415801561089957508273ffffffffffffffffffffffffffffffffffffffff168473ffffffffffffffffffffffffffffffffffffffff1614806108545750610853848461093060201b60201c565b5b8061089857508273ffffffffffffffffffffffffffffffffffffffff16610880836109c460201b60201c565b73ffffffffffffffffffffffffffffffffffffffff16145b5b90509392505050565b6000806108b4836104fd60201b60201c565b9050600073ffffffffffffffffffffffffffffffffffffffff168173ffffffffffffffffffffffffffffffffffffffff160361092757826040517f7e27328900000000000000000000000000000000000000000000000000000000815260040161091e9190610faf565b60405180910390fd5b80915050919050565b6000600560008473ffffffffffffffffffffffffffffffffffffffff1673ffffffffffffffffffffffffffffffffffffffff16815260200190815260200160002060008373ffffffffffffffffffffffffffffffffffffffff1673ffffffffffffffffffffffffffffffffffffffff16815260200190815260200160002060009054906101000a900460ff16905092915050565b60006004600083815260200190815260200160002060009054906101000a900473ffffffffffffffffffffffffffffffffffffffff169050919050565b6000604051905090565b600080fd5b600080fd5b600080fd5b600080fd5b6000601f19601f8301169050919050565b7f4e487b7100000000000000000000000000000000000000000000000000000000600052604160045260246000fd5b610a6882610a1f565b810181811067ffffffffffffffff82111715610a8757610a86610a30565b5b80604052505050565b6000610a9a610a01565b9050610aa68282610a5f565b919050565b600067ffffffffffffffff821115610ac657610ac5610a30565b5b610acf82610a1f565b9050602081019050919050565b60005b83811015610afa578082015181840152602081019050610adf565b60008484015250505050565b6000610b19610b1484610aab565b610a90565b905082815260208101848484011115610b3557610b34610a1a565b5b610b40848285610adc565b509392505050565b600082601f830112610b5d57610b5c610a15565b5b8151610b6d848260208601610b06565b91505092915050565b60008060408385031215610b8d57610b8c610a0b565b5b600083015167ffffffffffffffff811115610bab57610baa610a10565b5b610bb785828601610b48565b925050602083015167ffffffffffffffff811115610bd857610bd7610a10565b5b610be485828601610b48565b9150509250929050565b600081519050919050565b7f4e487b7100000000000000000000000000000000000000000000000000000000600052602260045260246000fd5b60006002820490506001821680610c4057607f821691505b602082108103610c5357610c52610bf9565b5b50919050565b60008190508160005260206000209050919050565b60006020601f8301049050919050565b600082821b905092915050565b600060088302610cbb7fffffffffffffffffffffffffffffffffffffffffffffffffffffffffffffffff82610c7e565b610cc58683610c7e565b95508019841693508086168417925050509392505050565b6000819050919050565b6000819050919050565b6000610d0c610d07610d0284610cdd565b610ce7565b610cdd565b9050919050565b6000819050919050565b610d2683610cf1565b610d3a610d3282610d13565b848454610c8b565b825550505050565b600090565b610d4f610d42565b610d5a818484610d1d565b505050565b5b81811015610d7e57610d73600082610d47565b600181019050610d60565b5050565b601f821115610dc357610d9481610c59565b610d9d84610c6e565b81016020851015610dac578190505b610dc0610db885610c6e565b830182610d5f565b50505b505050565b600082821c905092915050565b6000610de660001984600802610dc8565b1980831691505092915050565b6000610dff8383610dd5565b9150826002028217905092915050565b610e1882610bee565b67ffffffffffffffff811115610e3157610e30610a30565b5b610e3b8254610c28565b610e46828285610d82565b600060209050601f831160018114610e795760008415610e67578287015190505b610e718582610df3565b865550610ed9565b601f198416610e8786610c59565b60005b82811015610eaf57848901518255600182019150602085019450602081019050610e8a565b86831015610ecc5784890151610ec8601f891682610dd5565b8355505b6001600288020188555050505b505050505050565b600073ffffffffffffffffffffffffffffffffffffffff82169050919050565b6000610f0c82610ee1565b9050919050565b610f1c81610f01565b82525050565b6000602082019050610f376000830184610f13565b92915050565b7f4e487b7100000000000000000000000000000000000000000000000000000000600052601160045260246000fd5b6000610f7782610cdd565b9150610f8283610cdd565b9250828201905080821115610f9a57610f99610f3d565b5b92915050565b610fa981610cdd565b82525050565b6000602082019050610fc46000830184610fa0565b92915050565b6000604082019050610fdf6000830185610f13565b610fec6020830184610fa0565b9392505050565b61217a806110026000396000f3fe608060405234801561001057600080fd5b50600436106101165760003560e01c806370a08231116100a2578063a22cb46511610071578063a22cb465146102df578063b88d4fde146102fb578063c87b56dd14610317578063e985e9c514610347578063f2fde38b1461037757610116565b806370a0823114610269578063715018a6146102995780638da5cb5b146102a357806395d89b41146102c157610116565b806323b872dd116100e957806323b872dd146101b557806342842e0e146101d15780636352211e146101ed57806365f68c891461021d5780636a6278421461024d57610116565b806301ffc9a71461011b57806306fdde031461014b578063081812fc14610169578063095ea7b314610199575b600080fd5b61013560048036038101906101309190611961565b610393565b60405161014291906119a9565b60405180910390f35b610153610475565b6040516101609190611a54565b60405180910390f35b610183600480360381019061017e9190611aac565b610507565b6040516101909190611b1a565b60405180910390f35b6101b360048036038101906101ae9190611b61565b610523565b005b6101cf60048036038101906101ca9190611ba1565b610539565b005b6101eb60048036038101906101e69190611ba1565b61063b565b005b61020760048036038101906102029190611aac565b61065b565b6040516102149190611b1a565b60405180910390f35b61023760048036038101906102329190611bf4565b61066d565b6040516102449190611c30565b60405180910390f35b61026760048036038101906102629190611bf4565b6106b6565b005b610283600480360381019061027e9190611bf4565b610725565b6040516102909190611c30565b60405180910390f35b6102a16107df565b005b6102ab6107f3565b6040516102b89190611b1a565b60405180910390f35b6102c961081d565b6040516102d69190611a54565b60405180910390f35b6102f960048036038101906102f49190611c77565b6108af565b005b61031560048036038101906103109190611dec565b6108c5565b005b610331600480360381019061032c9190611aac565b6108ea565b60405161033e9190611a54565b60405180910390f35b610361600480360381019061035c9190611e6f565b610953565b60405161036e91906119a9565b60405180910390f35b610391600480360381019061038c9190611bf4565b6109e7565b005b60007f80ac58cd000000000000000000000000000000000000000000000000000000007bffffffffffffffffffffffffffffffffffffffffffffffffffffffff1916827bffffffffffffffffffffffffffffffffffffffffffffffffffffffff1916148061045e57507f5b5e139f000000000000000000000000000000000000000000000000000000007bffffffffffffffffffffffffffffffffffffffffffffffffffffffff1916827bffffffffffffffffffffffffffffffffffffffffffffffffffffffff1916145b8061046e575061046d82610a6d565b5b9050919050565b60606000805461048490611ede565b80601f01602080910402602001604051908101604052809291908181526020018280546104b090611ede565b80156104fd5780601f106104d2576101008083540402835291602001916104fd565b820191906000526020600020905b8154815290600101906020018083116104e057829003601f168201915b5050505050905090565b600061051282610ad7565b5061051c82610b5f565b9050919050565b6105358282610530610b9c565b610ba4565b5050565b600073ffffffffffffffffffffffffffffffffffffffff168273ffffffffffffffffffffffffffffffffffffffff16036105ab5760006040517f64a0ae920000000000000000000000000000000000000000000000000000000081526004016105a29190611b1a565b60405180910390fd5b60006105bf83836105ba610b9c565b610bb6565b90508373ffffffffffffffffffffffffffffffffffffffff168173ffffffffffffffffffffffffffffffffffffffff1614610635578382826040517f64283d7b00000000000000000000000000000000000000000000000000000000815260040161062c93929190611f0f565b60405180910390fd5b50505050565b610656838383604051806020016040528060008152506108c5565b505050565b600061066682610ad7565b9050919050565b6000600860008373ffffffffffffffffffffffffffffffffffffffff1673ffffffffffffffffffffffffffffffffffffffff168152602001908152602001600020549050919050565b6001600760008282546106c99190611f75565b925050819055506106dc81600754610dd0565b600754600860008373ffffffffffffffffffffffffffffffffffffffff1673ffffffffffffffffffffffffffffffffffffffff1681526020019081526020016000208190555050565b60008073ffffffffffffffffffffffffffffffffffffffff168273ffffffffffffffffffffffffffffffffffffffff16036107985760006040517f89c62b6400000000000000000000000000000000000000000000000000000000815260040161078f9190611b1a565b60405180910390fd5b600360008373ffffffffffffffffffffffffffffffffffffffff1673ffffffffffffffffffffffffffffffffffffffff168152602001908152602001600020549050919050565b6107e7610ec9565b6107f16000610f50565b565b6000600660009054906101000a900473ffffffffffffffffffffffffffffffffffffffff16905090565b60606001805461082c90611ede565b80601f016020809104026020016040519081016040528092919081815260200182805461085890611ede565b80156108a55780601f1061087a576101008083540402835291602001916108a5565b820191906000526020600020905b81548152906001019060200180831161088857829003601f168201915b5050505050905090565b6108c16108ba610b9c565b8383611016565b5050565b6108d0848484610539565b6108e46108db610b9c565b85858585611185565b50505050565b60606108f582610ad7565b506000610900611336565b90506000815111610920576040518060200160405280600081525061094b565b8061092a8461134d565b60405160200161093b929190611fe5565b6040516020818303038152906040525b915050919050565b6000600560008473ffffffffffffffffffffffffffffffffffffffff1673ffffffffffffffffffffffffffffffffffffffff16815260200190815260200160002060008373ffffffffffffffffffffffffffffffffffffffff1673ffffffffffffffffffffffffffffffffffffffff16815260200190815260200160002060009054906101000a900460ff16905092915050565b6109ef610ec9565b600073ffffffffffffffffffffffffffffffffffffffff168173ffffffffffffffffffffffffffffffffffffffff1603610a615760006040517f1e4fbdf7000000000000000000000000000000000000000000000000000000008152600401610a589190611b1a565b60405180910390fd5b610a6a81610f50565b50565b60007f01ffc9a7000000000000000000000000000000000000000000000000000000007bffffffffffffffffffffffffffffffffffffffffffffffffffffffff1916827bffffffffffffffffffffffffffffffffffffffffffffffffffffffff1916149050919050565b600080610ae38361141b565b9050600073ffffffffffffffffffffffffffffffffffffffff168173ffffffffffffffffffffffffffffffffffffffff1603610b5657826040517f7e273289000000000000000000000000000000000000000000000000000000008152600401610b4d9190611c30565b60405180910390fd5b80915050919050565b60006004600083815260200190815260200160002060009054906101000a900473ffffffffffffffffffffffffffffffffffffffff169050919050565b600033905090565b610bb18383836001611458565b505050565b600080610bc28461141b565b9050600073ffffffffffffffffffffffffffffffffffffffff168373ffffffffffffffffffffffffffffffffffffffff1614610c0457610c0381848661161d565b5b600073ffffffffffffffffffffffffffffffffffffffff168173ffffffffffffffffffffffffffffffffffffffff1614610c9557610c46600085600080611458565b6001600360008373ffffffffffffffffffffffffffffffffffffffff1673ffffffffffffffffffffffffffffffffffffffff168152602001908152602001600020600082825403925050819055505b600073ffffffffffffffffffffffffffffffffffffffff168573ffffffffffffffffffffffffffffffffffffffff1614610d18576001600360008773ffffffffffffffffffffffffffffffffffffffff1673ffffffffffffffffffffffffffffffffffffffff168152602001908152602001600020600082825401925050819055505b846002600086815260200190815260200160002060006101000a81548173ffffffffffffffffffffffffffffffffffffffff021916908373ffffffffffffffffffffffffffffffffffffffff160217905550838573ffffffffffffffffffffffffffffffffffffffff168273ffffffffffffffffffffffffffffffffffffffff167fddf252ad1be2c89b69c2b068fc378daa952ba7f163c4a11628f55a4df523b3ef60405160405180910390a4809150509392505050565b600073ffffffffffffffffffffffffffffffffffffffff168273ffffffffffffffffffffffffffffffffffffffff1603610e425760006040517f64a0ae92000000000000000000000000000000000000000000000000000000008152600401610e399190611b1a565b60405180910390fd5b6000610e5083836000610bb6565b9050600073ffffffffffffffffffffffffffffffffffffffff168173ffffffffffffffffffffffffffffffffffffffff1614610ec45760006040517f73c6ac6e000000000000000000000000000000000000000000000000000000008152600401610ebb9190611b1a565b60405180910390fd5b505050565b610ed1610b9c565b73ffffffffffffffffffffffffffffffffffffffff16610eef6107f3565b73ffffffffffffffffffffffffffffffffffffffff1614610f4e57610f12610b9c565b6040517f118cdaa7000000000000000000000000000000000000000000000000000000008152600401610f459190611b1a565b60405180910390fd5b565b6000600660009054906101000a900473ffffffffffffffffffffffffffffffffffffffff16905081600660006101000a81548173ffffffffffffffffffffffffffffffffffffffff021916908373ffffffffffffffffffffffffffffffffffffffff1602179055508173ffffffffffffffffffffffffffffffffffffffff168173ffffffffffffffffffffffffffffffffffffffff167f8be0079c531659141344cd1fd0a4f28419497f9722a3daafe3b4186f6b6457e060405160405180910390a35050565b600073ffffffffffffffffffffffffffffffffffffffff168273ffffffffffffffffffffffffffffffffffffffff160361108757816040517f5b08ba1800000000000000000000000000000000000000000000000000000000815260040161107e9190611b1a565b60405180910390fd5b80600560008573ffffffffffffffffffffffffffffffffffffffff1673ffffffffffffffffffffffffffffffffffffffff16815260200190815260200160002060008473ffffffffffffffffffffffffffffffffffffffff1673ffffffffffffffffffffffffffffffffffffffff16815260200190815260200160002060006101000a81548160ff0219169083151502179055508173ffffffffffffffffffffffffffffffffffffffff168373ffffffffffffffffffffffffffffffffffffffff167f17307eab39ab6107e8899845ad3d59bd9653f200f220920489ca2b5937696c318360405161117891906119a9565b60405180910390a3505050565b60008373ffffffffffffffffffffffffffffffffffffffff163b111561132f578273ffffffffffffffffffffffffffffffffffffffff1663150b7a02868685856040518563ffffffff1660e01b81526004016111e4949392919061205e565b6020604051808303816000875af192505050801561122057506040513d601f19601f8201168201806040525081019061121d91906120bf565b60015b6112a4573d8060008114611250576040519150601f19603f3d011682016040523d82523d6000602084013e611255565b606091505b50600081510361129c57836040517f64a0ae920000000000000000000000000000000000000000000000000000000081526004016112939190611b1a565b60405180910390fd5b805181602001fd5b63150b7a0260e01b7bffffffffffffffffffffffffffffffffffffffffffffffffffffffff1916817bffffffffffffffffffffffffffffffffffffffffffffffffffffffff19161461132d57836040517f64a0ae920000000000000000000000000000000000000000000000000000000081526004016113249190611b1a565b60405180910390fd5b505b5050505050565b606060405180602001604052806000815250905090565b60606000600161135c846116e1565b01905060008167ffffffffffffffff81111561137b5761137a611cc1565b5b6040519080825280601f01601f1916602001820160405280156113ad5781602001600182028036833780820191505090505b509050600082602001820190505b600115611410578080600190039150507f3031323334353637383961626364656600000000000000000000000000000000600a86061a8153600a8581611404576114036120ec565b5b049450600085036113bb575b819350505050919050565b60006002600083815260200190815260200160002060009054906101000a900473ffffffffffffffffffffffffffffffffffffffff169050919050565b80806114915750600073ffffffffffffffffffffffffffffffffffffffff168273ffffffffffffffffffffffffffffffffffffffff1614155b156115c55760006114a184610ad7565b9050600073ffffffffffffffffffffffffffffffffffffffff168373ffffffffffffffffffffffffffffffffffffffff161415801561150c57508273ffffffffffffffffffffffffffffffffffffffff168173ffffffffffffffffffffffffffffffffffffffff1614155b801561151f575061151d8184610953565b155b1561156157826040517fa9fbf51f0000000000000000000000000000000000000000000000000000000081526004016115589190611b1a565b60405180910390fd5b81156115c357838573ffffffffffffffffffffffffffffffffffffffff168273ffffffffffffffffffffffffffffffffffffffff167f8c5be1e5ebec7d5bd14f71427d1e84f3dd0314c0f7b2291e5b200ac8c7c3b92560405160405180910390a45b505b836004600085815260200190815260200160002060006101000a81548173ffffffffffffffffffffffffffffffffffffffff021916908373ffffffffffffffffffffffffffffffffffffffff16021790555050505050565b611628838383611834565b6116dc57600073ffffffffffffffffffffffffffffffffffffffff168373ffffffffffffffffffffffffffffffffffffffff160361169d57806040517f7e2732890000000000000000000000000000000000000000000000000000000081526004016116949190611c30565b60405180910390fd5b81816040517f177e802f0000000000000000000000000000000000000000000000000000000081526004016116d392919061211b565b60405180910390fd5b505050565b600080600090507a184f03e93ff9f4daa797ed6e38ed64bf6a1f010000000000000000831061173f577a184f03e93ff9f4daa797ed6e38ed64bf6a1f0100000000000000008381611735576117346120ec565b5b0492506040810190505b6d04ee2d6d415b85acef8100000000831061177c576d04ee2d6d415b85acef81000000008381611772576117716120ec565b5b0492506020810190505b662386f26fc1000083106117ab57662386f26fc1000083816117a1576117a06120ec565b5b0492506010810190505b6305f5e10083106117d4576305f5e10083816117ca576117c96120ec565b5b0492506008810190505b61271083106117f95761271083816117ef576117ee6120ec565b5b0492506004810190505b6064831061181c5760648381611812576118116120ec565b5b0492506002810190505b600a831061182b576001810190505b80915050919050565b60008073ffffffffffffffffffffffffffffffffffffffff168373ffffffffffffffffffffffffffffffffffffffff16141580156118ec57508273ffffffffffffffffffffffffffffffffffffffff168473ffffffffffffffffffffffffffffffffffffffff1614806118ad57506118ac8484610953565b5b806118eb57508273ffffffffffffffffffffffffffffffffffffffff166118d383610b5f565b73ffffffffffffffffffffffffffffffffffffffff16145b5b90509392505050565b6000604051905090565b600080fd5b600080fd5b60007fffffffff0000000000000000000000000000000000000000000000000000000082169050919050565b61193e81611909565b811461194957600080fd5b50565b60008135905061195b81611935565b92915050565b600060208284031215611977576119766118ff565b5b60006119858482850161194c565b91505092915050565b60008115159050919050565b6119a38161198e565b82525050565b60006020820190506119be600083018461199a565b92915050565b600081519050919050565b600082825260208201905092915050565b60005b838110156119fe5780820151818401526020810190506119e3565b60008484015250505050565b6000601f19601f8301169050919050565b6000611a26826119c4565b611a3081856119cf565b9350611a408185602086016119e0565b611a4981611a0a565b840191505092915050565b60006020820190508181036000830152611a6e8184611a1b565b905092915050565b6000819050919050565b611a8981611a76565b8114611a9457600080fd5b50565b600081359050611aa681611a80565b92915050565b600060208284031215611ac257611ac16118ff565b5b6000611ad084828501611a97565b91505092915050565b600073ffffffffffffffffffffffffffffffffffffffff82169050919050565b6000611b0482611ad9565b9050919050565b611b1481611af9565b82525050565b6000602082019050611b2f6000830184611b0b565b92915050565b611b3e81611af9565b8114611b4957600080fd5b50565b600081359050611b5b81611b35565b92915050565b60008060408385031215611b7857611b776118ff565b5b6000611b8685828601611b4c565b9250506020611b9785828601611a97565b9150509250929050565b600080600060608486031215611bba57611bb96118ff565b5b6000611bc886828701611b4c565b9350506020611bd986828701611b4c565b9250506040611bea86828701611a97565b9150509250925092565b600060208284031215611c0a57611c096118ff565b5b6000611c1884828501611b4c565b91505092915050565b611c2a81611a76565b82525050565b6000602082019050611c456000830184611c21565b92915050565b611c548161198e565b8114611c5f57600080fd5b50565b600081359050611c7181611c4b565b92915050565b60008060408385031215611c8e57611c8d6118ff565b5b6000611c9c85828601611b4c565b9250506020611cad85828601611c62565b9150509250929050565b600080fd5b600080fd5b7f4e487b7100000000000000000000000000000000000000000000000000000000600052604160045260246000fd5b611cf982611a0a565b810181811067ffffffffffffffff82111715611d1857611d17611cc1565b5b80604052505050565b6000611d2b6118f5565b9050611d378282611cf0565b919050565b600067ffffffffffffffff821115611d5757611d56611cc1565b5b611d6082611a0a565b9050602081019050919050565b82818337600083830152505050565b6000611d8f611d8a84611d3c565b611d21565b905082815260208101848484011115611dab57611daa611cbc565b5b611db6848285611d6d565b509392505050565b600082601f830112611dd357611dd2611cb7565b5b8135611de3848260208601611d7c565b91505092915050565b60008060008060808587031215611e0657611e056118ff565b5b6000611e1487828801611b4c565b9450506020611e2587828801611b4c565b9350506040611e3687828801611a97565b925050606085013567ffffffffffffffff811115611e5757611e56611904565b5b611e6387828801611dbe565b91505092959194509250565b60008060408385031215611e8657611e856118ff565b5b6000611e9485828601611b4c565b9250506020611ea585828601611b4c565b9150509250929050565b7f4e487b7100000000000000000000000000000000000000000000000000000000600052602260045260246000fd5b60006002820490506001821680611ef657607f821691505b602082108103611f0957611f08611eaf565b5b50919050565b6000606082019050611f246000830186611b0b565b611f316020830185611c21565b611f3e6040830184611b0b565b949350505050565b7f4e487b7100000000000000000000000000000000000000000000000000000000600052601160045260246000fd5b6000611f8082611a76565b9150611f8b83611a76565b9250828201905080821115611fa357611fa2611f46565b5b92915050565b600081905092915050565b6000611fbf826119c4565b611fc98185611fa9565b9350611fd98185602086016119e0565b80840191505092915050565b6000611ff18285611fb4565b9150611ffd8284611fb4565b91508190509392505050565b600081519050919050565b600082825260208201905092915050565b600061203082612009565b61203a8185612014565b935061204a8185602086016119e0565b61205381611a0a565b840191505092915050565b60006080820190506120736000830187611b0b565b6120806020830186611b0b565b61208d6040830185611c21565b818103606083015261209f8184612025565b905095945050505050565b6000815190506120b981611935565b92915050565b6000602082840312156120d5576120d46118ff565b5b60006120e3848285016120aa565b91505092915050565b7f4e487b7100000000000000000000000000000000000000000000000000000000600052601260045260246000fd5b60006040820190506121306000830185611b0b565b61213d6020830184611c21565b939250505056fea26469706673582212208891862a8e0df3c183c2c29d71a0b7c61db8069bd8066cc2c433e71f0348b0f964736f6c634300081c0033",
  "linkReferences": {},
  "deployedLinkReferences": {}
}