{
  "_format": "hh-sol-artifact-1",
  "contractName": "TaskPledge",
  "sourceName": "contracts/Taskpledge.sol",
  "abi": [
    {
      "inputs": [],
      "stateMutability": "nonpayable",
      "type": "constructor"
    },
    {
      "anonymous": false,
      "inputs": [
        {
          "indexed": false,
          "internalType": "address",
          "name": "charity",
          "type": "address"
        }
      ],
      "name": "CharityAdded",
      "type": "event"
    },
    {
      "anonymous": false,
      "inputs": [
        {
          "indexed": false,
          "internalType": "address",
          "name": "charity",
          "type": "address"
        }
      ],
      "name": "CharityRemoved",
      "type": "event"
    },
    {
      "anonymous": false,
      "inputs": [
        {
          "indexed": false,
          "internalType": "uint256",
          "name": "taskId",
          "type": "uint256"
        },
        {
          "indexed": false,
          "internalType": "address",
          "name": "creator",
          "type": "address"
        }
      ],
      "name": "TaskCompleted",
      "type": "event"
    },
    {
      "anonymous": false,
      "inputs": [
        {
          "indexed": false,
          "internalType": "uint256",
          "name": "taskId",
          "type": "uint256"
        },
        {
          "indexed": false,
          "internalType": "address",
          "name": "creator",
          "type": "address"
        },
        {
          "indexed": false,
          "internalType": "uint256",
          "name": "pledgeAmount",
          "type": "uint256"
        },
        {
          "indexed": false,
          "internalType": "uint256",
          "name": "deadline",
          "type": "uint256"
        }
      ],
      "name": "TaskCreated",
      "type": "event"
    },
    {
      "anonymous": false,
      "inputs": [
        {
          "indexed": false,
          "internalType": "uint256",
          "name": "taskId",
          "type": "uint256"
        },
        {
          "indexed": false,
          "internalType": "address",
          "name": "charity",
          "type": "address"
        },
        {
          "indexed": false,
          "internalType": "uint256",
          "name": "amount",
          "type": "uint256"
        }
      ],
      "name": "TaskFailed",
      "type": "event"
    },
    {
      "inputs": [
        {
          "internalType": "address",
          "name": "_charity",
          "type": "address"
        }
      ],
      "name": "addCharity",
      "outputs": [],
      "stateMutability": "nonpayable",
      "type": "function"
    },
    {
      "inputs": [
        {
          "internalType": "address",
          "name": "",
          "type": "address"
        }
      ],
      "name": "approvedCharities",
      "outputs": [
        {
          "internalType": "bool",
          "name": "",
          "type": "bool"
        }
      ],
      "stateMutability": "view",
      "type": "function"
    },
    {
      "inputs": [
        {
          "internalType": "uint256",
          "name": "_taskId",
          "type": "uint256"
        }
      ],
      "name": "checkTaskFailure",
      "outputs": [],
      "stateMutability": "nonpayable",
      "type": "function"
    },
    {
      "inputs": [
        {
          "internalType": "uint256",
          "name": "_taskId",
          "type": "uint256"
        }
      ],
      "name": "completeTask",
      "outputs": [],
      "stateMutability": "nonpayable",
      "type": "function"
    },
    {
      "inputs": [
        {
          "internalType": "string",
          "name": "_description",
          "type": "string"
        },
        {
          "internalType": "uint256",
          "name": "_deadline",
          "type": "uint256"
        },
        {
          "internalType": "address",
          "name": "_charity",
          "type": "address"
        }
      ],
      "name": "createTask",
      "outputs": [],
      "stateMutability": "payable",
      "type": "function"
    },
    {
      "inputs": [],
      "name": "owner",
      "outputs": [
        {
          "internalType": "address",
          "name": "",
          "type": "address"
        }
      ],
      "stateMutability": "view",
      "type": "function"
    },
    {
      "inputs": [
        {
          "internalType": "address",
          "name": "_charity",
          "type": "address"
        }
      ],
      "name": "removeCharity",
      "outputs": [],
      "stateMutability": "nonpayable",
      "type": "function"
    },
    {
      "inputs": [],
      "name": "taskCounter",
      "outputs": [
        {
          "internalType": "uint256",
          "name": "",
          "type": "uint256"
        }
      ],
      "stateMutability": "view",
      "type": "function"
    },
    {
      "inputs": [
        {
          "internalType": "uint256",
          "name": "",
          "type": "uint256"
        }
      ],
      "name": "tasks",
      "outputs": [
        {
          "internalType": "string",
          "name": "description",
          "type": "string"
        },
        {
          "internalType": "uint256",
          "name": "deadline",
          "type": "uint256"
        },
        {
          "internalType": "uint256",
          "name": "pledgeAmount",
          "type": "uint256"
        },
        {
          "internalType": "address",
          "name": "creator",
          "type": "address"
        },
        {
          "internalType": "bool",
          "name": "completed",
          "type": "bool"
        },
        {
          "internalType": "address",
          "name": "charity",
          "type": "address"
        }
      ],
      "stateMutability": "view",
      "type": "function"
    }
  ],
  "bytecode": "0x6080604052348015600f57600080fd5b50336000806101000a81548173ffffffffffffffffffffffffffffffffffffffff021916908373ffffffffffffffffffffffffffffffffffffffff1602179055506118f08061005f6000396000f3fe6080604052600436106100865760003560e01c806378b14f0a1161005957806378b14f0a146101385780638d977672146101615780638da5cb5b146101a3578063abefe591146101ce578063e1e29558146101f757610086565b8063042708171461008b5780632571a74e146100a75780633c4c4ea1146100e4578063586717301461010d575b600080fd5b6100a560048036038101906100a09190610e6e565b610220565b005b3480156100b357600080fd5b506100ce60048036038101906100c99190610edd565b61051d565b6040516100db9190610f25565b60405180910390f35b3480156100f057600080fd5b5061010b60048036038101906101069190610f40565b61053d565b005b34801561011957600080fd5b506101226106c2565b60405161012f9190610f7c565b60405180910390f35b34801561014457600080fd5b5061015f600480360381019061015a9190610edd565b6106c8565b005b34801561016d57600080fd5b5061018860048036038101906101839190610f40565b6107e8565b60405161019a96959493929190611025565b60405180910390f35b3480156101af57600080fd5b506101b86108f9565b6040516101c5919061108d565b60405180910390f35b3480156101da57600080fd5b506101f560048036038101906101f09190610edd565b61091d565b005b34801561020357600080fd5b5061021e60048036038101906102199190610f40565b610a3d565b005b6000835111610264576040517f08c379a000000000000000000000000000000000000000000000000000000000815260040161025b906110f4565b60405180910390fd5b4282116102a6576040517f08c379a000000000000000000000000000000000000000000000000000000000815260040161029d90611160565b60405180910390fd5b600034116102e9576040517f08c379a00000000000000000000000000000000000000000000000000000000081526004016102e0906111f2565b60405180910390fd5b600360008273ffffffffffffffffffffffffffffffffffffffff1673ffffffffffffffffffffffffffffffffffffffff16815260200190815260200160002060009054906101000a900460ff16610375576040517f08c379a000000000000000000000000000000000000000000000000000000000815260040161036c9061125e565b60405180910390fd5b60026000815480929190610388906112ad565b91905055506040518060c001604052808481526020018381526020013481526020013373ffffffffffffffffffffffffffffffffffffffff1681526020016000151581526020018273ffffffffffffffffffffffffffffffffffffffff1681525060016000600254815260200190815260200160002060008201518160000190816104139190611501565b50602082015181600101556040820151816002015560608201518160030160006101000a81548173ffffffffffffffffffffffffffffffffffffffff021916908373ffffffffffffffffffffffffffffffffffffffff16021790555060808201518160030160146101000a81548160ff02191690831515021790555060a08201518160040160006101000a81548173ffffffffffffffffffffffffffffffffffffffff021916908373ffffffffffffffffffffffffffffffffffffffff1602179055509050507ff5ac772f880dc6ed6b50db24e062bbc51818e270ed47533fd9162e5255fa291360025433348560405161051094939291906115d3565b60405180910390a1505050565b60036020528060005260406000206000915054906101000a900460ff1681565b60006001600083815260200190815260200160002090508060010154421161059a576040517f08c379a000000000000000000000000000000000000000000000000000000000815260040161059190611664565b60405180910390fd5b8060030160149054906101000a900460ff16156105ec576040517f08c379a00000000000000000000000000000000000000000000000000000000081526004016105e3906116d0565b60405180910390fd5b8060040160009054906101000a900473ffffffffffffffffffffffffffffffffffffffff1673ffffffffffffffffffffffffffffffffffffffff166108fc82600201549081150290604051600060405180830381858888f1935050505015801561065a573d6000803e3d6000fd5b507f8b193d3376a80fbe0e01aa5512fcddf19c1c39f4861538f999e09db95a33581a828260040160009054906101000a900473ffffffffffffffffffffffffffffffffffffffff1683600201546040516106b6939291906116f0565b60405180910390a15050565b60025481565b60008054906101000a900473ffffffffffffffffffffffffffffffffffffffff1673ffffffffffffffffffffffffffffffffffffffff163373ffffffffffffffffffffffffffffffffffffffff1614610756576040517f08c379a000000000000000000000000000000000000000000000000000000000815260040161074d90611799565b60405180910390fd5b6001600360008373ffffffffffffffffffffffffffffffffffffffff1673ffffffffffffffffffffffffffffffffffffffff16815260200190815260200160002060006101000a81548160ff0219169083151502179055507fc17dc19a503d796a336a016f10743118db2bdadb16ac4c19aff0160756098635816040516107dd919061108d565b60405180910390a150565b600160205280600052604060002060009150905080600001805461080b90611324565b80601f016020809104026020016040519081016040528092919081815260200182805461083790611324565b80156108845780601f1061085957610100808354040283529160200191610884565b820191906000526020600020905b81548152906001019060200180831161086757829003601f168201915b5050505050908060010154908060020154908060030160009054906101000a900473ffffffffffffffffffffffffffffffffffffffff16908060030160149054906101000a900460ff16908060040160009054906101000a900473ffffffffffffffffffffffffffffffffffffffff16905086565b60008054906101000a900473ffffffffffffffffffffffffffffffffffffffff1681565b60008054906101000a900473ffffffffffffffffffffffffffffffffffffffff1673ffffffffffffffffffffffffffffffffffffffff163373ffffffffffffffffffffffffffffffffffffffff16146109ab576040517f08c379a00000000000000000000000000000000000000000000000000000000081526004016109a290611799565b60405180910390fd5b6000600360008373ffffffffffffffffffffffffffffffffffffffff1673ffffffffffffffffffffffffffffffffffffffff16815260200190815260200160002060006101000a81548160ff0219169083151502179055507f7db8df158d85e9475e8dd97a5e3e193c67dc6d977d2fc4f7321049b6c0b70e9381604051610a32919061108d565b60405180910390a150565b806001600082815260200190815260200160002060030160009054906101000a900473ffffffffffffffffffffffffffffffffffffffff1673ffffffffffffffffffffffffffffffffffffffff163373ffffffffffffffffffffffffffffffffffffffff1614610ae2576040517f08c379a0000000000000000000000000000000000000000000000000000000008152600401610ad990611805565b60405180910390fd5b60006001600084815260200190815260200160002090508060010154421115610b40576040517f08c379a0000000000000000000000000000000000000000000000000000000008152600401610b3790611871565b60405180910390fd5b8060030160149054906101000a900460ff1615610b92576040517f08c379a0000000000000000000000000000000000000000000000000000000008152600401610b89906116d0565b60405180910390fd5b60018160030160146101000a81548160ff0219169083151502179055508060030160009054906101000a900473ffffffffffffffffffffffffffffffffffffffff1673ffffffffffffffffffffffffffffffffffffffff166108fc82600201549081150290604051600060405180830381858888f19350505050158015610c1d573d6000803e3d6000fd5b507fbb5889c77948badf90e8a5c73d55265e5f5d6e4837a79a78c5669691b897faed838260030160009054906101000a900473ffffffffffffffffffffffffffffffffffffffff16604051610c73929190611891565b60405180910390a1505050565b6000604051905090565b600080fd5b600080fd5b600080fd5b600080fd5b6000601f19601f8301169050919050565b7f4e487b7100000000000000000000000000000000000000000000000000000000600052604160045260246000fd5b610ce782610c9e565b810181811067ffffffffffffffff82111715610d0657610d05610caf565b5b80604052505050565b6000610d19610c80565b9050610d258282610cde565b919050565b600067ffffffffffffffff821115610d4557610d44610caf565b5b610d4e82610c9e565b9050602081019050919050565b82818337600083830152505050565b6000610d7d610d7884610d2a565b610d0f565b905082815260208101848484011115610d9957610d98610c99565b5b610da4848285610d5b565b509392505050565b600082601f830112610dc157610dc0610c94565b5b8135610dd1848260208601610d6a565b91505092915050565b6000819050919050565b610ded81610dda565b8114610df857600080fd5b50565b600081359050610e0a81610de4565b92915050565b600073ffffffffffffffffffffffffffffffffffffffff82169050919050565b6000610e3b82610e10565b9050919050565b610e4b81610e30565b8114610e5657600080fd5b50565b600081359050610e6881610e42565b92915050565b600080600060608486031215610e8757610e86610c8a565b5b600084013567ffffffffffffffff811115610ea557610ea4610c8f565b5b610eb186828701610dac565b9350506020610ec286828701610dfb565b9250506040610ed386828701610e59565b9150509250925092565b600060208284031215610ef357610ef2610c8a565b5b6000610f0184828501610e59565b91505092915050565b60008115159050919050565b610f1f81610f0a565b82525050565b6000602082019050610f3a6000830184610f16565b92915050565b600060208284031215610f5657610f55610c8a565b5b6000610f6484828501610dfb565b91505092915050565b610f7681610dda565b82525050565b6000602082019050610f916000830184610f6d565b92915050565b600081519050919050565b600082825260208201905092915050565b60005b83811015610fd1578082015181840152602081019050610fb6565b60008484015250505050565b6000610fe882610f97565b610ff28185610fa2565b9350611002818560208601610fb3565b61100b81610c9e565b840191505092915050565b61101f81610e30565b82525050565b600060c082019050818103600083015261103f8189610fdd565b905061104e6020830188610f6d565b61105b6040830187610f6d565b6110686060830186611016565b6110756080830185610f16565b61108260a0830184611016565b979650505050505050565b60006020820190506110a26000830184611016565b92915050565b7f4465736372697074696f6e207265717569726564000000000000000000000000600082015250565b60006110de601483610fa2565b91506110e9826110a8565b602082019050919050565b6000602082019050818103600083015261110d816110d1565b9050919050565b7f446561646c696e65206d75737420626520696e20746865206675747572650000600082015250565b600061114a601e83610fa2565b915061115582611114565b602082019050919050565b600060208201905081810360008301526111798161113d565b9050919050565b7f506c6564676520616d6f756e74206d757374206265206772656174657220746860008201527f616e207a65726f00000000000000000000000000000000000000000000000000602082015250565b60006111dc602783610fa2565b91506111e782611180565b604082019050919050565b6000602082019050818103600083015261120b816111cf565b9050919050565b7f43686172697479206e6f7420617070726f766564000000000000000000000000600082015250565b6000611248601483610fa2565b915061125382611212565b602082019050919050565b600060208201905081810360008301526112778161123b565b9050919050565b7f4e487b7100000000000000000000000000000000000000000000000000000000600052601160045260246000fd5b60006112b882610dda565b91507fffffffffffffffffffffffffffffffffffffffffffffffffffffffffffffffff82036112ea576112e961127e565b5b600182019050919050565b7f4e487b7100000000000000000000000000000000000000000000000000000000600052602260045260246000fd5b6000600282049050600182168061133c57607f821691505b60208210810361134f5761134e6112f5565b5b50919050565b60008190508160005260206000209050919050565b60006020601f8301049050919050565b600082821b905092915050565b6000600883026113b77fffffffffffffffffffffffffffffffffffffffffffffffffffffffffffffffff8261137a565b6113c1868361137a565b95508019841693508086168417925050509392505050565b6000819050919050565b60006113fe6113f96113f484610dda565b6113d9565b610dda565b9050919050565b6000819050919050565b611418836113e3565b61142c61142482611405565b848454611387565b825550505050565b600090565b611441611434565b61144c81848461140f565b505050565b5b8181101561147057611465600082611439565b600181019050611452565b5050565b601f8211156114b55761148681611355565b61148f8461136a565b8101602085101561149e578190505b6114b26114aa8561136a565b830182611451565b50505b505050565b600082821c905092915050565b60006114d8600019846008026114ba565b1980831691505092915050565b60006114f183836114c7565b9150826002028217905092915050565b61150a82610f97565b67ffffffffffffffff81111561152357611522610caf565b5b61152d8254611324565b611538828285611474565b600060209050601f83116001811461156b5760008415611559578287015190505b61156385826114e5565b8655506115cb565b601f19841661157986611355565b60005b828110156115a15784890151825560018201915060208501945060208101905061157c565b868310156115be57848901516115ba601f8916826114c7565b8355505b6001600288020188555050505b505050505050565b60006080820190506115e86000830187610f6d565b6115f56020830186611016565b6116026040830185610f6d565b61160f6060830184610f6d565b95945050505050565b7f5461736b20646561646c696e65206e6f74207265616368656400000000000000600082015250565b600061164e601983610fa2565b915061165982611618565b602082019050919050565b6000602082019050818103600083015261167d81611641565b9050919050565b7f5461736b20616c726561647920636f6d706c6574656400000000000000000000600082015250565b60006116ba601683610fa2565b91506116c582611684565b602082019050919050565b600060208201905081810360008301526116e9816116ad565b9050919050565b60006060820190506117056000830186610f6d565b6117126020830185611016565b61171f6040830184610f6d565b949350505050565b7f4f6e6c79206f776e65722063616e20706572666f726d2074686973206163746960008201527f6f6e000000000000000000000000000000000000000000000000000000000000602082015250565b6000611783602283610fa2565b915061178e82611727565b604082019050919050565b600060208201905081810360008301526117b281611776565b9050919050565b7f4e6f74207461736b2063726561746f7200000000000000000000000000000000600082015250565b60006117ef601083610fa2565b91506117fa826117b9565b602082019050919050565b6000602082019050818103600083015261181e816117e2565b9050919050565b7f446561646c696e65207061737365640000000000000000000000000000000000600082015250565b600061185b600f83610fa2565b915061186682611825565b602082019050919050565b6000602082019050818103600083015261188a8161184e565b9050919050565b60006040820190506118a66000830185610f6d565b6118b36020830184611016565b939250505056fea264697066735822122081474445e2474cd67b0d7692c14bf3b1bc64471653da8f147089936be430b0ca64736f6c634300081c0033",
  "linkReferences": {},
  "deployedLinkReferences": {}
}