{
  "_format": "hh-sol-artifact-1",
  "contractName": "ScholarshipFund",
  "sourceName": "contracts/ScholarshipFund.sol",
  "abi": [
    {
      "inputs": [],
      "stateMutability": "nonpayable",
      "type": "constructor"
    },
    {
      "anonymous": false,
      "inputs": [
        {
          "indexed": true,
          "internalType": "address",
          "name": "donor",
          "type": "address"
        },
        {
          "indexed": false,
          "internalType": "uint256",
          "name": "amount",
          "type": "uint256"
        }
      ],
      "name": "FundsDeposited",
      "type": "event"
    },
    {
      "anonymous": false,
      "inputs": [
        {
          "indexed": true,
          "internalType": "address",
          "name": "student",
          "type": "address"
        },
        {
          "indexed": false,
          "internalType": "uint256",
          "name": "amount",
          "type": "uint256"
        }
      ],
      "name": "ScholarshipAwarded",
      "type": "event"
    },
    {
      "inputs": [
        {
          "internalType": "string",
          "name": "_name",
          "type": "string"
        },
        {
          "internalType": "uint256",
          "name": "_age",
          "type": "uint256"
        }
      ],
      "name": "applyForScholarship",
      "outputs": [],
      "stateMutability": "nonpayable",
      "type": "function"
    },
    {
      "inputs": [
        {
          "internalType": "address",
          "name": "studentAddr",
          "type": "address"
        },
        {
          "internalType": "string",
          "name": "_name",
          "type": "string"
        },
        {
          "internalType": "uint256",
          "name": "_amount",
          "type": "uint256"
        }
      ],
      "name": "awardScholarship",
      "outputs": [],
      "stateMutability": "nonpayable",
      "type": "function"
    },
    {
      "inputs": [],
      "name": "donate",
      "outputs": [],
      "stateMutability": "payable",
      "type": "function"
    },
    {
      "inputs": [],
      "name": "owner",
      "outputs": [
        {
          "internalType": "address",
          "name": "",
          "type": "address"
        }
      ],
      "stateMutability": "view",
      "type": "function"
    },
    {
      "inputs": [
        {
          "internalType": "address",
          "name": "",
          "type": "address"
        }
      ],
      "name": "scholarships",
      "outputs": [
        {
          "internalType": "string",
          "name": "name",
          "type": "string"
        },
        {
          "internalType": "uint256",
          "name": "amount",
          "type": "uint256"
        },
        {
          "internalType": "bool",
          "name": "awarded",
          "type": "bool"
        }
      ],
      "stateMutability": "view",
      "type": "function"
    },
    {
      "inputs": [
        {
          "internalType": "address",
          "name": "",
          "type": "address"
        }
      ],
      "name": "students",
      "outputs": [
        {
          "internalType": "string",
          "name": "name",
          "type": "string"
        },
        {
          "internalType": "uint256",
          "name": "age",
          "type": "uint256"
        },
        {
          "internalType": "bool",
          "name": "hasApplied",
          "type": "bool"
        }
      ],
      "stateMutability": "view",
      "type": "function"
    },
    {
      "inputs": [],
      "name": "totalFunds",
      "outputs": [
        {
          "internalType": "uint256",
          "name": "",
          "type": "uint256"
        }
      ],
      "stateMutability": "view",
      "type": "function"
    }
  ],
  "bytecode": "0x6080604052348015600f57600080fd5b50336000806101000a81548173ffffffffffffffffffffffffffffffffffffffff021916908373ffffffffffffffffffffffffffffffffffffffff1602179055506113678061005f6000396000f3fe6080604052600436106100705760003560e01c8063968ed6001161004e578063968ed60014610108578063a6c807a914610133578063bc920d6614610172578063ed88c68e1461019b57610070565b80632b79be9314610075578063610629621461009e5780638da5cb5b146100dd575b600080fd5b34801561008157600080fd5b5061009c60048036038101906100979190610a46565b6101a5565b005b3480156100aa57600080fd5b506100c560048036038101906100c09190610b00565b61031d565b6040516100d493929190610bd6565b60405180910390f35b3480156100e957600080fd5b506100f26103dc565b6040516100ff9190610c23565b60405180910390f35b34801561011457600080fd5b5061011d610400565b60405161012a9190610c3e565b60405180910390f35b34801561013f57600080fd5b5061015a60048036038101906101559190610b00565b610406565b60405161016993929190610bd6565b60405180910390f35b34801561017e57600080fd5b5061019960048036038101906101949190610c59565b6104c5565b005b6101a361080a565b005b600260003373ffffffffffffffffffffffffffffffffffffffff1673ffffffffffffffffffffffffffffffffffffffff16815260200190815260200160002060020160009054906101000a900460ff1615610235576040517f08c379a000000000000000000000000000000000000000000000000000000000815260040161022c90610d14565b60405180910390fd5b6012811015610279576040517f08c379a000000000000000000000000000000000000000000000000000000000815260040161027090610d80565b60405180910390fd5b604051806060016040528083815260200182815260200160011515815250600260003373ffffffffffffffffffffffffffffffffffffffff1673ffffffffffffffffffffffffffffffffffffffff16815260200190815260200160002060008201518160000190816102eb9190610fac565b506020820151816001015560408201518160020160006101000a81548160ff0219169083151502179055509050505050565b600360205280600052604060002060009150905080600001805461034090610dcf565b80601f016020809104026020016040519081016040528092919081815260200182805461036c90610dcf565b80156103b95780601f1061038e576101008083540402835291602001916103b9565b820191906000526020600020905b81548152906001019060200180831161039c57829003601f168201915b5050505050908060010154908060020160009054906101000a900460ff16905083565b60008054906101000a900473ffffffffffffffffffffffffffffffffffffffff1681565b60015481565b600260205280600052604060002060009150905080600001805461042990610dcf565b80601f016020809104026020016040519081016040528092919081815260200182805461045590610dcf565b80156104a25780601f10610477576101008083540402835291602001916104a2565b820191906000526020600020905b81548152906001019060200180831161048557829003601f168201915b5050505050908060010154908060020160009054906101000a900460ff16905083565b60008054906101000a900473ffffffffffffffffffffffffffffffffffffffff1673ffffffffffffffffffffffffffffffffffffffff163373ffffffffffffffffffffffffffffffffffffffff1614610553576040517f08c379a000000000000000000000000000000000000000000000000000000000815260040161054a906110ca565b60405180910390fd5b600260008473ffffffffffffffffffffffffffffffffffffffff1673ffffffffffffffffffffffffffffffffffffffff16815260200190815260200160002060020160009054906101000a900460ff166105e2576040517f08c379a00000000000000000000000000000000000000000000000000000000081526004016105d990611136565b60405180910390fd5b600154811115610627576040517f08c379a000000000000000000000000000000000000000000000000000000000815260040161061e906111a2565b60405180910390fd5b600360008473ffffffffffffffffffffffffffffffffffffffff1673ffffffffffffffffffffffffffffffffffffffff16815260200190815260200160002060020160009054906101000a900460ff16156106b7576040517f08c379a00000000000000000000000000000000000000000000000000000000081526004016106ae9061120e565b60405180910390fd5b604051806060016040528083815260200182815260200160011515815250600360008573ffffffffffffffffffffffffffffffffffffffff1673ffffffffffffffffffffffffffffffffffffffff16815260200190815260200160002060008201518160000190816107299190610fac565b506020820151816001015560408201518160020160006101000a81548160ff0219169083151502179055509050508060016000828254610769919061125d565b925050819055508273ffffffffffffffffffffffffffffffffffffffff166108fc829081150290604051600060405180830381858888f193505050501580156107b6573d6000803e3d6000fd5b508273ffffffffffffffffffffffffffffffffffffffff167f9698d62609dc8cc63e1bbe6fd980ab7bffd442db052ae70a77a6a3f0bb653af6826040516107fd9190610c3e565b60405180910390a2505050565b6000341161084d576040517f08c379a0000000000000000000000000000000000000000000000000000000008152600401610844906112dd565b60405180910390fd5b346001600082825461085f91906112fd565b925050819055503373ffffffffffffffffffffffffffffffffffffffff167f543ba50a5eec5e6178218e364b1d0f396157b3c8fa278522c2cb7fd99407d474346040516108ac9190610c3e565b60405180910390a2565b6000604051905090565b600080fd5b600080fd5b600080fd5b600080fd5b6000601f19601f8301169050919050565b7f4e487b7100000000000000000000000000000000000000000000000000000000600052604160045260246000fd5b61091d826108d4565b810181811067ffffffffffffffff8211171561093c5761093b6108e5565b5b80604052505050565b600061094f6108b6565b905061095b8282610914565b919050565b600067ffffffffffffffff82111561097b5761097a6108e5565b5b610984826108d4565b9050602081019050919050565b82818337600083830152505050565b60006109b36109ae84610960565b610945565b9050828152602081018484840111156109cf576109ce6108cf565b5b6109da848285610991565b509392505050565b600082601f8301126109f7576109f66108ca565b5b8135610a078482602086016109a0565b91505092915050565b6000819050919050565b610a2381610a10565b8114610a2e57600080fd5b50565b600081359050610a4081610a1a565b92915050565b60008060408385031215610a5d57610a5c6108c0565b5b600083013567ffffffffffffffff811115610a7b57610a7a6108c5565b5b610a87858286016109e2565b9250506020610a9885828601610a31565b9150509250929050565b600073ffffffffffffffffffffffffffffffffffffffff82169050919050565b6000610acd82610aa2565b9050919050565b610add81610ac2565b8114610ae857600080fd5b50565b600081359050610afa81610ad4565b92915050565b600060208284031215610b1657610b156108c0565b5b6000610b2484828501610aeb565b91505092915050565b600081519050919050565b600082825260208201905092915050565b60005b83811015610b67578082015181840152602081019050610b4c565b60008484015250505050565b6000610b7e82610b2d565b610b888185610b38565b9350610b98818560208601610b49565b610ba1816108d4565b840191505092915050565b610bb581610a10565b82525050565b60008115159050919050565b610bd081610bbb565b82525050565b60006060820190508181036000830152610bf08186610b73565b9050610bff6020830185610bac565b610c0c6040830184610bc7565b949350505050565b610c1d81610ac2565b82525050565b6000602082019050610c386000830184610c14565b92915050565b6000602082019050610c536000830184610bac565b92915050565b600080600060608486031215610c7257610c716108c0565b5b6000610c8086828701610aeb565b935050602084013567ffffffffffffffff811115610ca157610ca06108c5565b5b610cad868287016109e2565b9250506040610cbe86828701610a31565b9150509250925092565b7f416c7265616479206170706c6965640000000000000000000000000000000000600082015250565b6000610cfe600f83610b38565b9150610d0982610cc8565b602082019050919050565b60006020820190508181036000830152610d2d81610cf1565b9050919050565b7f4d757374206265206174206c65617374203138207965617273206f6c64000000600082015250565b6000610d6a601d83610b38565b9150610d7582610d34565b602082019050919050565b60006020820190508181036000830152610d9981610d5d565b9050919050565b7f4e487b7100000000000000000000000000000000000000000000000000000000600052602260045260246000fd5b60006002820490506001821680610de757607f821691505b602082108103610dfa57610df9610da0565b5b50919050565b60008190508160005260206000209050919050565b60006020601f8301049050919050565b600082821b905092915050565b600060088302610e627fffffffffffffffffffffffffffffffffffffffffffffffffffffffffffffffff82610e25565b610e6c8683610e25565b95508019841693508086168417925050509392505050565b6000819050919050565b6000610ea9610ea4610e9f84610a10565b610e84565b610a10565b9050919050565b6000819050919050565b610ec383610e8e565b610ed7610ecf82610eb0565b848454610e32565b825550505050565b600090565b610eec610edf565b610ef7818484610eba565b505050565b5b81811015610f1b57610f10600082610ee4565b600181019050610efd565b5050565b601f821115610f6057610f3181610e00565b610f3a84610e15565b81016020851015610f49578190505b610f5d610f5585610e15565b830182610efc565b50505b505050565b600082821c905092915050565b6000610f8360001984600802610f65565b1980831691505092915050565b6000610f9c8383610f72565b9150826002028217905092915050565b610fb582610b2d565b67ffffffffffffffff811115610fce57610fcd6108e5565b5b610fd88254610dcf565b610fe3828285610f1f565b600060209050601f8311600181146110165760008415611004578287015190505b61100e8582610f90565b865550611076565b601f19841661102486610e00565b60005b8281101561104c57848901518255600182019150602085019450602081019050611027565b868310156110695784890151611065601f891682610f72565b8355505b6001600288020188555050505b505050505050565b7f4e6f7420617574686f72697a6564000000000000000000000000000000000000600082015250565b60006110b4600e83610b38565b91506110bf8261107e565b602082019050919050565b600060208201905081810360008301526110e3816110a7565b9050919050565b7f53747564656e7420686173206e6f74206170706c696564000000000000000000600082015250565b6000611120601783610b38565b915061112b826110ea565b602082019050919050565b6000602082019050818103600083015261114f81611113565b9050919050565b7f496e73756666696369656e742066756e64730000000000000000000000000000600082015250565b600061118c601283610b38565b915061119782611156565b602082019050919050565b600060208201905081810360008301526111bb8161117f565b9050919050565b7f5363686f6c61727368697020616c726561647920617761726465640000000000600082015250565b60006111f8601b83610b38565b9150611203826111c2565b602082019050919050565b60006020820190508181036000830152611227816111eb565b9050919050565b7f4e487b7100000000000000000000000000000000000000000000000000000000600052601160045260246000fd5b600061126882610a10565b915061127383610a10565b925082820390508181111561128b5761128a61122e565b5b92915050565b7f446f6e6174696f6e206d7573742062652067726561746572207468616e203000600082015250565b60006112c7601f83610b38565b91506112d282611291565b602082019050919050565b600060208201905081810360008301526112f6816112ba565b9050919050565b600061130882610a10565b915061131383610a10565b925082820190508082111561132b5761132a61122e565b5b9291505056fea264697066735822122000261ba8bfae0e1008b7501fa69feaaca2b246f8f8f80719db58d3ed2402b67b64736f6c634300081c0033",
  "linkReferences": {},
  "deployedLinkReferences": {}
}