{
  "_format": "hh-sol-artifact-1",
  "contractName": "Wallet",
  "sourceName": "contracts/Wallet.sol",
  "abi": [
    {
      "inputs": [],
      "stateMutability": "nonpayable",
      "type": "constructor"
    },
    {
      "inputs": [
        {
          "internalType": "address",
          "name": "",
          "type": "address"
        }
      ],
      "name": "allowance",
      "outputs": [
        {
          "internalType": "uint256",
          "name": "",
          "type": "uint256"
        }
      ],
      "stateMutability": "view",
      "type": "function"
    },
    {
      "inputs": [],
      "name": "confirmationsFromGuardiansForReset",
      "outputs": [
        {
          "internalType": "uint256",
          "name": "",
          "type": "uint256"
        }
      ],
      "stateMutability": "view",
      "type": "function"
    },
    {
      "inputs": [
        {
          "internalType": "address",
          "name": "_from",
          "type": "address"
        }
      ],
      "name": "denySending",
      "outputs": [],
      "stateMutability": "nonpayable",
      "type": "function"
    },
    {
      "inputs": [
        {
          "internalType": "address",
          "name": "",
          "type": "address"
        }
      ],
      "name": "isAllowedToSend",
      "outputs": [
        {
          "internalType": "bool",
          "name": "",
          "type": "bool"
        }
      ],
      "stateMutability": "view",
      "type": "function"
    },
    {
      "inputs": [
        {
          "internalType": "address",
          "name": "",
          "type": "address"
        }
      ],
      "name": "isGuardian",
      "outputs": [
        {
          "internalType": "bool",
          "name": "",
          "type": "bool"
        }
      ],
      "stateMutability": "view",
      "type": "function"
    },
    {
      "inputs": [
        {
          "internalType": "address payable",
          "name": "newOwner",
          "type": "address"
        }
      ],
      "name": "proposeNewOwner",
      "outputs": [],
      "stateMutability": "nonpayable",
      "type": "function"
    },
    {
      "inputs": [
        {
          "internalType": "address",
          "name": "_from",
          "type": "address"
        },
        {
          "internalType": "uint256",
          "name": "_amount",
          "type": "uint256"
        }
      ],
      "name": "setAllowance",
      "outputs": [],
      "stateMutability": "nonpayable",
      "type": "function"
    },
    {
      "inputs": [
        {
          "internalType": "address payable",
          "name": "_to",
          "type": "address"
        },
        {
          "internalType": "uint256",
          "name": "_amount",
          "type": "uint256"
        },
        {
          "internalType": "bytes",
          "name": "payload",
          "type": "bytes"
        }
      ],
      "name": "transfer",
      "outputs": [
        {
          "internalType": "bytes",
          "name": "",
          "type": "bytes"
        }
      ],
      "stateMutability": "nonpayable",
      "type": "function"
    },
    {
      "stateMutability": "payable",
      "type": "receive"
    }
  ],
  "bytecode": "0x6080604052348015600f57600080fd5b50336000806101000a81548173ffffffffffffffffffffffffffffffffffffffff021916908373ffffffffffffffffffffffffffffffffffffffff1602179055506114628061005f6000396000f3fe60806040526004361061007f5760003560e01c80637673de531161004e5780637673de531461016b57806383012be114610194578063b1f8100d146101bf578063be45fd62146101e857610086565b80630bc605ad1461008b5780630c68ba21146100c8578063310ec4a7146101055780633e5beab91461012e57610086565b3661008657005b600080fd5b34801561009757600080fd5b506100b260048036038101906100ad9190610b61565b610225565b6040516100bf9190610ba9565b60405180910390f35b3480156100d457600080fd5b506100ef60048036038101906100ea9190610b61565b610245565b6040516100fc9190610ba9565b60405180910390f35b34801561011157600080fd5b5061012c60048036038101906101279190610bfa565b610265565b005b34801561013a57600080fd5b5061015560048036038101906101509190610b61565b610421565b6040516101629190610c49565b60405180910390f35b34801561017757600080fd5b50610192600480360381019061018d9190610b61565b610439565b005b3480156101a057600080fd5b506101a96105b0565b6040516101b69190610c49565b60405180910390f35b3480156101cb57600080fd5b506101e660048036038101906101e19190610ca2565b6105b5565b005b3480156101f457600080fd5b5061020f600480360381019061020a9190610e15565b610836565b60405161021c9190610f03565b60405180910390f35b60026020528060005260406000206000915054906101000a900460ff1681565b60036020528060005260406000206000915054906101000a900460ff1681565b60008054906101000a900473ffffffffffffffffffffffffffffffffffffffff1673ffffffffffffffffffffffffffffffffffffffff163373ffffffffffffffffffffffffffffffffffffffff16146102f3576040517f08c379a00000000000000000000000000000000000000000000000000000000081526004016102ea90610f82565b60405180910390fd5b60008054906101000a900473ffffffffffffffffffffffffffffffffffffffff1673ffffffffffffffffffffffffffffffffffffffff163373ffffffffffffffffffffffffffffffffffffffff1614610381576040517f08c379a000000000000000000000000000000000000000000000000000000000815260040161037890610fee565b60405180910390fd5b80600160008473ffffffffffffffffffffffffffffffffffffffff1673ffffffffffffffffffffffffffffffffffffffff168152602001908152602001600020819055506001600260008473ffffffffffffffffffffffffffffffffffffffff1673ffffffffffffffffffffffffffffffffffffffff16815260200190815260200160002060006101000a81548160ff0219169083151502179055505050565b60016020528060005260406000206000915090505481565b60008054906101000a900473ffffffffffffffffffffffffffffffffffffffff1673ffffffffffffffffffffffffffffffffffffffff163373ffffffffffffffffffffffffffffffffffffffff16146104c7576040517f08c379a00000000000000000000000000000000000000000000000000000000081526004016104be90610f82565b60405180910390fd5b60008054906101000a900473ffffffffffffffffffffffffffffffffffffffff1673ffffffffffffffffffffffffffffffffffffffff163373ffffffffffffffffffffffffffffffffffffffff1614610555576040517f08c379a000000000000000000000000000000000000000000000000000000000815260040161054c90610fee565b60405180910390fd5b6000600260008373ffffffffffffffffffffffffffffffffffffffff1673ffffffffffffffffffffffffffffffffffffffff16815260200190815260200160002060006101000a81548160ff02191690831515021790555050565b600281565b600360003373ffffffffffffffffffffffffffffffffffffffff1673ffffffffffffffffffffffffffffffffffffffff16815260200190815260200160002060009054906101000a900460ff16610641576040517f08c379a00000000000000000000000000000000000000000000000000000000081526004016106389061105a565b60405180910390fd5b600360003373ffffffffffffffffffffffffffffffffffffffff1673ffffffffffffffffffffffffffffffffffffffff16815260200190815260200160002060009054906101000a900460ff166106cd576040517f08c379a00000000000000000000000000000000000000000000000000000000081526004016106c4906110ec565b60405180910390fd5b8073ffffffffffffffffffffffffffffffffffffffff16600460009054906101000a900473ffffffffffffffffffffffffffffffffffffffff1673ffffffffffffffffffffffffffffffffffffffff161461076c5780600460006101000a81548173ffffffffffffffffffffffffffffffffffffffff021916908373ffffffffffffffffffffffffffffffffffffffff16021790555060006005819055505b6005600081548092919061077f9061113b565b919050555060026005541061083357600460009054906101000a900473ffffffffffffffffffffffffffffffffffffffff166000806101000a81548173ffffffffffffffffffffffffffffffffffffffff021916908373ffffffffffffffffffffffffffffffffffffffff1602179055506000600460006101000a81548173ffffffffffffffffffffffffffffffffffffffff021916908373ffffffffffffffffffffffffffffffffffffffff1602179055505b50565b60604783111561087b576040517f08c379a0000000000000000000000000000000000000000000000000000000008152600401610872906111f5565b60405180910390fd5b60008054906101000a900473ffffffffffffffffffffffffffffffffffffffff1673ffffffffffffffffffffffffffffffffffffffff163373ffffffffffffffffffffffffffffffffffffffff1614610a3357600260003373ffffffffffffffffffffffffffffffffffffffff1673ffffffffffffffffffffffffffffffffffffffff16815260200190815260200160002060009054906101000a900460ff1661095a576040517f08c379a000000000000000000000000000000000000000000000000000000000815260040161095190611287565b60405180910390fd5b82600160003373ffffffffffffffffffffffffffffffffffffffff1673ffffffffffffffffffffffffffffffffffffffff1681526020019081526020016000205410156109dc576040517f08c379a00000000000000000000000000000000000000000000000000000000081526004016109d390611319565b60405180910390fd5b82600160003373ffffffffffffffffffffffffffffffffffffffff1673ffffffffffffffffffffffffffffffffffffffff1681526020019081526020016000206000828254610a2b9190611339565b925050819055505b6000808573ffffffffffffffffffffffffffffffffffffffff168585604051610a5c91906113a9565b60006040518083038185875af1925050503d8060008114610a99576040519150601f19603f3d011682016040523d82523d6000602084013e610a9e565b606091505b509150915081610ae3576040517f08c379a0000000000000000000000000000000000000000000000000000000008152600401610ada9061140c565b60405180910390fd5b80925050509392505050565b6000604051905090565b600080fd5b600080fd5b600073ffffffffffffffffffffffffffffffffffffffff82169050919050565b6000610b2e82610b03565b9050919050565b610b3e81610b23565b8114610b4957600080fd5b50565b600081359050610b5b81610b35565b92915050565b600060208284031215610b7757610b76610af9565b5b6000610b8584828501610b4c565b91505092915050565b60008115159050919050565b610ba381610b8e565b82525050565b6000602082019050610bbe6000830184610b9a565b92915050565b6000819050919050565b610bd781610bc4565b8114610be257600080fd5b50565b600081359050610bf481610bce565b92915050565b60008060408385031215610c1157610c10610af9565b5b6000610c1f85828601610b4c565b9250506020610c3085828601610be5565b9150509250929050565b610c4381610bc4565b82525050565b6000602082019050610c5e6000830184610c3a565b92915050565b6000610c6f82610b03565b9050919050565b610c7f81610c64565b8114610c8a57600080fd5b50565b600081359050610c9c81610c76565b92915050565b600060208284031215610cb857610cb7610af9565b5b6000610cc684828501610c8d565b91505092915050565b600080fd5b600080fd5b6000601f19601f8301169050919050565b7f4e487b7100000000000000000000000000000000000000000000000000000000600052604160045260246000fd5b610d2282610cd9565b810181811067ffffffffffffffff82111715610d4157610d40610cea565b5b80604052505050565b6000610d54610aef565b9050610d608282610d19565b919050565b600067ffffffffffffffff821115610d8057610d7f610cea565b5b610d8982610cd9565b9050602081019050919050565b82818337600083830152505050565b6000610db8610db384610d65565b610d4a565b905082815260208101848484011115610dd457610dd3610cd4565b5b610ddf848285610d96565b509392505050565b600082601f830112610dfc57610dfb610ccf565b5b8135610e0c848260208601610da5565b91505092915050565b600080600060608486031215610e2e57610e2d610af9565b5b6000610e3c86828701610c8d565b9350506020610e4d86828701610be5565b925050604084013567ffffffffffffffff811115610e6e57610e6d610afe565b5b610e7a86828701610de7565b9150509250925092565b600081519050919050565b600082825260208201905092915050565b60005b83811015610ebe578082015181840152602081019050610ea3565b60008484015250505050565b6000610ed582610e84565b610edf8185610e8f565b9350610eef818560208601610ea0565b610ef881610cd9565b840191505092915050565b60006020820190508181036000830152610f1d8184610eca565b905092915050565b600082825260208201905092915050565b7f4e6f7420746865206f776e657200000000000000000000000000000000000000600082015250565b6000610f6c600d83610f25565b9150610f7782610f36565b602082019050919050565b60006020820190508181036000830152610f9b81610f5f565b9050919050565b7f596f7520617265206e6f7420746865206f776e65722c2061626f7274696e6721600082015250565b6000610fd8602083610f25565b9150610fe382610fa2565b602082019050919050565b6000602082019050818103600083015261100781610fcb565b9050919050565b7f4e6f74206120677561726469616e000000000000000000000000000000000000600082015250565b6000611044600e83610f25565b915061104f8261100e565b602082019050919050565b6000602082019050818103600083015261107381611037565b9050919050565b7f596f7520617265206e6f74206120677561726469616e2c2061626f7274696e6760008201527f2100000000000000000000000000000000000000000000000000000000000000602082015250565b60006110d6602183610f25565b91506110e18261107a565b604082019050919050565b60006020820190508181036000830152611105816110c9565b9050919050565b7f4e487b7100000000000000000000000000000000000000000000000000000000600052601160045260246000fd5b600061114682610bc4565b91507fffffffffffffffffffffffffffffffffffffffffffffffffffffffffffffffff82036111785761117761110c565b5b600182019050919050565b7f43616e27742073656e64206d6f7265207468616e2074686520636f6e7472616360008201527f74206f776e732c2061626f7274696e672e000000000000000000000000000000602082015250565b60006111df603183610f25565b91506111ea82611183565b604082019050919050565b6000602082019050818103600083015261120e816111d2565b9050919050565b7f596f7520617265206e6f7420616c6c6f77656420746f2073656e6420616e792060008201527f7472616e73616374696f6e732c2061626f7274696e6700000000000000000000602082015250565b6000611271603683610f25565b915061127c82611215565b604082019050919050565b600060208201905081810360008301526112a081611264565b9050919050565b7f596f752061726520747279696e6720746f2073656e64206d6f7265207468616e60008201527f20796f752061726520616c6c6f77656420746f2c2061626f7274696e67000000602082015250565b6000611303603d83610f25565b915061130e826112a7565b604082019050919050565b60006020820190508181036000830152611332816112f6565b9050919050565b600061134482610bc4565b915061134f83610bc4565b92508282039050818111156113675761136661110c565b5b92915050565b600081905092915050565b600061138382610e84565b61138d818561136d565b935061139d818560208601610ea0565b80840191505092915050565b60006113b58284611378565b915081905092915050565b7f5472616e73616374696f6e206661696c65642c2061626f7274696e6700000000600082015250565b60006113f6601c83610f25565b9150611401826113c0565b602082019050919050565b60006020820190508181036000830152611425816113e9565b905091905056fea264697066735822122004b8cf9a6c72b5c6f04686ac3a0cb4b2c110ad959e8e81b4f2d808a89124cb7564736f6c634300081c0033",
  "linkReferences": {},
  "deployedLinkReferences": {}
}