{
  "_format": "hh-sol-artifact-1",
  "contractName": "TaskManagement",
  "sourceName": "contracts/TaskManagement.sol",
  "abi": [
    {
      "inputs": [],
      "stateMutability": "nonpayable",
      "type": "constructor"
    },
    {
      "anonymous": false,
      "inputs": [
        {
          "indexed": false,
          "internalType": "uint256",
          "name": "taskId",
          "type": "uint256"
        },
        {
          "indexed": false,
          "internalType": "address",
          "name": "completedBy",
          "type": "address"
        }
      ],
      "name": "TaskCompleted",
      "type": "event"
    },
    {
      "anonymous": false,
      "inputs": [
        {
          "indexed": false,
          "internalType": "uint256",
          "name": "taskId",
          "type": "uint256"
        },
        {
          "indexed": false,
          "internalType": "string",
          "name": "description",
          "type": "string"
        },
        {
          "indexed": false,
          "internalType": "address",
          "name": "assignedTo",
          "type": "address"
        }
      ],
      "name": "TaskCreated",
      "type": "event"
    },
    {
      "inputs": [
        {
          "internalType": "uint256",
          "name": "taskId",
          "type": "uint256"
        }
      ],
      "name": "completeTask",
      "outputs": [],
      "stateMutability": "nonpayable",
      "type": "function"
    },
    {
      "inputs": [
        {
          "internalType": "string",
          "name": "_description",
          "type": "string"
        },
        {
          "internalType": "address",
          "name": "_assignedTo",
          "type": "address"
        }
      ],
      "name": "createTask",
      "outputs": [],
      "stateMutability": "nonpayable",
      "type": "function"
    },
    {
      "inputs": [],
      "name": "owner",
      "outputs": [
        {
          "internalType": "address",
          "name": "",
          "type": "address"
        }
      ],
      "stateMutability": "view",
      "type": "function"
    },
    {
      "inputs": [
        {
          "internalType": "uint256",
          "name": "",
          "type": "uint256"
        }
      ],
      "name": "tasks",
      "outputs": [
        {
          "internalType": "uint256",
          "name": "id",
          "type": "uint256"
        },
        {
          "internalType": "string",
          "name": "description",
          "type": "string"
        },
        {
          "internalType": "address",
          "name": "assignedTo",
          "type": "address"
        },
        {
          "internalType": "bool",
          "name": "completed",
          "type": "bool"
        }
      ],
      "stateMutability": "view",
      "type": "function"
    },
    {
      "inputs": [
        {
          "internalType": "address",
          "name": "",
          "type": "address"
        }
      ],
      "name": "userTaskCount",
      "outputs": [
        {
          "internalType": "uint256",
          "name": "",
          "type": "uint256"
        }
      ],
      "stateMutability": "view",
      "type": "function"
    }
  ],
  "bytecode": "0x6080604052348015600f57600080fd5b50336000806101000a81548173ffffffffffffffffffffffffffffffffffffffff021916908373ffffffffffffffffffffffffffffffffffffffff1602179055506001808190555061114c806100666000396000f3fe608060405234801561001057600080fd5b50600436106100575760003560e01c806358f9e7411461005c57806371a244b31461008c5780638d977672146100a85780638da5cb5b146100db578063e1e29558146100f9575b600080fd5b61007660048036038101906100719190610740565b610115565b6040516100839190610786565b60405180910390f35b6100a660048036038101906100a191906108e7565b61012d565b005b6100c260048036038101906100bd919061096f565b6103f5565b6040516100d29493929190610a45565b60405180910390f35b6100e36104da565b6040516100f09190610a91565b60405180910390f35b610113600480360381019061010e919061096f565b6104fe565b005b60036020528060005260406000206000915090505481565b60008054906101000a900473ffffffffffffffffffffffffffffffffffffffff1673ffffffffffffffffffffffffffffffffffffffff163373ffffffffffffffffffffffffffffffffffffffff16146101bb576040517f08c379a00000000000000000000000000000000000000000000000000000000081526004016101b290610b1e565b60405180910390fd5b60008251116101ff576040517f08c379a00000000000000000000000000000000000000000000000000000000081526004016101f690610b8a565b60405180910390fd5b600073ffffffffffffffffffffffffffffffffffffffff168173ffffffffffffffffffffffffffffffffffffffff160361026e576040517f08c379a000000000000000000000000000000000000000000000000000000000815260040161026590610bf6565b60405180910390fd5b60006001600081548092919061028390610c45565b91905055905060405180608001604052808281526020018481526020018373ffffffffffffffffffffffffffffffffffffffff16815260200160001515815250600260008381526020019081526020016000206000820151816000015560208201518160010190816102f59190610e99565b5060408201518160020160006101000a81548173ffffffffffffffffffffffffffffffffffffffff021916908373ffffffffffffffffffffffffffffffffffffffff16021790555060608201518160020160146101000a81548160ff021916908315150217905550905050600360008373ffffffffffffffffffffffffffffffffffffffff1673ffffffffffffffffffffffffffffffffffffffff16815260200190815260200160002060008154809291906103b090610c45565b91905055507fdc691e972cb25fd6e968744b5a6416d42a052ac1305e3b7ed6777b621304b7f28184846040516103e893929190610f6b565b60405180910390a1505050565b600260205280600052604060002060009150905080600001549080600101805461041e90610cbc565b80601f016020809104026020016040519081016040528092919081815260200182805461044a90610cbc565b80156104975780601f1061046c57610100808354040283529160200191610497565b820191906000526020600020905b81548152906001019060200180831161047a57829003601f168201915b5050505050908060020160009054906101000a900473ffffffffffffffffffffffffffffffffffffffff16908060020160149054906101000a900460ff16905084565b60008054906101000a900473ffffffffffffffffffffffffffffffffffffffff1681565b806000600260008381526020019081526020016000206000015403610558576040517f08c379a000000000000000000000000000000000000000000000000000000000815260040161054f90610ff5565b60405180910390fd5b813373ffffffffffffffffffffffffffffffffffffffff166002600083815260200190815260200160002060020160009054906101000a900473ffffffffffffffffffffffffffffffffffffffff1673ffffffffffffffffffffffffffffffffffffffff16146105fd576040517f08c379a00000000000000000000000000000000000000000000000000000000081526004016105f490611061565b60405180910390fd5b6002600084815260200190815260200160002060020160149054906101000a900460ff1615610661576040517f08c379a0000000000000000000000000000000000000000000000000000000008152600401610658906110cd565b60405180910390fd5b60016002600085815260200190815260200160002060020160146101000a81548160ff0219169083151502179055507fbb5889c77948badf90e8a5c73d55265e5f5d6e4837a79a78c5669691b897faed83336040516106c19291906110ed565b60405180910390a1505050565b6000604051905090565b600080fd5b600080fd5b600073ffffffffffffffffffffffffffffffffffffffff82169050919050565b600061070d826106e2565b9050919050565b61071d81610702565b811461072857600080fd5b50565b60008135905061073a81610714565b92915050565b600060208284031215610756576107556106d8565b5b60006107648482850161072b565b91505092915050565b6000819050919050565b6107808161076d565b82525050565b600060208201905061079b6000830184610777565b92915050565b600080fd5b600080fd5b6000601f19601f8301169050919050565b7f4e487b7100000000000000000000000000000000000000000000000000000000600052604160045260246000fd5b6107f4826107ab565b810181811067ffffffffffffffff82111715610813576108126107bc565b5b80604052505050565b60006108266106ce565b905061083282826107eb565b919050565b600067ffffffffffffffff821115610852576108516107bc565b5b61085b826107ab565b9050602081019050919050565b82818337600083830152505050565b600061088a61088584610837565b61081c565b9050828152602081018484840111156108a6576108a56107a6565b5b6108b1848285610868565b509392505050565b600082601f8301126108ce576108cd6107a1565b5b81356108de848260208601610877565b91505092915050565b600080604083850312156108fe576108fd6106d8565b5b600083013567ffffffffffffffff81111561091c5761091b6106dd565b5b610928858286016108b9565b92505060206109398582860161072b565b9150509250929050565b61094c8161076d565b811461095757600080fd5b50565b60008135905061096981610943565b92915050565b600060208284031215610985576109846106d8565b5b60006109938482850161095a565b91505092915050565b600081519050919050565b600082825260208201905092915050565b60005b838110156109d65780820151818401526020810190506109bb565b60008484015250505050565b60006109ed8261099c565b6109f781856109a7565b9350610a078185602086016109b8565b610a10816107ab565b840191505092915050565b610a2481610702565b82525050565b60008115159050919050565b610a3f81610a2a565b82525050565b6000608082019050610a5a6000830187610777565b8181036020830152610a6c81866109e2565b9050610a7b6040830185610a1b565b610a886060830184610a36565b95945050505050565b6000602082019050610aa66000830184610a1b565b92915050565b7f4f6e6c79206f776e65722063616e20706572666f726d2074686973206163746960008201527f6f6e000000000000000000000000000000000000000000000000000000000000602082015250565b6000610b086022836109a7565b9150610b1382610aac565b604082019050919050565b60006020820190508181036000830152610b3781610afb565b9050919050565b7f4465736372697074696f6e2063616e6e6f7420626520656d7074790000000000600082015250565b6000610b74601b836109a7565b9150610b7f82610b3e565b602082019050919050565b60006020820190508181036000830152610ba381610b67565b9050919050565b7f496e76616c696420616464726573730000000000000000000000000000000000600082015250565b6000610be0600f836109a7565b9150610beb82610baa565b602082019050919050565b60006020820190508181036000830152610c0f81610bd3565b9050919050565b7f4e487b7100000000000000000000000000000000000000000000000000000000600052601160045260246000fd5b6000610c508261076d565b91507fffffffffffffffffffffffffffffffffffffffffffffffffffffffffffffffff8203610c8257610c81610c16565b5b600182019050919050565b7f4e487b7100000000000000000000000000000000000000000000000000000000600052602260045260246000fd5b60006002820490506001821680610cd457607f821691505b602082108103610ce757610ce6610c8d565b5b50919050565b60008190508160005260206000209050919050565b60006020601f8301049050919050565b600082821b905092915050565b600060088302610d4f7fffffffffffffffffffffffffffffffffffffffffffffffffffffffffffffffff82610d12565b610d598683610d12565b95508019841693508086168417925050509392505050565b6000819050919050565b6000610d96610d91610d8c8461076d565b610d71565b61076d565b9050919050565b6000819050919050565b610db083610d7b565b610dc4610dbc82610d9d565b848454610d1f565b825550505050565b600090565b610dd9610dcc565b610de4818484610da7565b505050565b5b81811015610e0857610dfd600082610dd1565b600181019050610dea565b5050565b601f821115610e4d57610e1e81610ced565b610e2784610d02565b81016020851015610e36578190505b610e4a610e4285610d02565b830182610de9565b50505b505050565b600082821c905092915050565b6000610e7060001984600802610e52565b1980831691505092915050565b6000610e898383610e5f565b9150826002028217905092915050565b610ea28261099c565b67ffffffffffffffff811115610ebb57610eba6107bc565b5b610ec58254610cbc565b610ed0828285610e0c565b600060209050601f831160018114610f035760008415610ef1578287015190505b610efb8582610e7d565b865550610f63565b601f198416610f1186610ced565b60005b82811015610f3957848901518255600182019150602085019450602081019050610f14565b86831015610f565784890151610f52601f891682610e5f565b8355505b6001600288020188555050505b505050505050565b6000606082019050610f806000830186610777565b8181036020830152610f9281856109e2565b9050610fa16040830184610a1b565b949350505050565b7f5461736b20646f6573206e6f7420657869737400000000000000000000000000600082015250565b6000610fdf6013836109a7565b9150610fea82610fa9565b602082019050919050565b6000602082019050818103600083015261100e81610fd2565b9050919050565b7f4e6f742061737369676e656420746f2074686973207461736b00000000000000600082015250565b600061104b6019836109a7565b915061105682611015565b602082019050919050565b6000602082019050818103600083015261107a8161103e565b9050919050565b7f5461736b20616c726561647920636f6d706c6574656400000000000000000000600082015250565b60006110b76016836109a7565b91506110c282611081565b602082019050919050565b600060208201905081810360008301526110e6816110aa565b9050919050565b60006040820190506111026000830185610777565b61110f6020830184610a1b565b939250505056fea264697066735822122039bb608cbd4fb8d3ed0a3344c48eae5d543cfaedf464903a9c2bf554fbb5acba64736f6c634300081c0033",
  "linkReferences": {},
  "deployedLinkReferences": {}
}