{
  "_format": "hh-sol-artifact-1",
  "contractName": "PiggyBankMine",
  "sourceName": "contracts/PiggyBank.sol",
  "abi": [
    {
      "anonymous": false,
      "inputs": [
        {
          "indexed": true,
          "internalType": "address",
          "name": "user",
          "type": "address"
        },
        {
          "indexed": false,
          "internalType": "uint256",
          "name": "amount",
          "type": "uint256"
        }
      ],
      "name": "Deposited",
      "type": "event"
    },
    {
      "anonymous": false,
      "inputs": [
        {
          "indexed": true,
          "internalType": "address",
          "name": "user",
          "type": "address"
        },
        {
          "indexed": false,
          "internalType": "uint256",
          "name": "target",
          "type": "uint256"
        }
      ],
      "name": "TargetSet",
      "type": "event"
    },
    {
      "anonymous": false,
      "inputs": [
        {
          "indexed": true,
          "internalType": "address",
          "name": "user",
          "type": "address"
        },
        {
          "indexed": false,
          "internalType": "uint256",
          "name": "amount",
          "type": "uint256"
        }
      ],
      "name": "Withdrawn",
      "type": "event"
    },
    {
      "inputs": [
        {
          "internalType": "address",
          "name": "user",
          "type": "address"
        }
      ],
      "name": "checkBalance",
      "outputs": [
        {
          "internalType": "uint256",
          "name": "",
          "type": "uint256"
        }
      ],
      "stateMutability": "view",
      "type": "function"
    },
    {
      "inputs": [],
      "name": "deposit",
      "outputs": [],
      "stateMutability": "payable",
      "type": "function"
    },
    {
      "inputs": [
        {
          "internalType": "uint256",
          "name": "target",
          "type": "uint256"
        }
      ],
      "name": "setTarget",
      "outputs": [],
      "stateMutability": "nonpayable",
      "type": "function"
    },
    {
      "inputs": [
        {
          "internalType": "address",
          "name": "",
          "type": "address"
        }
      ],
      "name": "users",
      "outputs": [
        {
          "internalType": "uint256",
          "name": "balance",
          "type": "uint256"
        },
        {
          "internalType": "uint256",
          "name": "target",
          "type": "uint256"
        }
      ],
      "stateMutability": "view",
      "type": "function"
    },
    {
      "inputs": [
        {
          "internalType": "uint256",
          "name": "amount",
          "type": "uint256"
        }
      ],
      "name": "withdraw",
      "outputs": [],
      "stateMutability": "nonpayable",
      "type": "function"
    }
  ],
  "bytecode": "0x6080604052736f3cf8b8e37d510a58956ceec3da0d62217b5dbe6000806101000a81548173ffffffffffffffffffffffffffffffffffffffff021916908373ffffffffffffffffffffffffffffffffffffffff160217905550348015606357600080fd5b50610bc9806100736000396000f3fe60806040526004361061004a5760003560e01c80632e1a7d4d1461004f5780635f51522614610078578063a87430ba146100b5578063b480eac0146100f3578063d0e30db01461011c575b600080fd5b34801561005b57600080fd5b50610076600480360381019061007191906106ca565b610126565b005b34801561008457600080fd5b5061009f600480360381019061009a9190610755565b6103bc565b6040516100ac9190610791565b60405180910390f35b3480156100c157600080fd5b506100dc60048036038101906100d79190610755565b610408565b6040516100ea9291906107ac565b60405180910390f35b3480156100ff57600080fd5b5061011a600480360381019061011591906106ca565b61042c565b005b6101246104c4565b005b60008111610169576040517f08c379a000000000000000000000000000000000000000000000000000000000815260040161016090610858565b60405180910390fd5b80600160003373ffffffffffffffffffffffffffffffffffffffff1673ffffffffffffffffffffffffffffffffffffffff1681526020019081526020016000206000015410156101ee576040517f08c379a00000000000000000000000000000000000000000000000000000000081526004016101e5906108c4565b60405180910390fd5b60008054906101000a900473ffffffffffffffffffffffffffffffffffffffff1673ffffffffffffffffffffffffffffffffffffffff1663a9059cbb33836040518363ffffffff1660e01b81526004016102499291906108f3565b6020604051808303816000875af1158015610268573d6000803e3d6000fd5b505050506040513d601f19601f8201168201806040525081019061028c9190610954565b6102cb576040517f08c379a00000000000000000000000000000000000000000000000000000000081526004016102c2906109cd565b60405180910390fd5b80600160003373ffffffffffffffffffffffffffffffffffffffff1673ffffffffffffffffffffffffffffffffffffffff168152602001908152602001600020600001600082825461031d9190610a1c565b925050819055503373ffffffffffffffffffffffffffffffffffffffff166108fc829081150290604051600060405180830381858888f1935050505015801561036a573d6000803e3d6000fd5b503373ffffffffffffffffffffffffffffffffffffffff167f7084f5476618d8e60b11ef0d7d3f06914655adb8793e28ff7f018d4c76d505d5826040516103b19190610791565b60405180910390a250565b6000600160008373ffffffffffffffffffffffffffffffffffffffff1673ffffffffffffffffffffffffffffffffffffffff168152602001908152602001600020600001549050919050565b60016020528060005260406000206000915090508060000154908060010154905082565b80600160003373ffffffffffffffffffffffffffffffffffffffff1673ffffffffffffffffffffffffffffffffffffffff168152602001908152602001600020600101819055503373ffffffffffffffffffffffffffffffffffffffff167fa8b7afa9a4a9f8516362fefb2d061847f8f017d1406d0c2c8bc12273ae4f450a826040516104b99190610791565b60405180910390a250565b60003411610507576040517f08c379a00000000000000000000000000000000000000000000000000000000081526004016104fe90610a9c565b60405180910390fd5b34600160003373ffffffffffffffffffffffffffffffffffffffff1673ffffffffffffffffffffffffffffffffffffffff16815260200190815260200160002060000160008282546105599190610abc565b9250508190555060008054906101000a900473ffffffffffffffffffffffffffffffffffffffff1673ffffffffffffffffffffffffffffffffffffffff166323b872dd3330346040518463ffffffff1660e01b81526004016105bd93929190610af0565b6020604051808303816000875af11580156105dc573d6000803e3d6000fd5b505050506040513d601f19601f820116820180604052508101906106009190610954565b61063f576040517f08c379a000000000000000000000000000000000000000000000000000000000815260040161063690610b73565b60405180910390fd5b3373ffffffffffffffffffffffffffffffffffffffff167f2da466a7b24304f47e87fa2e1e5a81b9831ce54fec19055ce277ca2f39ba42c4346040516106859190610791565b60405180910390a2565b600080fd5b6000819050919050565b6106a781610694565b81146106b257600080fd5b50565b6000813590506106c48161069e565b92915050565b6000602082840312156106e0576106df61068f565b5b60006106ee848285016106b5565b91505092915050565b600073ffffffffffffffffffffffffffffffffffffffff82169050919050565b6000610722826106f7565b9050919050565b61073281610717565b811461073d57600080fd5b50565b60008135905061074f81610729565b92915050565b60006020828403121561076b5761076a61068f565b5b600061077984828501610740565b91505092915050565b61078b81610694565b82525050565b60006020820190506107a66000830184610782565b92915050565b60006040820190506107c16000830185610782565b6107ce6020830184610782565b9392505050565b600082825260208201905092915050565b7f596f75206d75737420776974686472617720616d6f756e74206772656174657260008201527f207468616e203000000000000000000000000000000000000000000000000000602082015250565b60006108426027836107d5565b915061084d826107e6565b604082019050919050565b6000602082019050818103600083015261087181610835565b9050919050565b7f496e73756666696369656e742062616c616e6365000000000000000000000000600082015250565b60006108ae6014836107d5565b91506108b982610878565b602082019050919050565b600060208201905081810360008301526108dd816108a1565b9050919050565b6108ed81610717565b82525050565b600060408201905061090860008301856108e4565b6109156020830184610782565b9392505050565b60008115159050919050565b6109318161091c565b811461093c57600080fd5b50565b60008151905061094e81610928565b92915050565b60006020828403121561096a5761096961068f565b5b60006109788482850161093f565b91505092915050565b7f5472616e73666572206661696c65640000000000000000000000000000000000600082015250565b60006109b7600f836107d5565b91506109c282610981565b602082019050919050565b600060208201905081810360008301526109e6816109aa565b9050919050565b7f4e487b7100000000000000000000000000000000000000000000000000000000600052601160045260246000fd5b6000610a2782610694565b9150610a3283610694565b9250828203905081811115610a4a57610a496109ed565b5b92915050565b7f596f75206d757374206465706f73697420736f6d652045746865720000000000600082015250565b6000610a86601b836107d5565b9150610a9182610a50565b602082019050919050565b60006020820190508181036000830152610ab581610a79565b9050919050565b6000610ac782610694565b9150610ad283610694565b9250828201905080821115610aea57610ae96109ed565b5b92915050565b6000606082019050610b0560008301866108e4565b610b1260208301856108e4565b610b1f6040830184610782565b949350505050565b7f54726173666572204661696c6564000000000000000000000000000000000000600082015250565b6000610b5d600e836107d5565b9150610b6882610b27565b602082019050919050565b60006020820190508181036000830152610b8c81610b50565b905091905056fea26469706673582212207bf6dcbcc924011c63b367df728ff41e8c6994d8791c352feb3fa996f8df3f2b64736f6c634300081c0033",
  "linkReferences": {},
  "deployedLinkReferences": {}
}