{
  "_format": "hh-sol-artifact-1",
  "contractName": "PersonRegistry",
  "sourceName": "contracts/PersonContract.sol",
  "abi": [
    {
      "inputs": [],
      "stateMutability": "nonpayable",
      "type": "constructor"
    },
    {
      "inputs": [],
      "name": "InvalidAge",
      "type": "error"
    },
    {
      "inputs": [],
      "name": "NotAdmin",
      "type": "error"
    },
    {
      "inputs": [],
      "name": "PersonNotFound",
      "type": "error"
    },
    {
      "anonymous": false,
      "inputs": [
        {
          "indexed": true,
          "internalType": "uint256",
          "name": "id",
          "type": "uint256"
        },
        {
          "indexed": false,
          "internalType": "string",
          "name": "name",
          "type": "string"
        },
        {
          "indexed": false,
          "internalType": "uint256",
          "name": "age",
          "type": "uint256"
        }
      ],
      "name": "PersonAdded",
      "type": "event"
    },
    {
      "anonymous": false,
      "inputs": [
        {
          "indexed": true,
          "internalType": "uint256",
          "name": "id",
          "type": "uint256"
        },
        {
          "indexed": false,
          "internalType": "string",
          "name": "newName",
          "type": "string"
        },
        {
          "indexed": false,
          "internalType": "uint256",
          "name": "newAge",
          "type": "uint256"
        }
      ],
      "name": "PersonUpdated",
      "type": "event"
    },
    {
      "inputs": [
        {
          "internalType": "string",
          "name": "_name",
          "type": "string"
        },
        {
          "internalType": "uint256",
          "name": "_age",
          "type": "uint256"
        }
      ],
      "name": "addPerson",
      "outputs": [],
      "stateMutability": "nonpayable",
      "type": "function"
    },
    {
      "inputs": [
        {
          "internalType": "address",
          "name": "_verifier",
          "type": "address"
        }
      ],
      "name": "addVerifier",
      "outputs": [],
      "stateMutability": "nonpayable",
      "type": "function"
    },
    {
      "inputs": [],
      "name": "admin",
      "outputs": [
        {
          "internalType": "address",
          "name": "",
          "type": "address"
        }
      ],
      "stateMutability": "view",
      "type": "function"
    },
    {
      "inputs": [
        {
          "internalType": "uint256",
          "name": "_id",
          "type": "uint256"
        }
      ],
      "name": "getPerson",
      "outputs": [
        {
          "components": [
            {
              "internalType": "string",
              "name": "name",
              "type": "string"
            },
            {
              "internalType": "uint256",
              "name": "age",
              "type": "uint256"
            },
            {
              "internalType": "bool",
              "name": "isVerified",
              "type": "bool"
            },
            {
              "internalType": "uint256",
              "name": "registrationDate",
              "type": "uint256"
            }
          ],
          "internalType": "struct PersonRegistry.Person",
          "name": "",
          "type": "tuple"
        }
      ],
      "stateMutability": "view",
      "type": "function"
    },
    {
      "inputs": [
        {
          "internalType": "uint256",
          "name": "",
          "type": "uint256"
        }
      ],
      "name": "people",
      "outputs": [
        {
          "internalType": "string",
          "name": "name",
          "type": "string"
        },
        {
          "internalType": "uint256",
          "name": "age",
          "type": "uint256"
        },
        {
          "internalType": "bool",
          "name": "isVerified",
          "type": "bool"
        },
        {
          "internalType": "uint256",
          "name": "registrationDate",
          "type": "uint256"
        }
      ],
      "stateMutability": "view",
      "type": "function"
    },
    {
      "inputs": [
        {
          "internalType": "address",
          "name": "_verifier",
          "type": "address"
        }
      ],
      "name": "removeVerifier",
      "outputs": [],
      "stateMutability": "nonpayable",
      "type": "function"
    },
    {
      "inputs": [
        {
          "internalType": "uint256",
          "name": "_id",
          "type": "uint256"
        },
        {
          "internalType": "string",
          "name": "_newName",
          "type": "string"
        },
        {
          "internalType": "uint256",
          "name": "_newAge",
          "type": "uint256"
        }
      ],
      "name": "updatePerson",
      "outputs": [],
      "stateMutability": "nonpayable",
      "type": "function"
    },
    {
      "inputs": [
        {
          "internalType": "address",
          "name": "",
          "type": "address"
        }
      ],
      "name": "verifiers",
      "outputs": [
        {
          "internalType": "bool",
          "name": "",
          "type": "bool"
        }
      ],
      "stateMutability": "view",
      "type": "function"
    },
    {
      "inputs": [
        {
          "internalType": "uint256",
          "name": "_id",
          "type": "uint256"
        }
      ],
      "name": "verifyPerson",
      "outputs": [],
      "stateMutability": "nonpayable",
      "type": "function"
    }
  ],
  "bytecode": "0x608060405234801561001057600080fd5b50336000806101000a81548173ffffffffffffffffffffffffffffffffffffffff021916908373ffffffffffffffffffffffffffffffffffffffff1602179055506001600360003373ffffffffffffffffffffffffffffffffffffffff1673ffffffffffffffffffffffffffffffffffffffff16815260200190815260200160002060006101000a81548160ff0219169083151502179055506113b9806100b86000396000f3fe608060405234801561001057600080fd5b50600436106100935760003560e01c80639b0ff46f116100665780639b0ff46f146101305780639e7a13ad1461014c578063bede2a491461017f578063ca2dfd0a1461019b578063f851a440146101b757610093565b8063246982c4146100985780636c824487146100c85780636f760f41146100f85780639000b3d614610114575b600080fd5b6100b260048036038101906100ad9190610aa2565b6101d5565b6040516100bf9190610bec565b60405180910390f35b6100e260048036038101906100dd9190610c6c565b610313565b6040516100ef9190610ca8565b60405180910390f35b610112600480360381019061010d9190610df8565b610333565b005b61012e60048036038101906101299190610c6c565b6104e3565b005b61014a60048036038101906101459190610e54565b6105c3565b005b61016660048036038101906101619190610aa2565b610757565b6040516101769493929190610f1c565b60405180910390f35b61019960048036038101906101949190610aa2565b61081c565b005b6101b560048036038101906101b09190610c6c565b61092a565b005b6101bf610a0a565b6040516101cc9190610f77565b60405180910390f35b6101dd610a2e565b600060026000848152602001908152602001600020600301540361022d576040517fd1c5524400000000000000000000000000000000000000000000000000000000815260040160405180910390fd5b6002600083815260200190815260200160002060405180608001604052908160008201805461025b90610fc1565b80601f016020809104026020016040519081016040528092919081815260200182805461028790610fc1565b80156102d45780601f106102a9576101008083540402835291602001916102d4565b820191906000526020600020905b8154815290600101906020018083116102b757829003601f168201915b50505050508152602001600182015481526020016002820160009054906101000a900460ff161515151581526020016003820154815250509050919050565b60036020528060005260406000206000915054906101000a900460ff1681565b600360003373ffffffffffffffffffffffffffffffffffffffff1673ffffffffffffffffffffffffffffffffffffffff16815260200190815260200160002060009054906101000a900460ff166103bf576040517f08c379a00000000000000000000000000000000000000000000000000000000081526004016103b69061103e565b60405180910390fd5b60008114806103ce5750609681115b15610405576040517f4530cb7000000000000000000000000000000000000000000000000000000000815260040160405180910390fd5b600160008154809291906104189061108d565b9190505550604051806080016040528083815260200182815260200160001515815260200142815250600260006001548152602001908152602001600020600082015181600001908161046b9190611281565b506020820151816001015560408201518160020160006101000a81548160ff021916908315150217905550606082015181600301559050506001547f6307a06627b260b48c79b552c1e037e2f907b6729ac610ea54db64b603e5d2d383836040516104d7929190611353565b60405180910390a25050565b60008054906101000a900473ffffffffffffffffffffffffffffffffffffffff1673ffffffffffffffffffffffffffffffffffffffff163373ffffffffffffffffffffffffffffffffffffffff1614610568576040517f7bfa4b9f00000000000000000000000000000000000000000000000000000000815260040160405180910390fd5b6001600360008373ffffffffffffffffffffffffffffffffffffffff1673ffffffffffffffffffffffffffffffffffffffff16815260200190815260200160002060006101000a81548160ff02191690831515021790555050565b600360003373ffffffffffffffffffffffffffffffffffffffff1673ffffffffffffffffffffffffffffffffffffffff16815260200190815260200160002060009054906101000a900460ff1661064f576040517f08c379a00000000000000000000000000000000000000000000000000000000081526004016106469061103e565b60405180910390fd5b600060026000858152602001908152602001600020600301540361069f576040517fd1c5524400000000000000000000000000000000000000000000000000000000815260040160405180910390fd5b60008114806106ae5750609681115b156106e5576040517f4530cb7000000000000000000000000000000000000000000000000000000000815260040160405180910390fd5b60006002600085815260200190815260200160002090508281600001908161070d9190611281565b50818160010181905550837fd461a863391512f889e25737eca9e235a155229dd745a308f40b4ed51fcdee248484604051610749929190611353565b60405180910390a250505050565b600260205280600052604060002060009150905080600001805461077a90610fc1565b80601f01602080910402602001604051908101604052809291908181526020018280546107a690610fc1565b80156107f35780601f106107c8576101008083540402835291602001916107f3565b820191906000526020600020905b8154815290600101906020018083116107d657829003601f168201915b5050505050908060010154908060020160009054906101000a900460ff16908060030154905084565b600360003373ffffffffffffffffffffffffffffffffffffffff1673ffffffffffffffffffffffffffffffffffffffff16815260200190815260200160002060009054906101000a900460ff166108a8576040517f08c379a000000000000000000000000000000000000000000000000000000000815260040161089f9061103e565b60405180910390fd5b60006002600083815260200190815260200160002060030154036108f8576040517fd1c5524400000000000000000000000000000000000000000000000000000000815260040160405180910390fd5b60016002600083815260200190815260200160002060020160006101000a81548160ff02191690831515021790555050565b60008054906101000a900473ffffffffffffffffffffffffffffffffffffffff1673ffffffffffffffffffffffffffffffffffffffff163373ffffffffffffffffffffffffffffffffffffffff16146109af576040517f7bfa4b9f00000000000000000000000000000000000000000000000000000000815260040160405180910390fd5b6000600360008373ffffffffffffffffffffffffffffffffffffffff1673ffffffffffffffffffffffffffffffffffffffff16815260200190815260200160002060006101000a81548160ff02191690831515021790555050565b60008054906101000a900473ffffffffffffffffffffffffffffffffffffffff1681565b60405180608001604052806060815260200160008152602001600015158152602001600081525090565b6000604051905090565b600080fd5b600080fd5b6000819050919050565b610a7f81610a6c565b8114610a8a57600080fd5b50565b600081359050610a9c81610a76565b92915050565b600060208284031215610ab857610ab7610a62565b5b6000610ac684828501610a8d565b91505092915050565b600081519050919050565b600082825260208201905092915050565b60005b83811015610b09578082015181840152602081019050610aee565b60008484015250505050565b6000601f19601f8301169050919050565b6000610b3182610acf565b610b3b8185610ada565b9350610b4b818560208601610aeb565b610b5481610b15565b840191505092915050565b610b6881610a6c565b82525050565b60008115159050919050565b610b8381610b6e565b82525050565b60006080830160008301518482036000860152610ba68282610b26565b9150506020830151610bbb6020860182610b5f565b506040830151610bce6040860182610b7a565b506060830151610be16060860182610b5f565b508091505092915050565b60006020820190508181036000830152610c068184610b89565b905092915050565b600073ffffffffffffffffffffffffffffffffffffffff82169050919050565b6000610c3982610c0e565b9050919050565b610c4981610c2e565b8114610c5457600080fd5b50565b600081359050610c6681610c40565b92915050565b600060208284031215610c8257610c81610a62565b5b6000610c9084828501610c57565b91505092915050565b610ca281610b6e565b82525050565b6000602082019050610cbd6000830184610c99565b92915050565b600080fd5b600080fd5b7f4e487b7100000000000000000000000000000000000000000000000000000000600052604160045260246000fd5b610d0582610b15565b810181811067ffffffffffffffff82111715610d2457610d23610ccd565b5b80604052505050565b6000610d37610a58565b9050610d438282610cfc565b919050565b600067ffffffffffffffff821115610d6357610d62610ccd565b5b610d6c82610b15565b9050602081019050919050565b82818337600083830152505050565b6000610d9b610d9684610d48565b610d2d565b905082815260208101848484011115610db757610db6610cc8565b5b610dc2848285610d79565b509392505050565b600082601f830112610ddf57610dde610cc3565b5b8135610def848260208601610d88565b91505092915050565b60008060408385031215610e0f57610e0e610a62565b5b600083013567ffffffffffffffff811115610e2d57610e2c610a67565b5b610e3985828601610dca565b9250506020610e4a85828601610a8d565b9150509250929050565b600080600060608486031215610e6d57610e6c610a62565b5b6000610e7b86828701610a8d565b935050602084013567ffffffffffffffff811115610e9c57610e9b610a67565b5b610ea886828701610dca565b9250506040610eb986828701610a8d565b9150509250925092565b600082825260208201905092915050565b6000610edf82610acf565b610ee98185610ec3565b9350610ef9818560208601610aeb565b610f0281610b15565b840191505092915050565b610f1681610a6c565b82525050565b60006080820190508181036000830152610f368187610ed4565b9050610f456020830186610f0d565b610f526040830185610c99565b610f5f6060830184610f0d565b95945050505050565b610f7181610c2e565b82525050565b6000602082019050610f8c6000830184610f68565b92915050565b7f4e487b7100000000000000000000000000000000000000000000000000000000600052602260045260246000fd5b60006002820490506001821680610fd957607f821691505b602082108103610fec57610feb610f92565b5b50919050565b7f4e6f742061207665726966696572000000000000000000000000000000000000600082015250565b6000611028600e83610ec3565b915061103382610ff2565b602082019050919050565b600060208201905081810360008301526110578161101b565b9050919050565b7f4e487b7100000000000000000000000000000000000000000000000000000000600052601160045260246000fd5b600061109882610a6c565b91507fffffffffffffffffffffffffffffffffffffffffffffffffffffffffffffffff82036110ca576110c961105e565b5b600182019050919050565b60008190508160005260206000209050919050565b60006020601f8301049050919050565b600082821b905092915050565b6000600883026111377fffffffffffffffffffffffffffffffffffffffffffffffffffffffffffffffff826110fa565b61114186836110fa565b95508019841693508086168417925050509392505050565b6000819050919050565b600061117e61117961117484610a6c565b611159565b610a6c565b9050919050565b6000819050919050565b61119883611163565b6111ac6111a482611185565b848454611107565b825550505050565b600090565b6111c16111b4565b6111cc81848461118f565b505050565b5b818110156111f0576111e56000826111b9565b6001810190506111d2565b5050565b601f82111561123557611206816110d5565b61120f846110ea565b8101602085101561121e578190505b61123261122a856110ea565b8301826111d1565b50505b505050565b600082821c905092915050565b60006112586000198460080261123a565b1980831691505092915050565b60006112718383611247565b9150826002028217905092915050565b61128a82610acf565b67ffffffffffffffff8111156112a3576112a2610ccd565b5b6112ad8254610fc1565b6112b88282856111f4565b600060209050601f8311600181146112eb57600084156112d9578287015190505b6112e38582611265565b86555061134b565b601f1984166112f9866110d5565b60005b82811015611321578489015182556001820191506020850194506020810190506112fc565b8683101561133e578489015161133a601f891682611247565b8355505b6001600288020188555050505b505050505050565b6000604082019050818103600083015261136d8185610ed4565b905061137c6020830184610f0d565b939250505056fea2646970667358221220907b48628ebf1b6df63ede35fc62a4d2acfb173913100fb4941239743f75021764736f6c63430008140033",
  "linkReferences": {},
  "deployedLinkReferences": {}
}