{
  "_format": "hh-sol-artifact-1",
  "contractName": "InheritanceWill",
  "sourceName": "contracts/InheritanceWill.sol",
  "abi": [
    {
      "inputs": [
        {
          "internalType": "address",
          "name": "_son",
          "type": "address"
        },
        {
          "internalType": "uint256",
          "name": "_unlockDelay",
          "type": "uint256"
        }
      ],
      "stateMutability": "payable",
      "type": "constructor"
    },
    {
      "anonymous": false,
      "inputs": [
        {
          "indexed": true,
          "internalType": "address",
          "name": "father",
          "type": "address"
        },
        {
          "indexed": false,
          "internalType": "uint256",
          "name": "amount",
          "type": "uint256"
        }
      ],
      "name": "FundsDeposited",
      "type": "event"
    },
    {
      "anonymous": false,
      "inputs": [
        {
          "indexed": false,
          "internalType": "uint256",
          "name": "unlockTime",
          "type": "uint256"
        }
      ],
      "name": "InheritanceUnlocked",
      "type": "event"
    },
    {
      "anonymous": false,
      "inputs": [
        {
          "indexed": true,
          "internalType": "address",
          "name": "son",
          "type": "address"
        },
        {
          "indexed": false,
          "internalType": "uint256",
          "name": "amount",
          "type": "uint256"
        }
      ],
      "name": "InheritanceWithdrawn",
      "type": "event"
    },
    {
      "inputs": [],
      "name": "checkBalance",
      "outputs": [
        {
          "internalType": "uint256",
          "name": "",
          "type": "uint256"
        }
      ],
      "stateMutability": "view",
      "type": "function"
    },
    {
      "inputs": [],
      "name": "declareDeath",
      "outputs": [],
      "stateMutability": "nonpayable",
      "type": "function"
    },
    {
      "inputs": [],
      "name": "deposit",
      "outputs": [],
      "stateMutability": "payable",
      "type": "function"
    },
    {
      "inputs": [],
      "name": "father",
      "outputs": [
        {
          "internalType": "address",
          "name": "",
          "type": "address"
        }
      ],
      "stateMutability": "view",
      "type": "function"
    },
    {
      "inputs": [
        {
          "internalType": "address",
          "name": "",
          "type": "address"
        }
      ],
      "name": "inheritances",
      "outputs": [
        {
          "internalType": "uint256",
          "name": "amount",
          "type": "uint256"
        },
        {
          "internalType": "bool",
          "name": "withdrawn",
          "type": "bool"
        }
      ],
      "stateMutability": "view",
      "type": "function"
    },
    {
      "inputs": [],
      "name": "isDeceased",
      "outputs": [
        {
          "internalType": "bool",
          "name": "",
          "type": "bool"
        }
      ],
      "stateMutability": "view",
      "type": "function"
    },
    {
      "inputs": [],
      "name": "son",
      "outputs": [
        {
          "internalType": "address",
          "name": "",
          "type": "address"
        }
      ],
      "stateMutability": "view",
      "type": "function"
    },
    {
      "inputs": [],
      "name": "unlockTime",
      "outputs": [
        {
          "internalType": "uint256",
          "name": "",
          "type": "uint256"
        }
      ],
      "stateMutability": "view",
      "type": "function"
    },
    {
      "inputs": [],
      "name": "withdrawInheritance",
      "outputs": [],
      "stateMutability": "nonpayable",
      "type": "function"
    }
  ],
  "bytecode": "0x60806040526040516112d33803806112d38339818101604052810190610025919061035c565b600073ffffffffffffffffffffffffffffffffffffffff168273ffffffffffffffffffffffffffffffffffffffff1603610094576040517f08c379a000000000000000000000000000000000000000000000000000000000815260040161008b906103f9565b60405180910390fd5b600081116100d7576040517f08c379a00000000000000000000000000000000000000000000000000000000081526004016100ce9061048b565b60405180910390fd5b6000341161011a576040517f08c379a0000000000000000000000000000000000000000000000000000000008152600401610111906104f7565b60405180910390fd5b336000806101000a81548173ffffffffffffffffffffffffffffffffffffffff021916908373ffffffffffffffffffffffffffffffffffffffff16021790555081600160006101000a81548173ffffffffffffffffffffffffffffffffffffffff021916908373ffffffffffffffffffffffffffffffffffffffff16021790555080426101a79190610546565b6002819055506000600360006101000a81548160ff02191690831515021790555060405180604001604052803481526020016000151581525060046000600160009054906101000a900473ffffffffffffffffffffffffffffffffffffffff1673ffffffffffffffffffffffffffffffffffffffff1673ffffffffffffffffffffffffffffffffffffffff1681526020019081526020016000206000820151816000015560208201518160010160006101000a81548160ff0219169083151502179055509050503373ffffffffffffffffffffffffffffffffffffffff167f543ba50a5eec5e6178218e364b1d0f396157b3c8fa278522c2cb7fd99407d474346040516102b49190610589565b60405180910390a250506105a4565b600080fd5b600073ffffffffffffffffffffffffffffffffffffffff82169050919050565b60006102f3826102c8565b9050919050565b610303816102e8565b811461030e57600080fd5b50565b600081519050610320816102fa565b92915050565b6000819050919050565b61033981610326565b811461034457600080fd5b50565b60008151905061035681610330565b92915050565b60008060408385031215610373576103726102c3565b5b600061038185828601610311565b925050602061039285828601610347565b9150509250929050565b600082825260208201905092915050565b7f496e76616c696420736f6e206164647265737300000000000000000000000000600082015250565b60006103e360138361039c565b91506103ee826103ad565b602082019050919050565b60006020820190508181036000830152610412816103d6565b9050919050565b7f556e6c6f636b2064656c6179206d75737420626520677265617465722074686160008201527f6e207a65726f0000000000000000000000000000000000000000000000000000602082015250565b600061047560268361039c565b915061048082610419565b604082019050919050565b600060208201905081810360008301526104a481610468565b9050919050565b7f496e697469616c206465706f7369742072657175697265640000000000000000600082015250565b60006104e160188361039c565b91506104ec826104ab565b602082019050919050565b60006020820190508181036000830152610510816104d4565b9050919050565b7f4e487b7100000000000000000000000000000000000000000000000000000000600052601160045260246000fd5b600061055182610326565b915061055c83610326565b925082820190508082111561057457610573610517565b5b92915050565b61058381610326565b82525050565b600060208201905061059e600083018461057a565b92915050565b610d20806105b36000396000f3fe6080604052600436106100865760003560e01c806385ac45151161005957806385ac45151461014a578063ac7cd1bf14610175578063c71daccb1461018c578063d0e30db0146101b7578063e85ec9c6146101c157610086565b806312e6d9b01461008b5780631c8aca3b146100b6578063251c1aa3146100e15780636122fed51461010c575b600080fd5b34801561009757600080fd5b506100a06101d8565b6040516100ad919061082a565b60405180910390f35b3480156100c257600080fd5b506100cb6101fe565b6040516100d8919061082a565b60405180910390f35b3480156100ed57600080fd5b506100f6610222565b604051610103919061085e565b60405180910390f35b34801561011857600080fd5b50610133600480360381019061012e91906108aa565b610228565b6040516101419291906108f2565b60405180910390f35b34801561015657600080fd5b5061015f610259565b60405161016c919061091b565b60405180910390f35b34801561018157600080fd5b5061018a61026c565b005b34801561019857600080fd5b506101a1610366565b6040516101ae919061085e565b60405180910390f35b6101bf61036e565b005b3480156101cd57600080fd5b506101d661050a565b005b600160009054906101000a900473ffffffffffffffffffffffffffffffffffffffff1681565b60008054906101000a900473ffffffffffffffffffffffffffffffffffffffff1681565b60025481565b60046020528060005260406000206000915090508060000154908060010160009054906101000a900460ff16905082565b600360009054906101000a900460ff1681565b60008054906101000a900473ffffffffffffffffffffffffffffffffffffffff1673ffffffffffffffffffffffffffffffffffffffff163373ffffffffffffffffffffffffffffffffffffffff16146102fa576040517f08c379a00000000000000000000000000000000000000000000000000000000081526004016102f1906109b9565b60405180910390fd5b6001600360006101000a81548160ff0219169083151502179055506301e13380426103259190610a08565b6002819055507fd050167ff2d4fc43b317e229a766ec981d522a8692a619991571da86d7126efd60025460405161035c919061085e565b60405180910390a1565b600047905090565b60008054906101000a900473ffffffffffffffffffffffffffffffffffffffff1673ffffffffffffffffffffffffffffffffffffffff163373ffffffffffffffffffffffffffffffffffffffff16146103fc576040517f08c379a00000000000000000000000000000000000000000000000000000000081526004016103f3906109b9565b60405180910390fd5b6000341161043f576040517f08c379a000000000000000000000000000000000000000000000000000000000815260040161043690610a88565b60405180910390fd5b3460046000600160009054906101000a900473ffffffffffffffffffffffffffffffffffffffff1673ffffffffffffffffffffffffffffffffffffffff1673ffffffffffffffffffffffffffffffffffffffff16815260200190815260200160002060000160008282546104b39190610a08565b925050819055503373ffffffffffffffffffffffffffffffffffffffff167f543ba50a5eec5e6178218e364b1d0f396157b3c8fa278522c2cb7fd99407d47434604051610500919061085e565b60405180910390a2565b600160009054906101000a900473ffffffffffffffffffffffffffffffffffffffff1673ffffffffffffffffffffffffffffffffffffffff163373ffffffffffffffffffffffffffffffffffffffff161461059a576040517f08c379a000000000000000000000000000000000000000000000000000000000815260040161059190610b1a565b60405180910390fd5b600360009054906101000a900460ff166105e9576040517f08c379a00000000000000000000000000000000000000000000000000000000081526004016105e090610b86565b60405180910390fd5b60025442101561062e576040517f08c379a000000000000000000000000000000000000000000000000000000000815260040161062590610bf2565b60405180910390fd5b6000600460003373ffffffffffffffffffffffffffffffffffffffff1673ffffffffffffffffffffffffffffffffffffffff16815260200190815260200160002090508060010160009054906101000a900460ff16156106c3576040517f08c379a00000000000000000000000000000000000000000000000000000000081526004016106ba90610c5e565b60405180910390fd5b600081600001541161070a576040517f08c379a000000000000000000000000000000000000000000000000000000000815260040161070190610cca565b60405180910390fd5b60018160010160006101000a81548160ff021916908315150217905550600160009054906101000a900473ffffffffffffffffffffffffffffffffffffffff1673ffffffffffffffffffffffffffffffffffffffff166108fc82600001549081150290604051600060405180830381858888f19350505050158015610793573d6000803e3d6000fd5b503373ffffffffffffffffffffffffffffffffffffffff167fc29387fe63187f7a60628731e986037f186b86d97720f86955e0ce15d412677c82600001546040516107de919061085e565b60405180910390a250565b600073ffffffffffffffffffffffffffffffffffffffff82169050919050565b6000610814826107e9565b9050919050565b61082481610809565b82525050565b600060208201905061083f600083018461081b565b92915050565b6000819050919050565b61085881610845565b82525050565b6000602082019050610873600083018461084f565b92915050565b600080fd5b61088781610809565b811461089257600080fd5b50565b6000813590506108a48161087e565b92915050565b6000602082840312156108c0576108bf610879565b5b60006108ce84828501610895565b91505092915050565b60008115159050919050565b6108ec816108d7565b82525050565b6000604082019050610907600083018561084f565b61091460208301846108e3565b9392505050565b600060208201905061093060008301846108e3565b92915050565b600082825260208201905092915050565b7f4f6e6c7920746865206661746865722063616e20706572666f726d207468697360008201527f20616374696f6e00000000000000000000000000000000000000000000000000602082015250565b60006109a3602783610936565b91506109ae82610947565b604082019050919050565b600060208201905081810360008301526109d281610996565b9050919050565b7f4e487b7100000000000000000000000000000000000000000000000000000000600052601160045260246000fd5b6000610a1382610845565b9150610a1e83610845565b9250828201905080821115610a3657610a356109d9565b5b92915050565b7f4d757374206465706f736974206120706f73697469766520616d6f756e740000600082015250565b6000610a72601e83610936565b9150610a7d82610a3c565b602082019050919050565b60006020820190508181036000830152610aa181610a65565b9050919050565b7f4f6e6c792074686520736f6e2063616e20706572666f726d207468697320616360008201527f74696f6e00000000000000000000000000000000000000000000000000000000602082015250565b6000610b04602483610936565b9150610b0f82610aa8565b604082019050919050565b60006020820190508181036000830152610b3381610af7565b9050919050565b7f466174686572206973207374696c6c20616c6976650000000000000000000000600082015250565b6000610b70601583610936565b9150610b7b82610b3a565b602082019050919050565b60006020820190508181036000830152610b9f81610b63565b9050919050565b7f496e6865726974616e6365206973206e6f742079657420617661696c61626c65600082015250565b6000610bdc602083610936565b9150610be782610ba6565b602082019050919050565b60006020820190508181036000830152610c0b81610bcf565b9050919050565b7f496e6865726974616e636520616c72656164792077697468647261776e000000600082015250565b6000610c48601d83610936565b9150610c5382610c12565b602082019050919050565b60006020820190508181036000830152610c7781610c3b565b9050919050565b7f4e6f20696e6865726974616e636520617661696c61626c650000000000000000600082015250565b6000610cb4601883610936565b9150610cbf82610c7e565b602082019050919050565b60006020820190508181036000830152610ce381610ca7565b905091905056fea2646970667358221220780c2e2f20c391edeccb8975e59744000a0c61993a3488950dff2d3e06e0bcaa64736f6c634300081c0033",
  "linkReferences": {},
  "deployedLinkReferences": {}
}