{
  "_format": "hh-sol-artifact-1",
  "contractName": "CarDealer",
  "sourceName": "contracts/CarDealer.sol",
  "abi": [
    {
      "inputs": [],
      "stateMutability": "nonpayable",
      "type": "constructor"
    },
    {
      "inputs": [
        {
          "internalType": "string",
          "name": "_name",
          "type": "string"
        },
        {
          "internalType": "string",
          "name": "_model",
          "type": "string"
        },
        {
          "internalType": "uint256",
          "name": "_year",
          "type": "uint256"
        },
        {
          "internalType": "uint256",
          "name": "_mileage",
          "type": "uint256"
        }
      ],
      "name": "addCar",
      "outputs": [],
      "stateMutability": "nonpayable",
      "type": "function"
    },
    {
      "inputs": [
        {
          "internalType": "address",
          "name": "_address",
          "type": "address"
        }
      ],
      "name": "addStaff",
      "outputs": [],
      "stateMutability": "nonpayable",
      "type": "function"
    },
    {
      "inputs": [
        {
          "internalType": "uint256",
          "name": "",
          "type": "uint256"
        }
      ],
      "name": "cars",
      "outputs": [
        {
          "internalType": "uint256",
          "name": "id",
          "type": "uint256"
        },
        {
          "internalType": "string",
          "name": "name",
          "type": "string"
        },
        {
          "internalType": "string",
          "name": "model",
          "type": "string"
        },
        {
          "internalType": "uint256",
          "name": "year",
          "type": "uint256"
        },
        {
          "internalType": "uint256",
          "name": "mileage",
          "type": "uint256"
        },
        {
          "internalType": "bool",
          "name": "sold",
          "type": "bool"
        }
      ],
      "stateMutability": "view",
      "type": "function"
    },
    {
      "inputs": [
        {
          "internalType": "uint256",
          "name": "_id",
          "type": "uint256"
        }
      ],
      "name": "getCar",
      "outputs": [
        {
          "components": [
            {
              "internalType": "uint256",
              "name": "id",
              "type": "uint256"
            },
            {
              "internalType": "string",
              "name": "name",
              "type": "string"
            },
            {
              "internalType": "string",
              "name": "model",
              "type": "string"
            },
            {
              "internalType": "uint256",
              "name": "year",
              "type": "uint256"
            },
            {
              "internalType": "uint256",
              "name": "mileage",
              "type": "uint256"
            },
            {
              "internalType": "bool",
              "name": "sold",
              "type": "bool"
            }
          ],
          "internalType": "struct CarDealer.Car",
          "name": "",
          "type": "tuple"
        }
      ],
      "stateMutability": "view",
      "type": "function"
    },
    {
      "inputs": [
        {
          "internalType": "address",
          "name": "_address",
          "type": "address"
        }
      ],
      "name": "removeStaff",
      "outputs": [],
      "stateMutability": "nonpayable",
      "type": "function"
    },
    {
      "inputs": [
        {
          "internalType": "uint256",
          "name": "_id",
          "type": "uint256"
        }
      ],
      "name": "sellCar",
      "outputs": [
        {
          "components": [
            {
              "internalType": "uint256",
              "name": "id",
              "type": "uint256"
            },
            {
              "internalType": "string",
              "name": "name",
              "type": "string"
            },
            {
              "internalType": "string",
              "name": "model",
              "type": "string"
            },
            {
              "internalType": "uint256",
              "name": "year",
              "type": "uint256"
            },
            {
              "internalType": "uint256",
              "name": "mileage",
              "type": "uint256"
            },
            {
              "internalType": "bool",
              "name": "sold",
              "type": "bool"
            }
          ],
          "internalType": "struct CarDealer.Car",
          "name": "",
          "type": "tuple"
        }
      ],
      "stateMutability": "nonpayable",
      "type": "function"
    }
  ],
  "bytecode": "0x6080604052348015600f57600080fd5b50336000806101000a81548173ffffffffffffffffffffffffffffffffffffffff021916908373ffffffffffffffffffffffffffffffffffffffff1602179055506001600860008060009054906101000a900473ffffffffffffffffffffffffffffffffffffffff1673ffffffffffffffffffffffffffffffffffffffff1673ffffffffffffffffffffffffffffffffffffffff16815260200190815260200160002060006101000a81548160ff02191690831515021790555061181b806100d86000396000f3fe608060405234801561001057600080fd5b50600436106100625760003560e01c80634865bed214610067578063522e4c8a146100835780635e8be1901461009f578063c4522c92146100cf578063eb8ee80b146100eb578063f7746e361461011b575b600080fd5b610081600480360381019061007c9190610e01565b610150565b005b61009d60048036038101906100989190610efe565b610334565b005b6100b960048036038101906100b49190610f2b565b6104e9565b6040516100c69190611091565b60405180910390f35b6100e960048036038101906100e49190610efe565b610673565b005b61010560048036038101906101009190610f2b565b610828565b6040516101129190611091565b60405180910390f35b61013560048036038101906101309190610f2b565b610ae0565b6040516101479695949392919061111b565b60405180910390f35b3360011515600860008373ffffffffffffffffffffffffffffffffffffffff1673ffffffffffffffffffffffffffffffffffffffff16815260200190815260200160002060009054906101000a900460ff161515146101e4576040517f08c379a00000000000000000000000000000000000000000000000000000000081526004016101db906111d6565b60405180910390fd5b60018060008282546101f69190611225565b925050819055506040518060c0016040528060015481526020018681526020018581526020018481526020018381526020016000151581525060026000820151816000015560208201518160010190816102509190611465565b5060408201518160020190816102669190611465565b50606082015181600301556080820151816004015560a08201518160050160006101000a81548160ff021916908315150217905550905050600260096000600154815260200190815260200160002060008201548160000155600182018160010190816102d3919061154d565b50600282018160020190816102e8919061154d565b5060038201548160030155600482015481600401556005820160009054906101000a900460ff168160050160006101000a81548160ff0219169083151502179055509050505050505050565b60008054906101000a900473ffffffffffffffffffffffffffffffffffffffff1673ffffffffffffffffffffffffffffffffffffffff163373ffffffffffffffffffffffffffffffffffffffff16146103c2576040517f08c379a00000000000000000000000000000000000000000000000000000000081526004016103b990611681565b60405180910390fd5b600073ffffffffffffffffffffffffffffffffffffffff168173ffffffffffffffffffffffffffffffffffffffff16036103fb57600080fd5b60001515600860008373ffffffffffffffffffffffffffffffffffffffff1673ffffffffffffffffffffffffffffffffffffffff16815260200190815260200160002060009054906101000a900460ff1615151461048e576040517f08c379a0000000000000000000000000000000000000000000000000000000008152600401610485906116ed565b60405180910390fd5b6001600860008373ffffffffffffffffffffffffffffffffffffffff1673ffffffffffffffffffffffffffffffffffffffff16815260200190815260200160002060006101000a81548160ff02191690831515021790555050565b6104f1610c39565b600960008381526020019081526020016000206040518060c00160405290816000820154815260200160018201805461052990611288565b80601f016020809104026020016040519081016040528092919081815260200182805461055590611288565b80156105a25780601f10610577576101008083540402835291602001916105a2565b820191906000526020600020905b81548152906001019060200180831161058557829003601f168201915b505050505081526020016002820180546105bb90611288565b80601f01602080910402602001604051908101604052809291908181526020018280546105e790611288565b80156106345780601f1061060957610100808354040283529160200191610634565b820191906000526020600020905b81548152906001019060200180831161061757829003601f168201915b5050505050815260200160038201548152602001600482015481526020016005820160009054906101000a900460ff1615151515815250509050919050565b60008054906101000a900473ffffffffffffffffffffffffffffffffffffffff1673ffffffffffffffffffffffffffffffffffffffff163373ffffffffffffffffffffffffffffffffffffffff1614610701576040517f08c379a00000000000000000000000000000000000000000000000000000000081526004016106f890611681565b60405180910390fd5b600073ffffffffffffffffffffffffffffffffffffffff168173ffffffffffffffffffffffffffffffffffffffff160361073a57600080fd5b60011515600860008373ffffffffffffffffffffffffffffffffffffffff1673ffffffffffffffffffffffffffffffffffffffff16815260200190815260200160002060009054906101000a900460ff161515146107cd576040517f08c379a00000000000000000000000000000000000000000000000000000000081526004016107c490611759565b60405180910390fd5b6000600860008373ffffffffffffffffffffffffffffffffffffffff1673ffffffffffffffffffffffffffffffffffffffff16815260200190815260200160002060006101000a81548160ff02191690831515021790555050565b610830610c39565b3360011515600860008373ffffffffffffffffffffffffffffffffffffffff1673ffffffffffffffffffffffffffffffffffffffff16815260200190815260200160002060009054906101000a900460ff161515146108c4576040517f08c379a00000000000000000000000000000000000000000000000000000000081526004016108bb906111d6565b60405180910390fd5b600015156009600085815260200190815260200160002060050160009054906101000a900460ff1615151461092e576040517f08c379a0000000000000000000000000000000000000000000000000000000008152600401610925906117c5565b60405180910390fd5b60016009600085815260200190815260200160002060050160006101000a81548160ff021916908315150217905550600960008481526020019081526020016000206040518060c00160405290816000820154815260200160018201805461099590611288565b80601f01602080910402602001604051908101604052809291908181526020018280546109c190611288565b8015610a0e5780601f106109e357610100808354040283529160200191610a0e565b820191906000526020600020905b8154815290600101906020018083116109f157829003601f168201915b50505050508152602001600282018054610a2790611288565b80601f0160208091040260200160405190810160405280929190818152602001828054610a5390611288565b8015610aa05780601f10610a7557610100808354040283529160200191610aa0565b820191906000526020600020905b815481529060010190602001808311610a8357829003601f168201915b5050505050815260200160038201548152602001600482015481526020016005820160009054906101000a900460ff161515151581525050915050919050565b6009602052806000526040600020600091509050806000015490806001018054610b0990611288565b80601f0160208091040260200160405190810160405280929190818152602001828054610b3590611288565b8015610b825780601f10610b5757610100808354040283529160200191610b82565b820191906000526020600020905b815481529060010190602001808311610b6557829003601f168201915b505050505090806002018054610b9790611288565b80601f0160208091040260200160405190810160405280929190818152602001828054610bc390611288565b8015610c105780601f10610be557610100808354040283529160200191610c10565b820191906000526020600020905b815481529060010190602001808311610bf357829003601f168201915b5050505050908060030154908060040154908060050160009054906101000a900460ff16905086565b6040518060c0016040528060008152602001606081526020016060815260200160008152602001600081526020016000151581525090565b6000604051905090565b600080fd5b600080fd5b600080fd5b600080fd5b6000601f19601f8301169050919050565b7f4e487b7100000000000000000000000000000000000000000000000000000000600052604160045260246000fd5b610cd882610c8f565b810181811067ffffffffffffffff82111715610cf757610cf6610ca0565b5b80604052505050565b6000610d0a610c71565b9050610d168282610ccf565b919050565b600067ffffffffffffffff821115610d3657610d35610ca0565b5b610d3f82610c8f565b9050602081019050919050565b82818337600083830152505050565b6000610d6e610d6984610d1b565b610d00565b905082815260208101848484011115610d8a57610d89610c8a565b5b610d95848285610d4c565b509392505050565b600082601f830112610db257610db1610c85565b5b8135610dc2848260208601610d5b565b91505092915050565b6000819050919050565b610dde81610dcb565b8114610de957600080fd5b50565b600081359050610dfb81610dd5565b92915050565b60008060008060808587031215610e1b57610e1a610c7b565b5b600085013567ffffffffffffffff811115610e3957610e38610c80565b5b610e4587828801610d9d565b945050602085013567ffffffffffffffff811115610e6657610e65610c80565b5b610e7287828801610d9d565b9350506040610e8387828801610dec565b9250506060610e9487828801610dec565b91505092959194509250565b600073ffffffffffffffffffffffffffffffffffffffff82169050919050565b6000610ecb82610ea0565b9050919050565b610edb81610ec0565b8114610ee657600080fd5b50565b600081359050610ef881610ed2565b92915050565b600060208284031215610f1457610f13610c7b565b5b6000610f2284828501610ee9565b91505092915050565b600060208284031215610f4157610f40610c7b565b5b6000610f4f84828501610dec565b91505092915050565b610f6181610dcb565b82525050565b600081519050919050565b600082825260208201905092915050565b60005b83811015610fa1578082015181840152602081019050610f86565b60008484015250505050565b6000610fb882610f67565b610fc28185610f72565b9350610fd2818560208601610f83565b610fdb81610c8f565b840191505092915050565b60008115159050919050565b610ffb81610fe6565b82525050565b600060c0830160008301516110196000860182610f58565b50602083015184820360208601526110318282610fad565b9150506040830151848203604086015261104b8282610fad565b91505060608301516110606060860182610f58565b5060808301516110736080860182610f58565b5060a083015161108660a0860182610ff2565b508091505092915050565b600060208201905081810360008301526110ab8184611001565b905092915050565b6110bc81610dcb565b82525050565b600082825260208201905092915050565b60006110de82610f67565b6110e881856110c2565b93506110f8818560208601610f83565b61110181610c8f565b840191505092915050565b61111581610fe6565b82525050565b600060c08201905061113060008301896110b3565b818103602083015261114281886110d3565b9050818103604083015261115681876110d3565b905061116560608301866110b3565b61117260808301856110b3565b61117f60a083018461110c565b979650505050505050565b7f75736572206e6f74206120737461666621212100000000000000000000000000600082015250565b60006111c06013836110c2565b91506111cb8261118a565b602082019050919050565b600060208201905081810360008301526111ef816111b3565b9050919050565b7f4e487b7100000000000000000000000000000000000000000000000000000000600052601160045260246000fd5b600061123082610dcb565b915061123b83610dcb565b9250828201905080821115611253576112526111f6565b5b92915050565b7f4e487b7100000000000000000000000000000000000000000000000000000000600052602260045260246000fd5b600060028204905060018216806112a057607f821691505b6020821081036112b3576112b2611259565b5b50919050565b60008190508160005260206000209050919050565b60006020601f8301049050919050565b600082821b905092915050565b60006008830261131b7fffffffffffffffffffffffffffffffffffffffffffffffffffffffffffffffff826112de565b61132586836112de565b95508019841693508086168417925050509392505050565b6000819050919050565b600061136261135d61135884610dcb565b61133d565b610dcb565b9050919050565b6000819050919050565b61137c83611347565b61139061138882611369565b8484546112eb565b825550505050565b600090565b6113a5611398565b6113b0818484611373565b505050565b5b818110156113d4576113c960008261139d565b6001810190506113b6565b5050565b601f821115611419576113ea816112b9565b6113f3846112ce565b81016020851015611402578190505b61141661140e856112ce565b8301826113b5565b50505b505050565b600082821c905092915050565b600061143c6000198460080261141e565b1980831691505092915050565b6000611455838361142b565b9150826002028217905092915050565b61146e82610f67565b67ffffffffffffffff81111561148757611486610ca0565b5b6114918254611288565b61149c8282856113d8565b600060209050601f8311600181146114cf57600084156114bd578287015190505b6114c78582611449565b86555061152f565b601f1984166114dd866112b9565b60005b82811015611505578489015182556001820191506020850194506020810190506114e0565b86831015611522578489015161151e601f89168261142b565b8355505b6001600288020188555050505b505050505050565b60008154905061154681611288565b9050919050565b81810361155b575050611633565b61156482611537565b67ffffffffffffffff81111561157d5761157c610ca0565b5b6115878254611288565b6115928282856113d8565b6000601f8311600181146115c157600084156115af578287015490505b6115b98582611449565b86555061162c565b601f1984166115cf876112b9565b96506115da866112b9565b60005b82811015611602578489015482556001820191506001850194506020810190506115dd565b8683101561161f578489015461161b601f89168261142b565b8355505b6001600288020188555050505b5050505050505b565b7f75736572206e6f74206f776e6572212121000000000000000000000000000000600082015250565b600061166b6011836110c2565b915061167682611635565b602082019050919050565b6000602082019050818103600083015261169a8161165e565b9050919050565b7f737461666620616c726561647920657869737400000000000000000000000000600082015250565b60006116d76013836110c2565b91506116e2826116a1565b602082019050919050565b60006020820190508181036000830152611706816116ca565b9050919050565b7f737461666620616c72656164792072656d6f7665640000000000000000000000600082015250565b60006117436015836110c2565b915061174e8261170d565b602082019050919050565b6000602082019050818103600083015261177281611736565b9050919050565b7f43617220686173206265656e20736f6c64000000000000000000000000000000600082015250565b60006117af6011836110c2565b91506117ba82611779565b602082019050919050565b600060208201905081810360008301526117de816117a2565b905091905056fea264697066735822122003610b2ff8a6d6efc0de865a9aab066c6d0fdda15a4f886a876b80fa81b1297c64736f6c634300081c0033",
  "linkReferences": {},
  "deployedLinkReferences": {}
}