{
  "_format": "hh-sol-artifact-1",
  "contractName": "ClassRegistration",
  "sourceName": "contracts/ClassRegistration.sol",
  "abi": [
    {
      "inputs": [],
      "stateMutability": "nonpayable",
      "type": "constructor"
    },
    {
      "anonymous": false,
      "inputs": [
        {
          "indexed": false,
          "internalType": "uint256",
          "name": "studentId",
          "type": "uint256"
        },
        {
          "indexed": false,
          "internalType": "string",
          "name": "name",
          "type": "string"
        }
      ],
      "name": "StudentRegistered",
      "type": "event"
    },
    {
      "anonymous": false,
      "inputs": [
        {
          "indexed": false,
          "internalType": "uint256",
          "name": "studentId",
          "type": "uint256"
        }
      ],
      "name": "StudentRemoved",
      "type": "event"
    },
    {
      "inputs": [],
      "name": "admin",
      "outputs": [
        {
          "internalType": "address",
          "name": "",
          "type": "address"
        }
      ],
      "stateMutability": "view",
      "type": "function"
    },
    {
      "inputs": [],
      "name": "getAllStudents",
      "outputs": [
        {
          "internalType": "uint256[]",
          "name": "",
          "type": "uint256[]"
        },
        {
          "internalType": "string[]",
          "name": "",
          "type": "string[]"
        }
      ],
      "stateMutability": "view",
      "type": "function"
    },
    {
      "inputs": [
        {
          "internalType": "uint256",
          "name": "_id",
          "type": "uint256"
        }
      ],
      "name": "getStudentById",
      "outputs": [
        {
          "internalType": "string",
          "name": "",
          "type": "string"
        }
      ],
      "stateMutability": "view",
      "type": "function"
    },
    {
      "inputs": [
        {
          "internalType": "uint256",
          "name": "_id",
          "type": "uint256"
        },
        {
          "internalType": "string",
          "name": "_name",
          "type": "string"
        }
      ],
      "name": "registerStudent",
      "outputs": [],
      "stateMutability": "nonpayable",
      "type": "function"
    },
    {
      "inputs": [
        {
          "internalType": "uint256",
          "name": "_id",
          "type": "uint256"
        }
      ],
      "name": "removeStudent",
      "outputs": [],
      "stateMutability": "nonpayable",
      "type": "function"
    }
  ],
  "bytecode": "0x6080604052348015600f57600080fd5b50336000806101000a81548173ffffffffffffffffffffffffffffffffffffffff021916908373ffffffffffffffffffffffffffffffffffffffff1602179055506113798061005f6000396000f3fe608060405234801561001057600080fd5b50600436106100575760003560e01c80633f9586d41461005c5780636af8384514610078578063c8fb079314610094578063e9e30927146100c4578063f851a440146100e3575b600080fd5b6100766004803603810190610071919061096b565b610101565b005b610092600480360381019061008d91906109cb565b61035a565b005b6100ae60048036038101906100a991906109cb565b610589565b6040516100bb9190610a88565b60405180910390f35b6100cc610694565b6040516100da929190610c74565b60405180910390f35b6100eb610845565b6040516100f89190610cec565b60405180910390f35b60008054906101000a900473ffffffffffffffffffffffffffffffffffffffff1673ffffffffffffffffffffffffffffffffffffffff163373ffffffffffffffffffffffffffffffffffffffff161461018f576040517f08c379a000000000000000000000000000000000000000000000000000000000815260040161018690610d79565b60405180910390fd5b6001600084815260200190815260200160002060020160009054906101000a900460ff16156101f3576040517f08c379a00000000000000000000000000000000000000000000000000000000081526004016101ea90610de5565b60405180910390fd5b60008282905011610239576040517f08c379a000000000000000000000000000000000000000000000000000000000815260040161023090610e51565b60405180910390fd5b604051806060016040528084815260200183838080601f016020809104026020016040519081016040528093929190818152602001838380828437600081840152601f19601f82011690508083019250505050505050815260200160011515815250600160008581526020019081526020016000206000820151816000015560208201518160010190816102cd91906110ac565b5060408201518160020160006101000a81548160ff02191690831515021790555090505060028390806001815401808255809150506001900390600052602060002001600090919091909150557f82972a188d7a560cf772804ac1cadfb42df2654ff1ded99159259c287ead263083838360405161034d939291906111c9565b60405180910390a1505050565b60008054906101000a900473ffffffffffffffffffffffffffffffffffffffff1673ffffffffffffffffffffffffffffffffffffffff163373ffffffffffffffffffffffffffffffffffffffff16146103e8576040517f08c379a00000000000000000000000000000000000000000000000000000000081526004016103df90610d79565b60405180910390fd5b6001600082815260200190815260200160002060020160009054906101000a900460ff1661044b576040517f08c379a000000000000000000000000000000000000000000000000000000000815260040161044290611247565b60405180910390fd5b600160008281526020019081526020016000206000808201600090556001820160006104779190610869565b6002820160006101000a81549060ff0219169055505060005b60028054905081101561054e5781600282815481106104b2576104b1611267565b5b90600052602060002001540361054157600260016002805490506104d691906112c5565b815481106104e7576104e6611267565b5b90600052602060002001546002828154811061050657610505611267565b5b90600052602060002001819055506002805480610526576105256112f9565b5b6001900381819060005260206000200160009055905561054e565b8080600101915050610490565b507f59341c48fd0b57ee9c153818be62372ef211cc499da6c2c6d5b8fe49721f36c58160405161057e9190611328565b60405180910390a150565b60606001600083815260200190815260200160002060020160009054906101000a900460ff166105ee576040517f08c379a00000000000000000000000000000000000000000000000000000000081526004016105e590611247565b60405180910390fd5b60016000838152602001908152602001600020600101805461060f90610ecf565b80601f016020809104026020016040519081016040528092919081815260200182805461063b90610ecf565b80156106885780601f1061065d57610100808354040283529160200191610688565b820191906000526020600020905b81548152906001019060200180831161066b57829003601f168201915b50505050509050919050565b606080600060028054905067ffffffffffffffff8111156106b8576106b7610e71565b5b6040519080825280602002602001820160405280156106eb57816020015b60608152602001906001900390816106d65790505b50905060005b6002805490508110156107e657600160006002838154811061071657610715611267565b5b90600052602060002001548152602001908152602001600020600101805461073d90610ecf565b80601f016020809104026020016040519081016040528092919081815260200182805461076990610ecf565b80156107b65780601f1061078b576101008083540402835291602001916107b6565b820191906000526020600020905b81548152906001019060200180831161079957829003601f168201915b50505050508282815181106107ce576107cd611267565b5b602002602001018190525080806001019150506106f1565b506002818180548060200260200160405190810160405280929190818152602001828054801561083557602002820191906000526020600020905b815481526020019060010190808311610821575b5050505050915092509250509091565b60008054906101000a900473ffffffffffffffffffffffffffffffffffffffff1681565b50805461087590610ecf565b6000825580601f1061088757506108a6565b601f0160209004906000526020600020908101906108a591906108a9565b5b50565b5b808211156108c25760008160009055506001016108aa565b5090565b600080fd5b600080fd5b6000819050919050565b6108e3816108d0565b81146108ee57600080fd5b50565b600081359050610900816108da565b92915050565b600080fd5b600080fd5b600080fd5b60008083601f84011261092b5761092a610906565b5b8235905067ffffffffffffffff8111156109485761094761090b565b5b60208301915083600182028301111561096457610963610910565b5b9250929050565b600080600060408486031215610984576109836108c6565b5b6000610992868287016108f1565b935050602084013567ffffffffffffffff8111156109b3576109b26108cb565b5b6109bf86828701610915565b92509250509250925092565b6000602082840312156109e1576109e06108c6565b5b60006109ef848285016108f1565b91505092915050565b600081519050919050565b600082825260208201905092915050565b60005b83811015610a32578082015181840152602081019050610a17565b60008484015250505050565b6000601f19601f8301169050919050565b6000610a5a826109f8565b610a648185610a03565b9350610a74818560208601610a14565b610a7d81610a3e565b840191505092915050565b60006020820190508181036000830152610aa28184610a4f565b905092915050565b600081519050919050565b600082825260208201905092915050565b6000819050602082019050919050565b610adf816108d0565b82525050565b6000610af18383610ad6565b60208301905092915050565b6000602082019050919050565b6000610b1582610aaa565b610b1f8185610ab5565b9350610b2a83610ac6565b8060005b83811015610b5b578151610b428882610ae5565b9750610b4d83610afd565b925050600181019050610b2e565b5085935050505092915050565b600081519050919050565b600082825260208201905092915050565b6000819050602082019050919050565b600082825260208201905092915050565b6000610bb0826109f8565b610bba8185610b94565b9350610bca818560208601610a14565b610bd381610a3e565b840191505092915050565b6000610bea8383610ba5565b905092915050565b6000602082019050919050565b6000610c0a82610b68565b610c148185610b73565b935083602082028501610c2685610b84565b8060005b85811015610c625784840389528151610c438582610bde565b9450610c4e83610bf2565b925060208a01995050600181019050610c2a565b50829750879550505050505092915050565b60006040820190508181036000830152610c8e8185610b0a565b90508181036020830152610ca28184610bff565b90509392505050565b600073ffffffffffffffffffffffffffffffffffffffff82169050919050565b6000610cd682610cab565b9050919050565b610ce681610ccb565b82525050565b6000602082019050610d016000830184610cdd565b92915050565b7f4f6e6c792061646d696e2063616e20706572666f726d2074686973206163746960008201527f6f6e000000000000000000000000000000000000000000000000000000000000602082015250565b6000610d63602283610a03565b9150610d6e82610d07565b604082019050919050565b60006020820190508181036000830152610d9281610d56565b9050919050565b7f53747564656e7420494420616c72656164792072656769737465726564000000600082015250565b6000610dcf601d83610a03565b9150610dda82610d99565b602082019050919050565b60006020820190508181036000830152610dfe81610dc2565b9050919050565b7f53747564656e74206e616d652069732072657175697265640000000000000000600082015250565b6000610e3b601883610a03565b9150610e4682610e05565b602082019050919050565b60006020820190508181036000830152610e6a81610e2e565b9050919050565b7f4e487b7100000000000000000000000000000000000000000000000000000000600052604160045260246000fd5b7f4e487b7100000000000000000000000000000000000000000000000000000000600052602260045260246000fd5b60006002820490506001821680610ee757607f821691505b602082108103610efa57610ef9610ea0565b5b50919050565b60008190508160005260206000209050919050565b60006020601f8301049050919050565b600082821b905092915050565b600060088302610f627fffffffffffffffffffffffffffffffffffffffffffffffffffffffffffffffff82610f25565b610f6c8683610f25565b95508019841693508086168417925050509392505050565b6000819050919050565b6000610fa9610fa4610f9f846108d0565b610f84565b6108d0565b9050919050565b6000819050919050565b610fc383610f8e565b610fd7610fcf82610fb0565b848454610f32565b825550505050565b600090565b610fec610fdf565b610ff7818484610fba565b505050565b5b8181101561101b57611010600082610fe4565b600181019050610ffd565b5050565b601f8211156110605761103181610f00565b61103a84610f15565b81016020851015611049578190505b61105d61105585610f15565b830182610ffc565b50505b505050565b600082821c905092915050565b600061108360001984600802611065565b1980831691505092915050565b600061109c8383611072565b9150826002028217905092915050565b6110b5826109f8565b67ffffffffffffffff8111156110ce576110cd610e71565b5b6110d88254610ecf565b6110e382828561101f565b600060209050601f8311600181146111165760008415611104578287015190505b61110e8582611090565b865550611176565b601f19841661112486610f00565b60005b8281101561114c57848901518255600182019150602085019450602081019050611127565b868310156111695784890151611165601f891682611072565b8355505b6001600288020188555050505b505050505050565b611187816108d0565b82525050565b82818337600083830152505050565b60006111a88385610a03565b93506111b583858461118d565b6111be83610a3e565b840190509392505050565b60006040820190506111de600083018661117e565b81810360208301526111f181848661119c565b9050949350505050565b7f53747564656e74206e6f7420666f756e64000000000000000000000000000000600082015250565b6000611231601183610a03565b915061123c826111fb565b602082019050919050565b6000602082019050818103600083015261126081611224565b9050919050565b7f4e487b7100000000000000000000000000000000000000000000000000000000600052603260045260246000fd5b7f4e487b7100000000000000000000000000000000000000000000000000000000600052601160045260246000fd5b60006112d0826108d0565b91506112db836108d0565b92508282039050818111156112f3576112f2611296565b5b92915050565b7f4e487b7100000000000000000000000000000000000000000000000000000000600052603160045260246000fd5b600060208201905061133d600083018461117e565b9291505056fea264697066735822122012a3fa484fd78987e19079fa2a2ef668a0000c17c7fc61f3b7d7d1c187f2109464736f6c634300081c0033",
  "linkReferences": {},
  "deployedLinkReferences": {}
}