{
  "_format": "hh-sol-artifact-1",
  "contractName": "ValSafeLock",
  "sourceName": "contracts/PiggyBank.sol",
  "abi": [
    {
      "inputs": [],
      "stateMutability": "nonpayable",
      "type": "constructor"
    },
    {
      "anonymous": false,
      "inputs": [
        {
          "indexed": true,
          "internalType": "address",
          "name": "sender",
          "type": "address"
        },
        {
          "indexed": false,
          "internalType": "uint256",
          "name": "amount",
          "type": "uint256"
        }
      ],
      "name": "DepositSuccessful",
      "type": "event"
    },
    {
      "anonymous": false,
      "inputs": [
        {
          "indexed": true,
          "internalType": "address",
          "name": "receiver",
          "type": "address"
        },
        {
          "indexed": false,
          "internalType": "uint256",
          "name": "amount",
          "type": "uint256"
        }
      ],
      "name": "WithdrawalSuccessful",
      "type": "event"
    },
    {
      "inputs": [],
      "name": "deposit",
      "outputs": [],
      "stateMutability": "payable",
      "type": "function"
    },
    {
      "inputs": [],
      "name": "getBalance",
      "outputs": [
        {
          "internalType": "uint256",
          "name": "",
          "type": "uint256"
        }
      ],
      "stateMutability": "view",
      "type": "function"
    },
    {
      "inputs": [],
      "name": "owner",
      "outputs": [
        {
          "internalType": "address",
          "name": "",
          "type": "address"
        }
      ],
      "stateMutability": "view",
      "type": "function"
    },
    {
      "inputs": [],
      "name": "unlockTime",
      "outputs": [
        {
          "internalType": "uint256",
          "name": "",
          "type": "uint256"
        }
      ],
      "stateMutability": "view",
      "type": "function"
    },
    {
      "inputs": [],
      "name": "withdraw",
      "outputs": [],
      "stateMutability": "nonpayable",
      "type": "function"
    }
  ],
  "bytecode": "0x608060405234801561001057600080fd5b50336000806101000a81548173ffffffffffffffffffffffffffffffffffffffff021916908373ffffffffffffffffffffffffffffffffffffffff1602179055506100604261006b60201b60201c565b600181905550610203565b6000806301e1853e8361007e9190610128565b6107b261008b9190610159565b9050623a02006301e1853e6107b2836100a4919061018d565b6100ae91906101c1565b6100b89190610159565b915050919050565b6000819050919050565b7f4e487b7100000000000000000000000000000000000000000000000000000000600052601260045260246000fd5b7f4e487b7100000000000000000000000000000000000000000000000000000000600052601160045260246000fd5b6000610133826100c0565b915061013e836100c0565b92508261014e5761014d6100ca565b5b828204905092915050565b6000610164826100c0565b915061016f836100c0565b9250828201905080821115610187576101866100f9565b5b92915050565b6000610198826100c0565b91506101a3836100c0565b92508282039050818111156101bb576101ba6100f9565b5b92915050565b60006101cc826100c0565b91506101d7836100c0565b92508282026101e5816100c0565b915082820484148315176101fc576101fb6100f9565b5b5092915050565b6107ed806102126000396000f3fe60806040526004361061004a5760003560e01c806312065fe01461004f578063251c1aa31461007a5780633ccfd60b146100a55780638da5cb5b146100bc578063d0e30db0146100e7575b600080fd5b34801561005b57600080fd5b506100646100f1565b6040516100719190610444565b60405180910390f35b34801561008657600080fd5b5061008f6100f9565b60405161009c9190610444565b60405180910390f35b3480156100b157600080fd5b506100ba6100ff565b005b3480156100c857600080fd5b506100d1610374565b6040516100de91906104a0565b60405180910390f35b6100ef610398565b005b600047905090565b60015481565b60008054906101000a900473ffffffffffffffffffffffffffffffffffffffff1673ffffffffffffffffffffffffffffffffffffffff163373ffffffffffffffffffffffffffffffffffffffff161461018d576040517f08c379a000000000000000000000000000000000000000000000000000000000815260040161018490610518565b60405180910390fd5b60015442101580156101ae5750620151806001546101ab9190610567565b42105b6101ed576040517f08c379a00000000000000000000000000000000000000000000000000000000081526004016101e49061060d565b60405180910390fd5b60004711610230576040517f08c379a000000000000000000000000000000000000000000000000000000000815260040161022790610679565b60405180910390fd5b600047905060008060009054906101000a900473ffffffffffffffffffffffffffffffffffffffff1673ffffffffffffffffffffffffffffffffffffffff168260405161027c906106ca565b60006040518083038185875af1925050503d80600081146102b9576040519150601f19603f3d011682016040523d82523d6000602084013e6102be565b606091505b5050905080610302576040517f08c379a00000000000000000000000000000000000000000000000000000000081526004016102f99061072b565b60405180910390fd5b60008054906101000a900473ffffffffffffffffffffffffffffffffffffffff1673ffffffffffffffffffffffffffffffffffffffff167ff4f855c53853d0277a9ff688aadbfe4cb795ca1d5af41704b62cb539f89939ec836040516103689190610444565b60405180910390a25050565b60008054906101000a900473ffffffffffffffffffffffffffffffffffffffff1681565b600034116103db576040517f08c379a00000000000000000000000000000000000000000000000000000000081526004016103d290610797565b60405180910390fd5b3373ffffffffffffffffffffffffffffffffffffffff167fb3ef81558ed1a50072a492984535a009da8b129c749500b387f1e5f4886bdde5346040516104219190610444565b60405180910390a2565b6000819050919050565b61043e8161042b565b82525050565b60006020820190506104596000830184610435565b92915050565b600073ffffffffffffffffffffffffffffffffffffffff82169050919050565b600061048a8261045f565b9050919050565b61049a8161047f565b82525050565b60006020820190506104b56000830184610491565b92915050565b600082825260208201905092915050565b7f4f6e6c79206f776e65722063616e207769746864726177000000000000000000600082015250565b60006105026017836104bb565b915061050d826104cc565b602082019050919050565b60006020820190508181036000830152610531816104f5565b9050919050565b7f4e487b7100000000000000000000000000000000000000000000000000000000600052601160045260246000fd5b60006105728261042b565b915061057d8361042b565b925082820190508082111561059557610594610538565b5b92915050565b7f43616e206f6e6c79207769746864726177206f6e2056616c656e74696e65277360008201527f2044617900000000000000000000000000000000000000000000000000000000602082015250565b60006105f76024836104bb565b91506106028261059b565b604082019050919050565b60006020820190508181036000830152610626816105ea565b9050919050565b7f4e6f2062616c616e636520746f20776974686472617700000000000000000000600082015250565b60006106636016836104bb565b915061066e8261062d565b602082019050919050565b6000602082019050818103600083015261069281610656565b9050919050565b600081905092915050565b50565b60006106b4600083610699565b91506106bf826106a4565b600082019050919050565b60006106d5826106a7565b9150819050919050565b7f5472616e73666572206661696c65640000000000000000000000000000000000600082015250565b6000610715600f836104bb565b9150610720826106df565b602082019050919050565b6000602082019050818103600083015261074481610708565b9050919050565b7f4d757374206465706f73697420736f6d65204574686572000000000000000000600082015250565b60006107816017836104bb565b915061078c8261074b565b602082019050919050565b600060208201905081810360008301526107b081610774565b905091905056fea2646970667358221220a2db0b4d2325c4ba8c1d9fb7182c5b39df0480e1579f7ecc9ea047701648a5aa64736f6c634300081c0033",
  "linkReferences": {},
  "deployedLinkReferences": {}
}