{
  "_format": "hh-sol-artifact-1",
  "contractName": "OurERC721",
  "sourceName": "contracts/OurERC721.sol",
  "abi": [
    {
      "inputs": [
        {
          "internalType": "string",
          "name": "name",
          "type": "string"
        },
        {
          "internalType": "string",
          "name": "symbol",
          "type": "string"
        }
      ],
      "stateMutability": "nonpayable",
      "type": "constructor"
    },
    {
      "inputs": [
        {
          "internalType": "address",
          "name": "sender",
          "type": "address"
        },
        {
          "internalType": "uint256",
          "name": "tokenId",
          "type": "uint256"
        },
        {
          "internalType": "address",
          "name": "owner",
          "type": "address"
        }
      ],
      "name": "ERC721IncorrectOwner",
      "type": "error"
    },
    {
      "inputs": [
        {
          "internalType": "address",
          "name": "operator",
          "type": "address"
        },
        {
          "internalType": "uint256",
          "name": "tokenId",
          "type": "uint256"
        }
      ],
      "name": "ERC721InsufficientApproval",
      "type": "error"
    },
    {
      "inputs": [
        {
          "internalType": "address",
          "name": "approver",
          "type": "address"
        }
      ],
      "name": "ERC721InvalidApprover",
      "type": "error"
    },
    {
      "inputs": [
        {
          "internalType": "address",
          "name": "operator",
          "type": "address"
        }
      ],
      "name": "ERC721InvalidOperator",
      "type": "error"
    },
    {
      "inputs": [
        {
          "internalType": "address",
          "name": "owner",
          "type": "address"
        }
      ],
      "name": "ERC721InvalidOwner",
      "type": "error"
    },
    {
      "inputs": [
        {
          "internalType": "address",
          "name": "receiver",
          "type": "address"
        }
      ],
      "name": "ERC721InvalidReceiver",
      "type": "error"
    },
    {
      "inputs": [
        {
          "internalType": "address",
          "name": "sender",
          "type": "address"
        }
      ],
      "name": "ERC721InvalidSender",
      "type": "error"
    },
    {
      "inputs": [
        {
          "internalType": "uint256",
          "name": "tokenId",
          "type": "uint256"
        }
      ],
      "name": "ERC721NonexistentToken",
      "type": "error"
    },
    {
      "inputs": [
        {
          "internalType": "address",
          "name": "owner",
          "type": "address"
        }
      ],
      "name": "OwnableInvalidOwner",
      "type": "error"
    },
    {
      "inputs": [
        {
          "internalType": "address",
          "name": "account",
          "type": "address"
        }
      ],
      "name": "OwnableUnauthorizedAccount",
      "type": "error"
    },
    {
      "anonymous": false,
      "inputs": [
        {
          "indexed": true,
          "internalType": "address",
          "name": "owner",
          "type": "address"
        },
        {
          "indexed": true,
          "internalType": "address",
          "name": "approved",
          "type": "address"
        },
        {
          "indexed": true,
          "internalType": "uint256",
          "name": "tokenId",
          "type": "uint256"
        }
      ],
      "name": "Approval",
      "type": "event"
    },
    {
      "anonymous": false,
      "inputs": [
        {
          "indexed": true,
          "internalType": "address",
          "name": "owner",
          "type": "address"
        },
        {
          "indexed": true,
          "internalType": "address",
          "name": "operator",
          "type": "address"
        },
        {
          "indexed": false,
          "internalType": "bool",
          "name": "approved",
          "type": "bool"
        }
      ],
      "name": "ApprovalForAll",
      "type": "event"
    },
    {
      "anonymous": false,
      "inputs": [
        {
          "indexed": true,
          "internalType": "address",
          "name": "previousOwner",
          "type": "address"
        },
        {
          "indexed": true,
          "internalType": "address",
          "name": "newOwner",
          "type": "address"
        }
      ],
      "name": "OwnershipTransferred",
      "type": "event"
    },
    {
      "anonymous": false,
      "inputs": [
        {
          "indexed": true,
          "internalType": "address",
          "name": "from",
          "type": "address"
        },
        {
          "indexed": true,
          "internalType": "address",
          "name": "to",
          "type": "address"
        },
        {
          "indexed": true,
          "internalType": "uint256",
          "name": "tokenId",
          "type": "uint256"
        }
      ],
      "name": "Transfer",
      "type": "event"
    },
    {
      "inputs": [
        {
          "internalType": "address",
          "name": "to",
          "type": "address"
        },
        {
          "internalType": "uint256",
          "name": "tokenId",
          "type": "uint256"
        }
      ],
      "name": "approve",
      "outputs": [],
      "stateMutability": "nonpayable",
      "type": "function"
    },
    {
      "inputs": [
        {
          "internalType": "address",
          "name": "owner",
          "type": "address"
        }
      ],
      "name": "balanceOf",
      "outputs": [
        {
          "internalType": "uint256",
          "name": "",
          "type": "uint256"
        }
      ],
      "stateMutability": "view",
      "type": "function"
    },
    {
      "inputs": [
        {
          "internalType": "uint256",
          "name": "tokenId",
          "type": "uint256"
        }
      ],
      "name": "getApproved",
      "outputs": [
        {
          "internalType": "address",
          "name": "",
          "type": "address"
        }
      ],
      "stateMutability": "view",
      "type": "function"
    },
    {
      "inputs": [
        {
          "internalType": "address",
          "name": "owner",
          "type": "address"
        },
        {
          "internalType": "address",
          "name": "operator",
          "type": "address"
        }
      ],
      "name": "isApprovedForAll",
      "outputs": [
        {
          "internalType": "bool",
          "name": "",
          "type": "bool"
        }
      ],
      "stateMutability": "view",
      "type": "function"
    },
    {
      "inputs": [
        {
          "internalType": "address",
          "name": "_to",
          "type": "address"
        }
      ],
      "name": "mint",
      "outputs": [],
      "stateMutability": "nonpayable",
      "type": "function"
    },
    {
      "inputs": [],
      "name": "name",
      "outputs": [
        {
          "internalType": "string",
          "name": "",
          "type": "string"
        }
      ],
      "stateMutability": "view",
      "type": "function"
    },
    {
      "inputs": [],
      "name": "owner",
      "outputs": [
        {
          "internalType": "address",
          "name": "",
          "type": "address"
        }
      ],
      "stateMutability": "view",
      "type": "function"
    },
    {
      "inputs": [
        {
          "internalType": "uint256",
          "name": "tokenId",
          "type": "uint256"
        }
      ],
      "name": "ownerOf",
      "outputs": [
        {
          "internalType": "address",
          "name": "",
          "type": "address"
        }
      ],
      "stateMutability": "view",
      "type": "function"
    },
    {
      "inputs": [],
      "name": "renounceOwnership",
      "outputs": [],
      "stateMutability": "nonpayable",
      "type": "function"
    },
    {
      "inputs": [
        {
          "internalType": "address",
          "name": "from",
          "type": "address"
        },
        {
          "internalType": "address",
          "name": "to",
          "type": "address"
        },
        {
          "internalType": "uint256",
          "name": "tokenId",
          "type": "uint256"
        }
      ],
      "name": "safeTransferFrom",
      "outputs": [],
      "stateMutability": "nonpayable",
      "type": "function"
    },
    {
      "inputs": [
        {
          "internalType": "address",
          "name": "from",
          "type": "address"
        },
        {
          "internalType": "address",
          "name": "to",
          "type": "address"
        },
        {
          "internalType": "uint256",
          "name": "tokenId",
          "type": "uint256"
        },
        {
          "internalType": "bytes",
          "name": "data",
          "type": "bytes"
        }
      ],
      "name": "safeTransferFrom",
      "outputs": [],
      "stateMutability": "nonpayable",
      "type": "function"
    },
    {
      "inputs": [
        {
          "internalType": "address",
          "name": "operator",
          "type": "address"
        },
        {
          "internalType": "bool",
          "name": "approved",
          "type": "bool"
        }
      ],
      "name": "setApprovalForAll",
      "outputs": [],
      "stateMutability": "nonpayable",
      "type": "function"
    },
    {
      "inputs": [
        {
          "internalType": "bytes4",
          "name": "interfaceId",
          "type": "bytes4"
        }
      ],
      "name": "supportsInterface",
      "outputs": [
        {
          "internalType": "bool",
          "name": "",
          "type": "bool"
        }
      ],
      "stateMutability": "view",
      "type": "function"
    },
    {
      "inputs": [],
      "name": "symbol",
      "outputs": [
        {
          "internalType": "string",
          "name": "",
          "type": "string"
        }
      ],
      "stateMutability": "view",
      "type": "function"
    },
    {
      "inputs": [
        {
          "internalType": "uint256",
          "name": "tokenId",
          "type": "uint256"
        }
      ],
      "name": "tokenURI",
      "outputs": [
        {
          "internalType": "string",
          "name": "",
          "type": "string"
        }
      ],
      "stateMutability": "view",
      "type": "function"
    },
    {
      "inputs": [
        {
          "internalType": "address",
          "name": "from",
          "type": "address"
        },
        {
          "internalType": "address",
          "name": "to",
          "type": "address"
        },
        {
          "internalType": "uint256",
          "name": "tokenId",
          "type": "uint256"
        }
      ],
      "name": "transferFrom",
      "outputs": [],
      "stateMutability": "nonpayable",
      "type": "function"
    },
    {
      "inputs": [
        {
          "internalType": "address",
          "name": "newOwner",
          "type": "address"
        }
      ],
      "name": "transferOwnership",
      "outputs": [],
      "stateMutability": "nonpayable",
      "type": "function"
    }
  ],
  "bytecode": "0x608060405234801561001057600080fd5b506040516130b23803806130b283398181016040528101906100329190610b76565b33828281600090816100449190610e0f565b5080600190816100549190610e0f565b505050600073ffffffffffffffffffffffffffffffffffffffff168173ffffffffffffffffffffffffffffffffffffffff16036100c95760006040517f1e4fbdf70000000000000000000000000000000000000000000000000000000081526004016100c09190610f22565b60405180910390fd5b6100d88161010c60201b60201c565b506001600760008282546100ec9190610f6c565b92505081905550610105336007546101d260201b60201c565b5050610ff3565b6000600660009054906101000a900473ffffffffffffffffffffffffffffffffffffffff16905081600660006101000a81548173ffffffffffffffffffffffffffffffffffffffff021916908373ffffffffffffffffffffffffffffffffffffffff1602179055508173ffffffffffffffffffffffffffffffffffffffff168173ffffffffffffffffffffffffffffffffffffffff167f8be0079c531659141344cd1fd0a4f28419497f9722a3daafe3b4186f6b6457e060405160405180910390a35050565b600073ffffffffffffffffffffffffffffffffffffffff168273ffffffffffffffffffffffffffffffffffffffff16036102445760006040517f64a0ae9200000000000000000000000000000000000000000000000000000000815260040161023b9190610f22565b60405180910390fd5b6000610258838360006102d160201b60201c565b9050600073ffffffffffffffffffffffffffffffffffffffff168173ffffffffffffffffffffffffffffffffffffffff16146102cc5760006040517f73c6ac6e0000000000000000000000000000000000000000000000000000000081526004016102c39190610f22565b60405180910390fd5b505050565b6000806102e3846104fd60201b60201c565b9050600073ffffffffffffffffffffffffffffffffffffffff168373ffffffffffffffffffffffffffffffffffffffff161461032b5761032a81848661053a60201b60201c565b5b600073ffffffffffffffffffffffffffffffffffffffff168173ffffffffffffffffffffffffffffffffffffffff16146103c25761037360008560008061060460201b60201c565b6001600360008373ffffffffffffffffffffffffffffffffffffffff1673ffffffffffffffffffffffffffffffffffffffff168152602001908152602001600020600082825403925050819055505b600073ffffffffffffffffffffffffffffffffffffffff168573ffffffffffffffffffffffffffffffffffffffff1614610445576001600360008773ffffffffffffffffffffffffffffffffffffffff1673ffffffffffffffffffffffffffffffffffffffff168152602001908152602001600020600082825401925050819055505b846002600086815260200190815260200160002060006101000a81548173ffffffffffffffffffffffffffffffffffffffff021916908373ffffffffffffffffffffffffffffffffffffffff160217905550838573ffffffffffffffffffffffffffffffffffffffff168273ffffffffffffffffffffffffffffffffffffffff167fddf252ad1be2c89b69c2b068fc378daa952ba7f163c4a11628f55a4df523b3ef60405160405180910390a4809150509392505050565b60006002600083815260200190815260200160002060009054906101000a900473ffffffffffffffffffffffffffffffffffffffff169050919050565b61054b8383836107d560201b60201c565b6105ff57600073ffffffffffffffffffffffffffffffffffffffff168373ffffffffffffffffffffffffffffffffffffffff16036105c057806040517f7e2732890000000000000000000000000000000000000000000000000000000081526004016105b79190610faf565b60405180910390fd5b81816040517f177e802f0000000000000000000000000000000000000000000000000000000081526004016105f6929190610fca565b60405180910390fd5b505050565b808061063d5750600073ffffffffffffffffffffffffffffffffffffffff168273ffffffffffffffffffffffffffffffffffffffff1614155b1561077d576000610653846108a260201b60201c565b9050600073ffffffffffffffffffffffffffffffffffffffff168373ffffffffffffffffffffffffffffffffffffffff16141580156106be57508273ffffffffffffffffffffffffffffffffffffffff168173ffffffffffffffffffffffffffffffffffffffff1614155b80156106d757506106d5818461093060201b60201c565b155b1561071957826040517fa9fbf51f0000000000000000000000000000000000000000000000000000000081526004016107109190610f22565b60405180910390fd5b811561077b57838573ffffffffffffffffffffffffffffffffffffffff168273ffffffffffffffffffffffffffffffffffffffff167f8c5be1e5ebec7d5bd14f71427d1e84f3dd0314c0f7b2291e5b200ac8c7c3b92560405160405180910390a45b505b836004600085815260200190815260200160002060006101000a81548173ffffffffffffffffffffffffffffffffffffffff021916908373ffffffffffffffffffffffffffffffffffffffff16021790555050505050565b60008073ffffffffffffffffffffffffffffffffffffffff168373ffffffffffffffffffffffffffffffffffffffff161415801561089957508273ffffffffffffffffffffffffffffffffffffffff168473ffffffffffffffffffffffffffffffffffffffff1614806108545750610853848461093060201b60201c565b5b8061089857508273ffffffffffffffffffffffffffffffffffffffff16610880836109c460201b60201c565b73ffffffffffffffffffffffffffffffffffffffff16145b5b90509392505050565b6000806108b4836104fd60201b60201c565b9050600073ffffffffffffffffffffffffffffffffffffffff168173ffffffffffffffffffffffffffffffffffffffff160361092757826040517f7e27328900000000000000000000000000000000000000000000000000000000815260040161091e9190610faf565b60405180910390fd5b80915050919050565b6000600560008473ffffffffffffffffffffffffffffffffffffffff1673ffffffffffffffffffffffffffffffffffffffff16815260200190815260200160002060008373ffffffffffffffffffffffffffffffffffffffff1673ffffffffffffffffffffffffffffffffffffffff16815260200190815260200160002060009054906101000a900460ff16905092915050565b60006004600083815260200190815260200160002060009054906101000a900473ffffffffffffffffffffffffffffffffffffffff169050919050565b6000604051905090565b600080fd5b600080fd5b600080fd5b600080fd5b6000601f19601f8301169050919050565b7f4e487b7100000000000000000000000000000000000000000000000000000000600052604160045260246000fd5b610a6882610a1f565b810181811067ffffffffffffffff82111715610a8757610a86610a30565b5b80604052505050565b6000610a9a610a01565b9050610aa68282610a5f565b919050565b600067ffffffffffffffff821115610ac657610ac5610a30565b5b610acf82610a1f565b9050602081019050919050565b60005b83811015610afa578082015181840152602081019050610adf565b60008484015250505050565b6000610b19610b1484610aab565b610a90565b905082815260208101848484011115610b3557610b34610a1a565b5b610b40848285610adc565b509392505050565b600082601f830112610b5d57610b5c610a15565b5b8151610b6d848260208601610b06565b91505092915050565b60008060408385031215610b8d57610b8c610a0b565b5b600083015167ffffffffffffffff811115610bab57610baa610a10565b5b610bb785828601610b48565b925050602083015167ffffffffffffffff811115610bd857610bd7610a10565b5b610be485828601610b48565b9150509250929050565b600081519050919050565b7f4e487b7100000000000000000000000000000000000000000000000000000000600052602260045260246000fd5b60006002820490506001821680610c4057607f821691505b602082108103610c5357610c52610bf9565b5b50919050565b60008190508160005260206000209050919050565b60006020601f8301049050919050565b600082821b905092915050565b600060088302610cbb7fffffffffffffffffffffffffffffffffffffffffffffffffffffffffffffffff82610c7e565b610cc58683610c7e565b95508019841693508086168417925050509392505050565b6000819050919050565b6000819050919050565b6000610d0c610d07610d0284610cdd565b610ce7565b610cdd565b9050919050565b6000819050919050565b610d2683610cf1565b610d3a610d3282610d13565b848454610c8b565b825550505050565b600090565b610d4f610d42565b610d5a818484610d1d565b505050565b5b81811015610d7e57610d73600082610d47565b600181019050610d60565b5050565b601f821115610dc357610d9481610c59565b610d9d84610c6e565b81016020851015610dac578190505b610dc0610db885610c6e565b830182610d5f565b50505b505050565b600082821c905092915050565b6000610de660001984600802610dc8565b1980831691505092915050565b6000610dff8383610dd5565b9150826002028217905092915050565b610e1882610bee565b67ffffffffffffffff811115610e3157610e30610a30565b5b610e3b8254610c28565b610e46828285610d82565b600060209050601f831160018114610e795760008415610e67578287015190505b610e718582610df3565b865550610ed9565b601f198416610e8786610c59565b60005b82811015610eaf57848901518255600182019150602085019450602081019050610e8a565b86831015610ecc5784890151610ec8601f891682610dd5565b8355505b6001600288020188555050505b505050505050565b600073ffffffffffffffffffffffffffffffffffffffff82169050919050565b6000610f0c82610ee1565b9050919050565b610f1c81610f01565b82525050565b6000602082019050610f376000830184610f13565b92915050565b7f4e487b7100000000000000000000000000000000000000000000000000000000600052601160045260246000fd5b6000610f7782610cdd565b9150610f8283610cdd565b9250828201905080821115610f9a57610f99610f3d565b5b92915050565b610fa981610cdd565b82525050565b6000602082019050610fc46000830184610fa0565b92915050565b6000604082019050610fdf6000830185610f13565b610fec6020830184610fa0565b9392505050565b6120b0806110026000396000f3fe608060405234801561001057600080fd5b506004361061010b5760003560e01c806370a08231116100a2578063a22cb46511610071578063a22cb465146102a4578063b88d4fde146102c0578063c87b56dd146102dc578063e985e9c51461030c578063f2fde38b1461033c5761010b565b806370a082311461022e578063715018a61461025e5780638da5cb5b1461026857806395d89b41146102865761010b565b806323b872dd116100de57806323b872dd146101aa57806342842e0e146101c65780636352211e146101e25780636a627842146102125761010b565b806301ffc9a71461011057806306fdde0314610140578063081812fc1461015e578063095ea7b31461018e575b600080fd5b61012a60048036038101906101259190611897565b610358565b60405161013791906118df565b60405180910390f35b61014861043a565b604051610155919061198a565b60405180910390f35b610178600480360381019061017391906119e2565b6104cc565b6040516101859190611a50565b60405180910390f35b6101a860048036038101906101a39190611a97565b6104e8565b005b6101c460048036038101906101bf9190611ad7565b6104fe565b005b6101e060048036038101906101db9190611ad7565b610600565b005b6101fc60048036038101906101f791906119e2565b610620565b6040516102099190611a50565b60405180910390f35b61022c60048036038101906102279190611b2a565b610632565b005b61024860048036038101906102439190611b2a565b61065b565b6040516102559190611b66565b60405180910390f35b610266610715565b005b610270610729565b60405161027d9190611a50565b60405180910390f35b61028e610753565b60405161029b919061198a565b60405180910390f35b6102be60048036038101906102b99190611bad565b6107e5565b005b6102da60048036038101906102d59190611d22565b6107fb565b005b6102f660048036038101906102f191906119e2565b610820565b604051610303919061198a565b60405180910390f35b61032660048036038101906103219190611da5565b610889565b60405161033391906118df565b60405180910390f35b61035660048036038101906103519190611b2a565b61091d565b005b60007f80ac58cd000000000000000000000000000000000000000000000000000000007bffffffffffffffffffffffffffffffffffffffffffffffffffffffff1916827bffffffffffffffffffffffffffffffffffffffffffffffffffffffff1916148061042357507f5b5e139f000000000000000000000000000000000000000000000000000000007bffffffffffffffffffffffffffffffffffffffffffffffffffffffff1916827bffffffffffffffffffffffffffffffffffffffffffffffffffffffff1916145b806104335750610432826109a3565b5b9050919050565b60606000805461044990611e14565b80601f016020809104026020016040519081016040528092919081815260200182805461047590611e14565b80156104c25780601f10610497576101008083540402835291602001916104c2565b820191906000526020600020905b8154815290600101906020018083116104a557829003601f168201915b5050505050905090565b60006104d782610a0d565b506104e182610a95565b9050919050565b6104fa82826104f5610ad2565b610ada565b5050565b600073ffffffffffffffffffffffffffffffffffffffff168273ffffffffffffffffffffffffffffffffffffffff16036105705760006040517f64a0ae920000000000000000000000000000000000000000000000000000000081526004016105679190611a50565b60405180910390fd5b6000610584838361057f610ad2565b610aec565b90508373ffffffffffffffffffffffffffffffffffffffff168173ffffffffffffffffffffffffffffffffffffffff16146105fa578382826040517f64283d7b0000000000000000000000000000000000000000000000000000000081526004016105f193929190611e45565b60405180910390fd5b50505050565b61061b838383604051806020016040528060008152506107fb565b505050565b600061062b82610a0d565b9050919050565b6001600760008282546106459190611eab565b9250508190555061065881600754610d06565b50565b60008073ffffffffffffffffffffffffffffffffffffffff168273ffffffffffffffffffffffffffffffffffffffff16036106ce5760006040517f89c62b640000000000000000000000000000000000000000000000000000000081526004016106c59190611a50565b60405180910390fd5b600360008373ffffffffffffffffffffffffffffffffffffffff1673ffffffffffffffffffffffffffffffffffffffff168152602001908152602001600020549050919050565b61071d610dff565b6107276000610e86565b565b6000600660009054906101000a900473ffffffffffffffffffffffffffffffffffffffff16905090565b60606001805461076290611e14565b80601f016020809104026020016040519081016040528092919081815260200182805461078e90611e14565b80156107db5780601f106107b0576101008083540402835291602001916107db565b820191906000526020600020905b8154815290600101906020018083116107be57829003601f168201915b5050505050905090565b6107f76107f0610ad2565b8383610f4c565b5050565b6108068484846104fe565b61081a610811610ad2565b858585856110bb565b50505050565b606061082b82610a0d565b50600061083661126c565b905060008151116108565760405180602001604052806000815250610881565b8061086084611283565b604051602001610871929190611f1b565b6040516020818303038152906040525b915050919050565b6000600560008473ffffffffffffffffffffffffffffffffffffffff1673ffffffffffffffffffffffffffffffffffffffff16815260200190815260200160002060008373ffffffffffffffffffffffffffffffffffffffff1673ffffffffffffffffffffffffffffffffffffffff16815260200190815260200160002060009054906101000a900460ff16905092915050565b610925610dff565b600073ffffffffffffffffffffffffffffffffffffffff168173ffffffffffffffffffffffffffffffffffffffff16036109975760006040517f1e4fbdf700000000000000000000000000000000000000000000000000000000815260040161098e9190611a50565b60405180910390fd5b6109a081610e86565b50565b60007f01ffc9a7000000000000000000000000000000000000000000000000000000007bffffffffffffffffffffffffffffffffffffffffffffffffffffffff1916827bffffffffffffffffffffffffffffffffffffffffffffffffffffffff1916149050919050565b600080610a1983611351565b9050600073ffffffffffffffffffffffffffffffffffffffff168173ffffffffffffffffffffffffffffffffffffffff1603610a8c57826040517f7e273289000000000000000000000000000000000000000000000000000000008152600401610a839190611b66565b60405180910390fd5b80915050919050565b60006004600083815260200190815260200160002060009054906101000a900473ffffffffffffffffffffffffffffffffffffffff169050919050565b600033905090565b610ae7838383600161138e565b505050565b600080610af884611351565b9050600073ffffffffffffffffffffffffffffffffffffffff168373ffffffffffffffffffffffffffffffffffffffff1614610b3a57610b39818486611553565b5b600073ffffffffffffffffffffffffffffffffffffffff168173ffffffffffffffffffffffffffffffffffffffff1614610bcb57610b7c60008560008061138e565b6001600360008373ffffffffffffffffffffffffffffffffffffffff1673ffffffffffffffffffffffffffffffffffffffff168152602001908152602001600020600082825403925050819055505b600073ffffffffffffffffffffffffffffffffffffffff168573ffffffffffffffffffffffffffffffffffffffff1614610c4e576001600360008773ffffffffffffffffffffffffffffffffffffffff1673ffffffffffffffffffffffffffffffffffffffff168152602001908152602001600020600082825401925050819055505b846002600086815260200190815260200160002060006101000a81548173ffffffffffffffffffffffffffffffffffffffff021916908373ffffffffffffffffffffffffffffffffffffffff160217905550838573ffffffffffffffffffffffffffffffffffffffff168273ffffffffffffffffffffffffffffffffffffffff167fddf252ad1be2c89b69c2b068fc378daa952ba7f163c4a11628f55a4df523b3ef60405160405180910390a4809150509392505050565b600073ffffffffffffffffffffffffffffffffffffffff168273ffffffffffffffffffffffffffffffffffffffff1603610d785760006040517f64a0ae92000000000000000000000000000000000000000000000000000000008152600401610d6f9190611a50565b60405180910390fd5b6000610d8683836000610aec565b9050600073ffffffffffffffffffffffffffffffffffffffff168173ffffffffffffffffffffffffffffffffffffffff1614610dfa5760006040517f73c6ac6e000000000000000000000000000000000000000000000000000000008152600401610df19190611a50565b60405180910390fd5b505050565b610e07610ad2565b73ffffffffffffffffffffffffffffffffffffffff16610e25610729565b73ffffffffffffffffffffffffffffffffffffffff1614610e8457610e48610ad2565b6040517f118cdaa7000000000000000000000000000000000000000000000000000000008152600401610e7b9190611a50565b60405180910390fd5b565b6000600660009054906101000a900473ffffffffffffffffffffffffffffffffffffffff16905081600660006101000a81548173ffffffffffffffffffffffffffffffffffffffff021916908373ffffffffffffffffffffffffffffffffffffffff1602179055508173ffffffffffffffffffffffffffffffffffffffff168173ffffffffffffffffffffffffffffffffffffffff167f8be0079c531659141344cd1fd0a4f28419497f9722a3daafe3b4186f6b6457e060405160405180910390a35050565b600073ffffffffffffffffffffffffffffffffffffffff168273ffffffffffffffffffffffffffffffffffffffff1603610fbd57816040517f5b08ba18000000000000000000000000000000000000000000000000000000008152600401610fb49190611a50565b60405180910390fd5b80600560008573ffffffffffffffffffffffffffffffffffffffff1673ffffffffffffffffffffffffffffffffffffffff16815260200190815260200160002060008473ffffffffffffffffffffffffffffffffffffffff1673ffffffffffffffffffffffffffffffffffffffff16815260200190815260200160002060006101000a81548160ff0219169083151502179055508173ffffffffffffffffffffffffffffffffffffffff168373ffffffffffffffffffffffffffffffffffffffff167f17307eab39ab6107e8899845ad3d59bd9653f200f220920489ca2b5937696c31836040516110ae91906118df565b60405180910390a3505050565b60008373ffffffffffffffffffffffffffffffffffffffff163b1115611265578273ffffffffffffffffffffffffffffffffffffffff1663150b7a02868685856040518563ffffffff1660e01b815260040161111a9493929190611f94565b6020604051808303816000875af192505050801561115657506040513d601f19601f820116820180604052508101906111539190611ff5565b60015b6111da573d8060008114611186576040519150601f19603f3d011682016040523d82523d6000602084013e61118b565b606091505b5060008151036111d257836040517f64a0ae920000000000000000000000000000000000000000000000000000000081526004016111c99190611a50565b60405180910390fd5b805181602001fd5b63150b7a0260e01b7bffffffffffffffffffffffffffffffffffffffffffffffffffffffff1916817bffffffffffffffffffffffffffffffffffffffffffffffffffffffff19161461126357836040517f64a0ae9200000000000000000000000000000000000000000000000000000000815260040161125a9190611a50565b60405180910390fd5b505b5050505050565b606060405180602001604052806000815250905090565b60606000600161129284611617565b01905060008167ffffffffffffffff8111156112b1576112b0611bf7565b5b6040519080825280601f01601f1916602001820160405280156112e35781602001600182028036833780820191505090505b509050600082602001820190505b600115611346578080600190039150507f3031323334353637383961626364656600000000000000000000000000000000600a86061a8153600a858161133a57611339612022565b5b049450600085036112f1575b819350505050919050565b60006002600083815260200190815260200160002060009054906101000a900473ffffffffffffffffffffffffffffffffffffffff169050919050565b80806113c75750600073ffffffffffffffffffffffffffffffffffffffff168273ffffffffffffffffffffffffffffffffffffffff1614155b156114fb5760006113d784610a0d565b9050600073ffffffffffffffffffffffffffffffffffffffff168373ffffffffffffffffffffffffffffffffffffffff161415801561144257508273ffffffffffffffffffffffffffffffffffffffff168173ffffffffffffffffffffffffffffffffffffffff1614155b801561145557506114538184610889565b155b1561149757826040517fa9fbf51f00000000000000000000000000000000000000000000000000000000815260040161148e9190611a50565b60405180910390fd5b81156114f957838573ffffffffffffffffffffffffffffffffffffffff168273ffffffffffffffffffffffffffffffffffffffff167f8c5be1e5ebec7d5bd14f71427d1e84f3dd0314c0f7b2291e5b200ac8c7c3b92560405160405180910390a45b505b836004600085815260200190815260200160002060006101000a81548173ffffffffffffffffffffffffffffffffffffffff021916908373ffffffffffffffffffffffffffffffffffffffff16021790555050505050565b61155e83838361176a565b61161257600073ffffffffffffffffffffffffffffffffffffffff168373ffffffffffffffffffffffffffffffffffffffff16036115d357806040517f7e2732890000000000000000000000000000000000000000000000000000000081526004016115ca9190611b66565b60405180910390fd5b81816040517f177e802f000000000000000000000000000000000000000000000000000000008152600401611609929190612051565b60405180910390fd5b505050565b600080600090507a184f03e93ff9f4daa797ed6e38ed64bf6a1f0100000000000000008310611675577a184f03e93ff9f4daa797ed6e38ed64bf6a1f010000000000000000838161166b5761166a612022565b5b0492506040810190505b6d04ee2d6d415b85acef810000000083106116b2576d04ee2d6d415b85acef810000000083816116a8576116a7612022565b5b0492506020810190505b662386f26fc1000083106116e157662386f26fc1000083816116d7576116d6612022565b5b0492506010810190505b6305f5e100831061170a576305f5e1008381611700576116ff612022565b5b0492506008810190505b612710831061172f57612710838161172557611724612022565b5b0492506004810190505b60648310611752576064838161174857611747612022565b5b0492506002810190505b600a8310611761576001810190505b80915050919050565b60008073ffffffffffffffffffffffffffffffffffffffff168373ffffffffffffffffffffffffffffffffffffffff161415801561182257508273ffffffffffffffffffffffffffffffffffffffff168473ffffffffffffffffffffffffffffffffffffffff1614806117e357506117e28484610889565b5b8061182157508273ffffffffffffffffffffffffffffffffffffffff1661180983610a95565b73ffffffffffffffffffffffffffffffffffffffff16145b5b90509392505050565b6000604051905090565b600080fd5b600080fd5b60007fffffffff0000000000000000000000000000000000000000000000000000000082169050919050565b6118748161183f565b811461187f57600080fd5b50565b6000813590506118918161186b565b92915050565b6000602082840312156118ad576118ac611835565b5b60006118bb84828501611882565b91505092915050565b60008115159050919050565b6118d9816118c4565b82525050565b60006020820190506118f460008301846118d0565b92915050565b600081519050919050565b600082825260208201905092915050565b60005b83811015611934578082015181840152602081019050611919565b60008484015250505050565b6000601f19601f8301169050919050565b600061195c826118fa565b6119668185611905565b9350611976818560208601611916565b61197f81611940565b840191505092915050565b600060208201905081810360008301526119a48184611951565b905092915050565b6000819050919050565b6119bf816119ac565b81146119ca57600080fd5b50565b6000813590506119dc816119b6565b92915050565b6000602082840312156119f8576119f7611835565b5b6000611a06848285016119cd565b91505092915050565b600073ffffffffffffffffffffffffffffffffffffffff82169050919050565b6000611a3a82611a0f565b9050919050565b611a4a81611a2f565b82525050565b6000602082019050611a656000830184611a41565b92915050565b611a7481611a2f565b8114611a7f57600080fd5b50565b600081359050611a9181611a6b565b92915050565b60008060408385031215611aae57611aad611835565b5b6000611abc85828601611a82565b9250506020611acd858286016119cd565b9150509250929050565b600080600060608486031215611af057611aef611835565b5b6000611afe86828701611a82565b9350506020611b0f86828701611a82565b9250506040611b20868287016119cd565b9150509250925092565b600060208284031215611b4057611b3f611835565b5b6000611b4e84828501611a82565b91505092915050565b611b60816119ac565b82525050565b6000602082019050611b7b6000830184611b57565b92915050565b611b8a816118c4565b8114611b9557600080fd5b50565b600081359050611ba781611b81565b92915050565b60008060408385031215611bc457611bc3611835565b5b6000611bd285828601611a82565b9250506020611be385828601611b98565b9150509250929050565b600080fd5b600080fd5b7f4e487b7100000000000000000000000000000000000000000000000000000000600052604160045260246000fd5b611c2f82611940565b810181811067ffffffffffffffff82111715611c4e57611c4d611bf7565b5b80604052505050565b6000611c6161182b565b9050611c6d8282611c26565b919050565b600067ffffffffffffffff821115611c8d57611c8c611bf7565b5b611c9682611940565b9050602081019050919050565b82818337600083830152505050565b6000611cc5611cc084611c72565b611c57565b905082815260208101848484011115611ce157611ce0611bf2565b5b611cec848285611ca3565b509392505050565b600082601f830112611d0957611d08611bed565b5b8135611d19848260208601611cb2565b91505092915050565b60008060008060808587031215611d3c57611d3b611835565b5b6000611d4a87828801611a82565b9450506020611d5b87828801611a82565b9350506040611d6c878288016119cd565b925050606085013567ffffffffffffffff811115611d8d57611d8c61183a565b5b611d9987828801611cf4565b91505092959194509250565b60008060408385031215611dbc57611dbb611835565b5b6000611dca85828601611a82565b9250506020611ddb85828601611a82565b9150509250929050565b7f4e487b7100000000000000000000000000000000000000000000000000000000600052602260045260246000fd5b60006002820490506001821680611e2c57607f821691505b602082108103611e3f57611e3e611de5565b5b50919050565b6000606082019050611e5a6000830186611a41565b611e676020830185611b57565b611e746040830184611a41565b949350505050565b7f4e487b7100000000000000000000000000000000000000000000000000000000600052601160045260246000fd5b6000611eb6826119ac565b9150611ec1836119ac565b9250828201905080821115611ed957611ed8611e7c565b5b92915050565b600081905092915050565b6000611ef5826118fa565b611eff8185611edf565b9350611f0f818560208601611916565b80840191505092915050565b6000611f278285611eea565b9150611f338284611eea565b91508190509392505050565b600081519050919050565b600082825260208201905092915050565b6000611f6682611f3f565b611f708185611f4a565b9350611f80818560208601611916565b611f8981611940565b840191505092915050565b6000608082019050611fa96000830187611a41565b611fb66020830186611a41565b611fc36040830185611b57565b8181036060830152611fd58184611f5b565b905095945050505050565b600081519050611fef8161186b565b92915050565b60006020828403121561200b5761200a611835565b5b600061201984828501611fe0565b91505092915050565b7f4e487b7100000000000000000000000000000000000000000000000000000000600052601260045260246000fd5b60006040820190506120666000830185611a41565b6120736020830184611b57565b939250505056fea2646970667358221220f22d15f160081e82b7a9422209dadeda07e130f5c165a933107233bacc1b04b864736f6c634300081c0033",
  "linkReferences": {},
  "deployedLinkReferences": {}
}