{
  "_format": "hh-sol-artifact-1",
  "contractName": "MayToken",
  "sourceName": "contracts/MayToken.sol",
  "abi": [
    {
      "inputs": [
        {
          "internalType": "string",
          "name": "_name",
          "type": "string"
        },
        {
          "internalType": "string",
          "name": "_symbol",
          "type": "string"
        },
        {
          "internalType": "uint8",
          "name": "_decimals",
          "type": "uint8"
        },
        {
          "internalType": "uint256",
          "name": "_initialSupply",
          "type": "uint256"
        }
      ],
      "stateMutability": "nonpayable",
      "type": "constructor"
    },
    {
      "anonymous": false,
      "inputs": [
        {
          "indexed": true,
          "internalType": "address",
          "name": "owner",
          "type": "address"
        },
        {
          "indexed": true,
          "internalType": "address",
          "name": "spender",
          "type": "address"
        },
        {
          "indexed": false,
          "internalType": "uint256",
          "name": "value",
          "type": "uint256"
        }
      ],
      "name": "Approval",
      "type": "event"
    },
    {
      "anonymous": false,
      "inputs": [
        {
          "indexed": true,
          "internalType": "address",
          "name": "from",
          "type": "address"
        },
        {
          "indexed": false,
          "internalType": "uint256",
          "name": "value",
          "type": "uint256"
        }
      ],
      "name": "Burn",
      "type": "event"
    },
    {
      "anonymous": false,
      "inputs": [
        {
          "indexed": true,
          "internalType": "address",
          "name": "to",
          "type": "address"
        },
        {
          "indexed": false,
          "internalType": "uint256",
          "name": "value",
          "type": "uint256"
        }
      ],
      "name": "Mint",
      "type": "event"
    },
    {
      "anonymous": false,
      "inputs": [
        {
          "indexed": true,
          "internalType": "address",
          "name": "from",
          "type": "address"
        },
        {
          "indexed": true,
          "internalType": "address",
          "name": "to",
          "type": "address"
        },
        {
          "indexed": false,
          "internalType": "uint256",
          "name": "value",
          "type": "uint256"
        }
      ],
      "name": "Transfer",
      "type": "event"
    },
    {
      "inputs": [
        {
          "internalType": "address",
          "name": "",
          "type": "address"
        },
        {
          "internalType": "address",
          "name": "",
          "type": "address"
        }
      ],
      "name": "allowance",
      "outputs": [
        {
          "internalType": "uint256",
          "name": "",
          "type": "uint256"
        }
      ],
      "stateMutability": "view",
      "type": "function"
    },
    {
      "inputs": [
        {
          "internalType": "address",
          "name": "_spender",
          "type": "address"
        },
        {
          "internalType": "uint256",
          "name": "_value",
          "type": "uint256"
        }
      ],
      "name": "approve",
      "outputs": [
        {
          "internalType": "bool",
          "name": "success",
          "type": "bool"
        }
      ],
      "stateMutability": "nonpayable",
      "type": "function"
    },
    {
      "inputs": [
        {
          "internalType": "address",
          "name": "",
          "type": "address"
        }
      ],
      "name": "balanceOf",
      "outputs": [
        {
          "internalType": "uint256",
          "name": "",
          "type": "uint256"
        }
      ],
      "stateMutability": "view",
      "type": "function"
    },
    {
      "inputs": [
        {
          "internalType": "uint256",
          "name": "_value",
          "type": "uint256"
        }
      ],
      "name": "burn",
      "outputs": [
        {
          "internalType": "bool",
          "name": "success",
          "type": "bool"
        }
      ],
      "stateMutability": "nonpayable",
      "type": "function"
    },
    {
      "inputs": [],
      "name": "decimals",
      "outputs": [
        {
          "internalType": "uint8",
          "name": "",
          "type": "uint8"
        }
      ],
      "stateMutability": "view",
      "type": "function"
    },
    {
      "inputs": [
        {
          "internalType": "address",
          "name": "_spender",
          "type": "address"
        },
        {
          "internalType": "uint256",
          "name": "_subtractedValue",
          "type": "uint256"
        }
      ],
      "name": "decreaseAllowance",
      "outputs": [
        {
          "internalType": "bool",
          "name": "success",
          "type": "bool"
        }
      ],
      "stateMutability": "nonpayable",
      "type": "function"
    },
    {
      "inputs": [
        {
          "internalType": "address",
          "name": "_spender",
          "type": "address"
        },
        {
          "internalType": "uint256",
          "name": "_addedValue",
          "type": "uint256"
        }
      ],
      "name": "increaseAllowance",
      "outputs": [
        {
          "internalType": "bool",
          "name": "success",
          "type": "bool"
        }
      ],
      "stateMutability": "nonpayable",
      "type": "function"
    },
    {
      "inputs": [
        {
          "internalType": "address",
          "name": "_to",
          "type": "address"
        },
        {
          "internalType": "uint256",
          "name": "_value",
          "type": "uint256"
        }
      ],
      "name": "mint",
      "outputs": [
        {
          "internalType": "bool",
          "name": "success",
          "type": "bool"
        }
      ],
      "stateMutability": "nonpayable",
      "type": "function"
    },
    {
      "inputs": [],
      "name": "name",
      "outputs": [
        {
          "internalType": "string",
          "name": "",
          "type": "string"
        }
      ],
      "stateMutability": "view",
      "type": "function"
    },
    {
      "inputs": [],
      "name": "owner",
      "outputs": [
        {
          "internalType": "address",
          "name": "",
          "type": "address"
        }
      ],
      "stateMutability": "view",
      "type": "function"
    },
    {
      "inputs": [],
      "name": "symbol",
      "outputs": [
        {
          "internalType": "string",
          "name": "",
          "type": "string"
        }
      ],
      "stateMutability": "view",
      "type": "function"
    },
    {
      "inputs": [],
      "name": "totalSupply",
      "outputs": [
        {
          "internalType": "uint256",
          "name": "",
          "type": "uint256"
        }
      ],
      "stateMutability": "view",
      "type": "function"
    },
    {
      "inputs": [
        {
          "internalType": "address",
          "name": "_to",
          "type": "address"
        },
        {
          "internalType": "uint256",
          "name": "_value",
          "type": "uint256"
        }
      ],
      "name": "transfer",
      "outputs": [
        {
          "internalType": "bool",
          "name": "success",
          "type": "bool"
        }
      ],
      "stateMutability": "nonpayable",
      "type": "function"
    },
    {
      "inputs": [
        {
          "internalType": "address",
          "name": "_from",
          "type": "address"
        },
        {
          "internalType": "address",
          "name": "_to",
          "type": "address"
        },
        {
          "internalType": "uint256",
          "name": "_value",
          "type": "uint256"
        }
      ],
      "name": "transferFrom",
      "outputs": [
        {
          "internalType": "bool",
          "name": "success",
          "type": "bool"
        }
      ],
      "stateMutability": "nonpayable",
      "type": "function"
    }
  ],
  "bytecode": "0x608060405234801561001057600080fd5b5060405161232c38038061232c83398181016040528101906100329190610311565b33600460006101000a81548173ffffffffffffffffffffffffffffffffffffffff021916908373ffffffffffffffffffffffffffffffffffffffff160217905550836000908161008291906105c7565b50826001908161009291906105c7565b5081600260006101000a81548160ff021916908360ff160217905550600260009054906101000a900460ff1660ff16600a6100cd91906107fb565b816100d89190610846565b600381905550600354600560003373ffffffffffffffffffffffffffffffffffffffff1673ffffffffffffffffffffffffffffffffffffffff1681526020019081526020016000208190555050505050610888565b6000604051905090565b600080fd5b600080fd5b600080fd5b600080fd5b6000601f19601f8301169050919050565b7f4e487b7100000000000000000000000000000000000000000000000000000000600052604160045260246000fd5b6101948261014b565b810181811067ffffffffffffffff821117156101b3576101b261015c565b5b80604052505050565b60006101c661012d565b90506101d2828261018b565b919050565b600067ffffffffffffffff8211156101f2576101f161015c565b5b6101fb8261014b565b9050602081019050919050565b60005b8381101561022657808201518184015260208101905061020b565b60008484015250505050565b6000610245610240846101d7565b6101bc565b90508281526020810184848401111561026157610260610146565b5b61026c848285610208565b509392505050565b600082601f83011261028957610288610141565b5b8151610299848260208601610232565b91505092915050565b600060ff82169050919050565b6102b8816102a2565b81146102c357600080fd5b50565b6000815190506102d5816102af565b92915050565b6000819050919050565b6102ee816102db565b81146102f957600080fd5b50565b60008151905061030b816102e5565b92915050565b6000806000806080858703121561032b5761032a610137565b5b600085015167ffffffffffffffff8111156103495761034861013c565b5b61035587828801610274565b945050602085015167ffffffffffffffff8111156103765761037561013c565b5b61038287828801610274565b9350506040610393878288016102c6565b92505060606103a4878288016102fc565b91505092959194509250565b600081519050919050565b7f4e487b7100000000000000000000000000000000000000000000000000000000600052602260045260246000fd5b6000600282049050600182168061040257607f821691505b602082108103610415576104146103bb565b5b50919050565b60008190508160005260206000209050919050565b60006020601f8301049050919050565b600082821b905092915050565b60006008830261047d7fffffffffffffffffffffffffffffffffffffffffffffffffffffffffffffffff82610440565b6104878683610440565b95508019841693508086168417925050509392505050565b6000819050919050565b60006104c46104bf6104ba846102db565b61049f565b6102db565b9050919050565b6000819050919050565b6104de836104a9565b6104f26104ea826104cb565b84845461044d565b825550505050565b600090565b6105076104fa565b6105128184846104d5565b505050565b5b818110156105365761052b6000826104ff565b600181019050610518565b5050565b601f82111561057b5761054c8161041b565b61055584610430565b81016020851015610564578190505b61057861057085610430565b830182610517565b50505b505050565b600082821c905092915050565b600061059e60001984600802610580565b1980831691505092915050565b60006105b7838361058d565b9150826002028217905092915050565b6105d0826103b0565b67ffffffffffffffff8111156105e9576105e861015c565b5b6105f382546103ea565b6105fe82828561053a565b600060209050601f831160018114610631576000841561061f578287015190505b61062985826105ab565b865550610691565b601f19841661063f8661041b565b60005b8281101561066757848901518255600182019150602085019450602081019050610642565b868310156106845784890151610680601f89168261058d565b8355505b6001600288020188555050505b505050505050565b7f4e487b7100000000000000000000000000000000000000000000000000000000600052601160045260246000fd5b60008160011c9050919050565b6000808291508390505b600185111561071f578086048111156106fb576106fa610699565b5b600185161561070a5780820291505b8081029050610718856106c8565b94506106df565b94509492505050565b60008261073857600190506107f4565b8161074657600090506107f4565b816001811461075c576002811461076657610795565b60019150506107f4565b60ff84111561077857610777610699565b5b8360020a91508482111561078f5761078e610699565b5b506107f4565b5060208310610133831016604e8410600b84101617156107ca5782820a9050838111156107c5576107c4610699565b5b6107f4565b6107d784848460016106d5565b925090508184048111156107ee576107ed610699565b5b81810290505b9392505050565b6000610806826102db565b9150610811836102db565b925061083e7fffffffffffffffffffffffffffffffffffffffffffffffffffffffffffffffff8484610728565b905092915050565b6000610851826102db565b915061085c836102db565b925082820261086a816102db565b9150828204841483151761088157610880610699565b5b5092915050565b611a95806108976000396000f3fe608060405234801561001057600080fd5b50600436106100ea5760003560e01c806342966c681161008c57806395d89b411161006657806395d89b4114610287578063a457c2d7146102a5578063a9059cbb146102d5578063dd62ed3e14610305576100ea565b806342966c681461020957806370a08231146102395780638da5cb5b14610269576100ea565b806323b872dd116100c857806323b872dd1461015b578063313ce5671461018b57806339509351146101a957806340c10f19146101d9576100ea565b806306fdde03146100ef578063095ea7b31461010d57806318160ddd1461013d575b600080fd5b6100f7610335565b60405161010491906114a3565b60405180910390f35b6101276004803603810190610122919061155e565b6103c3565b60405161013491906115b9565b60405180910390f35b610145610523565b60405161015291906115e3565b60405180910390f35b610175600480360381019061017091906115fe565b610529565b60405161018291906115b9565b60405180910390f35b610193610889565b6040516101a0919061166d565b60405180910390f35b6101c360048036038101906101be919061155e565b61089c565b6040516101d091906115b9565b60405180910390f35b6101f360048036038101906101ee919061155e565b610a8a565b60405161020091906115b9565b60405180910390f35b610223600480360381019061021e9190611688565b610cb8565b60405161023091906115b9565b60405180910390f35b610253600480360381019061024e91906116b5565b610e68565b60405161026091906115e3565b60405180910390f35b610271610e80565b60405161027e91906116f1565b60405180910390f35b61028f610ea6565b60405161029c91906114a3565b60405180910390f35b6102bf60048036038101906102ba919061155e565b610f34565b6040516102cc91906115b9565b60405180910390f35b6102ef60048036038101906102ea919061155e565b6111e1565b6040516102fc91906115b9565b60405180910390f35b61031f600480360381019061031a919061170c565b6113ee565b60405161032c91906115e3565b60405180910390f35b600080546103429061177b565b80601f016020809104026020016040519081016040528092919081815260200182805461036e9061177b565b80156103bb5780601f10610390576101008083540402835291602001916103bb565b820191906000526020600020905b81548152906001019060200180831161039e57829003601f168201915b505050505081565b60008073ffffffffffffffffffffffffffffffffffffffff168373ffffffffffffffffffffffffffffffffffffffff1603610433576040517f08c379a000000000000000000000000000000000000000000000000000000000815260040161042a906117f8565b60405180910390fd5b81600660003373ffffffffffffffffffffffffffffffffffffffff1673ffffffffffffffffffffffffffffffffffffffff16815260200190815260200160002060008573ffffffffffffffffffffffffffffffffffffffff1673ffffffffffffffffffffffffffffffffffffffff168152602001908152602001600020819055508273ffffffffffffffffffffffffffffffffffffffff163373ffffffffffffffffffffffffffffffffffffffff167f8c5be1e5ebec7d5bd14f71427d1e84f3dd0314c0f7b2291e5b200ac8c7c3b9258460405161051191906115e3565b60405180910390a36001905092915050565b60035481565b60008073ffffffffffffffffffffffffffffffffffffffff168373ffffffffffffffffffffffffffffffffffffffff1603610599576040517f08c379a0000000000000000000000000000000000000000000000000000000008152600401610590906117f8565b60405180910390fd5b81600560008673ffffffffffffffffffffffffffffffffffffffff1673ffffffffffffffffffffffffffffffffffffffff16815260200190815260200160002054101561061b576040517f08c379a000000000000000000000000000000000000000000000000000000000815260040161061290611864565b60405180910390fd5b81600660008673ffffffffffffffffffffffffffffffffffffffff1673ffffffffffffffffffffffffffffffffffffffff16815260200190815260200160002060003373ffffffffffffffffffffffffffffffffffffffff1673ffffffffffffffffffffffffffffffffffffffff1681526020019081526020016000205410156106da576040517f08c379a00000000000000000000000000000000000000000000000000000000081526004016106d1906118d0565b60405180910390fd5b81600560008673ffffffffffffffffffffffffffffffffffffffff1673ffffffffffffffffffffffffffffffffffffffff1681526020019081526020016000206000828254610729919061191f565b9250508190555081600560008573ffffffffffffffffffffffffffffffffffffffff1673ffffffffffffffffffffffffffffffffffffffff168152602001908152602001600020600082825461077f9190611953565b9250508190555081600660008673ffffffffffffffffffffffffffffffffffffffff1673ffffffffffffffffffffffffffffffffffffffff16815260200190815260200160002060003373ffffffffffffffffffffffffffffffffffffffff1673ffffffffffffffffffffffffffffffffffffffff1681526020019081526020016000206000828254610812919061191f565b925050819055508273ffffffffffffffffffffffffffffffffffffffff168473ffffffffffffffffffffffffffffffffffffffff167fddf252ad1be2c89b69c2b068fc378daa952ba7f163c4a11628f55a4df523b3ef8460405161087691906115e3565b60405180910390a3600190509392505050565b600260009054906101000a900460ff1681565b60008073ffffffffffffffffffffffffffffffffffffffff168373ffffffffffffffffffffffffffffffffffffffff160361090c576040517f08c379a0000000000000000000000000000000000000000000000000000000008152600401610903906117f8565b60405180910390fd5b81600660003373ffffffffffffffffffffffffffffffffffffffff1673ffffffffffffffffffffffffffffffffffffffff16815260200190815260200160002060008573ffffffffffffffffffffffffffffffffffffffff1673ffffffffffffffffffffffffffffffffffffffff16815260200190815260200160002060008282546109989190611953565b925050819055508273ffffffffffffffffffffffffffffffffffffffff163373ffffffffffffffffffffffffffffffffffffffff167f8c5be1e5ebec7d5bd14f71427d1e84f3dd0314c0f7b2291e5b200ac8c7c3b925600660003373ffffffffffffffffffffffffffffffffffffffff1673ffffffffffffffffffffffffffffffffffffffff16815260200190815260200160002060008773ffffffffffffffffffffffffffffffffffffffff1673ffffffffffffffffffffffffffffffffffffffff16815260200190815260200160002054604051610a7891906115e3565b60405180910390a36001905092915050565b6000600460009054906101000a900473ffffffffffffffffffffffffffffffffffffffff1673ffffffffffffffffffffffffffffffffffffffff163373ffffffffffffffffffffffffffffffffffffffff1614610b1c576040517f08c379a0000000000000000000000000000000000000000000000000000000008152600401610b13906119d3565b60405180910390fd5b600073ffffffffffffffffffffffffffffffffffffffff168373ffffffffffffffffffffffffffffffffffffffff1603610b8b576040517f08c379a0000000000000000000000000000000000000000000000000000000008152600401610b82906117f8565b60405180910390fd5b8160036000828254610b9d9190611953565b9250508190555081600560008573ffffffffffffffffffffffffffffffffffffffff1673ffffffffffffffffffffffffffffffffffffffff1681526020019081526020016000206000828254610bf39190611953565b925050819055508273ffffffffffffffffffffffffffffffffffffffff167f0f6798a560793a54c3bcfe86a93cde1e73087d944c0ea20544137d412139688583604051610c4091906115e3565b60405180910390a28273ffffffffffffffffffffffffffffffffffffffff16600073ffffffffffffffffffffffffffffffffffffffff167fddf252ad1be2c89b69c2b068fc378daa952ba7f163c4a11628f55a4df523b3ef84604051610ca691906115e3565b60405180910390a36001905092915050565b600081600560003373ffffffffffffffffffffffffffffffffffffffff1673ffffffffffffffffffffffffffffffffffffffff168152602001908152602001600020541015610d3c576040517f08c379a0000000000000000000000000000000000000000000000000000000008152600401610d3390611864565b60405180910390fd5b81600560003373ffffffffffffffffffffffffffffffffffffffff1673ffffffffffffffffffffffffffffffffffffffff1681526020019081526020016000206000828254610d8b919061191f565b925050819055508160036000828254610da4919061191f565b92505081905550600073ffffffffffffffffffffffffffffffffffffffff163373ffffffffffffffffffffffffffffffffffffffff167fddf252ad1be2c89b69c2b068fc378daa952ba7f163c4a11628f55a4df523b3ef84604051610e0991906115e3565b60405180910390a33373ffffffffffffffffffffffffffffffffffffffff167fcc16f5dbb4873280815c1ee09dbd06736cffcc184412cf7a71a0fdb75d397ca583604051610e5791906115e3565b60405180910390a260019050919050565b60056020528060005260406000206000915090505481565b600460009054906101000a900473ffffffffffffffffffffffffffffffffffffffff1681565b60018054610eb39061177b565b80601f0160208091040260200160405190810160405280929190818152602001828054610edf9061177b565b8015610f2c5780601f10610f0157610100808354040283529160200191610f2c565b820191906000526020600020905b815481529060010190602001808311610f0f57829003601f168201915b505050505081565b60008073ffffffffffffffffffffffffffffffffffffffff168373ffffffffffffffffffffffffffffffffffffffff1603610fa4576040517f08c379a0000000000000000000000000000000000000000000000000000000008152600401610f9b906117f8565b60405180910390fd5b81600660003373ffffffffffffffffffffffffffffffffffffffff1673ffffffffffffffffffffffffffffffffffffffff16815260200190815260200160002060008573ffffffffffffffffffffffffffffffffffffffff1673ffffffffffffffffffffffffffffffffffffffff168152602001908152602001600020541015611063576040517f08c379a000000000000000000000000000000000000000000000000000000000815260040161105a90611a3f565b60405180910390fd5b81600660003373ffffffffffffffffffffffffffffffffffffffff1673ffffffffffffffffffffffffffffffffffffffff16815260200190815260200160002060008573ffffffffffffffffffffffffffffffffffffffff1673ffffffffffffffffffffffffffffffffffffffff16815260200190815260200160002060008282546110ef919061191f565b925050819055508273ffffffffffffffffffffffffffffffffffffffff163373ffffffffffffffffffffffffffffffffffffffff167f8c5be1e5ebec7d5bd14f71427d1e84f3dd0314c0f7b2291e5b200ac8c7c3b925600660003373ffffffffffffffffffffffffffffffffffffffff1673ffffffffffffffffffffffffffffffffffffffff16815260200190815260200160002060008773ffffffffffffffffffffffffffffffffffffffff1673ffffffffffffffffffffffffffffffffffffffff168152602001908152602001600020546040516111cf91906115e3565b60405180910390a36001905092915050565b60008073ffffffffffffffffffffffffffffffffffffffff168373ffffffffffffffffffffffffffffffffffffffff1603611251576040517f08c379a0000000000000000000000000000000000000000000000000000000008152600401611248906117f8565b60405180910390fd5b81600560003373ffffffffffffffffffffffffffffffffffffffff1673ffffffffffffffffffffffffffffffffffffffff1681526020019081526020016000205410156112d3576040517f08c379a00000000000000000000000000000000000000000000000000000000081526004016112ca90611864565b60405180910390fd5b81600560003373ffffffffffffffffffffffffffffffffffffffff1673ffffffffffffffffffffffffffffffffffffffff1681526020019081526020016000206000828254611322919061191f565b9250508190555081600560008573ffffffffffffffffffffffffffffffffffffffff1673ffffffffffffffffffffffffffffffffffffffff16815260200190815260200160002060008282546113789190611953565b925050819055508273ffffffffffffffffffffffffffffffffffffffff163373ffffffffffffffffffffffffffffffffffffffff167fddf252ad1be2c89b69c2b068fc378daa952ba7f163c4a11628f55a4df523b3ef846040516113dc91906115e3565b60405180910390a36001905092915050565b6006602052816000526040600020602052806000526040600020600091509150505481565b600081519050919050565b600082825260208201905092915050565b60005b8381101561144d578082015181840152602081019050611432565b60008484015250505050565b6000601f19601f8301169050919050565b600061147582611413565b61147f818561141e565b935061148f81856020860161142f565b61149881611459565b840191505092915050565b600060208201905081810360008301526114bd818461146a565b905092915050565b600080fd5b600073ffffffffffffffffffffffffffffffffffffffff82169050919050565b60006114f5826114ca565b9050919050565b611505816114ea565b811461151057600080fd5b50565b600081359050611522816114fc565b92915050565b6000819050919050565b61153b81611528565b811461154657600080fd5b50565b60008135905061155881611532565b92915050565b60008060408385031215611575576115746114c5565b5b600061158385828601611513565b925050602061159485828601611549565b9150509250929050565b60008115159050919050565b6115b38161159e565b82525050565b60006020820190506115ce60008301846115aa565b92915050565b6115dd81611528565b82525050565b60006020820190506115f860008301846115d4565b92915050565b600080600060608486031215611617576116166114c5565b5b600061162586828701611513565b935050602061163686828701611513565b925050604061164786828701611549565b9150509250925092565b600060ff82169050919050565b61166781611651565b82525050565b6000602082019050611682600083018461165e565b92915050565b60006020828403121561169e5761169d6114c5565b5b60006116ac84828501611549565b91505092915050565b6000602082840312156116cb576116ca6114c5565b5b60006116d984828501611513565b91505092915050565b6116eb816114ea565b82525050565b600060208201905061170660008301846116e2565b92915050565b60008060408385031215611723576117226114c5565b5b600061173185828601611513565b925050602061174285828601611513565b9150509250929050565b7f4e487b7100000000000000000000000000000000000000000000000000000000600052602260045260246000fd5b6000600282049050600182168061179357607f821691505b6020821081036117a6576117a561174c565b5b50919050565b7f496e76616c696420616464726573730000000000000000000000000000000000600082015250565b60006117e2600f8361141e565b91506117ed826117ac565b602082019050919050565b60006020820190508181036000830152611811816117d5565b9050919050565b7f4e6f7420656e6f7567682066756e647300000000000000000000000000000000600082015250565b600061184e60108361141e565b915061185982611818565b602082019050919050565b6000602082019050818103600083015261187d81611841565b9050919050565b7f416c6c6f77616e63652065786365656465640000000000000000000000000000600082015250565b60006118ba60128361141e565b91506118c582611884565b602082019050919050565b600060208201905081810360008301526118e9816118ad565b9050919050565b7f4e487b7100000000000000000000000000000000000000000000000000000000600052601160045260246000fd5b600061192a82611528565b915061193583611528565b925082820390508181111561194d5761194c6118f0565b5b92915050565b600061195e82611528565b915061196983611528565b9250828201905080821115611981576119806118f0565b5b92915050565b7f4e6f742074686520636f6e7472616374206f776e657200000000000000000000600082015250565b60006119bd60168361141e565b91506119c882611987565b602082019050919050565b600060208201905081810360008301526119ec816119b0565b9050919050565b7f416c6c6f77616e636520746f6f206c6f77000000000000000000000000000000600082015250565b6000611a2960118361141e565b9150611a34826119f3565b602082019050919050565b60006020820190508181036000830152611a5881611a1c565b905091905056fea2646970667358221220a21aebaf6521dc695c17c8dc3bd253e04e604358a5676ef1c8e8009f5fcd09a264736f6c634300081c0033",
  "linkReferences": {},
  "deployedLinkReferences": {}
}