{
  "contracts/Taskpledge.sol": {
    "TaskPledge": {
      "abi": [
        {
          "inputs": [],
          "stateMutability": "nonpayable",
          "type": "constructor"
        },
        {
          "anonymous": false,
          "inputs": [
            {
              "indexed": false,
              "internalType": "address",
              "name": "charity",
              "type": "address"
            }
          ],
          "name": "CharityAdded",
          "type": "event"
        },
        {
          "anonymous": false,
          "inputs": [
            {
              "indexed": false,
              "internalType": "address",
              "name": "charity",
              "type": "address"
            }
          ],
          "name": "CharityRemoved",
          "type": "event"
        },
        {
          "anonymous": false,
          "inputs": [
            {
              "indexed": false,
              "internalType": "uint256",
              "name": "taskId",
              "type": "uint256"
            },
            {
              "indexed": false,
              "internalType": "address",
              "name": "creator",
              "type": "address"
            }
          ],
          "name": "TaskCompleted",
          "type": "event"
        },
        {
          "anonymous": false,
          "inputs": [
            {
              "indexed": false,
              "internalType": "uint256",
              "name": "taskId",
              "type": "uint256"
            },
            {
              "indexed": false,
              "internalType": "address",
              "name": "creator",
              "type": "address"
            },
            {
              "indexed": false,
              "internalType": "uint256",
              "name": "pledgeAmount",
              "type": "uint256"
            },
            {
              "indexed": false,
              "internalType": "uint256",
              "name": "deadline",
              "type": "uint256"
            }
          ],
          "name": "TaskCreated",
          "type": "event"
        },
        {
          "anonymous": false,
          "inputs": [
            {
              "indexed": false,
              "internalType": "uint256",
              "name": "taskId",
              "type": "uint256"
            },
            {
              "indexed": false,
              "internalType": "address",
              "name": "charity",
              "type": "address"
            },
            {
              "indexed": false,
              "internalType": "uint256",
              "name": "amount",
              "type": "uint256"
            }
          ],
          "name": "TaskFailed",
          "type": "event"
        },
        {
          "inputs": [
            {
              "internalType": "address",
              "name": "_charity",
              "type": "address"
            }
          ],
          "name": "addCharity",
          "outputs": [],
          "stateMutability": "nonpayable",
          "type": "function"
        },
        {
          "inputs": [
            {
              "internalType": "address",
              "name": "",
              "type": "address"
            }
          ],
          "name": "approvedCharities",
          "outputs": [
            {
              "internalType": "bool",
              "name": "",
              "type": "bool"
            }
          ],
          "stateMutability": "view",
          "type": "function"
        },
        {
          "inputs": [
            {
              "internalType": "uint256",
              "name": "_taskId",
              "type": "uint256"
            }
          ],
          "name": "checkTaskFailure",
          "outputs": [],
          "stateMutability": "nonpayable",
          "type": "function"
        },
        {
          "inputs": [
            {
              "internalType": "uint256",
              "name": "_taskId",
              "type": "uint256"
            }
          ],
          "name": "completeTask",
          "outputs": [],
          "stateMutability": "nonpayable",
          "type": "function"
        },
        {
          "inputs": [
            {
              "internalType": "string",
              "name": "_description",
              "type": "string"
            },
            {
              "internalType": "uint256",
              "name": "_deadline",
              "type": "uint256"
            },
            {
              "internalType": "address",
              "name": "_charity",
              "type": "address"
            }
          ],
          "name": "createTask",
          "outputs": [],
          "stateMutability": "payable",
          "type": "function"
        },
        {
          "inputs": [],
          "name": "owner",
          "outputs": [
            {
              "internalType": "address",
              "name": "",
              "type": "address"
            }
          ],
          "stateMutability": "view",
          "type": "function"
        },
        {
          "inputs": [
            {
              "internalType": "address",
              "name": "_charity",
              "type": "address"
            }
          ],
          "name": "removeCharity",
          "outputs": [],
          "stateMutability": "nonpayable",
          "type": "function"
        },
        {
          "inputs": [],
          "name": "taskCounter",
          "outputs": [
            {
              "internalType": "uint256",
              "name": "",
              "type": "uint256"
            }
          ],
          "stateMutability": "view",
          "type": "function"
        },
        {
          "inputs": [
            {
              "internalType": "uint256",
              "name": "",
              "type": "uint256"
            }
          ],
          "name": "tasks",
          "outputs": [
            {
              "internalType": "string",
              "name": "description",
              "type": "string"
            },
            {
              "internalType": "uint256",
              "name": "deadline",
              "type": "uint256"
            },
            {
              "internalType": "uint256",
              "name": "pledgeAmount",
              "type": "uint256"
            },
            {
              "internalType": "address",
              "name": "creator",
              "type": "address"
            },
            {
              "internalType": "bool",
              "name": "completed",
              "type": "bool"
            },
            {
              "internalType": "address",
              "name": "charity",
              "type": "address"
            }
          ],
          "stateMutability": "view",
          "type": "function"
        }
      ],
      "evm": {
        "bytecode": {
          "linkReferences": {},
          "object": "6080604052348015600f57600080fd5b50336000806101000a81548173ffffffffffffffffffffffffffffffffffffffff021916908373ffffffffffffffffffffffffffffffffffffffff1602179055506118f08061005f6000396000f3fe6080604052600436106100865760003560e01c806378b14f0a1161005957806378b14f0a146101385780638d977672146101615780638da5cb5b146101a3578063abefe591146101ce578063e1e29558146101f757610086565b8063042708171461008b5780632571a74e146100a75780633c4c4ea1146100e4578063586717301461010d575b600080fd5b6100a560048036038101906100a09190610e6e565b610220565b005b3480156100b357600080fd5b506100ce60048036038101906100c99190610edd565b61051d565b6040516100db9190610f25565b60405180910390f35b3480156100f057600080fd5b5061010b60048036038101906101069190610f40565b61053d565b005b34801561011957600080fd5b506101226106c2565b60405161012f9190610f7c565b60405180910390f35b34801561014457600080fd5b5061015f600480360381019061015a9190610edd565b6106c8565b005b34801561016d57600080fd5b5061018860048036038101906101839190610f40565b6107e8565b60405161019a96959493929190611025565b60405180910390f35b3480156101af57600080fd5b506101b86108f9565b6040516101c5919061108d565b60405180910390f35b3480156101da57600080fd5b506101f560048036038101906101f09190610edd565b61091d565b005b34801561020357600080fd5b5061021e60048036038101906102199190610f40565b610a3d565b005b6000835111610264576040517f08c379a000000000000000000000000000000000000000000000000000000000815260040161025b906110f4565b60405180910390fd5b4282116102a6576040517f08c379a000000000000000000000000000000000000000000000000000000000815260040161029d90611160565b60405180910390fd5b600034116102e9576040517f08c379a00000000000000000000000000000000000000000000000000000000081526004016102e0906111f2565b60405180910390fd5b600360008273ffffffffffffffffffffffffffffffffffffffff1673ffffffffffffffffffffffffffffffffffffffff16815260200190815260200160002060009054906101000a900460ff16610375576040517f08c379a000000000000000000000000000000000000000000000000000000000815260040161036c9061125e565b60405180910390fd5b60026000815480929190610388906112ad565b91905055506040518060c001604052808481526020018381526020013481526020013373ffffffffffffffffffffffffffffffffffffffff1681526020016000151581526020018273ffffffffffffffffffffffffffffffffffffffff1681525060016000600254815260200190815260200160002060008201518160000190816104139190611501565b50602082015181600101556040820151816002015560608201518160030160006101000a81548173ffffffffffffffffffffffffffffffffffffffff021916908373ffffffffffffffffffffffffffffffffffffffff16021790555060808201518160030160146101000a81548160ff02191690831515021790555060a08201518160040160006101000a81548173ffffffffffffffffffffffffffffffffffffffff021916908373ffffffffffffffffffffffffffffffffffffffff1602179055509050507ff5ac772f880dc6ed6b50db24e062bbc51818e270ed47533fd9162e5255fa291360025433348560405161051094939291906115d3565b60405180910390a1505050565b60036020528060005260406000206000915054906101000a900460ff1681565b60006001600083815260200190815260200160002090508060010154421161059a576040517f08c379a000000000000000000000000000000000000000000000000000000000815260040161059190611664565b60405180910390fd5b8060030160149054906101000a900460ff16156105ec576040517f08c379a00000000000000000000000000000000000000000000000000000000081526004016105e3906116d0565b60405180910390fd5b8060040160009054906101000a900473ffffffffffffffffffffffffffffffffffffffff1673ffffffffffffffffffffffffffffffffffffffff166108fc82600201549081150290604051600060405180830381858888f1935050505015801561065a573d6000803e3d6000fd5b507f8b193d3376a80fbe0e01aa5512fcddf19c1c39f4861538f999e09db95a33581a828260040160009054906101000a900473ffffffffffffffffffffffffffffffffffffffff1683600201546040516106b6939291906116f0565b60405180910390a15050565b60025481565b60008054906101000a900473ffffffffffffffffffffffffffffffffffffffff1673ffffffffffffffffffffffffffffffffffffffff163373ffffffffffffffffffffffffffffffffffffffff1614610756576040517f08c379a000000000000000000000000000000000000000000000000000000000815260040161074d90611799565b60405180910390fd5b6001600360008373ffffffffffffffffffffffffffffffffffffffff1673ffffffffffffffffffffffffffffffffffffffff16815260200190815260200160002060006101000a81548160ff0219169083151502179055507fc17dc19a503d796a336a016f10743118db2bdadb16ac4c19aff0160756098635816040516107dd919061108d565b60405180910390a150565b600160205280600052604060002060009150905080600001805461080b90611324565b80601f016020809104026020016040519081016040528092919081815260200182805461083790611324565b80156108845780601f1061085957610100808354040283529160200191610884565b820191906000526020600020905b81548152906001019060200180831161086757829003601f168201915b5050505050908060010154908060020154908060030160009054906101000a900473ffffffffffffffffffffffffffffffffffffffff16908060030160149054906101000a900460ff16908060040160009054906101000a900473ffffffffffffffffffffffffffffffffffffffff16905086565b60008054906101000a900473ffffffffffffffffffffffffffffffffffffffff1681565b60008054906101000a900473ffffffffffffffffffffffffffffffffffffffff1673ffffffffffffffffffffffffffffffffffffffff163373ffffffffffffffffffffffffffffffffffffffff16146109ab576040517f08c379a00000000000000000000000000000000000000000000000000000000081526004016109a290611799565b60405180910390fd5b6000600360008373ffffffffffffffffffffffffffffffffffffffff1673ffffffffffffffffffffffffffffffffffffffff16815260200190815260200160002060006101000a81548160ff0219169083151502179055507f7db8df158d85e9475e8dd97a5e3e193c67dc6d977d2fc4f7321049b6c0b70e9381604051610a32919061108d565b60405180910390a150565b806001600082815260200190815260200160002060030160009054906101000a900473ffffffffffffffffffffffffffffffffffffffff1673ffffffffffffffffffffffffffffffffffffffff163373ffffffffffffffffffffffffffffffffffffffff1614610ae2576040517f08c379a0000000000000000000000000000000000000000000000000000000008152600401610ad990611805565b60405180910390fd5b60006001600084815260200190815260200160002090508060010154421115610b40576040517f08c379a0000000000000000000000000000000000000000000000000000000008152600401610b3790611871565b60405180910390fd5b8060030160149054906101000a900460ff1615610b92576040517f08c379a0000000000000000000000000000000000000000000000000000000008152600401610b89906116d0565b60405180910390fd5b60018160030160146101000a81548160ff0219169083151502179055508060030160009054906101000a900473ffffffffffffffffffffffffffffffffffffffff1673ffffffffffffffffffffffffffffffffffffffff166108fc82600201549081150290604051600060405180830381858888f19350505050158015610c1d573d6000803e3d6000fd5b507fbb5889c77948badf90e8a5c73d55265e5f5d6e4837a79a78c5669691b897faed838260030160009054906101000a900473ffffffffffffffffffffffffffffffffffffffff16604051610c73929190611891565b60405180910390a1505050565b6000604051905090565b600080fd5b600080fd5b600080fd5b600080fd5b6000601f19601f8301169050919050565b7f4e487b7100000000000000000000000000000000000000000000000000000000600052604160045260246000fd5b610ce782610c9e565b810181811067ffffffffffffffff82111715610d0657610d05610caf565b5b80604052505050565b6000610d19610c80565b9050610d258282610cde565b919050565b600067ffffffffffffffff821115610d4557610d44610caf565b5b610d4e82610c9e565b9050602081019050919050565b82818337600083830152505050565b6000610d7d610d7884610d2a565b610d0f565b905082815260208101848484011115610d9957610d98610c99565b5b610da4848285610d5b565b509392505050565b600082601f830112610dc157610dc0610c94565b5b8135610dd1848260208601610d6a565b91505092915050565b6000819050919050565b610ded81610dda565b8114610df857600080fd5b50565b600081359050610e0a81610de4565b92915050565b600073ffffffffffffffffffffffffffffffffffffffff82169050919050565b6000610e3b82610e10565b9050919050565b610e4b81610e30565b8114610e5657600080fd5b50565b600081359050610e6881610e42565b92915050565b600080600060608486031215610e8757610e86610c8a565b5b600084013567ffffffffffffffff811115610ea557610ea4610c8f565b5b610eb186828701610dac565b9350506020610ec286828701610dfb565b9250506040610ed386828701610e59565b9150509250925092565b600060208284031215610ef357610ef2610c8a565b5b6000610f0184828501610e59565b91505092915050565b60008115159050919050565b610f1f81610f0a565b82525050565b6000602082019050610f3a6000830184610f16565b92915050565b600060208284031215610f5657610f55610c8a565b5b6000610f6484828501610dfb565b91505092915050565b610f7681610dda565b82525050565b6000602082019050610f916000830184610f6d565b92915050565b600081519050919050565b600082825260208201905092915050565b60005b83811015610fd1578082015181840152602081019050610fb6565b60008484015250505050565b6000610fe882610f97565b610ff28185610fa2565b9350611002818560208601610fb3565b61100b81610c9e565b840191505092915050565b61101f81610e30565b82525050565b600060c082019050818103600083015261103f8189610fdd565b905061104e6020830188610f6d565b61105b6040830187610f6d565b6110686060830186611016565b6110756080830185610f16565b61108260a0830184611016565b979650505050505050565b60006020820190506110a26000830184611016565b92915050565b7f4465736372697074696f6e207265717569726564000000000000000000000000600082015250565b60006110de601483610fa2565b91506110e9826110a8565b602082019050919050565b6000602082019050818103600083015261110d816110d1565b9050919050565b7f446561646c696e65206d75737420626520696e20746865206675747572650000600082015250565b600061114a601e83610fa2565b915061115582611114565b602082019050919050565b600060208201905081810360008301526111798161113d565b9050919050565b7f506c6564676520616d6f756e74206d757374206265206772656174657220746860008201527f616e207a65726f00000000000000000000000000000000000000000000000000602082015250565b60006111dc602783610fa2565b91506111e782611180565b604082019050919050565b6000602082019050818103600083015261120b816111cf565b9050919050565b7f43686172697479206e6f7420617070726f766564000000000000000000000000600082015250565b6000611248601483610fa2565b915061125382611212565b602082019050919050565b600060208201905081810360008301526112778161123b565b9050919050565b7f4e487b7100000000000000000000000000000000000000000000000000000000600052601160045260246000fd5b60006112b882610dda565b91507fffffffffffffffffffffffffffffffffffffffffffffffffffffffffffffffff82036112ea576112e961127e565b5b600182019050919050565b7f4e487b7100000000000000000000000000000000000000000000000000000000600052602260045260246000fd5b6000600282049050600182168061133c57607f821691505b60208210810361134f5761134e6112f5565b5b50919050565b60008190508160005260206000209050919050565b60006020601f8301049050919050565b600082821b905092915050565b6000600883026113b77fffffffffffffffffffffffffffffffffffffffffffffffffffffffffffffffff8261137a565b6113c1868361137a565b95508019841693508086168417925050509392505050565b6000819050919050565b60006113fe6113f96113f484610dda565b6113d9565b610dda565b9050919050565b6000819050919050565b611418836113e3565b61142c61142482611405565b848454611387565b825550505050565b600090565b611441611434565b61144c81848461140f565b505050565b5b8181101561147057611465600082611439565b600181019050611452565b5050565b601f8211156114b55761148681611355565b61148f8461136a565b8101602085101561149e578190505b6114b26114aa8561136a565b830182611451565b50505b505050565b600082821c905092915050565b60006114d8600019846008026114ba565b1980831691505092915050565b60006114f183836114c7565b9150826002028217905092915050565b61150a82610f97565b67ffffffffffffffff81111561152357611522610caf565b5b61152d8254611324565b611538828285611474565b600060209050601f83116001811461156b5760008415611559578287015190505b61156385826114e5565b8655506115cb565b601f19841661157986611355565b60005b828110156115a15784890151825560018201915060208501945060208101905061157c565b868310156115be57848901516115ba601f8916826114c7565b8355505b6001600288020188555050505b505050505050565b60006080820190506115e86000830187610f6d565b6115f56020830186611016565b6116026040830185610f6d565b61160f6060830184610f6d565b95945050505050565b7f5461736b20646561646c696e65206e6f74207265616368656400000000000000600082015250565b600061164e601983610fa2565b915061165982611618565b602082019050919050565b6000602082019050818103600083015261167d81611641565b9050919050565b7f5461736b20616c726561647920636f6d706c6574656400000000000000000000600082015250565b60006116ba601683610fa2565b91506116c582611684565b602082019050919050565b600060208201905081810360008301526116e9816116ad565b9050919050565b60006060820190506117056000830186610f6d565b6117126020830185611016565b61171f6040830184610f6d565b949350505050565b7f4f6e6c79206f776e65722063616e20706572666f726d2074686973206163746960008201527f6f6e000000000000000000000000000000000000000000000000000000000000602082015250565b6000611783602283610fa2565b915061178e82611727565b604082019050919050565b600060208201905081810360008301526117b281611776565b9050919050565b7f4e6f74207461736b2063726561746f7200000000000000000000000000000000600082015250565b60006117ef601083610fa2565b91506117fa826117b9565b602082019050919050565b6000602082019050818103600083015261181e816117e2565b9050919050565b7f446561646c696e65207061737365640000000000000000000000000000000000600082015250565b600061185b600f83610fa2565b915061186682611825565b602082019050919050565b6000602082019050818103600083015261188a8161184e565b9050919050565b60006040820190506118a66000830185610f6d565b6118b36020830184611016565b939250505056fea264697066735822122081474445e2474cd67b0d7692c14bf3b1bc64471653da8f147089936be430b0ca64736f6c634300081c0033",
          "opcodes": "PUSH1 0x80 PUSH1 0x40 MSTORE CALLVALUE DUP1 ISZERO PUSH1 0xF JUMPI PUSH1 0x0 DUP1 REVERT JUMPDEST POP CALLER PUSH1 0x0 DUP1 PUSH2 0x100 EXP DUP2 SLOAD DUP2 PUSH20 0xFFFFFFFFFFFFFFFFFFFFFFFFFFFFFFFFFFFFFFFF MUL NOT AND SWAP1 DUP4 PUSH20 0xFFFFFFFFFFFFFFFFFFFFFFFFFFFFFFFFFFFFFFFF AND MUL OR SWAP1 SSTORE POP PUSH2 0x18F0 DUP1 PUSH2 0x5F PUSH1 0x0 CODECOPY PUSH1 0x0 RETURN INVALID PUSH1 0x80 PUSH1 0x40 MSTORE PUSH1 0x4 CALLDATASIZE LT PUSH2 0x86 JUMPI PUSH1 0x0 CALLDATALOAD PUSH1 0xE0 SHR DUP1 PUSH4 0x78B14F0A GT PUSH2 0x59 JUMPI DUP1 PUSH4 0x78B14F0A EQ PUSH2 0x138 JUMPI DUP1 PUSH4 0x8D977672 EQ PUSH2 0x161 JUMPI DUP1 PUSH4 0x8DA5CB5B EQ PUSH2 0x1A3 JUMPI DUP1 PUSH4 0xABEFE591 EQ PUSH2 0x1CE JUMPI DUP1 PUSH4 0xE1E29558 EQ PUSH2 0x1F7 JUMPI PUSH2 0x86 JUMP JUMPDEST DUP1 PUSH4 0x4270817 EQ PUSH2 0x8B JUMPI DUP1 PUSH4 0x2571A74E EQ PUSH2 0xA7 JUMPI DUP1 PUSH4 0x3C4C4EA1 EQ PUSH2 0xE4 JUMPI DUP1 PUSH4 0x58671730 EQ PUSH2 0x10D JUMPI JUMPDEST PUSH1 0x0 DUP1 REVERT JUMPDEST PUSH2 0xA5 PUSH1 0x4 DUP1 CALLDATASIZE SUB DUP2 ADD SWAP1 PUSH2 0xA0 SWAP2 SWAP1 PUSH2 0xE6E JUMP JUMPDEST PUSH2 0x220 JUMP JUMPDEST STOP JUMPDEST CALLVALUE DUP1 ISZERO PUSH2 0xB3 JUMPI PUSH1 0x0 DUP1 REVERT JUMPDEST POP PUSH2 0xCE PUSH1 0x4 DUP1 CALLDATASIZE SUB DUP2 ADD SWAP1 PUSH2 0xC9 SWAP2 SWAP1 PUSH2 0xEDD JUMP JUMPDEST PUSH2 0x51D JUMP JUMPDEST PUSH1 0x40 MLOAD PUSH2 0xDB SWAP2 SWAP1 PUSH2 0xF25 JUMP JUMPDEST PUSH1 0x40 MLOAD DUP1 SWAP2 SUB SWAP1 RETURN JUMPDEST CALLVALUE DUP1 ISZERO PUSH2 0xF0 JUMPI PUSH1 0x0 DUP1 REVERT JUMPDEST POP PUSH2 0x10B PUSH1 0x4 DUP1 CALLDATASIZE SUB DUP2 ADD SWAP1 PUSH2 0x106 SWAP2 SWAP1 PUSH2 0xF40 JUMP JUMPDEST PUSH2 0x53D JUMP JUMPDEST STOP JUMPDEST CALLVALUE DUP1 ISZERO PUSH2 0x119 JUMPI PUSH1 0x0 DUP1 REVERT JUMPDEST POP PUSH2 0x122 PUSH2 0x6C2 JUMP JUMPDEST PUSH1 0x40 MLOAD PUSH2 0x12F SWAP2 SWAP1 PUSH2 0xF7C JUMP JUMPDEST PUSH1 0x40 MLOAD DUP1 SWAP2 SUB SWAP1 RETURN JUMPDEST CALLVALUE DUP1 ISZERO PUSH2 0x144 JUMPI PUSH1 0x0 DUP1 REVERT JUMPDEST POP PUSH2 0x15F PUSH1 0x4 DUP1 CALLDATASIZE SUB DUP2 ADD SWAP1 PUSH2 0x15A SWAP2 SWAP1 PUSH2 0xEDD JUMP JUMPDEST PUSH2 0x6C8 JUMP JUMPDEST STOP JUMPDEST CALLVALUE DUP1 ISZERO PUSH2 0x16D JUMPI PUSH1 0x0 DUP1 REVERT JUMPDEST POP PUSH2 0x188 PUSH1 0x4 DUP1 CALLDATASIZE SUB DUP2 ADD SWAP1 PUSH2 0x183 SWAP2 SWAP1 PUSH2 0xF40 JUMP JUMPDEST PUSH2 0x7E8 JUMP JUMPDEST PUSH1 0x40 MLOAD PUSH2 0x19A SWAP7 SWAP6 SWAP5 SWAP4 SWAP3 SWAP2 SWAP1 PUSH2 0x1025 JUMP JUMPDEST PUSH1 0x40 MLOAD DUP1 SWAP2 SUB SWAP1 RETURN JUMPDEST CALLVALUE DUP1 ISZERO PUSH2 0x1AF JUMPI PUSH1 0x0 DUP1 REVERT JUMPDEST POP PUSH2 0x1B8 PUSH2 0x8F9 JUMP JUMPDEST PUSH1 0x40 MLOAD PUSH2 0x1C5 SWAP2 SWAP1 PUSH2 0x108D JUMP JUMPDEST PUSH1 0x40 MLOAD DUP1 SWAP2 SUB SWAP1 RETURN JUMPDEST CALLVALUE DUP1 ISZERO PUSH2 0x1DA JUMPI PUSH1 0x0 DUP1 REVERT JUMPDEST POP PUSH2 0x1F5 PUSH1 0x4 DUP1 CALLDATASIZE SUB DUP2 ADD SWAP1 PUSH2 0x1F0 SWAP2 SWAP1 PUSH2 0xEDD JUMP JUMPDEST PUSH2 0x91D JUMP JUMPDEST STOP JUMPDEST CALLVALUE DUP1 ISZERO PUSH2 0x203 JUMPI PUSH1 0x0 DUP1 REVERT JUMPDEST POP PUSH2 0x21E PUSH1 0x4 DUP1 CALLDATASIZE SUB DUP2 ADD SWAP1 PUSH2 0x219 SWAP2 SWAP1 PUSH2 0xF40 JUMP JUMPDEST PUSH2 0xA3D JUMP JUMPDEST STOP JUMPDEST PUSH1 0x0 DUP4 MLOAD GT PUSH2 0x264 JUMPI PUSH1 0x40 MLOAD PUSH32 0x8C379A000000000000000000000000000000000000000000000000000000000 DUP2 MSTORE PUSH1 0x4 ADD PUSH2 0x25B SWAP1 PUSH2 0x10F4 JUMP JUMPDEST PUSH1 0x40 MLOAD DUP1 SWAP2 SUB SWAP1 REVERT JUMPDEST TIMESTAMP DUP3 GT PUSH2 0x2A6 JUMPI PUSH1 0x40 MLOAD PUSH32 0x8C379A000000000000000000000000000000000000000000000000000000000 DUP2 MSTORE PUSH1 0x4 ADD PUSH2 0x29D SWAP1 PUSH2 0x1160 JUMP JUMPDEST PUSH1 0x40 MLOAD DUP1 SWAP2 SUB SWAP1 REVERT JUMPDEST PUSH1 0x0 CALLVALUE GT PUSH2 0x2E9 JUMPI PUSH1 0x40 MLOAD PUSH32 0x8C379A000000000000000000000000000000000000000000000000000000000 DUP2 MSTORE PUSH1 0x4 ADD PUSH2 0x2E0 SWAP1 PUSH2 0x11F2 JUMP JUMPDEST PUSH1 0x40 MLOAD DUP1 SWAP2 SUB SWAP1 REVERT JUMPDEST PUSH1 0x3 PUSH1 0x0 DUP3 PUSH20 0xFFFFFFFFFFFFFFFFFFFFFFFFFFFFFFFFFFFFFFFF AND PUSH20 0xFFFFFFFFFFFFFFFFFFFFFFFFFFFFFFFFFFFFFFFF AND DUP2 MSTORE PUSH1 0x20 ADD SWAP1 DUP2 MSTORE PUSH1 0x20 ADD PUSH1 0x0 KECCAK256 PUSH1 0x0 SWAP1 SLOAD SWAP1 PUSH2 0x100 EXP SWAP1 DIV PUSH1 0xFF AND PUSH2 0x375 JUMPI PUSH1 0x40 MLOAD PUSH32 0x8C379A000000000000000000000000000000000000000000000000000000000 DUP2 MSTORE PUSH1 0x4 ADD PUSH2 0x36C SWAP1 PUSH2 0x125E JUMP JUMPDEST PUSH1 0x40 MLOAD DUP1 SWAP2 SUB SWAP1 REVERT JUMPDEST PUSH1 0x2 PUSH1 0x0 DUP2 SLOAD DUP1 SWAP3 SWAP2 SWAP1 PUSH2 0x388 SWAP1 PUSH2 0x12AD JUMP JUMPDEST SWAP2 SWAP1 POP SSTORE POP PUSH1 0x40 MLOAD DUP1 PUSH1 0xC0 ADD PUSH1 0x40 MSTORE DUP1 DUP5 DUP2 MSTORE PUSH1 0x20 ADD DUP4 DUP2 MSTORE PUSH1 0x20 ADD CALLVALUE DUP2 MSTORE PUSH1 0x20 ADD CALLER PUSH20 0xFFFFFFFFFFFFFFFFFFFFFFFFFFFFFFFFFFFFFFFF AND DUP2 MSTORE PUSH1 0x20 ADD PUSH1 0x0 ISZERO ISZERO DUP2 MSTORE PUSH1 0x20 ADD DUP3 PUSH20 0xFFFFFFFFFFFFFFFFFFFFFFFFFFFFFFFFFFFFFFFF AND DUP2 MSTORE POP PUSH1 0x1 PUSH1 0x0 PUSH1 0x2 SLOAD DUP2 MSTORE PUSH1 0x20 ADD SWAP1 DUP2 MSTORE PUSH1 0x20 ADD PUSH1 0x0 KECCAK256 PUSH1 0x0 DUP3 ADD MLOAD DUP2 PUSH1 0x0 ADD SWAP1 DUP2 PUSH2 0x413 SWAP2 SWAP1 PUSH2 0x1501 JUMP JUMPDEST POP PUSH1 0x20 DUP3 ADD MLOAD DUP2 PUSH1 0x1 ADD SSTORE PUSH1 0x40 DUP3 ADD MLOAD DUP2 PUSH1 0x2 ADD SSTORE PUSH1 0x60 DUP3 ADD MLOAD DUP2 PUSH1 0x3 ADD PUSH1 0x0 PUSH2 0x100 EXP DUP2 SLOAD DUP2 PUSH20 0xFFFFFFFFFFFFFFFFFFFFFFFFFFFFFFFFFFFFFFFF MUL NOT AND SWAP1 DUP4 PUSH20 0xFFFFFFFFFFFFFFFFFFFFFFFFFFFFFFFFFFFFFFFF AND MUL OR SWAP1 SSTORE POP PUSH1 0x80 DUP3 ADD MLOAD DUP2 PUSH1 0x3 ADD PUSH1 0x14 PUSH2 0x100 EXP DUP2 SLOAD DUP2 PUSH1 0xFF MUL NOT AND SWAP1 DUP4 ISZERO ISZERO MUL OR SWAP1 SSTORE POP PUSH1 0xA0 DUP3 ADD MLOAD DUP2 PUSH1 0x4 ADD PUSH1 0x0 PUSH2 0x100 EXP DUP2 SLOAD DUP2 PUSH20 0xFFFFFFFFFFFFFFFFFFFFFFFFFFFFFFFFFFFFFFFF MUL NOT AND SWAP1 DUP4 PUSH20 0xFFFFFFFFFFFFFFFFFFFFFFFFFFFFFFFFFFFFFFFF AND MUL OR SWAP1 SSTORE POP SWAP1 POP POP PUSH32 0xF5AC772F880DC6ED6B50DB24E062BBC51818E270ED47533FD9162E5255FA2913 PUSH1 0x2 SLOAD CALLER CALLVALUE DUP6 PUSH1 0x40 MLOAD PUSH2 0x510 SWAP5 SWAP4 SWAP3 SWAP2 SWAP1 PUSH2 0x15D3 JUMP JUMPDEST PUSH1 0x40 MLOAD DUP1 SWAP2 SUB SWAP1 LOG1 POP POP POP JUMP JUMPDEST PUSH1 0x3 PUSH1 0x20 MSTORE DUP1 PUSH1 0x0 MSTORE PUSH1 0x40 PUSH1 0x0 KECCAK256 PUSH1 0x0 SWAP2 POP SLOAD SWAP1 PUSH2 0x100 EXP SWAP1 DIV PUSH1 0xFF AND DUP2 JUMP JUMPDEST PUSH1 0x0 PUSH1 0x1 PUSH1 0x0 DUP4 DUP2 MSTORE PUSH1 0x20 ADD SWAP1 DUP2 MSTORE PUSH1 0x20 ADD PUSH1 0x0 KECCAK256 SWAP1 POP DUP1 PUSH1 0x1 ADD SLOAD TIMESTAMP GT PUSH2 0x59A JUMPI PUSH1 0x40 MLOAD PUSH32 0x8C379A000000000000000000000000000000000000000000000000000000000 DUP2 MSTORE PUSH1 0x4 ADD PUSH2 0x591 SWAP1 PUSH2 0x1664 JUMP JUMPDEST PUSH1 0x40 MLOAD DUP1 SWAP2 SUB SWAP1 REVERT JUMPDEST DUP1 PUSH1 0x3 ADD PUSH1 0x14 SWAP1 SLOAD SWAP1 PUSH2 0x100 EXP SWAP1 DIV PUSH1 0xFF AND ISZERO PUSH2 0x5EC JUMPI PUSH1 0x40 MLOAD PUSH32 0x8C379A000000000000000000000000000000000000000000000000000000000 DUP2 MSTORE PUSH1 0x4 ADD PUSH2 0x5E3 SWAP1 PUSH2 0x16D0 JUMP JUMPDEST PUSH1 0x40 MLOAD DUP1 SWAP2 SUB SWAP1 REVERT JUMPDEST DUP1 PUSH1 0x4 ADD PUSH1 0x0 SWAP1 SLOAD SWAP1 PUSH2 0x100 EXP SWAP1 DIV PUSH20 0xFFFFFFFFFFFFFFFFFFFFFFFFFFFFFFFFFFFFFFFF AND PUSH20 0xFFFFFFFFFFFFFFFFFFFFFFFFFFFFFFFFFFFFFFFF AND PUSH2 0x8FC DUP3 PUSH1 0x2 ADD SLOAD SWAP1 DUP2 ISZERO MUL SWAP1 PUSH1 0x40 MLOAD PUSH1 0x0 PUSH1 0x40 MLOAD DUP1 DUP4 SUB DUP2 DUP6 DUP9 DUP9 CALL SWAP4 POP POP POP POP ISZERO DUP1 ISZERO PUSH2 0x65A JUMPI RETURNDATASIZE PUSH1 0x0 DUP1 RETURNDATACOPY RETURNDATASIZE PUSH1 0x0 REVERT JUMPDEST POP PUSH32 0x8B193D3376A80FBE0E01AA5512FCDDF19C1C39F4861538F999E09DB95A33581A DUP3 DUP3 PUSH1 0x4 ADD PUSH1 0x0 SWAP1 SLOAD SWAP1 PUSH2 0x100 EXP SWAP1 DIV PUSH20 0xFFFFFFFFFFFFFFFFFFFFFFFFFFFFFFFFFFFFFFFF AND DUP4 PUSH1 0x2 ADD SLOAD PUSH1 0x40 MLOAD PUSH2 0x6B6 SWAP4 SWAP3 SWAP2 SWAP1 PUSH2 0x16F0 JUMP JUMPDEST PUSH1 0x40 MLOAD DUP1 SWAP2 SUB SWAP1 LOG1 POP POP JUMP JUMPDEST PUSH1 0x2 SLOAD DUP2 JUMP JUMPDEST PUSH1 0x0 DUP1 SLOAD SWAP1 PUSH2 0x100 EXP SWAP1 DIV PUSH20 0xFFFFFFFFFFFFFFFFFFFFFFFFFFFFFFFFFFFFFFFF AND PUSH20 0xFFFFFFFFFFFFFFFFFFFFFFFFFFFFFFFFFFFFFFFF AND CALLER PUSH20 0xFFFFFFFFFFFFFFFFFFFFFFFFFFFFFFFFFFFFFFFF AND EQ PUSH2 0x756 JUMPI PUSH1 0x40 MLOAD PUSH32 0x8C379A000000000000000000000000000000000000000000000000000000000 DUP2 MSTORE PUSH1 0x4 ADD PUSH2 0x74D SWAP1 PUSH2 0x1799 JUMP JUMPDEST PUSH1 0x40 MLOAD DUP1 SWAP2 SUB SWAP1 REVERT JUMPDEST PUSH1 0x1 PUSH1 0x3 PUSH1 0x0 DUP4 PUSH20 0xFFFFFFFFFFFFFFFFFFFFFFFFFFFFFFFFFFFFFFFF AND PUSH20 0xFFFFFFFFFFFFFFFFFFFFFFFFFFFFFFFFFFFFFFFF AND DUP2 MSTORE PUSH1 0x20 ADD SWAP1 DUP2 MSTORE PUSH1 0x20 ADD PUSH1 0x0 KECCAK256 PUSH1 0x0 PUSH2 0x100 EXP DUP2 SLOAD DUP2 PUSH1 0xFF MUL NOT AND SWAP1 DUP4 ISZERO ISZERO MUL OR SWAP1 SSTORE POP PUSH32 0xC17DC19A503D796A336A016F10743118DB2BDADB16AC4C19AFF0160756098635 DUP2 PUSH1 0x40 MLOAD PUSH2 0x7DD SWAP2 SWAP1 PUSH2 0x108D JUMP JUMPDEST PUSH1 0x40 MLOAD DUP1 SWAP2 SUB SWAP1 LOG1 POP JUMP JUMPDEST PUSH1 0x1 PUSH1 0x20 MSTORE DUP1 PUSH1 0x0 MSTORE PUSH1 0x40 PUSH1 0x0 KECCAK256 PUSH1 0x0 SWAP2 POP SWAP1 POP DUP1 PUSH1 0x0 ADD DUP1 SLOAD PUSH2 0x80B SWAP1 PUSH2 0x1324 JUMP JUMPDEST DUP1 PUSH1 0x1F ADD PUSH1 0x20 DUP1 SWAP2 DIV MUL PUSH1 0x20 ADD PUSH1 0x40 MLOAD SWAP1 DUP2 ADD PUSH1 0x40 MSTORE DUP1 SWAP3 SWAP2 SWAP1 DUP2 DUP2 MSTORE PUSH1 0x20 ADD DUP3 DUP1 SLOAD PUSH2 0x837 SWAP1 PUSH2 0x1324 JUMP JUMPDEST DUP1 ISZERO PUSH2 0x884 JUMPI DUP1 PUSH1 0x1F LT PUSH2 0x859 JUMPI PUSH2 0x100 DUP1 DUP4 SLOAD DIV MUL DUP4 MSTORE SWAP2 PUSH1 0x20 ADD SWAP2 PUSH2 0x884 JUMP JUMPDEST DUP3 ADD SWAP2 SWAP1 PUSH1 0x0 MSTORE PUSH1 0x20 PUSH1 0x0 KECCAK256 SWAP1 JUMPDEST DUP2 SLOAD DUP2 MSTORE SWAP1 PUSH1 0x1 ADD SWAP1 PUSH1 0x20 ADD DUP1 DUP4 GT PUSH2 0x867 JUMPI DUP3 SWAP1 SUB PUSH1 0x1F AND DUP3 ADD SWAP2 JUMPDEST POP POP POP POP POP SWAP1 DUP1 PUSH1 0x1 ADD SLOAD SWAP1 DUP1 PUSH1 0x2 ADD SLOAD SWAP1 DUP1 PUSH1 0x3 ADD PUSH1 0x0 SWAP1 SLOAD SWAP1 PUSH2 0x100 EXP SWAP1 DIV PUSH20 0xFFFFFFFFFFFFFFFFFFFFFFFFFFFFFFFFFFFFFFFF AND SWAP1 DUP1 PUSH1 0x3 ADD PUSH1 0x14 SWAP1 SLOAD SWAP1 PUSH2 0x100 EXP SWAP1 DIV PUSH1 0xFF AND SWAP1 DUP1 PUSH1 0x4 ADD PUSH1 0x0 SWAP1 SLOAD SWAP1 PUSH2 0x100 EXP SWAP1 DIV PUSH20 0xFFFFFFFFFFFFFFFFFFFFFFFFFFFFFFFFFFFFFFFF AND SWAP1 POP DUP7 JUMP JUMPDEST PUSH1 0x0 DUP1 SLOAD SWAP1 PUSH2 0x100 EXP SWAP1 DIV PUSH20 0xFFFFFFFFFFFFFFFFFFFFFFFFFFFFFFFFFFFFFFFF AND DUP2 JUMP JUMPDEST PUSH1 0x0 DUP1 SLOAD SWAP1 PUSH2 0x100 EXP SWAP1 DIV PUSH20 0xFFFFFFFFFFFFFFFFFFFFFFFFFFFFFFFFFFFFFFFF AND PUSH20 0xFFFFFFFFFFFFFFFFFFFFFFFFFFFFFFFFFFFFFFFF AND CALLER PUSH20 0xFFFFFFFFFFFFFFFFFFFFFFFFFFFFFFFFFFFFFFFF AND EQ PUSH2 0x9AB JUMPI PUSH1 0x40 MLOAD PUSH32 0x8C379A000000000000000000000000000000000000000000000000000000000 DUP2 MSTORE PUSH1 0x4 ADD PUSH2 0x9A2 SWAP1 PUSH2 0x1799 JUMP JUMPDEST PUSH1 0x40 MLOAD DUP1 SWAP2 SUB SWAP1 REVERT JUMPDEST PUSH1 0x0 PUSH1 0x3 PUSH1 0x0 DUP4 PUSH20 0xFFFFFFFFFFFFFFFFFFFFFFFFFFFFFFFFFFFFFFFF AND PUSH20 0xFFFFFFFFFFFFFFFFFFFFFFFFFFFFFFFFFFFFFFFF AND DUP2 MSTORE PUSH1 0x20 ADD SWAP1 DUP2 MSTORE PUSH1 0x20 ADD PUSH1 0x0 KECCAK256 PUSH1 0x0 PUSH2 0x100 EXP DUP2 SLOAD DUP2 PUSH1 0xFF MUL NOT AND SWAP1 DUP4 ISZERO ISZERO MUL OR SWAP1 SSTORE POP PUSH32 0x7DB8DF158D85E9475E8DD97A5E3E193C67DC6D977D2FC4F7321049B6C0B70E93 DUP2 PUSH1 0x40 MLOAD PUSH2 0xA32 SWAP2 SWAP1 PUSH2 0x108D JUMP JUMPDEST PUSH1 0x40 MLOAD DUP1 SWAP2 SUB SWAP1 LOG1 POP JUMP JUMPDEST DUP1 PUSH1 0x1 PUSH1 0x0 DUP3 DUP2 MSTORE PUSH1 0x20 ADD SWAP1 DUP2 MSTORE PUSH1 0x20 ADD PUSH1 0x0 KECCAK256 PUSH1 0x3 ADD PUSH1 0x0 SWAP1 SLOAD SWAP1 PUSH2 0x100 EXP SWAP1 DIV PUSH20 0xFFFFFFFFFFFFFFFFFFFFFFFFFFFFFFFFFFFFFFFF AND PUSH20 0xFFFFFFFFFFFFFFFFFFFFFFFFFFFFFFFFFFFFFFFF AND CALLER PUSH20 0xFFFFFFFFFFFFFFFFFFFFFFFFFFFFFFFFFFFFFFFF AND EQ PUSH2 0xAE2 JUMPI PUSH1 0x40 MLOAD PUSH32 0x8C379A000000000000000000000000000000000000000000000000000000000 DUP2 MSTORE PUSH1 0x4 ADD PUSH2 0xAD9 SWAP1 PUSH2 0x1805 JUMP JUMPDEST PUSH1 0x40 MLOAD DUP1 SWAP2 SUB SWAP1 REVERT JUMPDEST PUSH1 0x0 PUSH1 0x1 PUSH1 0x0 DUP5 DUP2 MSTORE PUSH1 0x20 ADD SWAP1 DUP2 MSTORE PUSH1 0x20 ADD PUSH1 0x0 KECCAK256 SWAP1 POP DUP1 PUSH1 0x1 ADD SLOAD TIMESTAMP GT ISZERO PUSH2 0xB40 JUMPI PUSH1 0x40 MLOAD PUSH32 0x8C379A000000000000000000000000000000000000000000000000000000000 DUP2 MSTORE PUSH1 0x4 ADD PUSH2 0xB37 SWAP1 PUSH2 0x1871 JUMP JUMPDEST PUSH1 0x40 MLOAD DUP1 SWAP2 SUB SWAP1 REVERT JUMPDEST DUP1 PUSH1 0x3 ADD PUSH1 0x14 SWAP1 SLOAD SWAP1 PUSH2 0x100 EXP SWAP1 DIV PUSH1 0xFF AND ISZERO PUSH2 0xB92 JUMPI PUSH1 0x40 MLOAD PUSH32 0x8C379A000000000000000000000000000000000000000000000000000000000 DUP2 MSTORE PUSH1 0x4 ADD PUSH2 0xB89 SWAP1 PUSH2 0x16D0 JUMP JUMPDEST PUSH1 0x40 MLOAD DUP1 SWAP2 SUB SWAP1 REVERT JUMPDEST PUSH1 0x1 DUP2 PUSH1 0x3 ADD PUSH1 0x14 PUSH2 0x100 EXP DUP2 SLOAD DUP2 PUSH1 0xFF MUL NOT AND SWAP1 DUP4 ISZERO ISZERO MUL OR SWAP1 SSTORE POP DUP1 PUSH1 0x3 ADD PUSH1 0x0 SWAP1 SLOAD SWAP1 PUSH2 0x100 EXP SWAP1 DIV PUSH20 0xFFFFFFFFFFFFFFFFFFFFFFFFFFFFFFFFFFFFFFFF AND PUSH20 0xFFFFFFFFFFFFFFFFFFFFFFFFFFFFFFFFFFFFFFFF AND PUSH2 0x8FC DUP3 PUSH1 0x2 ADD SLOAD SWAP1 DUP2 ISZERO MUL SWAP1 PUSH1 0x40 MLOAD PUSH1 0x0 PUSH1 0x40 MLOAD DUP1 DUP4 SUB DUP2 DUP6 DUP9 DUP9 CALL SWAP4 POP POP POP POP ISZERO DUP1 ISZERO PUSH2 0xC1D JUMPI RETURNDATASIZE PUSH1 0x0 DUP1 RETURNDATACOPY RETURNDATASIZE PUSH1 0x0 REVERT JUMPDEST POP PUSH32 0xBB5889C77948BADF90E8A5C73D55265E5F5D6E4837A79A78C5669691B897FAED DUP4 DUP3 PUSH1 0x3 ADD PUSH1 0x0 SWAP1 SLOAD SWAP1 PUSH2 0x100 EXP SWAP1 DIV PUSH20 0xFFFFFFFFFFFFFFFFFFFFFFFFFFFFFFFFFFFFFFFF AND PUSH1 0x40 MLOAD PUSH2 0xC73 SWAP3 SWAP2 SWAP1 PUSH2 0x1891 JUMP JUMPDEST PUSH1 0x40 MLOAD DUP1 SWAP2 SUB SWAP1 LOG1 POP POP POP JUMP JUMPDEST PUSH1 0x0 PUSH1 0x40 MLOAD SWAP1 POP SWAP1 JUMP JUMPDEST PUSH1 0x0 DUP1 REVERT JUMPDEST PUSH1 0x0 DUP1 REVERT JUMPDEST PUSH1 0x0 DUP1 REVERT JUMPDEST PUSH1 0x0 DUP1 REVERT JUMPDEST PUSH1 0x0 PUSH1 0x1F NOT PUSH1 0x1F DUP4 ADD AND SWAP1 POP SWAP2 SWAP1 POP JUMP JUMPDEST PUSH32 0x4E487B7100000000000000000000000000000000000000000000000000000000 PUSH1 0x0 MSTORE PUSH1 0x41 PUSH1 0x4 MSTORE PUSH1 0x24 PUSH1 0x0 REVERT JUMPDEST PUSH2 0xCE7 DUP3 PUSH2 0xC9E JUMP JUMPDEST DUP2 ADD DUP2 DUP2 LT PUSH8 0xFFFFFFFFFFFFFFFF DUP3 GT OR ISZERO PUSH2 0xD06 JUMPI PUSH2 0xD05 PUSH2 0xCAF JUMP JUMPDEST JUMPDEST DUP1 PUSH1 0x40 MSTORE POP POP POP JUMP JUMPDEST PUSH1 0x0 PUSH2 0xD19 PUSH2 0xC80 JUMP JUMPDEST SWAP1 POP PUSH2 0xD25 DUP3 DUP3 PUSH2 0xCDE JUMP JUMPDEST SWAP2 SWAP1 POP JUMP JUMPDEST PUSH1 0x0 PUSH8 0xFFFFFFFFFFFFFFFF DUP3 GT ISZERO PUSH2 0xD45 JUMPI PUSH2 0xD44 PUSH2 0xCAF JUMP JUMPDEST JUMPDEST PUSH2 0xD4E DUP3 PUSH2 0xC9E JUMP JUMPDEST SWAP1 POP PUSH1 0x20 DUP2 ADD SWAP1 POP SWAP2 SWAP1 POP JUMP JUMPDEST DUP3 DUP2 DUP4 CALLDATACOPY PUSH1 0x0 DUP4 DUP4 ADD MSTORE POP POP POP JUMP JUMPDEST PUSH1 0x0 PUSH2 0xD7D PUSH2 0xD78 DUP5 PUSH2 0xD2A JUMP JUMPDEST PUSH2 0xD0F JUMP JUMPDEST SWAP1 POP DUP3 DUP2 MSTORE PUSH1 0x20 DUP2 ADD DUP5 DUP5 DUP5 ADD GT ISZERO PUSH2 0xD99 JUMPI PUSH2 0xD98 PUSH2 0xC99 JUMP JUMPDEST JUMPDEST PUSH2 0xDA4 DUP5 DUP3 DUP6 PUSH2 0xD5B JUMP JUMPDEST POP SWAP4 SWAP3 POP POP POP JUMP JUMPDEST PUSH1 0x0 DUP3 PUSH1 0x1F DUP4 ADD SLT PUSH2 0xDC1 JUMPI PUSH2 0xDC0 PUSH2 0xC94 JUMP JUMPDEST JUMPDEST DUP2 CALLDATALOAD PUSH2 0xDD1 DUP5 DUP3 PUSH1 0x20 DUP7 ADD PUSH2 0xD6A JUMP JUMPDEST SWAP2 POP POP SWAP3 SWAP2 POP POP JUMP JUMPDEST PUSH1 0x0 DUP2 SWAP1 POP SWAP2 SWAP1 POP JUMP JUMPDEST PUSH2 0xDED DUP2 PUSH2 0xDDA JUMP JUMPDEST DUP2 EQ PUSH2 0xDF8 JUMPI PUSH1 0x0 DUP1 REVERT JUMPDEST POP JUMP JUMPDEST PUSH1 0x0 DUP2 CALLDATALOAD SWAP1 POP PUSH2 0xE0A DUP2 PUSH2 0xDE4 JUMP JUMPDEST SWAP3 SWAP2 POP POP JUMP JUMPDEST PUSH1 0x0 PUSH20 0xFFFFFFFFFFFFFFFFFFFFFFFFFFFFFFFFFFFFFFFF DUP3 AND SWAP1 POP SWAP2 SWAP1 POP JUMP JUMPDEST PUSH1 0x0 PUSH2 0xE3B DUP3 PUSH2 0xE10 JUMP JUMPDEST SWAP1 POP SWAP2 SWAP1 POP JUMP JUMPDEST PUSH2 0xE4B DUP2 PUSH2 0xE30 JUMP JUMPDEST DUP2 EQ PUSH2 0xE56 JUMPI PUSH1 0x0 DUP1 REVERT JUMPDEST POP JUMP JUMPDEST PUSH1 0x0 DUP2 CALLDATALOAD SWAP1 POP PUSH2 0xE68 DUP2 PUSH2 0xE42 JUMP JUMPDEST SWAP3 SWAP2 POP POP JUMP JUMPDEST PUSH1 0x0 DUP1 PUSH1 0x0 PUSH1 0x60 DUP5 DUP7 SUB SLT ISZERO PUSH2 0xE87 JUMPI PUSH2 0xE86 PUSH2 0xC8A JUMP JUMPDEST JUMPDEST PUSH1 0x0 DUP5 ADD CALLDATALOAD PUSH8 0xFFFFFFFFFFFFFFFF DUP2 GT ISZERO PUSH2 0xEA5 JUMPI PUSH2 0xEA4 PUSH2 0xC8F JUMP JUMPDEST JUMPDEST PUSH2 0xEB1 DUP7 DUP3 DUP8 ADD PUSH2 0xDAC JUMP JUMPDEST SWAP4 POP POP PUSH1 0x20 PUSH2 0xEC2 DUP7 DUP3 DUP8 ADD PUSH2 0xDFB JUMP JUMPDEST SWAP3 POP POP PUSH1 0x40 PUSH2 0xED3 DUP7 DUP3 DUP8 ADD PUSH2 0xE59 JUMP JUMPDEST SWAP2 POP POP SWAP3 POP SWAP3 POP SWAP3 JUMP JUMPDEST PUSH1 0x0 PUSH1 0x20 DUP3 DUP5 SUB SLT ISZERO PUSH2 0xEF3 JUMPI PUSH2 0xEF2 PUSH2 0xC8A JUMP JUMPDEST JUMPDEST PUSH1 0x0 PUSH2 0xF01 DUP5 DUP3 DUP6 ADD PUSH2 0xE59 JUMP JUMPDEST SWAP2 POP POP SWAP3 SWAP2 POP POP JUMP JUMPDEST PUSH1 0x0 DUP2 ISZERO ISZERO SWAP1 POP SWAP2 SWAP1 POP JUMP JUMPDEST PUSH2 0xF1F DUP2 PUSH2 0xF0A JUMP JUMPDEST DUP3 MSTORE POP POP JUMP JUMPDEST PUSH1 0x0 PUSH1 0x20 DUP3 ADD SWAP1 POP PUSH2 0xF3A PUSH1 0x0 DUP4 ADD DUP5 PUSH2 0xF16 JUMP JUMPDEST SWAP3 SWAP2 POP POP JUMP JUMPDEST PUSH1 0x0 PUSH1 0x20 DUP3 DUP5 SUB SLT ISZERO PUSH2 0xF56 JUMPI PUSH2 0xF55 PUSH2 0xC8A JUMP JUMPDEST JUMPDEST PUSH1 0x0 PUSH2 0xF64 DUP5 DUP3 DUP6 ADD PUSH2 0xDFB JUMP JUMPDEST SWAP2 POP POP SWAP3 SWAP2 POP POP JUMP JUMPDEST PUSH2 0xF76 DUP2 PUSH2 0xDDA JUMP JUMPDEST DUP3 MSTORE POP POP JUMP JUMPDEST PUSH1 0x0 PUSH1 0x20 DUP3 ADD SWAP1 POP PUSH2 0xF91 PUSH1 0x0 DUP4 ADD DUP5 PUSH2 0xF6D JUMP JUMPDEST SWAP3 SWAP2 POP POP JUMP JUMPDEST PUSH1 0x0 DUP2 MLOAD SWAP1 POP SWAP2 SWAP1 POP JUMP JUMPDEST PUSH1 0x0 DUP3 DUP3 MSTORE PUSH1 0x20 DUP3 ADD SWAP1 POP SWAP3 SWAP2 POP POP JUMP JUMPDEST PUSH1 0x0 JUMPDEST DUP4 DUP2 LT ISZERO PUSH2 0xFD1 JUMPI DUP1 DUP3 ADD MLOAD DUP2 DUP5 ADD MSTORE PUSH1 0x20 DUP2 ADD SWAP1 POP PUSH2 0xFB6 JUMP JUMPDEST PUSH1 0x0 DUP5 DUP5 ADD MSTORE POP POP POP POP JUMP JUMPDEST PUSH1 0x0 PUSH2 0xFE8 DUP3 PUSH2 0xF97 JUMP JUMPDEST PUSH2 0xFF2 DUP2 DUP6 PUSH2 0xFA2 JUMP JUMPDEST SWAP4 POP PUSH2 0x1002 DUP2 DUP6 PUSH1 0x20 DUP7 ADD PUSH2 0xFB3 JUMP JUMPDEST PUSH2 0x100B DUP2 PUSH2 0xC9E JUMP JUMPDEST DUP5 ADD SWAP2 POP POP SWAP3 SWAP2 POP POP JUMP JUMPDEST PUSH2 0x101F DUP2 PUSH2 0xE30 JUMP JUMPDEST DUP3 MSTORE POP POP JUMP JUMPDEST PUSH1 0x0 PUSH1 0xC0 DUP3 ADD SWAP1 POP DUP2 DUP2 SUB PUSH1 0x0 DUP4 ADD MSTORE PUSH2 0x103F DUP2 DUP10 PUSH2 0xFDD JUMP JUMPDEST SWAP1 POP PUSH2 0x104E PUSH1 0x20 DUP4 ADD DUP9 PUSH2 0xF6D JUMP JUMPDEST PUSH2 0x105B PUSH1 0x40 DUP4 ADD DUP8 PUSH2 0xF6D JUMP JUMPDEST PUSH2 0x1068 PUSH1 0x60 DUP4 ADD DUP7 PUSH2 0x1016 JUMP JUMPDEST PUSH2 0x1075 PUSH1 0x80 DUP4 ADD DUP6 PUSH2 0xF16 JUMP JUMPDEST PUSH2 0x1082 PUSH1 0xA0 DUP4 ADD DUP5 PUSH2 0x1016 JUMP JUMPDEST SWAP8 SWAP7 POP POP POP POP POP POP POP JUMP JUMPDEST PUSH1 0x0 PUSH1 0x20 DUP3 ADD SWAP1 POP PUSH2 0x10A2 PUSH1 0x0 DUP4 ADD DUP5 PUSH2 0x1016 JUMP JUMPDEST SWAP3 SWAP2 POP POP JUMP JUMPDEST PUSH32 0x4465736372697074696F6E207265717569726564000000000000000000000000 PUSH1 0x0 DUP3 ADD MSTORE POP JUMP JUMPDEST PUSH1 0x0 PUSH2 0x10DE PUSH1 0x14 DUP4 PUSH2 0xFA2 JUMP JUMPDEST SWAP2 POP PUSH2 0x10E9 DUP3 PUSH2 0x10A8 JUMP JUMPDEST PUSH1 0x20 DUP3 ADD SWAP1 POP SWAP2 SWAP1 POP JUMP JUMPDEST PUSH1 0x0 PUSH1 0x20 DUP3 ADD SWAP1 POP DUP2 DUP2 SUB PUSH1 0x0 DUP4 ADD MSTORE PUSH2 0x110D DUP2 PUSH2 0x10D1 JUMP JUMPDEST SWAP1 POP SWAP2 SWAP1 POP JUMP JUMPDEST PUSH32 0x446561646C696E65206D75737420626520696E20746865206675747572650000 PUSH1 0x0 DUP3 ADD MSTORE POP JUMP JUMPDEST PUSH1 0x0 PUSH2 0x114A PUSH1 0x1E DUP4 PUSH2 0xFA2 JUMP JUMPDEST SWAP2 POP PUSH2 0x1155 DUP3 PUSH2 0x1114 JUMP JUMPDEST PUSH1 0x20 DUP3 ADD SWAP1 POP SWAP2 SWAP1 POP JUMP JUMPDEST PUSH1 0x0 PUSH1 0x20 DUP3 ADD SWAP1 POP DUP2 DUP2 SUB PUSH1 0x0 DUP4 ADD MSTORE PUSH2 0x1179 DUP2 PUSH2 0x113D JUMP JUMPDEST SWAP1 POP SWAP2 SWAP1 POP JUMP JUMPDEST PUSH32 0x506C6564676520616D6F756E74206D7573742062652067726561746572207468 PUSH1 0x0 DUP3 ADD MSTORE PUSH32 0x616E207A65726F00000000000000000000000000000000000000000000000000 PUSH1 0x20 DUP3 ADD MSTORE POP JUMP JUMPDEST PUSH1 0x0 PUSH2 0x11DC PUSH1 0x27 DUP4 PUSH2 0xFA2 JUMP JUMPDEST SWAP2 POP PUSH2 0x11E7 DUP3 PUSH2 0x1180 JUMP JUMPDEST PUSH1 0x40 DUP3 ADD SWAP1 POP SWAP2 SWAP1 POP JUMP JUMPDEST PUSH1 0x0 PUSH1 0x20 DUP3 ADD SWAP1 POP DUP2 DUP2 SUB PUSH1 0x0 DUP4 ADD MSTORE PUSH2 0x120B DUP2 PUSH2 0x11CF JUMP JUMPDEST SWAP1 POP SWAP2 SWAP1 POP JUMP JUMPDEST PUSH32 0x43686172697479206E6F7420617070726F766564000000000000000000000000 PUSH1 0x0 DUP3 ADD MSTORE POP JUMP JUMPDEST PUSH1 0x0 PUSH2 0x1248 PUSH1 0x14 DUP4 PUSH2 0xFA2 JUMP JUMPDEST SWAP2 POP PUSH2 0x1253 DUP3 PUSH2 0x1212 JUMP JUMPDEST PUSH1 0x20 DUP3 ADD SWAP1 POP SWAP2 SWAP1 POP JUMP JUMPDEST PUSH1 0x0 PUSH1 0x20 DUP3 ADD SWAP1 POP DUP2 DUP2 SUB PUSH1 0x0 DUP4 ADD MSTORE PUSH2 0x1277 DUP2 PUSH2 0x123B JUMP JUMPDEST SWAP1 POP SWAP2 SWAP1 POP JUMP JUMPDEST PUSH32 0x4E487B7100000000000000000000000000000000000000000000000000000000 PUSH1 0x0 MSTORE PUSH1 0x11 PUSH1 0x4 MSTORE PUSH1 0x24 PUSH1 0x0 REVERT JUMPDEST PUSH1 0x0 PUSH2 0x12B8 DUP3 PUSH2 0xDDA JUMP JUMPDEST SWAP2 POP PUSH32 0xFFFFFFFFFFFFFFFFFFFFFFFFFFFFFFFFFFFFFFFFFFFFFFFFFFFFFFFFFFFFFFFF DUP3 SUB PUSH2 0x12EA JUMPI PUSH2 0x12E9 PUSH2 0x127E JUMP JUMPDEST JUMPDEST PUSH1 0x1 DUP3 ADD SWAP1 POP SWAP2 SWAP1 POP JUMP JUMPDEST PUSH32 0x4E487B7100000000000000000000000000000000000000000000000000000000 PUSH1 0x0 MSTORE PUSH1 0x22 PUSH1 0x4 MSTORE PUSH1 0x24 PUSH1 0x0 REVERT JUMPDEST PUSH1 0x0 PUSH1 0x2 DUP3 DIV SWAP1 POP PUSH1 0x1 DUP3 AND DUP1 PUSH2 0x133C JUMPI PUSH1 0x7F DUP3 AND SWAP2 POP JUMPDEST PUSH1 0x20 DUP3 LT DUP2 SUB PUSH2 0x134F JUMPI PUSH2 0x134E PUSH2 0x12F5 JUMP JUMPDEST JUMPDEST POP SWAP2 SWAP1 POP JUMP JUMPDEST PUSH1 0x0 DUP2 SWAP1 POP DUP2 PUSH1 0x0 MSTORE PUSH1 0x20 PUSH1 0x0 KECCAK256 SWAP1 POP SWAP2 SWAP1 POP JUMP JUMPDEST PUSH1 0x0 PUSH1 0x20 PUSH1 0x1F DUP4 ADD DIV SWAP1 POP SWAP2 SWAP1 POP JUMP JUMPDEST PUSH1 0x0 DUP3 DUP3 SHL SWAP1 POP SWAP3 SWAP2 POP POP JUMP JUMPDEST PUSH1 0x0 PUSH1 0x8 DUP4 MUL PUSH2 0x13B7 PUSH32 0xFFFFFFFFFFFFFFFFFFFFFFFFFFFFFFFFFFFFFFFFFFFFFFFFFFFFFFFFFFFFFFFF DUP3 PUSH2 0x137A JUMP JUMPDEST PUSH2 0x13C1 DUP7 DUP4 PUSH2 0x137A JUMP JUMPDEST SWAP6 POP DUP1 NOT DUP5 AND SWAP4 POP DUP1 DUP7 AND DUP5 OR SWAP3 POP POP POP SWAP4 SWAP3 POP POP POP JUMP JUMPDEST PUSH1 0x0 DUP2 SWAP1 POP SWAP2 SWAP1 POP JUMP JUMPDEST PUSH1 0x0 PUSH2 0x13FE PUSH2 0x13F9 PUSH2 0x13F4 DUP5 PUSH2 0xDDA JUMP JUMPDEST PUSH2 0x13D9 JUMP JUMPDEST PUSH2 0xDDA JUMP JUMPDEST SWAP1 POP SWAP2 SWAP1 POP JUMP JUMPDEST PUSH1 0x0 DUP2 SWAP1 POP SWAP2 SWAP1 POP JUMP JUMPDEST PUSH2 0x1418 DUP4 PUSH2 0x13E3 JUMP JUMPDEST PUSH2 0x142C PUSH2 0x1424 DUP3 PUSH2 0x1405 JUMP JUMPDEST DUP5 DUP5 SLOAD PUSH2 0x1387 JUMP JUMPDEST DUP3 SSTORE POP POP POP POP JUMP JUMPDEST PUSH1 0x0 SWAP1 JUMP JUMPDEST PUSH2 0x1441 PUSH2 0x1434 JUMP JUMPDEST PUSH2 0x144C DUP2 DUP5 DUP5 PUSH2 0x140F JUMP JUMPDEST POP POP POP JUMP JUMPDEST JUMPDEST DUP2 DUP2 LT ISZERO PUSH2 0x1470 JUMPI PUSH2 0x1465 PUSH1 0x0 DUP3 PUSH2 0x1439 JUMP JUMPDEST PUSH1 0x1 DUP2 ADD SWAP1 POP PUSH2 0x1452 JUMP JUMPDEST POP POP JUMP JUMPDEST PUSH1 0x1F DUP3 GT ISZERO PUSH2 0x14B5 JUMPI PUSH2 0x1486 DUP2 PUSH2 0x1355 JUMP JUMPDEST PUSH2 0x148F DUP5 PUSH2 0x136A JUMP JUMPDEST DUP2 ADD PUSH1 0x20 DUP6 LT ISZERO PUSH2 0x149E JUMPI DUP2 SWAP1 POP JUMPDEST PUSH2 0x14B2 PUSH2 0x14AA DUP6 PUSH2 0x136A JUMP JUMPDEST DUP4 ADD DUP3 PUSH2 0x1451 JUMP JUMPDEST POP POP JUMPDEST POP POP POP JUMP JUMPDEST PUSH1 0x0 DUP3 DUP3 SHR SWAP1 POP SWAP3 SWAP2 POP POP JUMP JUMPDEST PUSH1 0x0 PUSH2 0x14D8 PUSH1 0x0 NOT DUP5 PUSH1 0x8 MUL PUSH2 0x14BA JUMP JUMPDEST NOT DUP1 DUP4 AND SWAP2 POP POP SWAP3 SWAP2 POP POP JUMP JUMPDEST PUSH1 0x0 PUSH2 0x14F1 DUP4 DUP4 PUSH2 0x14C7 JUMP JUMPDEST SWAP2 POP DUP3 PUSH1 0x2 MUL DUP3 OR SWAP1 POP SWAP3 SWAP2 POP POP JUMP JUMPDEST PUSH2 0x150A DUP3 PUSH2 0xF97 JUMP JUMPDEST PUSH8 0xFFFFFFFFFFFFFFFF DUP2 GT ISZERO PUSH2 0x1523 JUMPI PUSH2 0x1522 PUSH2 0xCAF JUMP JUMPDEST JUMPDEST PUSH2 0x152D DUP3 SLOAD PUSH2 0x1324 JUMP JUMPDEST PUSH2 0x1538 DUP3 DUP3 DUP6 PUSH2 0x1474 JUMP JUMPDEST PUSH1 0x0 PUSH1 0x20 SWAP1 POP PUSH1 0x1F DUP4 GT PUSH1 0x1 DUP2 EQ PUSH2 0x156B JUMPI PUSH1 0x0 DUP5 ISZERO PUSH2 0x1559 JUMPI DUP3 DUP8 ADD MLOAD SWAP1 POP JUMPDEST PUSH2 0x1563 DUP6 DUP3 PUSH2 0x14E5 JUMP JUMPDEST DUP7 SSTORE POP PUSH2 0x15CB JUMP JUMPDEST PUSH1 0x1F NOT DUP5 AND PUSH2 0x1579 DUP7 PUSH2 0x1355 JUMP JUMPDEST PUSH1 0x0 JUMPDEST DUP3 DUP2 LT ISZERO PUSH2 0x15A1 JUMPI DUP5 DUP10 ADD MLOAD DUP3 SSTORE PUSH1 0x1 DUP3 ADD SWAP2 POP PUSH1 0x20 DUP6 ADD SWAP5 POP PUSH1 0x20 DUP2 ADD SWAP1 POP PUSH2 0x157C JUMP JUMPDEST DUP7 DUP4 LT ISZERO PUSH2 0x15BE JUMPI DUP5 DUP10 ADD MLOAD PUSH2 0x15BA PUSH1 0x1F DUP10 AND DUP3 PUSH2 0x14C7 JUMP JUMPDEST DUP4 SSTORE POP JUMPDEST PUSH1 0x1 PUSH1 0x2 DUP9 MUL ADD DUP9 SSTORE POP POP POP JUMPDEST POP POP POP POP POP POP JUMP JUMPDEST PUSH1 0x0 PUSH1 0x80 DUP3 ADD SWAP1 POP PUSH2 0x15E8 PUSH1 0x0 DUP4 ADD DUP8 PUSH2 0xF6D JUMP JUMPDEST PUSH2 0x15F5 PUSH1 0x20 DUP4 ADD DUP7 PUSH2 0x1016 JUMP JUMPDEST PUSH2 0x1602 PUSH1 0x40 DUP4 ADD DUP6 PUSH2 0xF6D JUMP JUMPDEST PUSH2 0x160F PUSH1 0x60 DUP4 ADD DUP5 PUSH2 0xF6D JUMP JUMPDEST SWAP6 SWAP5 POP POP POP POP POP JUMP JUMPDEST PUSH32 0x5461736B20646561646C696E65206E6F74207265616368656400000000000000 PUSH1 0x0 DUP3 ADD MSTORE POP JUMP JUMPDEST PUSH1 0x0 PUSH2 0x164E PUSH1 0x19 DUP4 PUSH2 0xFA2 JUMP JUMPDEST SWAP2 POP PUSH2 0x1659 DUP3 PUSH2 0x1618 JUMP JUMPDEST PUSH1 0x20 DUP3 ADD SWAP1 POP SWAP2 SWAP1 POP JUMP JUMPDEST PUSH1 0x0 PUSH1 0x20 DUP3 ADD SWAP1 POP DUP2 DUP2 SUB PUSH1 0x0 DUP4 ADD MSTORE PUSH2 0x167D DUP2 PUSH2 0x1641 JUMP JUMPDEST SWAP1 POP SWAP2 SWAP1 POP JUMP JUMPDEST PUSH32 0x5461736B20616C726561647920636F6D706C6574656400000000000000000000 PUSH1 0x0 DUP3 ADD MSTORE POP JUMP JUMPDEST PUSH1 0x0 PUSH2 0x16BA PUSH1 0x16 DUP4 PUSH2 0xFA2 JUMP JUMPDEST SWAP2 POP PUSH2 0x16C5 DUP3 PUSH2 0x1684 JUMP JUMPDEST PUSH1 0x20 DUP3 ADD SWAP1 POP SWAP2 SWAP1 POP JUMP JUMPDEST PUSH1 0x0 PUSH1 0x20 DUP3 ADD SWAP1 POP DUP2 DUP2 SUB PUSH1 0x0 DUP4 ADD MSTORE PUSH2 0x16E9 DUP2 PUSH2 0x16AD JUMP JUMPDEST SWAP1 POP SWAP2 SWAP1 POP JUMP JUMPDEST PUSH1 0x0 PUSH1 0x60 DUP3 ADD SWAP1 POP PUSH2 0x1705 PUSH1 0x0 DUP4 ADD DUP7 PUSH2 0xF6D JUMP JUMPDEST PUSH2 0x1712 PUSH1 0x20 DUP4 ADD DUP6 PUSH2 0x1016 JUMP JUMPDEST PUSH2 0x171F PUSH1 0x40 DUP4 ADD DUP5 PUSH2 0xF6D JUMP JUMPDEST SWAP5 SWAP4 POP POP POP POP JUMP JUMPDEST PUSH32 0x4F6E6C79206F776E65722063616E20706572666F726D20746869732061637469 PUSH1 0x0 DUP3 ADD MSTORE PUSH32 0x6F6E000000000000000000000000000000000000000000000000000000000000 PUSH1 0x20 DUP3 ADD MSTORE POP JUMP JUMPDEST PUSH1 0x0 PUSH2 0x1783 PUSH1 0x22 DUP4 PUSH2 0xFA2 JUMP JUMPDEST SWAP2 POP PUSH2 0x178E DUP3 PUSH2 0x1727 JUMP JUMPDEST PUSH1 0x40 DUP3 ADD SWAP1 POP SWAP2 SWAP1 POP JUMP JUMPDEST PUSH1 0x0 PUSH1 0x20 DUP3 ADD SWAP1 POP DUP2 DUP2 SUB PUSH1 0x0 DUP4 ADD MSTORE PUSH2 0x17B2 DUP2 PUSH2 0x1776 JUMP JUMPDEST SWAP1 POP SWAP2 SWAP1 POP JUMP JUMPDEST PUSH32 0x4E6F74207461736B2063726561746F7200000000000000000000000000000000 PUSH1 0x0 DUP3 ADD MSTORE POP JUMP JUMPDEST PUSH1 0x0 PUSH2 0x17EF PUSH1 0x10 DUP4 PUSH2 0xFA2 JUMP JUMPDEST SWAP2 POP PUSH2 0x17FA DUP3 PUSH2 0x17B9 JUMP JUMPDEST PUSH1 0x20 DUP3 ADD SWAP1 POP SWAP2 SWAP1 POP JUMP JUMPDEST PUSH1 0x0 PUSH1 0x20 DUP3 ADD SWAP1 POP DUP2 DUP2 SUB PUSH1 0x0 DUP4 ADD MSTORE PUSH2 0x181E DUP2 PUSH2 0x17E2 JUMP JUMPDEST SWAP1 POP SWAP2 SWAP1 POP JUMP JUMPDEST PUSH32 0x446561646C696E65207061737365640000000000000000000000000000000000 PUSH1 0x0 DUP3 ADD MSTORE POP JUMP JUMPDEST PUSH1 0x0 PUSH2 0x185B PUSH1 0xF DUP4 PUSH2 0xFA2 JUMP JUMPDEST SWAP2 POP PUSH2 0x1866 DUP3 PUSH2 0x1825 JUMP JUMPDEST PUSH1 0x20 DUP3 ADD SWAP1 POP SWAP2 SWAP1 POP JUMP JUMPDEST PUSH1 0x0 PUSH1 0x20 DUP3 ADD SWAP1 POP DUP2 DUP2 SUB PUSH1 0x0 DUP4 ADD MSTORE PUSH2 0x188A DUP2 PUSH2 0x184E JUMP JUMPDEST SWAP1 POP SWAP2 SWAP1 POP JUMP JUMPDEST PUSH1 0x0 PUSH1 0x40 DUP3 ADD SWAP1 POP PUSH2 0x18A6 PUSH1 0x0 DUP4 ADD DUP6 PUSH2 0xF6D JUMP JUMPDEST PUSH2 0x18B3 PUSH1 0x20 DUP4 ADD DUP5 PUSH2 0x1016 JUMP JUMPDEST SWAP4 SWAP3 POP POP POP JUMP INVALID LOG2 PUSH5 0x6970667358 0x22 SLT KECCAK256 DUP2 SELFBALANCE PREVRANDAO GASLIMIT 0xE2 SELFBALANCE 0x4C 0xD6 PUSH28 0xD7692C14BF3B1BC64471653DA8F147089936BE430B0CA64736F6C63 NUMBER STOP ADDMOD SHR STOP CALLER "
        },
        "methodIdentifiers": {
          "addCharity(address)": "78b14f0a",
          "approvedCharities(address)": "2571a74e",
          "checkTaskFailure(uint256)": "3c4c4ea1",
          "completeTask(uint256)": "e1e29558",
          "createTask(string,uint256,address)": "04270817",
          "owner()": "8da5cb5b",
          "removeCharity(address)": "abefe591",
          "taskCounter()": "58671730",
          "tasks(uint256)": "8d977672"
        }
      }
    }
  }
}