{
  "_format": "hh-sol-artifact-1",
  "contractName": "ScholarshipFund",
  "sourceName": "contracts/ScholarshipFund.sol",
  "abi": [
    {
      "inputs": [],
      "stateMutability": "nonpayable",
      "type": "constructor"
    },
    {
      "inputs": [
        {
          "internalType": "address",
          "name": "student",
          "type": "address"
        },
        {
          "internalType": "uint256",
          "name": "amount",
          "type": "uint256"
        }
      ],
      "name": "awardScholarship",
      "outputs": [],
      "stateMutability": "nonpayable",
      "type": "function"
    },
    {
      "inputs": [],
      "name": "donate",
      "outputs": [],
      "stateMutability": "payable",
      "type": "function"
    },
    {
      "inputs": [
        {
          "internalType": "address",
          "name": "",
          "type": "address"
        }
      ],
      "name": "donations",
      "outputs": [
        {
          "internalType": "uint256",
          "name": "",
          "type": "uint256"
        }
      ],
      "stateMutability": "view",
      "type": "function"
    },
    {
      "inputs": [
        {
          "internalType": "address",
          "name": "donor",
          "type": "address"
        }
      ],
      "name": "getDonation",
      "outputs": [
        {
          "internalType": "uint256",
          "name": "",
          "type": "uint256"
        }
      ],
      "stateMutability": "view",
      "type": "function"
    },
    {
      "inputs": [
        {
          "internalType": "address",
          "name": "student",
          "type": "address"
        }
      ],
      "name": "getScholarshipAmount",
      "outputs": [
        {
          "internalType": "uint256",
          "name": "",
          "type": "uint256"
        }
      ],
      "stateMutability": "view",
      "type": "function"
    },
    {
      "inputs": [],
      "name": "owner",
      "outputs": [
        {
          "internalType": "address",
          "name": "",
          "type": "address"
        }
      ],
      "stateMutability": "view",
      "type": "function"
    },
    {
      "inputs": [
        {
          "internalType": "address",
          "name": "",
          "type": "address"
        }
      ],
      "name": "scholarships",
      "outputs": [
        {
          "internalType": "uint256",
          "name": "",
          "type": "uint256"
        }
      ],
      "stateMutability": "view",
      "type": "function"
    },
    {
      "inputs": [],
      "name": "totalFunds",
      "outputs": [
        {
          "internalType": "uint256",
          "name": "",
          "type": "uint256"
        }
      ],
      "stateMutability": "view",
      "type": "function"
    },
    {
      "inputs": [],
      "name": "withdraw",
      "outputs": [],
      "stateMutability": "nonpayable",
      "type": "function"
    }
  ],
  "bytecode": "0x6080604052348015600f57600080fd5b50336000806101000a81548173ffffffffffffffffffffffffffffffffffffffff021916908373ffffffffffffffffffffffffffffffffffffffff160217905550610c1c8061005f6000396000f3fe6080604052600436106100865760003560e01c8063954dbd4711610059578063954dbd4714610147578063968ed60014610184578063cc6cb19a146101af578063ed88c68e146101ec578063efd4952f146101f657610086565b80633ccfd60b1461008b578063410a1d32146100a257806361062962146100df5780638da5cb5b1461011c575b600080fd5b34801561009757600080fd5b506100a061021f565b005b3480156100ae57600080fd5b506100c960048036038101906100c49190610799565b610359565b6040516100d691906107df565b60405180910390f35b3480156100eb57600080fd5b5061010660048036038101906101019190610799565b6103a2565b60405161011391906107df565b60405180910390f35b34801561012857600080fd5b506101316103ba565b60405161013e9190610809565b60405180910390f35b34801561015357600080fd5b5061016e60048036038101906101699190610799565b6103de565b60405161017b91906107df565b60405180910390f35b34801561019057600080fd5b50610199610427565b6040516101a691906107df565b60405180910390f35b3480156101bb57600080fd5b506101d660048036038101906101d19190610799565b61042d565b6040516101e391906107df565b60405180910390f35b6101f4610445565b005b34801561020257600080fd5b5061021d60048036038101906102189190610850565b6104f9565b005b60008054906101000a900473ffffffffffffffffffffffffffffffffffffffff1673ffffffffffffffffffffffffffffffffffffffff163373ffffffffffffffffffffffffffffffffffffffff16146102ad576040517f08c379a00000000000000000000000000000000000000000000000000000000081526004016102a4906108ed565b60405180910390fd5b600047116102f0576040517f08c379a00000000000000000000000000000000000000000000000000000000081526004016102e790610959565b60405180910390fd5b60008054906101000a900473ffffffffffffffffffffffffffffffffffffffff1673ffffffffffffffffffffffffffffffffffffffff166108fc479081150290604051600060405180830381858888f19350505050158015610356573d6000803e3d6000fd5b50565b6000600160008373ffffffffffffffffffffffffffffffffffffffff1673ffffffffffffffffffffffffffffffffffffffff168152602001908152602001600020549050919050565b60026020528060005260406000206000915090505481565b60008054906101000a900473ffffffffffffffffffffffffffffffffffffffff1681565b6000600260008373ffffffffffffffffffffffffffffffffffffffff1673ffffffffffffffffffffffffffffffffffffffff168152602001908152602001600020549050919050565b60035481565b60016020528060005260406000206000915090505481565b60003411610488576040517f08c379a000000000000000000000000000000000000000000000000000000000815260040161047f906109c5565b60405180910390fd5b34600160003373ffffffffffffffffffffffffffffffffffffffff1673ffffffffffffffffffffffffffffffffffffffff16815260200190815260200160002060008282546104d79190610a14565b9250508190555034600360008282546104f09190610a14565b92505081905550565b60008054906101000a900473ffffffffffffffffffffffffffffffffffffffff1673ffffffffffffffffffffffffffffffffffffffff163373ffffffffffffffffffffffffffffffffffffffff1614610587576040517f08c379a000000000000000000000000000000000000000000000000000000000815260040161057e906108ed565b60405180910390fd5b600073ffffffffffffffffffffffffffffffffffffffff168273ffffffffffffffffffffffffffffffffffffffff16036105f6576040517f08c379a00000000000000000000000000000000000000000000000000000000081526004016105ed90610a94565b60405180910390fd5b60008111610639576040517f08c379a000000000000000000000000000000000000000000000000000000000815260040161063090610b26565b60405180910390fd5b4781111561067c576040517f08c379a000000000000000000000000000000000000000000000000000000000815260040161067390610b92565b60405180910390fd5b80600260008473ffffffffffffffffffffffffffffffffffffffff1673ffffffffffffffffffffffffffffffffffffffff16815260200190815260200160002060008282546106cb9190610a14565b9250508190555080600360008282546106e49190610bb2565b925050819055508173ffffffffffffffffffffffffffffffffffffffff166108fc829081150290604051600060405180830381858888f19350505050158015610731573d6000803e3d6000fd5b505050565b600080fd5b600073ffffffffffffffffffffffffffffffffffffffff82169050919050565b60006107668261073b565b9050919050565b6107768161075b565b811461078157600080fd5b50565b6000813590506107938161076d565b92915050565b6000602082840312156107af576107ae610736565b5b60006107bd84828501610784565b91505092915050565b6000819050919050565b6107d9816107c6565b82525050565b60006020820190506107f460008301846107d0565b92915050565b6108038161075b565b82525050565b600060208201905061081e60008301846107fa565b92915050565b61082d816107c6565b811461083857600080fd5b50565b60008135905061084a81610824565b92915050565b6000806040838503121561086757610866610736565b5b600061087585828601610784565b92505060206108868582860161083b565b9150509250929050565b600082825260208201905092915050565b7f43616c6c6572206973206e6f7420746865206f776e6572000000000000000000600082015250565b60006108d7601783610890565b91506108e2826108a1565b602082019050919050565b60006020820190508181036000830152610906816108ca565b9050919050565b7f4e6f2066756e647320617661696c61626c650000000000000000000000000000600082015250565b6000610943601283610890565b915061094e8261090d565b602082019050919050565b6000602082019050818103600083015261097281610936565b9050919050565b7f446f6e6174696f6e206d7573742062652067726561746572207468616e203000600082015250565b60006109af601f83610890565b91506109ba82610979565b602082019050919050565b600060208201905081810360008301526109de816109a2565b9050919050565b7f4e487b7100000000000000000000000000000000000000000000000000000000600052601160045260246000fd5b6000610a1f826107c6565b9150610a2a836107c6565b9250828201905080821115610a4257610a416109e5565b5b92915050565b7f496e76616c69642073747564656e742061646472657373000000000000000000600082015250565b6000610a7e601783610890565b9150610a8982610a48565b602082019050919050565b60006020820190508181036000830152610aad81610a71565b9050919050565b7f5363686f6c61727368697020616d6f756e74206d75737420626520677265617460008201527f6572207468616e20300000000000000000000000000000000000000000000000602082015250565b6000610b10602983610890565b9150610b1b82610ab4565b604082019050919050565b60006020820190508181036000830152610b3f81610b03565b9050919050565b7f496e73756666696369656e742066756e647320696e20636f6e74726163740000600082015250565b6000610b7c601e83610890565b9150610b8782610b46565b602082019050919050565b60006020820190508181036000830152610bab81610b6f565b9050919050565b6000610bbd826107c6565b9150610bc8836107c6565b9250828203905081811115610be057610bdf6109e5565b5b9291505056fea2646970667358221220806b42207d97e2b289a5da79228a8511325ae84a3d323992890a0cd33273cf2f64736f6c634300081c0033",
  "linkReferences": {},
  "deployedLinkReferences": {}
}