{
  "_format": "hh-sol-artifact-1",
  "contractName": "SimpleFundraiser",
  "sourceName": "contracts/SimpleFundraiser.sol",
  "abi": [
    {
      "inputs": [
        {
          "internalType": "uint256",
          "name": "_goal",
          "type": "uint256"
        }
      ],
      "stateMutability": "nonpayable",
      "type": "constructor"
    },
    {
      "anonymous": false,
      "inputs": [
        {
          "indexed": true,
          "internalType": "address",
          "name": "donor",
          "type": "address"
        },
        {
          "indexed": false,
          "internalType": "uint256",
          "name": "amount",
          "type": "uint256"
        }
      ],
      "name": "DonationReceived",
      "type": "event"
    },
    {
      "anonymous": false,
      "inputs": [
        {
          "indexed": true,
          "internalType": "address",
          "name": "owner",
          "type": "address"
        },
        {
          "indexed": false,
          "internalType": "uint256",
          "name": "amount",
          "type": "uint256"
        }
      ],
      "name": "FundsWithdrawn",
      "type": "event"
    },
    {
      "inputs": [],
      "name": "donate",
      "outputs": [],
      "stateMutability": "payable",
      "type": "function"
    },
    {
      "inputs": [
        {
          "internalType": "address",
          "name": "",
          "type": "address"
        }
      ],
      "name": "donations",
      "outputs": [
        {
          "internalType": "uint256",
          "name": "",
          "type": "uint256"
        }
      ],
      "stateMutability": "view",
      "type": "function"
    },
    {
      "inputs": [],
      "name": "goal",
      "outputs": [
        {
          "internalType": "uint256",
          "name": "",
          "type": "uint256"
        }
      ],
      "stateMutability": "view",
      "type": "function"
    },
    {
      "inputs": [],
      "name": "owner",
      "outputs": [
        {
          "internalType": "address",
          "name": "",
          "type": "address"
        }
      ],
      "stateMutability": "view",
      "type": "function"
    },
    {
      "inputs": [],
      "name": "totalFunds",
      "outputs": [
        {
          "internalType": "uint256",
          "name": "",
          "type": "uint256"
        }
      ],
      "stateMutability": "view",
      "type": "function"
    },
    {
      "inputs": [],
      "name": "withdrawFunds",
      "outputs": [],
      "stateMutability": "nonpayable",
      "type": "function"
    }
  ],
  "bytecode": "0x608060405234801561001057600080fd5b50604051610943380380610943833981810160405281019061003291906100fd565b60008111610075576040517f08c379a000000000000000000000000000000000000000000000000000000000815260040161006c906101ad565b60405180910390fd5b336000806101000a81548173ffffffffffffffffffffffffffffffffffffffff021916908373ffffffffffffffffffffffffffffffffffffffff16021790555080600181905550506101cd565b600080fd5b6000819050919050565b6100da816100c7565b81146100e557600080fd5b50565b6000815190506100f7816100d1565b92915050565b600060208284031215610113576101126100c2565b5b6000610121848285016100e8565b91505092915050565b600082825260208201905092915050565b7f476f616c206d7573742062652067726561746572207468616e207a65726f207460008201527f6f20737461727420612066756e64726169736572000000000000000000000000602082015250565b600061019760348361012a565b91506101a28261013b565b604082019050919050565b600060208201905081810360008301526101c68161018a565b9050919050565b610767806101dc6000396000f3fe6080604052600436106100555760003560e01c806324600fc31461005a57806340193883146100715780638da5cb5b1461009c578063968ed600146100c7578063cc6cb19a146100f2578063ed88c68e1461012f575b600080fd5b34801561006657600080fd5b5061006f610139565b005b34801561007d57600080fd5b506100866102f5565b6040516100939190610458565b60405180910390f35b3480156100a857600080fd5b506100b16102fb565b6040516100be91906104b4565b60405180910390f35b3480156100d357600080fd5b506100dc61031f565b6040516100e99190610458565b60405180910390f35b3480156100fe57600080fd5b5061011960048036038101906101149190610500565b610325565b6040516101269190610458565b60405180910390f35b61013761033d565b005b60008054906101000a900473ffffffffffffffffffffffffffffffffffffffff1673ffffffffffffffffffffffffffffffffffffffff163373ffffffffffffffffffffffffffffffffffffffff16146101c7576040517f08c379a00000000000000000000000000000000000000000000000000000000081526004016101be906105b0565b60405180910390fd5b600154600254101561020e576040517f08c379a00000000000000000000000000000000000000000000000000000000081526004016102059061061c565b60405180910390fd5b60006002549050600060028190555060008054906101000a900473ffffffffffffffffffffffffffffffffffffffff1673ffffffffffffffffffffffffffffffffffffffff166108fc829081150290604051600060405180830381858888f19350505050158015610283573d6000803e3d6000fd5b5060008054906101000a900473ffffffffffffffffffffffffffffffffffffffff1673ffffffffffffffffffffffffffffffffffffffff167feaff4b37086828766ad3268786972c0cd24259d4c87a80f9d3963a3c3d999b0d826040516102ea9190610458565b60405180910390a250565b60015481565b60008054906101000a900473ffffffffffffffffffffffffffffffffffffffff1681565b60025481565b60036020528060005260406000206000915090505481565b60003411610380576040517f08c379a0000000000000000000000000000000000000000000000000000000008152600401610377906106ae565b60405180910390fd5b34600360003373ffffffffffffffffffffffffffffffffffffffff1673ffffffffffffffffffffffffffffffffffffffff16815260200190815260200160002060008282546103cf91906106fd565b9250508190555034600260008282546103e891906106fd565b925050819055503373ffffffffffffffffffffffffffffffffffffffff167f264f630d9efa0d07053a31163641d9fcc0adafc9d9e76f1c37c2ce3a558d2c52346040516104359190610458565b60405180910390a2565b6000819050919050565b6104528161043f565b82525050565b600060208201905061046d6000830184610449565b92915050565b600073ffffffffffffffffffffffffffffffffffffffff82169050919050565b600061049e82610473565b9050919050565b6104ae81610493565b82525050565b60006020820190506104c960008301846104a5565b92915050565b600080fd5b6104dd81610493565b81146104e857600080fd5b50565b6000813590506104fa816104d4565b92915050565b600060208284031215610516576105156104cf565b5b6000610524848285016104eb565b91505092915050565b600082825260208201905092915050565b7f4f6e6c79206f776e65722074686174206465706c6f796564207468652053432060008201527f63616e20706572666f726d207468697320616374696f6e000000000000000000602082015250565b600061059a60378361052d565b91506105a58261053e565b604082019050919050565b600060208201905081810360008301526105c98161058d565b9050919050565b7f46756e64696e6720676f616c206e6f74206d6574000000000000000000000000600082015250565b600061060660148361052d565b9150610611826105d0565b602082019050919050565b60006020820190508181036000830152610635816105f9565b9050919050565b7f446f6e6174696f6e206d7573742062652067726561746572207468616e207a6560008201527f726f000000000000000000000000000000000000000000000000000000000000602082015250565b600061069860228361052d565b91506106a38261063c565b604082019050919050565b600060208201905081810360008301526106c78161068b565b9050919050565b7f4e487b7100000000000000000000000000000000000000000000000000000000600052601160045260246000fd5b60006107088261043f565b91506107138361043f565b925082820190508082111561072b5761072a6106ce565b5b9291505056fea264697066735822122090680b57dd455ae6d2cc93d3b591c6b3b7e7c545fb18724c669f72d4cccaf4c964736f6c634300081c0033",
  "linkReferences": {},
  "deployedLinkReferences": {}
}