{
  "_format": "hh-sol-artifact-1",
  "contractName": "Freelancer",
  "sourceName": "contracts/Freelancer.sol",
  "abi": [
    {
      "inputs": [],
      "stateMutability": "nonpayable",
      "type": "constructor"
    },
    {
      "anonymous": false,
      "inputs": [
        {
          "indexed": false,
          "internalType": "uint256",
          "name": "jobId",
          "type": "uint256"
        },
        {
          "indexed": true,
          "internalType": "address",
          "name": "freelancer",
          "type": "address"
        }
      ],
      "name": "JobAssigned",
      "type": "event"
    },
    {
      "anonymous": false,
      "inputs": [
        {
          "indexed": false,
          "internalType": "uint256",
          "name": "jobId",
          "type": "uint256"
        },
        {
          "indexed": true,
          "internalType": "address",
          "name": "freelancer",
          "type": "address"
        }
      ],
      "name": "JobCompleted",
      "type": "event"
    },
    {
      "anonymous": false,
      "inputs": [
        {
          "indexed": false,
          "internalType": "uint256",
          "name": "jobId",
          "type": "uint256"
        },
        {
          "indexed": true,
          "internalType": "address",
          "name": "client",
          "type": "address"
        },
        {
          "indexed": false,
          "internalType": "string",
          "name": "description",
          "type": "string"
        },
        {
          "indexed": false,
          "internalType": "uint256",
          "name": "payment",
          "type": "uint256"
        }
      ],
      "name": "JobCreated",
      "type": "event"
    },
    {
      "inputs": [
        {
          "internalType": "uint256",
          "name": "_jobId",
          "type": "uint256"
        },
        {
          "internalType": "address payable",
          "name": "_freelancer",
          "type": "address"
        }
      ],
      "name": "assignFreelancer",
      "outputs": [],
      "stateMutability": "nonpayable",
      "type": "function"
    },
    {
      "inputs": [
        {
          "internalType": "address",
          "name": "",
          "type": "address"
        }
      ],
      "name": "balances",
      "outputs": [
        {
          "internalType": "uint256",
          "name": "",
          "type": "uint256"
        }
      ],
      "stateMutability": "view",
      "type": "function"
    },
    {
      "inputs": [
        {
          "internalType": "uint256",
          "name": "_jobId",
          "type": "uint256"
        }
      ],
      "name": "completeJob",
      "outputs": [],
      "stateMutability": "nonpayable",
      "type": "function"
    },
    {
      "inputs": [
        {
          "internalType": "string",
          "name": "_description",
          "type": "string"
        }
      ],
      "name": "createJob",
      "outputs": [],
      "stateMutability": "payable",
      "type": "function"
    },
    {
      "inputs": [],
      "name": "jobCount",
      "outputs": [
        {
          "internalType": "uint256",
          "name": "",
          "type": "uint256"
        }
      ],
      "stateMutability": "view",
      "type": "function"
    },
    {
      "inputs": [
        {
          "internalType": "uint256",
          "name": "",
          "type": "uint256"
        }
      ],
      "name": "jobs",
      "outputs": [
        {
          "internalType": "uint256",
          "name": "id",
          "type": "uint256"
        },
        {
          "internalType": "address",
          "name": "client",
          "type": "address"
        },
        {
          "internalType": "address payable",
          "name": "freelancer",
          "type": "address"
        },
        {
          "internalType": "string",
          "name": "description",
          "type": "string"
        },
        {
          "internalType": "uint256",
          "name": "payment",
          "type": "uint256"
        },
        {
          "internalType": "bool",
          "name": "completed",
          "type": "bool"
        }
      ],
      "stateMutability": "view",
      "type": "function"
    },
    {
      "inputs": [],
      "name": "owner",
      "outputs": [
        {
          "internalType": "address",
          "name": "",
          "type": "address"
        }
      ],
      "stateMutability": "view",
      "type": "function"
    }
  ],
  "bytecode": "0x608060405234801561001057600080fd5b5033600360006101000a81548173ffffffffffffffffffffffffffffffffffffffff021916908373ffffffffffffffffffffffffffffffffffffffff1602179055506113a9806100616000396000f3fe6080604052600436106100705760003560e01c80638da5cb5b1161004e5780638da5cb5b1461011f578063a1c0d32f1461014a578063aafa944e14610173578063c949756c1461018f57610070565b8063180aedf31461007557806327e235e3146100b75780634c5d8a0f146100f4575b600080fd5b34801561008157600080fd5b5061009c6004803603810190610097919061099a565b6101b8565b6040516100ae96959493929190610ae3565b60405180910390f35b3480156100c357600080fd5b506100de60048036038101906100d99190610b77565b6102c9565b6040516100eb9190610ba4565b60405180910390f35b34801561010057600080fd5b506101096102e1565b6040516101169190610ba4565b60405180910390f35b34801561012b57600080fd5b506101346102e7565b6040516101419190610bbf565b60405180910390f35b34801561015657600080fd5b50610171600480360381019061016c919061099a565b61030d565b005b61018d60048036038101906101889190610d0f565b61055f565b005b34801561019b57600080fd5b506101b660048036038101906101b19190610d84565b61075e565b005b60016020528060005260406000206000915090508060000154908060010160009054906101000a900473ffffffffffffffffffffffffffffffffffffffff16908060020160009054906101000a900473ffffffffffffffffffffffffffffffffffffffff169080600301805461022d90610df3565b80601f016020809104026020016040519081016040528092919081815260200182805461025990610df3565b80156102a65780601f1061027b576101008083540402835291602001916102a6565b820191906000526020600020905b81548152906001019060200180831161028957829003601f168201915b5050505050908060040154908060050160009054906101000a900460ff16905086565b60026020528060005260406000206000915090505481565b60005481565b600360009054906101000a900473ffffffffffffffffffffffffffffffffffffffff1681565b806001600082815260200190815260200160002060020160009054906101000a900473ffffffffffffffffffffffffffffffffffffffff1673ffffffffffffffffffffffffffffffffffffffff163373ffffffffffffffffffffffffffffffffffffffff16146103b2576040517f08c379a00000000000000000000000000000000000000000000000000000000081526004016103a990610e70565b60405180910390fd5b6001600083815260200190815260200160002060050160009054906101000a900460ff1615610416576040517f08c379a000000000000000000000000000000000000000000000000000000000815260040161040d90610edc565b60405180910390fd5b600180600084815260200190815260200160002060050160006101000a81548160ff0219169083151502179055506001600083815260200190815260200160002060020160009054906101000a900473ffffffffffffffffffffffffffffffffffffffff1673ffffffffffffffffffffffffffffffffffffffff166108fc60016000858152602001908152602001600020600401549081150290604051600060405180830381858888f193505050501580156104d6573d6000803e3d6000fd5b506001600083815260200190815260200160002060020160009054906101000a900473ffffffffffffffffffffffffffffffffffffffff1673ffffffffffffffffffffffffffffffffffffffff167f16a7286196330eaff0c7db2ec34ead9c6d2d023b356b62ee7ea644c842a84b67836040516105539190610ba4565b60405180910390a25050565b600034116105a2576040517f08c379a000000000000000000000000000000000000000000000000000000000815260040161059990610f48565b60405180910390fd5b6000808154809291906105b490610f97565b91905055506040518060c0016040528060005481526020013373ffffffffffffffffffffffffffffffffffffffff168152602001600073ffffffffffffffffffffffffffffffffffffffff1681526020018281526020013481526020016000151581525060016000805481526020019081526020016000206000820151816000015560208201518160010160006101000a81548173ffffffffffffffffffffffffffffffffffffffff021916908373ffffffffffffffffffffffffffffffffffffffff16021790555060408201518160020160006101000a81548173ffffffffffffffffffffffffffffffffffffffff021916908373ffffffffffffffffffffffffffffffffffffffff16021790555060608201518160030190816106d9919061118b565b506080820151816004015560a08201518160050160006101000a81548160ff0219169083151502179055509050503373ffffffffffffffffffffffffffffffffffffffff167fe2664ff85acbefce4793e83fe4a10e88680b3172a3e401c7946d7cfb8f19ebdb60005483346040516107539392919061125d565b60405180910390a250565b816001600082815260200190815260200160002060010160009054906101000a900473ffffffffffffffffffffffffffffffffffffffff1673ffffffffffffffffffffffffffffffffffffffff163373ffffffffffffffffffffffffffffffffffffffff1614610803576040517f08c379a00000000000000000000000000000000000000000000000000000000081526004016107fa906112e7565b60405180910390fd5b600073ffffffffffffffffffffffffffffffffffffffff166001600085815260200190815260200160002060020160009054906101000a900473ffffffffffffffffffffffffffffffffffffffff1673ffffffffffffffffffffffffffffffffffffffff16146108a8576040517f08c379a000000000000000000000000000000000000000000000000000000000815260040161089f90611353565b60405180910390fd5b816001600085815260200190815260200160002060020160006101000a81548173ffffffffffffffffffffffffffffffffffffffff021916908373ffffffffffffffffffffffffffffffffffffffff1602179055508173ffffffffffffffffffffffffffffffffffffffff167f3738a681a43a0b6a554742a08bae57e0215e8a774217dc2e7de6c9411b6d0ddc846040516109439190610ba4565b60405180910390a2505050565b6000604051905090565b600080fd5b600080fd5b6000819050919050565b61097781610964565b811461098257600080fd5b50565b6000813590506109948161096e565b92915050565b6000602082840312156109b0576109af61095a565b5b60006109be84828501610985565b91505092915050565b6109d081610964565b82525050565b600073ffffffffffffffffffffffffffffffffffffffff82169050919050565b6000610a01826109d6565b9050919050565b610a11816109f6565b82525050565b6000610a22826109d6565b9050919050565b610a3281610a17565b82525050565b600081519050919050565b600082825260208201905092915050565b60005b83811015610a72578082015181840152602081019050610a57565b60008484015250505050565b6000601f19601f8301169050919050565b6000610a9a82610a38565b610aa48185610a43565b9350610ab4818560208601610a54565b610abd81610a7e565b840191505092915050565b60008115159050919050565b610add81610ac8565b82525050565b600060c082019050610af860008301896109c7565b610b056020830188610a08565b610b126040830187610a29565b8181036060830152610b248186610a8f565b9050610b3360808301856109c7565b610b4060a0830184610ad4565b979650505050505050565b610b54816109f6565b8114610b5f57600080fd5b50565b600081359050610b7181610b4b565b92915050565b600060208284031215610b8d57610b8c61095a565b5b6000610b9b84828501610b62565b91505092915050565b6000602082019050610bb960008301846109c7565b92915050565b6000602082019050610bd46000830184610a08565b92915050565b600080fd5b600080fd5b7f4e487b7100000000000000000000000000000000000000000000000000000000600052604160045260246000fd5b610c1c82610a7e565b810181811067ffffffffffffffff82111715610c3b57610c3a610be4565b5b80604052505050565b6000610c4e610950565b9050610c5a8282610c13565b919050565b600067ffffffffffffffff821115610c7a57610c79610be4565b5b610c8382610a7e565b9050602081019050919050565b82818337600083830152505050565b6000610cb2610cad84610c5f565b610c44565b905082815260208101848484011115610cce57610ccd610bdf565b5b610cd9848285610c90565b509392505050565b600082601f830112610cf657610cf5610bda565b5b8135610d06848260208601610c9f565b91505092915050565b600060208284031215610d2557610d2461095a565b5b600082013567ffffffffffffffff811115610d4357610d4261095f565b5b610d4f84828501610ce1565b91505092915050565b610d6181610a17565b8114610d6c57600080fd5b50565b600081359050610d7e81610d58565b92915050565b60008060408385031215610d9b57610d9a61095a565b5b6000610da985828601610985565b9250506020610dba85828601610d6f565b9150509250929050565b7f4e487b7100000000000000000000000000000000000000000000000000000000600052602260045260246000fd5b60006002820490506001821680610e0b57607f821691505b602082108103610e1e57610e1d610dc4565b5b50919050565b7f4e6f74207468652061737369676e656420667265656c616e6365720000000000600082015250565b6000610e5a601b83610a43565b9150610e6582610e24565b602082019050919050565b60006020820190508181036000830152610e8981610e4d565b9050919050565b7f4a6f6220616c726561647920636f6d706c657465640000000000000000000000600082015250565b6000610ec6601583610a43565b9150610ed182610e90565b602082019050919050565b60006020820190508181036000830152610ef581610eb9565b9050919050565b7f5061796d656e74206d7573742062652067726561746572207468616e20300000600082015250565b6000610f32601e83610a43565b9150610f3d82610efc565b602082019050919050565b60006020820190508181036000830152610f6181610f25565b9050919050565b7f4e487b7100000000000000000000000000000000000000000000000000000000600052601160045260246000fd5b6000610fa282610964565b91507fffffffffffffffffffffffffffffffffffffffffffffffffffffffffffffffff8203610fd457610fd3610f68565b5b600182019050919050565b60008190508160005260206000209050919050565b60006020601f8301049050919050565b600082821b905092915050565b6000600883026110417fffffffffffffffffffffffffffffffffffffffffffffffffffffffffffffffff82611004565b61104b8683611004565b95508019841693508086168417925050509392505050565b6000819050919050565b600061108861108361107e84610964565b611063565b610964565b9050919050565b6000819050919050565b6110a28361106d565b6110b66110ae8261108f565b848454611011565b825550505050565b600090565b6110cb6110be565b6110d6818484611099565b505050565b5b818110156110fa576110ef6000826110c3565b6001810190506110dc565b5050565b601f82111561113f5761111081610fdf565b61111984610ff4565b81016020851015611128578190505b61113c61113485610ff4565b8301826110db565b50505b505050565b600082821c905092915050565b600061116260001984600802611144565b1980831691505092915050565b600061117b8383611151565b9150826002028217905092915050565b61119482610a38565b67ffffffffffffffff8111156111ad576111ac610be4565b5b6111b78254610df3565b6111c28282856110fe565b600060209050601f8311600181146111f557600084156111e3578287015190505b6111ed858261116f565b865550611255565b601f19841661120386610fdf565b60005b8281101561122b57848901518255600182019150602085019450602081019050611206565b868310156112485784890151611244601f891682611151565b8355505b6001600288020188555050505b505050505050565b600060608201905061127260008301866109c7565b81810360208301526112848185610a8f565b905061129360408301846109c7565b949350505050565b7f4e6f7420746865206a6f62206f776e6572000000000000000000000000000000600082015250565b60006112d1601183610a43565b91506112dc8261129b565b602082019050919050565b60006020820190508181036000830152611300816112c4565b9050919050565b7f467265656c616e63657220616c72656164792061737369676e65640000000000600082015250565b600061133d601b83610a43565b915061134882611307565b602082019050919050565b6000602082019050818103600083015261136c81611330565b905091905056fea2646970667358221220f569bf99e83df823bc864eed2761122f8d06fcf2503dadab19cb5e930a5d2a6564736f6c63430008140033",
  "linkReferences": {},
  "deployedLinkReferences": {}
}