{
  "_format": "hh-sol-artifact-1",
  "contractName": "FoodOrdering",
  "sourceName": "contracts/FoodOrdering.sol",
  "abi": [
    {
      "inputs": [
        {
          "internalType": "address",
          "name": "_owner",
          "type": "address"
        }
      ],
      "stateMutability": "nonpayable",
      "type": "constructor"
    },
    {
      "inputs": [
        {
          "internalType": "uint256",
          "name": "id",
          "type": "uint256"
        }
      ],
      "name": "confirmOrder",
      "outputs": [],
      "stateMutability": "nonpayable",
      "type": "function"
    },
    {
      "inputs": [
        {
          "internalType": "uint256",
          "name": "_id",
          "type": "uint256"
        },
        {
          "internalType": "string",
          "name": "_name",
          "type": "string"
        },
        {
          "internalType": "uint256",
          "name": "_price",
          "type": "uint256"
        },
        {
          "internalType": "address",
          "name": "_customerAddress",
          "type": "address"
        }
      ],
      "name": "createOrder",
      "outputs": [],
      "stateMutability": "nonpayable",
      "type": "function"
    },
    {
      "inputs": [
        {
          "internalType": "uint256",
          "name": "",
          "type": "uint256"
        }
      ],
      "name": "details",
      "outputs": [
        {
          "internalType": "uint256",
          "name": "id",
          "type": "uint256"
        },
        {
          "internalType": "string",
          "name": "name",
          "type": "string"
        },
        {
          "internalType": "bool",
          "name": "ordered",
          "type": "bool"
        },
        {
          "internalType": "uint256",
          "name": "price",
          "type": "uint256"
        },
        {
          "internalType": "address",
          "name": "customerAddress",
          "type": "address"
        },
        {
          "internalType": "uint256",
          "name": "quantity",
          "type": "uint256"
        }
      ],
      "stateMutability": "view",
      "type": "function"
    },
    {
      "inputs": [
        {
          "internalType": "uint256",
          "name": "id",
          "type": "uint256"
        },
        {
          "internalType": "string",
          "name": "updateFood",
          "type": "string"
        },
        {
          "internalType": "uint256",
          "name": "updatePrice",
          "type": "uint256"
        },
        {
          "internalType": "uint256",
          "name": "updateQuantity",
          "type": "uint256"
        }
      ],
      "name": "updateOrder",
      "outputs": [],
      "stateMutability": "nonpayable",
      "type": "function"
    },
    {
      "inputs": [
        {
          "internalType": "uint256",
          "name": "",
          "type": "uint256"
        }
      ],
      "name": "updated",
      "outputs": [
        {
          "internalType": "bool",
          "name": "",
          "type": "bool"
        }
      ],
      "stateMutability": "view",
      "type": "function"
    }
  ],
  "bytecode": "0x608060405234801561001057600080fd5b50604051610f74380380610f74833981810160405281019061003291906100db565b806000806101000a81548173ffffffffffffffffffffffffffffffffffffffff021916908373ffffffffffffffffffffffffffffffffffffffff16021790555050610108565b600080fd5b600073ffffffffffffffffffffffffffffffffffffffff82169050919050565b60006100a88261007d565b9050919050565b6100b88161009d565b81146100c357600080fd5b50565b6000815190506100d5816100af565b92915050565b6000602082840312156100f1576100f0610078565b5b60006100ff848285016100c6565b91505092915050565b610e5d806101176000396000f3fe608060405234801561001057600080fd5b50600436106100575760003560e01c80630608d8a81461005c57806335e25f79146100785780638ac7d79c14610094578063a005ec7a146100b0578063bbfad256146100e5575b600080fd5b61007660048036038101906100719190610965565b610115565b005b610092600480360381019061008d9190610a46565b610296565b005b6100ae60048036038101906100a99190610ac9565b6104b0565b005b6100ca60048036038101906100c59190610ac9565b610611565b6040516100dc96959493929190610bb7565b60405180910390f35b6100ff60048036038101906100fa9190610ac9565b610712565b60405161010c9190610c1f565b60405180910390f35b600073ffffffffffffffffffffffffffffffffffffffff163373ffffffffffffffffffffffffffffffffffffffff161415610185576040517f08c379a000000000000000000000000000000000000000000000000000000000815260040161017c90610c86565b60405180910390fd5b60008054906101000a900473ffffffffffffffffffffffffffffffffffffffff1673ffffffffffffffffffffffffffffffffffffffff163373ffffffffffffffffffffffffffffffffffffffff1614610213576040517f08c379a000000000000000000000000000000000000000000000000000000000815260040161020a90610cf2565b60405180910390fd5b60006002858154811061022957610228610d12565b5b9060005260206000209060060201905083816001019080519060200190610251929190610732565b50828160030181905550818160050181905550600180600087815260200190815260200160002060006101000a81548160ff0219169083151502179055505050505050565b600073ffffffffffffffffffffffffffffffffffffffff163373ffffffffffffffffffffffffffffffffffffffff161415610306576040517f08c379a00000000000000000000000000000000000000000000000000000000081526004016102fd90610c86565b60405180910390fd5b60008054906101000a900473ffffffffffffffffffffffffffffffffffffffff1673ffffffffffffffffffffffffffffffffffffffff163373ffffffffffffffffffffffffffffffffffffffff1614610394576040517f08c379a000000000000000000000000000000000000000000000000000000000815260040161038b90610cf2565b60405180910390fd5b60026040518060c001604052808681526020018581526020016000151581526020018481526020018373ffffffffffffffffffffffffffffffffffffffff1681526020016000815250908060018154018082558091505060019003906000526020600020906006020160009091909190915060008201518160000155602082015181600101908051906020019061042c929190610732565b5060408201518160020160006101000a81548160ff0219169083151502179055506060820151816003015560808201518160040160006101000a81548173ffffffffffffffffffffffffffffffffffffffff021916908373ffffffffffffffffffffffffffffffffffffffff16021790555060a08201518160050155505050505050565b600073ffffffffffffffffffffffffffffffffffffffff163373ffffffffffffffffffffffffffffffffffffffff161415610520576040517f08c379a000000000000000000000000000000000000000000000000000000000815260040161051790610c86565b60405180910390fd5b60008054906101000a900473ffffffffffffffffffffffffffffffffffffffff1673ffffffffffffffffffffffffffffffffffffffff163373ffffffffffffffffffffffffffffffffffffffff16146105ae576040517f08c379a00000000000000000000000000000000000000000000000000000000081526004016105a590610cf2565b60405180910390fd5b6000600282815481106105c4576105c3610d12565b5b9060005260206000209060060201905060018160020160006101000a81548160ff02191690831515021790555060018160050160008282546106069190610d70565b925050819055505050565b6002818154811061062157600080fd5b906000526020600020906006020160009150905080600001549080600101805461064a90610df5565b80601f016020809104026020016040519081016040528092919081815260200182805461067690610df5565b80156106c35780601f10610698576101008083540402835291602001916106c3565b820191906000526020600020905b8154815290600101906020018083116106a657829003601f168201915b5050505050908060020160009054906101000a900460ff16908060030154908060040160009054906101000a900473ffffffffffffffffffffffffffffffffffffffff16908060050154905086565b60016020528060005260406000206000915054906101000a900460ff1681565b82805461073e90610df5565b90600052602060002090601f01602090048101928261076057600085556107a7565b82601f1061077957805160ff19168380011785556107a7565b828001600101855582156107a7579182015b828111156107a657825182559160200191906001019061078b565b5b5090506107b491906107b8565b5090565b5b808211156107d15760008160009055506001016107b9565b5090565b6000604051905090565b600080fd5b600080fd5b6000819050919050565b6107fc816107e9565b811461080757600080fd5b50565b600081359050610819816107f3565b92915050565b600080fd5b600080fd5b6000601f19601f8301169050919050565b7f4e487b7100000000000000000000000000000000000000000000000000000000600052604160045260246000fd5b61087282610829565b810181811067ffffffffffffffff821117156108915761089061083a565b5b80604052505050565b60006108a46107d5565b90506108b08282610869565b919050565b600067ffffffffffffffff8211156108d0576108cf61083a565b5b6108d982610829565b9050602081019050919050565b82818337600083830152505050565b6000610908610903846108b5565b61089a565b90508281526020810184848401111561092457610923610824565b5b61092f8482856108e6565b509392505050565b600082601f83011261094c5761094b61081f565b5b813561095c8482602086016108f5565b91505092915050565b6000806000806080858703121561097f5761097e6107df565b5b600061098d8782880161080a565b945050602085013567ffffffffffffffff8111156109ae576109ad6107e4565b5b6109ba87828801610937565b93505060406109cb8782880161080a565b92505060606109dc8782880161080a565b91505092959194509250565b600073ffffffffffffffffffffffffffffffffffffffff82169050919050565b6000610a13826109e8565b9050919050565b610a2381610a08565b8114610a2e57600080fd5b50565b600081359050610a4081610a1a565b92915050565b60008060008060808587031215610a6057610a5f6107df565b5b6000610a6e8782880161080a565b945050602085013567ffffffffffffffff811115610a8f57610a8e6107e4565b5b610a9b87828801610937565b9350506040610aac8782880161080a565b9250506060610abd87828801610a31565b91505092959194509250565b600060208284031215610adf57610ade6107df565b5b6000610aed8482850161080a565b91505092915050565b610aff816107e9565b82525050565b600081519050919050565b600082825260208201905092915050565b60005b83811015610b3f578082015181840152602081019050610b24565b83811115610b4e576000848401525b50505050565b6000610b5f82610b05565b610b698185610b10565b9350610b79818560208601610b21565b610b8281610829565b840191505092915050565b60008115159050919050565b610ba281610b8d565b82525050565b610bb181610a08565b82525050565b600060c082019050610bcc6000830189610af6565b8181036020830152610bde8188610b54565b9050610bed6040830187610b99565b610bfa6060830186610af6565b610c076080830185610ba8565b610c1460a0830184610af6565b979650505050505050565b6000602082019050610c346000830184610b99565b92915050565b7f41646472657373206e6f742030206e6f7420616c6c6f77656400000000000000600082015250565b6000610c70601983610b10565b9150610c7b82610c3a565b602082019050919050565b60006020820190508181036000830152610c9f81610c63565b9050919050565b7f4f6761206e6f20626520796f752067657420616d210000000000000000000000600082015250565b6000610cdc601583610b10565b9150610ce782610ca6565b602082019050919050565b60006020820190508181036000830152610d0b81610ccf565b9050919050565b7f4e487b7100000000000000000000000000000000000000000000000000000000600052603260045260246000fd5b7f4e487b7100000000000000000000000000000000000000000000000000000000600052601160045260246000fd5b6000610d7b826107e9565b9150610d86836107e9565b9250827fffffffffffffffffffffffffffffffffffffffffffffffffffffffffffffffff03821115610dbb57610dba610d41565b5b828201905092915050565b7f4e487b7100000000000000000000000000000000000000000000000000000000600052602260045260246000fd5b60006002820490506001821680610e0d57607f821691505b60208210811415610e2157610e20610dc6565b5b5091905056fea26469706673582212206b54daaee033562fea668f5392c2b1fd83b7787d8fbcf48b5e5689f53dd8ba7864736f6c634300080c0033",
  "linkReferences": {},
  "deployedLinkReferences": {}
}