{
  "_format": "hh-sol-artifact-1",
  "contractName": "SupplyChainManagement",
  "sourceName": "contracts/SupplyChainManagement.sol",
  "abi": [
    {
      "inputs": [],
      "stateMutability": "nonpayable",
      "type": "constructor"
    },
    {
      "inputs": [],
      "name": "ContractPaused",
      "type": "error"
    },
    {
      "inputs": [],
      "name": "InvalidManufacturer",
      "type": "error"
    },
    {
      "inputs": [],
      "name": "InvalidProduct",
      "type": "error"
    },
    {
      "inputs": [],
      "name": "UnauthorizedAccess",
      "type": "error"
    },
    {
      "anonymous": false,
      "inputs": [
        {
          "indexed": true,
          "internalType": "address",
          "name": "manufacturer",
          "type": "address"
        }
      ],
      "name": "ManufacturerAdded",
      "type": "event"
    },
    {
      "anonymous": false,
      "inputs": [
        {
          "indexed": true,
          "internalType": "address",
          "name": "manufacturer",
          "type": "address"
        }
      ],
      "name": "ManufacturerRemoved",
      "type": "event"
    },
    {
      "anonymous": false,
      "inputs": [
        {
          "indexed": true,
          "internalType": "uint256",
          "name": "id",
          "type": "uint256"
        },
        {
          "indexed": false,
          "internalType": "string",
          "name": "name",
          "type": "string"
        },
        {
          "indexed": false,
          "internalType": "address",
          "name": "manufacturer",
          "type": "address"
        }
      ],
      "name": "ProductCreated",
      "type": "event"
    },
    {
      "anonymous": false,
      "inputs": [
        {
          "indexed": true,
          "internalType": "uint256",
          "name": "id",
          "type": "uint256"
        },
        {
          "indexed": false,
          "internalType": "enum SupplyChainManagement.Status",
          "name": "status",
          "type": "uint8"
        }
      ],
      "name": "ProductStatusUpdated",
      "type": "event"
    },
    {
      "inputs": [
        {
          "internalType": "address",
          "name": "_manufacturer",
          "type": "address"
        }
      ],
      "name": "addManufacturer",
      "outputs": [],
      "stateMutability": "nonpayable",
      "type": "function"
    },
    {
      "inputs": [],
      "name": "contractPaused",
      "outputs": [
        {
          "internalType": "bool",
          "name": "",
          "type": "bool"
        }
      ],
      "stateMutability": "view",
      "type": "function"
    },
    {
      "inputs": [
        {
          "internalType": "string",
          "name": "_name",
          "type": "string"
        },
        {
          "internalType": "uint256",
          "name": "_price",
          "type": "uint256"
        }
      ],
      "name": "createProduct",
      "outputs": [],
      "stateMutability": "nonpayable",
      "type": "function"
    },
    {
      "inputs": [
        {
          "internalType": "uint256",
          "name": "_productId",
          "type": "uint256"
        }
      ],
      "name": "getProduct",
      "outputs": [
        {
          "components": [
            {
              "internalType": "uint256",
              "name": "id",
              "type": "uint256"
            },
            {
              "internalType": "string",
              "name": "name",
              "type": "string"
            },
            {
              "internalType": "uint256",
              "name": "price",
              "type": "uint256"
            },
            {
              "internalType": "address",
              "name": "manufacturer",
              "type": "address"
            },
            {
              "internalType": "enum SupplyChainManagement.Status",
              "name": "status",
              "type": "uint8"
            },
            {
              "internalType": "uint256",
              "name": "timestamp",
              "type": "uint256"
            }
          ],
          "internalType": "struct SupplyChainManagement.Product",
          "name": "",
          "type": "tuple"
        }
      ],
      "stateMutability": "view",
      "type": "function"
    },
    {
      "inputs": [
        {
          "internalType": "address",
          "name": "_address",
          "type": "address"
        }
      ],
      "name": "isManufacturer",
      "outputs": [
        {
          "internalType": "bool",
          "name": "",
          "type": "bool"
        }
      ],
      "stateMutability": "view",
      "type": "function"
    },
    {
      "inputs": [
        {
          "internalType": "address",
          "name": "",
          "type": "address"
        }
      ],
      "name": "manufacturers",
      "outputs": [
        {
          "internalType": "bool",
          "name": "",
          "type": "bool"
        }
      ],
      "stateMutability": "view",
      "type": "function"
    },
    {
      "inputs": [],
      "name": "owner",
      "outputs": [
        {
          "internalType": "address",
          "name": "",
          "type": "address"
        }
      ],
      "stateMutability": "view",
      "type": "function"
    },
    {
      "inputs": [],
      "name": "productCount",
      "outputs": [
        {
          "internalType": "uint256",
          "name": "",
          "type": "uint256"
        }
      ],
      "stateMutability": "view",
      "type": "function"
    },
    {
      "inputs": [
        {
          "internalType": "address",
          "name": "",
          "type": "address"
        },
        {
          "internalType": "uint256",
          "name": "",
          "type": "uint256"
        }
      ],
      "name": "productOwnership",
      "outputs": [
        {
          "internalType": "bool",
          "name": "",
          "type": "bool"
        }
      ],
      "stateMutability": "view",
      "type": "function"
    },
    {
      "inputs": [
        {
          "internalType": "uint256",
          "name": "",
          "type": "uint256"
        }
      ],
      "name": "products",
      "outputs": [
        {
          "internalType": "uint256",
          "name": "id",
          "type": "uint256"
        },
        {
          "internalType": "string",
          "name": "name",
          "type": "string"
        },
        {
          "internalType": "uint256",
          "name": "price",
          "type": "uint256"
        },
        {
          "internalType": "address",
          "name": "manufacturer",
          "type": "address"
        },
        {
          "internalType": "enum SupplyChainManagement.Status",
          "name": "status",
          "type": "uint8"
        },
        {
          "internalType": "uint256",
          "name": "timestamp",
          "type": "uint256"
        }
      ],
      "stateMutability": "view",
      "type": "function"
    },
    {
      "inputs": [
        {
          "internalType": "address",
          "name": "_manufacturer",
          "type": "address"
        }
      ],
      "name": "removeManufacturer",
      "outputs": [],
      "stateMutability": "nonpayable",
      "type": "function"
    },
    {
      "inputs": [],
      "name": "toggleContractPause",
      "outputs": [],
      "stateMutability": "nonpayable",
      "type": "function"
    },
    {
      "inputs": [
        {
          "internalType": "uint256",
          "name": "_productId",
          "type": "uint256"
        },
        {
          "internalType": "enum SupplyChainManagement.Status",
          "name": "_status",
          "type": "uint8"
        }
      ],
      "name": "updateProductStatus",
      "outputs": [],
      "stateMutability": "nonpayable",
      "type": "function"
    }
  ],
  "bytecode": "0x6080604052348015600f57600080fd5b50336000806101000a81548173ffffffffffffffffffffffffffffffffffffffff021916908373ffffffffffffffffffffffffffffffffffffffff16021790555060006001819055506000600260006101000a81548160ff021916908315150217905550611ed3806100826000396000f3fe608060405234801561001057600080fd5b50600436106100cf5760003560e01c80638a67456a1161008c578063b9db15b411610066578063b9db15b414610203578063c67eb4f514610233578063e0f6ef8714610263578063e9300c6c14610281576100cf565b80638a67456a146101ab5780638da5cb5b146101c9578063920e2621146101e7576100cf565b806317d4a491146100d45780635f8a5afa146101045780636a75323f146101205780636b5eb09c1461013c5780637acc0b201461016c57806386f9c864146101a1575b600080fd5b6100ee60048036038101906100e991906111bc565b61029d565b6040516100fb9190611204565b60405180910390f35b61011e600480360381019061011991906111bc565b6102f3565b005b61013a600480360381019061013591906111bc565b610512565b005b610156600480360381019061015191906111bc565b6106c1565b6040516101639190611204565b60405180910390f35b61018660048036038101906101819190611255565b6106e1565b604051610198969594939291906113a7565b60405180910390f35b6101a96107d2565b005b6101b3610883565b6040516101c09190611204565b60405180910390f35b6101d1610896565b6040516101de919061140f565b60405180910390f35b61020160048036038101906101fc919061144f565b6108ba565b005b61021d60048036038101906102189190611255565b610bd1565b60405161022a919061158f565b60405180910390f35b61024d600480360381019061024891906115b1565b610d88565b60405161025a9190611204565b60405180910390f35b61026b610db7565b60405161027891906115f1565b60405180910390f35b61029b60048036038101906102969190611741565b610dbd565b005b6000600460008373ffffffffffffffffffffffffffffffffffffffff1673ffffffffffffffffffffffffffffffffffffffff16815260200190815260200160002060009054906101000a900460ff169050919050565b60008054906101000a900473ffffffffffffffffffffffffffffffffffffffff1673ffffffffffffffffffffffffffffffffffffffff163373ffffffffffffffffffffffffffffffffffffffff1614610378576040517f344fd58600000000000000000000000000000000000000000000000000000000815260040160405180910390fd5b600073ffffffffffffffffffffffffffffffffffffffff168173ffffffffffffffffffffffffffffffffffffffff16036103e7576040517f08c379a00000000000000000000000000000000000000000000000000000000081526004016103de906117e9565b60405180910390fd5b600460008273ffffffffffffffffffffffffffffffffffffffff1673ffffffffffffffffffffffffffffffffffffffff16815260200190815260200160002060009054906101000a900460ff1615610474576040517f08c379a000000000000000000000000000000000000000000000000000000000815260040161046b90611855565b60405180910390fd5b6001600460008373ffffffffffffffffffffffffffffffffffffffff1673ffffffffffffffffffffffffffffffffffffffff16815260200190815260200160002060006101000a81548160ff0219169083151502179055508073ffffffffffffffffffffffffffffffffffffffff167f561138658ca49a8540dc70dcfe64c9026c1c5b9344642242dd6562970f9c127860405160405180910390a250565b60008054906101000a900473ffffffffffffffffffffffffffffffffffffffff1673ffffffffffffffffffffffffffffffffffffffff163373ffffffffffffffffffffffffffffffffffffffff1614610597576040517f344fd58600000000000000000000000000000000000000000000000000000000815260040160405180910390fd5b600460008273ffffffffffffffffffffffffffffffffffffffff1673ffffffffffffffffffffffffffffffffffffffff16815260200190815260200160002060009054906101000a900460ff16610623576040517f08c379a000000000000000000000000000000000000000000000000000000000815260040161061a906118c1565b60405180910390fd5b6000600460008373ffffffffffffffffffffffffffffffffffffffff1673ffffffffffffffffffffffffffffffffffffffff16815260200190815260200160002060006101000a81548160ff0219169083151502179055508073ffffffffffffffffffffffffffffffffffffffff167f2fed5abf6a80d6dfe30b4895481b2fc5d7dce5f8f7b931832f4a2947d5040c7f60405160405180910390a250565b60046020528060005260406000206000915054906101000a900460ff1681565b600360205280600052604060002060009150905080600001549080600101805461070a90611910565b80601f016020809104026020016040519081016040528092919081815260200182805461073690611910565b80156107835780601f1061075857610100808354040283529160200191610783565b820191906000526020600020905b81548152906001019060200180831161076657829003601f168201915b5050505050908060020154908060030160009054906101000a900473ffffffffffffffffffffffffffffffffffffffff16908060030160149054906101000a900460ff16908060040154905086565b60008054906101000a900473ffffffffffffffffffffffffffffffffffffffff1673ffffffffffffffffffffffffffffffffffffffff163373ffffffffffffffffffffffffffffffffffffffff1614610857576040517f344fd58600000000000000000000000000000000000000000000000000000000815260040160405180910390fd5b600260009054906101000a900460ff1615600260006101000a81548160ff021916908315150217905550565b600260009054906101000a900460ff1681565b60008054906101000a900473ffffffffffffffffffffffffffffffffffffffff1681565b600460003373ffffffffffffffffffffffffffffffffffffffff1673ffffffffffffffffffffffffffffffffffffffff16815260200190815260200160002060009054906101000a900460ff1661093d576040517fae8a70ec00000000000000000000000000000000000000000000000000000000815260040160405180910390fd5b81600081148061094e575060015481115b15610985576040517fa661c0e700000000000000000000000000000000000000000000000000000000815260040160405180910390fd5b600260009054906101000a900460ff16156109cc576040517fab35696f00000000000000000000000000000000000000000000000000000000815260040160405180910390fd5b600560003373ffffffffffffffffffffffffffffffffffffffff1673ffffffffffffffffffffffffffffffffffffffff168152602001908152602001600020600084815260200190815260200160002060009054906101000a900460ff16610a69576040517f08c379a0000000000000000000000000000000000000000000000000000000008152600401610a609061198d565b60405180910390fd5b60006002811115610a7d57610a7c611330565b5b826002811115610a9057610a8f611330565b5b03610ad0576040517f08c379a0000000000000000000000000000000000000000000000000000000008152600401610ac7906119f9565b60405180910390fd5b6000600360008581526020019081526020016000209050826002811115610afa57610af9611330565b5b8160030160149054906101000a900460ff166002811115610b1e57610b1d611330565b5b03610b5e576040517f08c379a0000000000000000000000000000000000000000000000000000000008152600401610b5590611a65565b60405180910390fd5b828160030160146101000a81548160ff02191690836002811115610b8557610b84611330565b5b0217905550428160040181905550837fb8a3401adfc11253c3aff18e4b48103cec45c852b9afc487c23f32e26746242c84604051610bc39190611a85565b60405180910390a250505050565b610bd96110ec565b816000811480610bea575060015481115b15610c21576040517fa661c0e700000000000000000000000000000000000000000000000000000000815260040160405180910390fd5b600360008481526020019081526020016000206040518060c001604052908160008201548152602001600182018054610c5990611910565b80601f0160208091040260200160405190810160405280929190818152602001828054610c8590611910565b8015610cd25780601f10610ca757610100808354040283529160200191610cd2565b820191906000526020600020905b815481529060010190602001808311610cb557829003601f168201915b50505050508152602001600282015481526020016003820160009054906101000a900473ffffffffffffffffffffffffffffffffffffffff1673ffffffffffffffffffffffffffffffffffffffff1673ffffffffffffffffffffffffffffffffffffffff1681526020016003820160149054906101000a900460ff166002811115610d6057610d5f611330565b5b6002811115610d7257610d71611330565b5b8152602001600482015481525050915050919050565b60056020528160005260406000206020528060005260406000206000915091509054906101000a900460ff1681565b60015481565b600460003373ffffffffffffffffffffffffffffffffffffffff1673ffffffffffffffffffffffffffffffffffffffff16815260200190815260200160002060009054906101000a900460ff16610e40576040517fae8a70ec00000000000000000000000000000000000000000000000000000000815260040160405180910390fd5b600260009054906101000a900460ff1615610e87576040517fab35696f00000000000000000000000000000000000000000000000000000000815260040160405180910390fd5b6000825111610ecb576040517f08c379a0000000000000000000000000000000000000000000000000000000008152600401610ec290611aec565b60405180910390fd5b60008111610f0e576040517f08c379a0000000000000000000000000000000000000000000000000000000008152600401610f0590611b58565b60405180910390fd5b60016000815480929190610f2190611ba7565b91905055506040518060c0016040528060015481526020018381526020018281526020013373ffffffffffffffffffffffffffffffffffffffff16815260200160006002811115610f7557610f74611330565b5b815260200142815250600360006001548152602001908152602001600020600082015181600001556020820151816001019081610fb29190611d9b565b506040820151816002015560608201518160030160006101000a81548173ffffffffffffffffffffffffffffffffffffffff021916908373ffffffffffffffffffffffffffffffffffffffff16021790555060808201518160030160146101000a81548160ff0219169083600281111561102f5761102e611330565b5b021790555060a082015181600401559050506001600560003373ffffffffffffffffffffffffffffffffffffffff1673ffffffffffffffffffffffffffffffffffffffff1681526020019081526020016000206000600154815260200190815260200160002060006101000a81548160ff0219169083151502179055506001547faf6ffb6277511513e7d579327cc1fc57f0266df2fb11a60b13487b8c9cd2c38883336040516110e0929190611e6d565b60405180910390a25050565b6040518060c00160405280600081526020016060815260200160008152602001600073ffffffffffffffffffffffffffffffffffffffff1681526020016000600281111561113d5761113c611330565b5b8152602001600081525090565b6000604051905090565b600080fd5b600080fd5b600073ffffffffffffffffffffffffffffffffffffffff82169050919050565b60006111898261115e565b9050919050565b6111998161117e565b81146111a457600080fd5b50565b6000813590506111b681611190565b92915050565b6000602082840312156111d2576111d1611154565b5b60006111e0848285016111a7565b91505092915050565b60008115159050919050565b6111fe816111e9565b82525050565b600060208201905061121960008301846111f5565b92915050565b6000819050919050565b6112328161121f565b811461123d57600080fd5b50565b60008135905061124f81611229565b92915050565b60006020828403121561126b5761126a611154565b5b600061127984828501611240565b91505092915050565b61128b8161121f565b82525050565b600081519050919050565b600082825260208201905092915050565b60005b838110156112cb5780820151818401526020810190506112b0565b60008484015250505050565b6000601f19601f8301169050919050565b60006112f382611291565b6112fd818561129c565b935061130d8185602086016112ad565b611316816112d7565b840191505092915050565b61132a8161117e565b82525050565b7f4e487b7100000000000000000000000000000000000000000000000000000000600052602160045260246000fd5b600381106113705761136f611330565b5b50565b60008190506113818261135f565b919050565b600061139182611373565b9050919050565b6113a181611386565b82525050565b600060c0820190506113bc6000830189611282565b81810360208301526113ce81886112e8565b90506113dd6040830187611282565b6113ea6060830186611321565b6113f76080830185611398565b61140460a0830184611282565b979650505050505050565b60006020820190506114246000830184611321565b92915050565b6003811061143757600080fd5b50565b6000813590506114498161142a565b92915050565b6000806040838503121561146657611465611154565b5b600061147485828601611240565b92505060206114858582860161143a565b9150509250929050565b6114988161121f565b82525050565b600082825260208201905092915050565b60006114ba82611291565b6114c4818561149e565b93506114d48185602086016112ad565b6114dd816112d7565b840191505092915050565b6114f18161117e565b82525050565b61150081611386565b82525050565b600060c08301600083015161151e600086018261148f565b506020830151848203602086015261153682826114af565b915050604083015161154b604086018261148f565b50606083015161155e60608601826114e8565b50608083015161157160808601826114f7565b5060a083015161158460a086018261148f565b508091505092915050565b600060208201905081810360008301526115a98184611506565b905092915050565b600080604083850312156115c8576115c7611154565b5b60006115d6858286016111a7565b92505060206115e785828601611240565b9150509250929050565b60006020820190506116066000830184611282565b92915050565b600080fd5b600080fd5b7f4e487b7100000000000000000000000000000000000000000000000000000000600052604160045260246000fd5b61164e826112d7565b810181811067ffffffffffffffff8211171561166d5761166c611616565b5b80604052505050565b600061168061114a565b905061168c8282611645565b919050565b600067ffffffffffffffff8211156116ac576116ab611616565b5b6116b5826112d7565b9050602081019050919050565b82818337600083830152505050565b60006116e46116df84611691565b611676565b905082815260208101848484011115611700576116ff611611565b5b61170b8482856116c2565b509392505050565b600082601f8301126117285761172761160c565b5b81356117388482602086016116d1565b91505092915050565b6000806040838503121561175857611757611154565b5b600083013567ffffffffffffffff81111561177657611775611159565b5b61178285828601611713565b925050602061179385828601611240565b9150509250929050565b7f496e76616c6964206d616e756661637475726572206164647265737300000000600082015250565b60006117d3601c8361129c565b91506117de8261179d565b602082019050919050565b60006020820190508181036000830152611802816117c6565b9050919050565b7f4d616e75666163747572657220616c7265616479206578697374730000000000600082015250565b600061183f601b8361129c565b915061184a82611809565b602082019050919050565b6000602082019050818103600083015261186e81611832565b9050919050565b7f4d616e75666163747572657220646f65736e2774206578697374000000000000600082015250565b60006118ab601a8361129c565b91506118b682611875565b602082019050919050565b600060208201905081810360008301526118da8161189e565b9050919050565b7f4e487b7100000000000000000000000000000000000000000000000000000000600052602260045260246000fd5b6000600282049050600182168061192857607f821691505b60208210810361193b5761193a6118e1565b5b50919050565b7f4e6f742070726f64756374206f776e6572000000000000000000000000000000600082015250565b600061197760118361129c565b915061198282611941565b602082019050919050565b600060208201905081810360008301526119a68161196a565b9050919050565b7f43616e6e6f742072657665727420746f20437265617465642073746174757300600082015250565b60006119e3601f8361129c565b91506119ee826119ad565b602082019050919050565b60006020820190508181036000830152611a12816119d6565b9050919050565b7f53746174757320616c7265616479207365740000000000000000000000000000600082015250565b6000611a4f60128361129c565b9150611a5a82611a19565b602082019050919050565b60006020820190508181036000830152611a7e81611a42565b9050919050565b6000602082019050611a9a6000830184611398565b92915050565b7f4e616d652063616e6e6f7420626520656d707479000000000000000000000000600082015250565b6000611ad660148361129c565b9150611ae182611aa0565b602082019050919050565b60006020820190508181036000830152611b0581611ac9565b9050919050565b7f5072696365206d7573742062652067726561746572207468616e207a65726f00600082015250565b6000611b42601f8361129c565b9150611b4d82611b0c565b602082019050919050565b60006020820190508181036000830152611b7181611b35565b9050919050565b7f4e487b7100000000000000000000000000000000000000000000000000000000600052601160045260246000fd5b6000611bb28261121f565b91507fffffffffffffffffffffffffffffffffffffffffffffffffffffffffffffffff8203611be457611be3611b78565b5b600182019050919050565b60008190508160005260206000209050919050565b60006020601f8301049050919050565b600082821b905092915050565b600060088302611c517fffffffffffffffffffffffffffffffffffffffffffffffffffffffffffffffff82611c14565b611c5b8683611c14565b95508019841693508086168417925050509392505050565b6000819050919050565b6000611c98611c93611c8e8461121f565b611c73565b61121f565b9050919050565b6000819050919050565b611cb283611c7d565b611cc6611cbe82611c9f565b848454611c21565b825550505050565b600090565b611cdb611cce565b611ce6818484611ca9565b505050565b5b81811015611d0a57611cff600082611cd3565b600181019050611cec565b5050565b601f821115611d4f57611d2081611bef565b611d2984611c04565b81016020851015611d38578190505b611d4c611d4485611c04565b830182611ceb565b50505b505050565b600082821c905092915050565b6000611d7260001984600802611d54565b1980831691505092915050565b6000611d8b8383611d61565b9150826002028217905092915050565b611da482611291565b67ffffffffffffffff811115611dbd57611dbc611616565b5b611dc78254611910565b611dd2828285611d0e565b600060209050601f831160018114611e055760008415611df3578287015190505b611dfd8582611d7f565b865550611e65565b601f198416611e1386611bef565b60005b82811015611e3b57848901518255600182019150602085019450602081019050611e16565b86831015611e585784890151611e54601f891682611d61565b8355505b6001600288020188555050505b505050505050565b60006040820190508181036000830152611e8781856112e8565b9050611e966020830184611321565b939250505056fea2646970667358221220b7055460c131e16d698dfdceccd7f620c551b2ae2cd875a141346ac71243866e64736f6c634300081c0033",
  "linkReferences": {},
  "deployedLinkReferences": {}
}