{
  "_format": "hh-sol-artifact-1",
  "contractName": "Dmystical",
  "sourceName": "contracts/Dmystical.sol",
  "abi": [
    {
      "inputs": [],
      "stateMutability": "nonpayable",
      "type": "constructor"
    },
    {
      "inputs": [
        {
          "internalType": "address",
          "name": "spender",
          "type": "address"
        },
        {
          "internalType": "uint256",
          "name": "allowance",
          "type": "uint256"
        },
        {
          "internalType": "uint256",
          "name": "needed",
          "type": "uint256"
        }
      ],
      "name": "ERC20InsufficientAllowance",
      "type": "error"
    },
    {
      "inputs": [
        {
          "internalType": "address",
          "name": "sender",
          "type": "address"
        },
        {
          "internalType": "uint256",
          "name": "balance",
          "type": "uint256"
        },
        {
          "internalType": "uint256",
          "name": "needed",
          "type": "uint256"
        }
      ],
      "name": "ERC20InsufficientBalance",
      "type": "error"
    },
    {
      "inputs": [
        {
          "internalType": "address",
          "name": "approver",
          "type": "address"
        }
      ],
      "name": "ERC20InvalidApprover",
      "type": "error"
    },
    {
      "inputs": [
        {
          "internalType": "address",
          "name": "receiver",
          "type": "address"
        }
      ],
      "name": "ERC20InvalidReceiver",
      "type": "error"
    },
    {
      "inputs": [
        {
          "internalType": "address",
          "name": "sender",
          "type": "address"
        }
      ],
      "name": "ERC20InvalidSender",
      "type": "error"
    },
    {
      "inputs": [
        {
          "internalType": "address",
          "name": "spender",
          "type": "address"
        }
      ],
      "name": "ERC20InvalidSpender",
      "type": "error"
    },
    {
      "anonymous": false,
      "inputs": [
        {
          "indexed": true,
          "internalType": "address",
          "name": "owner",
          "type": "address"
        },
        {
          "indexed": true,
          "internalType": "address",
          "name": "spender",
          "type": "address"
        },
        {
          "indexed": false,
          "internalType": "uint256",
          "name": "value",
          "type": "uint256"
        }
      ],
      "name": "Approval",
      "type": "event"
    },
    {
      "anonymous": false,
      "inputs": [
        {
          "indexed": true,
          "internalType": "address",
          "name": "from",
          "type": "address"
        },
        {
          "indexed": true,
          "internalType": "address",
          "name": "to",
          "type": "address"
        },
        {
          "indexed": false,
          "internalType": "uint256",
          "name": "value",
          "type": "uint256"
        }
      ],
      "name": "Transfer",
      "type": "event"
    },
    {
      "inputs": [
        {
          "internalType": "address",
          "name": "owner",
          "type": "address"
        },
        {
          "internalType": "address",
          "name": "spender",
          "type": "address"
        }
      ],
      "name": "allowance",
      "outputs": [
        {
          "internalType": "uint256",
          "name": "",
          "type": "uint256"
        }
      ],
      "stateMutability": "view",
      "type": "function"
    },
    {
      "inputs": [
        {
          "internalType": "address",
          "name": "spender",
          "type": "address"
        },
        {
          "internalType": "uint256",
          "name": "value",
          "type": "uint256"
        }
      ],
      "name": "approve",
      "outputs": [
        {
          "internalType": "bool",
          "name": "",
          "type": "bool"
        }
      ],
      "stateMutability": "nonpayable",
      "type": "function"
    },
    {
      "inputs": [
        {
          "internalType": "address",
          "name": "account",
          "type": "address"
        }
      ],
      "name": "balanceOf",
      "outputs": [
        {
          "internalType": "uint256",
          "name": "",
          "type": "uint256"
        }
      ],
      "stateMutability": "view",
      "type": "function"
    },
    {
      "inputs": [],
      "name": "decimals",
      "outputs": [
        {
          "internalType": "uint8",
          "name": "",
          "type": "uint8"
        }
      ],
      "stateMutability": "view",
      "type": "function"
    },
    {
      "inputs": [],
      "name": "initialSupply",
      "outputs": [
        {
          "internalType": "uint256",
          "name": "",
          "type": "uint256"
        }
      ],
      "stateMutability": "view",
      "type": "function"
    },
    {
      "inputs": [],
      "name": "name",
      "outputs": [
        {
          "internalType": "string",
          "name": "",
          "type": "string"
        }
      ],
      "stateMutability": "view",
      "type": "function"
    },
    {
      "inputs": [],
      "name": "symbol",
      "outputs": [
        {
          "internalType": "string",
          "name": "",
          "type": "string"
        }
      ],
      "stateMutability": "view",
      "type": "function"
    },
    {
      "inputs": [],
      "name": "totalSupply",
      "outputs": [
        {
          "internalType": "uint256",
          "name": "",
          "type": "uint256"
        }
      ],
      "stateMutability": "view",
      "type": "function"
    },
    {
      "inputs": [
        {
          "internalType": "address",
          "name": "to",
          "type": "address"
        },
        {
          "internalType": "uint256",
          "name": "value",
          "type": "uint256"
        }
      ],
      "name": "transfer",
      "outputs": [
        {
          "internalType": "bool",
          "name": "",
          "type": "bool"
        }
      ],
      "stateMutability": "nonpayable",
      "type": "function"
    },
    {
      "inputs": [
        {
          "internalType": "address",
          "name": "from",
          "type": "address"
        },
        {
          "internalType": "address",
          "name": "to",
          "type": "address"
        },
        {
          "internalType": "uint256",
          "name": "value",
          "type": "uint256"
        }
      ],
      "name": "transferFrom",
      "outputs": [
        {
          "internalType": "bool",
          "name": "",
          "type": "bool"
        }
      ],
      "stateMutability": "nonpayable",
      "type": "function"
    }
  ],
  "bytecode": "0x6080604052683635c9adc5dea0000060055534801561001d57600080fd5b506040518060400160405280600981526020017f446d7973746963616c00000000000000000000000000000000000000000000008152506040518060400160405280600381526020017f444d590000000000000000000000000000000000000000000000000000000000815250816003908161009991906105c0565b5080600490816100a991906105c0565b5050506100be336005546100c360201b60201c565b6107b2565b600073ffffffffffffffffffffffffffffffffffffffff168273ffffffffffffffffffffffffffffffffffffffff16036101355760006040517fec442f0500000000000000000000000000000000000000000000000000000000815260040161012c91906106d3565b60405180910390fd5b6101476000838361014b60201b60201c565b5050565b600073ffffffffffffffffffffffffffffffffffffffff168373ffffffffffffffffffffffffffffffffffffffff160361019d578060026000828254610191919061071d565b92505081905550610270565b60008060008573ffffffffffffffffffffffffffffffffffffffff1673ffffffffffffffffffffffffffffffffffffffff16815260200190815260200160002054905081811015610229578381836040517fe450d38c00000000000000000000000000000000000000000000000000000000815260040161022093929190610760565b60405180910390fd5b8181036000808673ffffffffffffffffffffffffffffffffffffffff1673ffffffffffffffffffffffffffffffffffffffff16815260200190815260200160002081905550505b600073ffffffffffffffffffffffffffffffffffffffff168273ffffffffffffffffffffffffffffffffffffffff16036102b95780600260008282540392505081905550610306565b806000808473ffffffffffffffffffffffffffffffffffffffff1673ffffffffffffffffffffffffffffffffffffffff168152602001908152602001600020600082825401925050819055505b8173ffffffffffffffffffffffffffffffffffffffff168373ffffffffffffffffffffffffffffffffffffffff167fddf252ad1be2c89b69c2b068fc378daa952ba7f163c4a11628f55a4df523b3ef836040516103639190610797565b60405180910390a3505050565b600081519050919050565b7f4e487b7100000000000000000000000000000000000000000000000000000000600052604160045260246000fd5b7f4e487b7100000000000000000000000000000000000000000000000000000000600052602260045260246000fd5b600060028204905060018216806103f157607f821691505b602082108103610404576104036103aa565b5b50919050565b60008190508160005260206000209050919050565b60006020601f8301049050919050565b600082821b905092915050565b60006008830261046c7fffffffffffffffffffffffffffffffffffffffffffffffffffffffffffffffff8261042f565b610476868361042f565b95508019841693508086168417925050509392505050565b6000819050919050565b6000819050919050565b60006104bd6104b86104b38461048e565b610498565b61048e565b9050919050565b6000819050919050565b6104d7836104a2565b6104eb6104e3826104c4565b84845461043c565b825550505050565b600090565b6105006104f3565b61050b8184846104ce565b505050565b5b8181101561052f576105246000826104f8565b600181019050610511565b5050565b601f821115610574576105458161040a565b61054e8461041f565b8101602085101561055d578190505b6105716105698561041f565b830182610510565b50505b505050565b600082821c905092915050565b600061059760001984600802610579565b1980831691505092915050565b60006105b08383610586565b9150826002028217905092915050565b6105c982610370565b67ffffffffffffffff8111156105e2576105e161037b565b5b6105ec82546103d9565b6105f7828285610533565b600060209050601f83116001811461062a5760008415610618578287015190505b61062285826105a4565b86555061068a565b601f1984166106388661040a565b60005b828110156106605784890151825560018201915060208501945060208101905061063b565b8683101561067d5784890151610679601f891682610586565b8355505b6001600288020188555050505b505050505050565b600073ffffffffffffffffffffffffffffffffffffffff82169050919050565b60006106bd82610692565b9050919050565b6106cd816106b2565b82525050565b60006020820190506106e860008301846106c4565b92915050565b7f4e487b7100000000000000000000000000000000000000000000000000000000600052601160045260246000fd5b60006107288261048e565b91506107338361048e565b925082820190508082111561074b5761074a6106ee565b5b92915050565b61075a8161048e565b82525050565b600060608201905061077560008301866106c4565b6107826020830185610751565b61078f6040830184610751565b949350505050565b60006020820190506107ac6000830184610751565b92915050565b610e85806107c16000396000f3fe608060405234801561001057600080fd5b506004361061009e5760003560e01c8063378dc3dc11610066578063378dc3dc1461015d57806370a082311461017b57806395d89b41146101ab578063a9059cbb146101c9578063dd62ed3e146101f95761009e565b806306fdde03146100a3578063095ea7b3146100c157806318160ddd146100f157806323b872dd1461010f578063313ce5671461013f575b600080fd5b6100ab610229565b6040516100b89190610ad9565b60405180910390f35b6100db60048036038101906100d69190610b94565b6102bb565b6040516100e89190610bef565b60405180910390f35b6100f96102de565b6040516101069190610c19565b60405180910390f35b61012960048036038101906101249190610c34565b6102e8565b6040516101369190610bef565b60405180910390f35b610147610317565b6040516101549190610ca3565b60405180910390f35b610165610320565b6040516101729190610c19565b60405180910390f35b61019560048036038101906101909190610cbe565b610326565b6040516101a29190610c19565b60405180910390f35b6101b361036e565b6040516101c09190610ad9565b60405180910390f35b6101e360048036038101906101de9190610b94565b610400565b6040516101f09190610bef565b60405180910390f35b610213600480360381019061020e9190610ceb565b610423565b6040516102209190610c19565b60405180910390f35b60606003805461023890610d5a565b80601f016020809104026020016040519081016040528092919081815260200182805461026490610d5a565b80156102b15780601f10610286576101008083540402835291602001916102b1565b820191906000526020600020905b81548152906001019060200180831161029457829003601f168201915b5050505050905090565b6000806102c66104aa565b90506102d38185856104b2565b600191505092915050565b6000600254905090565b6000806102f36104aa565b90506103008582856104c4565b61030b858585610559565b60019150509392505050565b60006012905090565b60055481565b60008060008373ffffffffffffffffffffffffffffffffffffffff1673ffffffffffffffffffffffffffffffffffffffff168152602001908152602001600020549050919050565b60606004805461037d90610d5a565b80601f01602080910402602001604051908101604052809291908181526020018280546103a990610d5a565b80156103f65780601f106103cb576101008083540402835291602001916103f6565b820191906000526020600020905b8154815290600101906020018083116103d957829003601f168201915b5050505050905090565b60008061040b6104aa565b9050610418818585610559565b600191505092915050565b6000600160008473ffffffffffffffffffffffffffffffffffffffff1673ffffffffffffffffffffffffffffffffffffffff16815260200190815260200160002060008373ffffffffffffffffffffffffffffffffffffffff1673ffffffffffffffffffffffffffffffffffffffff16815260200190815260200160002054905092915050565b600033905090565b6104bf838383600161064d565b505050565b60006104d08484610423565b90507fffffffffffffffffffffffffffffffffffffffffffffffffffffffffffffffff8110156105535781811015610543578281836040517ffb8f41b200000000000000000000000000000000000000000000000000000000815260040161053a93929190610d9a565b60405180910390fd5b6105528484848403600061064d565b5b50505050565b600073ffffffffffffffffffffffffffffffffffffffff168373ffffffffffffffffffffffffffffffffffffffff16036105cb5760006040517f96c6fd1e0000000000000000000000000000000000000000000000000000000081526004016105c29190610dd1565b60405180910390fd5b600073ffffffffffffffffffffffffffffffffffffffff168273ffffffffffffffffffffffffffffffffffffffff160361063d5760006040517fec442f050000000000000000000000000000000000000000000000000000000081526004016106349190610dd1565b60405180910390fd5b610648838383610824565b505050565b600073ffffffffffffffffffffffffffffffffffffffff168473ffffffffffffffffffffffffffffffffffffffff16036106bf5760006040517fe602df050000000000000000000000000000000000000000000000000000000081526004016106b69190610dd1565b60405180910390fd5b600073ffffffffffffffffffffffffffffffffffffffff168373ffffffffffffffffffffffffffffffffffffffff16036107315760006040517f94280d620000000000000000000000000000000000000000000000000000000081526004016107289190610dd1565b60405180910390fd5b81600160008673ffffffffffffffffffffffffffffffffffffffff1673ffffffffffffffffffffffffffffffffffffffff16815260200190815260200160002060008573ffffffffffffffffffffffffffffffffffffffff1673ffffffffffffffffffffffffffffffffffffffff16815260200190815260200160002081905550801561081e578273ffffffffffffffffffffffffffffffffffffffff168473ffffffffffffffffffffffffffffffffffffffff167f8c5be1e5ebec7d5bd14f71427d1e84f3dd0314c0f7b2291e5b200ac8c7c3b925846040516108159190610c19565b60405180910390a35b50505050565b600073ffffffffffffffffffffffffffffffffffffffff168373ffffffffffffffffffffffffffffffffffffffff160361087657806002600082825461086a9190610e1b565b92505081905550610949565b60008060008573ffffffffffffffffffffffffffffffffffffffff1673ffffffffffffffffffffffffffffffffffffffff16815260200190815260200160002054905081811015610902578381836040517fe450d38c0000000000000000000000000000000000000000000000000000000081526004016108f993929190610d9a565b60405180910390fd5b8181036000808673ffffffffffffffffffffffffffffffffffffffff1673ffffffffffffffffffffffffffffffffffffffff16815260200190815260200160002081905550505b600073ffffffffffffffffffffffffffffffffffffffff168273ffffffffffffffffffffffffffffffffffffffff160361099257806002600082825403925050819055506109df565b806000808473ffffffffffffffffffffffffffffffffffffffff1673ffffffffffffffffffffffffffffffffffffffff168152602001908152602001600020600082825401925050819055505b8173ffffffffffffffffffffffffffffffffffffffff168373ffffffffffffffffffffffffffffffffffffffff167fddf252ad1be2c89b69c2b068fc378daa952ba7f163c4a11628f55a4df523b3ef83604051610a3c9190610c19565b60405180910390a3505050565b600081519050919050565b600082825260208201905092915050565b60005b83811015610a83578082015181840152602081019050610a68565b60008484015250505050565b6000601f19601f8301169050919050565b6000610aab82610a49565b610ab58185610a54565b9350610ac5818560208601610a65565b610ace81610a8f565b840191505092915050565b60006020820190508181036000830152610af38184610aa0565b905092915050565b600080fd5b600073ffffffffffffffffffffffffffffffffffffffff82169050919050565b6000610b2b82610b00565b9050919050565b610b3b81610b20565b8114610b4657600080fd5b50565b600081359050610b5881610b32565b92915050565b6000819050919050565b610b7181610b5e565b8114610b7c57600080fd5b50565b600081359050610b8e81610b68565b92915050565b60008060408385031215610bab57610baa610afb565b5b6000610bb985828601610b49565b9250506020610bca85828601610b7f565b9150509250929050565b60008115159050919050565b610be981610bd4565b82525050565b6000602082019050610c046000830184610be0565b92915050565b610c1381610b5e565b82525050565b6000602082019050610c2e6000830184610c0a565b92915050565b600080600060608486031215610c4d57610c4c610afb565b5b6000610c5b86828701610b49565b9350506020610c6c86828701610b49565b9250506040610c7d86828701610b7f565b9150509250925092565b600060ff82169050919050565b610c9d81610c87565b82525050565b6000602082019050610cb86000830184610c94565b92915050565b600060208284031215610cd457610cd3610afb565b5b6000610ce284828501610b49565b91505092915050565b60008060408385031215610d0257610d01610afb565b5b6000610d1085828601610b49565b9250506020610d2185828601610b49565b9150509250929050565b7f4e487b7100000000000000000000000000000000000000000000000000000000600052602260045260246000fd5b60006002820490506001821680610d7257607f821691505b602082108103610d8557610d84610d2b565b5b50919050565b610d9481610b20565b82525050565b6000606082019050610daf6000830186610d8b565b610dbc6020830185610c0a565b610dc96040830184610c0a565b949350505050565b6000602082019050610de66000830184610d8b565b92915050565b7f4e487b7100000000000000000000000000000000000000000000000000000000600052601160045260246000fd5b6000610e2682610b5e565b9150610e3183610b5e565b9250828201905080821115610e4957610e48610dec565b5b9291505056fea2646970667358221220bc27c61275fb59334c6e1501a68a6b396f6b8bf96d231ff3e36a18e4ac21411464736f6c634300081c0033",
  "linkReferences": {},
  "deployedLinkReferences": {}
}