{
  "_format": "hh-sol-artifact-1",
  "contractName": "ExpenseTracker",
  "sourceName": "contracts/ExpenseTracker.sol",
  "abi": [
    {
      "anonymous": false,
      "inputs": [
        {
          "indexed": false,
          "internalType": "uint256",
          "name": "expenseId",
          "type": "uint256"
        },
        {
          "indexed": false,
          "internalType": "string",
          "name": "description",
          "type": "string"
        },
        {
          "indexed": false,
          "internalType": "uint256",
          "name": "amount",
          "type": "uint256"
        }
      ],
      "name": "ExpenseAdded",
      "type": "event"
    },
    {
      "anonymous": false,
      "inputs": [
        {
          "indexed": false,
          "internalType": "uint256",
          "name": "expenseId",
          "type": "uint256"
        }
      ],
      "name": "ExpenseDeleted",
      "type": "event"
    },
    {
      "anonymous": false,
      "inputs": [
        {
          "indexed": false,
          "internalType": "uint256",
          "name": "expenseId",
          "type": "uint256"
        }
      ],
      "name": "ExpensePaid",
      "type": "event"
    },
    {
      "anonymous": false,
      "inputs": [
        {
          "indexed": false,
          "internalType": "uint256",
          "name": "expenseId",
          "type": "uint256"
        },
        {
          "indexed": false,
          "internalType": "string",
          "name": "newDescription",
          "type": "string"
        },
        {
          "indexed": false,
          "internalType": "uint256",
          "name": "newAmount",
          "type": "uint256"
        }
      ],
      "name": "ExpenseUpdated",
      "type": "event"
    },
    {
      "inputs": [
        {
          "internalType": "string",
          "name": "_description",
          "type": "string"
        },
        {
          "internalType": "uint256",
          "name": "_amount",
          "type": "uint256"
        }
      ],
      "name": "addExpense",
      "outputs": [],
      "stateMutability": "nonpayable",
      "type": "function"
    },
    {
      "inputs": [
        {
          "internalType": "uint256",
          "name": "_expenseId",
          "type": "uint256"
        }
      ],
      "name": "deleteExpense",
      "outputs": [],
      "stateMutability": "nonpayable",
      "type": "function"
    },
    {
      "inputs": [
        {
          "internalType": "uint256",
          "name": "_expenseId",
          "type": "uint256"
        }
      ],
      "name": "getExpense",
      "outputs": [
        {
          "internalType": "uint256",
          "name": "",
          "type": "uint256"
        },
        {
          "internalType": "string",
          "name": "",
          "type": "string"
        },
        {
          "internalType": "uint256",
          "name": "",
          "type": "uint256"
        },
        {
          "internalType": "bool",
          "name": "",
          "type": "bool"
        }
      ],
      "stateMutability": "view",
      "type": "function"
    },
    {
      "inputs": [
        {
          "internalType": "uint256",
          "name": "_expenseId",
          "type": "uint256"
        }
      ],
      "name": "markAsPaid",
      "outputs": [],
      "stateMutability": "nonpayable",
      "type": "function"
    },
    {
      "inputs": [
        {
          "internalType": "uint256",
          "name": "_expenseId",
          "type": "uint256"
        },
        {
          "internalType": "string",
          "name": "_newDescription",
          "type": "string"
        },
        {
          "internalType": "uint256",
          "name": "_newAmount",
          "type": "uint256"
        }
      ],
      "name": "updateExpense",
      "outputs": [],
      "stateMutability": "nonpayable",
      "type": "function"
    }
  ],
  "bytecode": "0x6080604052348015600f57600080fd5b5061106a8061001f6000396000f3fe608060405234801561001057600080fd5b50600436106100575760003560e01c80630a46ae491461005c5780637021cafe14610078578063735e5db614610094578063a4df1f5a146100c7578063e0c33d33146100e3575b600080fd5b6100766004803603810190610071919061078e565b6100ff565b005b610092600480360381019061008d919061078e565b6101dc565b005b6100ae60048036038101906100a9919061078e565b610301565b6040516100be9493929190610875565b60405180910390f35b6100e160048036038101906100dc9190610926565b610468565b005b6100fd60048036038101906100f89190610986565b6105d1565b005b6000600160008381526020019081526020016000206000015403610158576040517f08c379a000000000000000000000000000000000000000000000000000000000815260040161014f90610a46565b60405180910390fd5b6001600082815260200190815260200160002060008082016000905560018201600061018491906106f1565b60028201600090556003820160006101000a81549060ff021916905550507fb858542f5049cb2e890e01440ab3c4c4daabe634e8c54ac42d4cf54125525ca3816040516101d19190610a66565b60405180910390a150565b6000600160008381526020019081526020016000206000015403610235576040517f08c379a000000000000000000000000000000000000000000000000000000000815260040161022c90610a46565b60405180910390fd5b6001600082815260200190815260200160002060030160009054906101000a900460ff1615610299576040517f08c379a000000000000000000000000000000000000000000000000000000000815260040161029090610acd565b60405180910390fd5b600180600083815260200190815260200160002060030160006101000a81548160ff0219169083151502179055507fab7ab2de7b232e2077ab95bba5b7d065363dc41cad0c5ee43f864b7c21ee3b67816040516102f69190610a66565b60405180910390a150565b600060606000806000600160008781526020019081526020016000206000015403610361576040517f08c379a000000000000000000000000000000000000000000000000000000000815260040161035890610a46565b60405180910390fd5b6000600160008781526020019081526020016000206040518060800160405290816000820154815260200160018201805461039b90610b1c565b80601f01602080910402602001604051908101604052809291908181526020018280546103c790610b1c565b80156104145780601f106103e957610100808354040283529160200191610414565b820191906000526020600020905b8154815290600101906020018083116103f757829003601f168201915b50505050508152602001600282015481526020016003820160009054906101000a900460ff161515151581525050905080600001518160200151826040015183606001519450945094509450509193509193565b600081116104ab576040517f08c379a00000000000000000000000000000000000000000000000000000000081526004016104a290610b99565b60405180910390fd5b6000808154809291906104bd90610be8565b91905055506040518060800160405280600054815260200184848080601f016020809104026020016040519081016040528093929190818152602001838380828437600081840152601f19601f82011690508083019250505050505050815260200182815260200160001515815250600160008054815260200190815260200160002060008201518160000155602082015181600101908161055f9190610e0b565b506040820151816002015560608201518160030160006101000a81548160ff0219169083151502179055509050507fbce9ef489acd9f3c7eeccba78a43cf50339d243308e1552aaf0e601f06a4ec526000548484846040516105c49493929190610f19565b60405180910390a1505050565b600060016000868152602001908152602001600020600001540361062a576040517f08c379a000000000000000000000000000000000000000000000000000000000815260040161062190610a46565b60405180910390fd5b6000811161066d576040517f08c379a000000000000000000000000000000000000000000000000000000000815260040161066490610b99565b60405180910390fd5b8282600160008781526020019081526020016000206001019182610692929190610f64565b508060016000868152602001908152602001600020600201819055507fb3142a32fe5f280871f7fe925877ad5e6fbd0ff960bedfe36b0ca2dcfa9c6138848484846040516106e39493929190610f19565b60405180910390a150505050565b5080546106fd90610b1c565b6000825580601f1061070f575061072e565b601f01602090049060005260206000209081019061072d9190610731565b5b50565b5b8082111561074a576000816000905550600101610732565b5090565b600080fd5b600080fd5b6000819050919050565b61076b81610758565b811461077657600080fd5b50565b60008135905061078881610762565b92915050565b6000602082840312156107a4576107a361074e565b5b60006107b284828501610779565b91505092915050565b6107c481610758565b82525050565b600081519050919050565b600082825260208201905092915050565b60005b838110156108045780820151818401526020810190506107e9565b60008484015250505050565b6000601f19601f8301169050919050565b600061082c826107ca565b61083681856107d5565b93506108468185602086016107e6565b61084f81610810565b840191505092915050565b60008115159050919050565b61086f8161085a565b82525050565b600060808201905061088a60008301876107bb565b818103602083015261089c8186610821565b90506108ab60408301856107bb565b6108b86060830184610866565b95945050505050565b600080fd5b600080fd5b600080fd5b60008083601f8401126108e6576108e56108c1565b5b8235905067ffffffffffffffff811115610903576109026108c6565b5b60208301915083600182028301111561091f5761091e6108cb565b5b9250929050565b60008060006040848603121561093f5761093e61074e565b5b600084013567ffffffffffffffff81111561095d5761095c610753565b5b610969868287016108d0565b9350935050602061097c86828701610779565b9150509250925092565b600080600080606085870312156109a05761099f61074e565b5b60006109ae87828801610779565b945050602085013567ffffffffffffffff8111156109cf576109ce610753565b5b6109db878288016108d0565b935093505060406109ee87828801610779565b91505092959194509250565b7f457870656e736520646f6573206e6f7420657869737400000000000000000000600082015250565b6000610a306016836107d5565b9150610a3b826109fa565b602082019050919050565b60006020820190508181036000830152610a5f81610a23565b9050919050565b6000602082019050610a7b60008301846107bb565b92915050565b7f457870656e736520697320616c72656164792070616964000000000000000000600082015250565b6000610ab76017836107d5565b9150610ac282610a81565b602082019050919050565b60006020820190508181036000830152610ae681610aaa565b9050919050565b7f4e487b7100000000000000000000000000000000000000000000000000000000600052602260045260246000fd5b60006002820490506001821680610b3457607f821691505b602082108103610b4757610b46610aed565b5b50919050565b7f416d6f756e74206d7573742062652067726561746572207468616e207a65726f600082015250565b6000610b836020836107d5565b9150610b8e82610b4d565b602082019050919050565b60006020820190508181036000830152610bb281610b76565b9050919050565b7f4e487b7100000000000000000000000000000000000000000000000000000000600052601160045260246000fd5b6000610bf382610758565b91507fffffffffffffffffffffffffffffffffffffffffffffffffffffffffffffffff8203610c2557610c24610bb9565b5b600182019050919050565b7f4e487b7100000000000000000000000000000000000000000000000000000000600052604160045260246000fd5b60008190508160005260206000209050919050565b60006020601f8301049050919050565b600082821b905092915050565b600060088302610cc17fffffffffffffffffffffffffffffffffffffffffffffffffffffffffffffffff82610c84565b610ccb8683610c84565b95508019841693508086168417925050509392505050565b6000819050919050565b6000610d08610d03610cfe84610758565b610ce3565b610758565b9050919050565b6000819050919050565b610d2283610ced565b610d36610d2e82610d0f565b848454610c91565b825550505050565b600090565b610d4b610d3e565b610d56818484610d19565b505050565b5b81811015610d7a57610d6f600082610d43565b600181019050610d5c565b5050565b601f821115610dbf57610d9081610c5f565b610d9984610c74565b81016020851015610da8578190505b610dbc610db485610c74565b830182610d5b565b50505b505050565b600082821c905092915050565b6000610de260001984600802610dc4565b1980831691505092915050565b6000610dfb8383610dd1565b9150826002028217905092915050565b610e14826107ca565b67ffffffffffffffff811115610e2d57610e2c610c30565b5b610e378254610b1c565b610e42828285610d7e565b600060209050601f831160018114610e755760008415610e63578287015190505b610e6d8582610def565b865550610ed5565b601f198416610e8386610c5f565b60005b82811015610eab57848901518255600182019150602085019450602081019050610e86565b86831015610ec85784890151610ec4601f891682610dd1565b8355505b6001600288020188555050505b505050505050565b82818337600083830152505050565b6000610ef883856107d5565b9350610f05838584610edd565b610f0e83610810565b840190509392505050565b6000606082019050610f2e60008301876107bb565b8181036020830152610f41818587610eec565b9050610f5060408301846107bb565b95945050505050565b600082905092915050565b610f6e8383610f59565b67ffffffffffffffff811115610f8757610f86610c30565b5b610f918254610b1c565b610f9c828285610d7e565b6000601f831160018114610fcb5760008415610fb9578287013590505b610fc38582610def565b86555061102b565b601f198416610fd986610c5f565b60005b8281101561100157848901358255600182019150602085019450602081019050610fdc565b8683101561101e578489013561101a601f891682610dd1565b8355505b6001600288020188555050505b5050505050505056fea2646970667358221220b3373e5bb3d77504019eefa83787fc8893b8c7de9c91ba789e480952ddd4746864736f6c634300081c0033",
  "linkReferences": {},
  "deployedLinkReferences": {}
}